:02000002D0002C
:1040000000400D00D8DA0D00000006000D0005018B
:0840100004019A080000000001
:04401800A0C20D0035
:1040200009480A49884208B505D0094A824202D0A7
:10403000121A07F06FFF0748074A0021121A07F00B
:1040400091FF014808BD00BF48E1032074D90D006D
:1040500080E2032080E20320F1E7032070B5074EE1
:10406000074C07F01BF9A41BA4080025A54200D1AA
:1040700070BD56F8043B98470135F7E738D10D007D
:1040800068D10D0001F070B908B501F013FEBDE86C
:10409000084007F0BBB804F06DB904F06BB904F048
:1040A00071B9000008B5034A00210C2003F0E6FFB7
:1040B000FEE700BF4D7D0D000078B0FA80F04009AA
:1040C00070470123037070477047006A0368DB681C
:1040D00018470000014B1A60704700BF88E10320B9
:1040E00003681847012A03D0022A03D00020704732
:1040F0000160FBE70B680360F8E70021072007F089
:1041000066B9000010B5054B1A7B054B044653F801
:10411000221006F0B6FB204610BD00BF1CE40320B1
:1041200048E1032010B503682F2B044604D9074A41
:1041300000210A2003F0A2FF23681F2B83BF03F096
:104140001F03034823604FF0A04010BD4D7D0D00BC
:104150000003005073B51C4B1C4C1D4D01221A70FE
:104160002378BFF35B8F13F0010F09D12046FFF7CF
:10417000A3FF28B103F01AFE28602046FFF7A1FF35
:104180002B6893F870305E012378BFF35B8FDB07F9
:1041900009D40E48FFF790FF28B103F007FE28600E
:1041A0000A48FFF78EFF2B6893F8713003F01F0366
:1041B000334301A80193FFF7B5FF019A0123934010
:1041C000C0F8083502B070BD10E4032080E203207F
:1041D00084E2032008B5044906F0A9FB18B1034B9B
:1041E00006221A70012008BDF8C20D0011E4032058
:1041F00010B5034B0360044602F0A6FF204610BD35
:10420000B0C80D0010B50446FFF7F2FF204610219C
:1042100007F09AF9204610BD10B5034B0360044621
:1042200003F09EFA204610BDCCC80D0010B5044620
:10423000FFF7F2FF2046382107F086F9204610BD2F
:10424000436913B183690C301847704713B50021D7
:104250000446084603F0E2FC0023204601A901932E
:1042600003F0F4FC019C0CB1012323710021012017
:1042700003F0D4FC2CB1236820469B6898470023A8
:10428000237102B010BD000008B50A4906F04FFBCB
:10429000002368B1084A0949136093605361536071
:1042A000074A0B611370074B01201870064B1870FA
:1042B00008BD00BFF8C20D0050E303201CE403203A
:1042C0007FE3032074E303204CE4032010B504468D
:1042D000006818B104F056F80023236010BD08B53B
:1042E000002003F0BFFF28B103F094FF80F001002D
:1042F000C0B208BD0120FCE70023042203F06ABF1E
:1043000030B585B00346144668460D469847029876
:10431000206004F02FF8286050B12268009907F05F
:10432000F9FD0024684606F061FA204605B030BD6C
:10433000004CF7E7FCFEFFFF0A4B10B50446036094
:1043400005F0E8F9214605F0E6FB06F017FF06F058
:1043500009FF2046044B40F8043B05F0C9FA20460B
:1043600010BD00BF98C80D0080C80D0010B50446F0
:10437000FFF7E2FF2046242107F0E6F8204610BDB3
:10438000002340681A46194603F0BCBF10B5836885
:10439000044613B1032201469847204610BD000091
:1043A00037B5134B036004468068C8B100256FF031
:1043B0000043CDE9003502212B462A4603F04EFC8E
:1043C000A068294603F09AFC237903F0FF0513B196
:1043D00003F01CFCF8E7A068294603F02FFCA56059
:1043E00004F10C00FFF7D2FF204603B030BD00BF40
:1043F0006CC80D0010B50446FFF7D2FF20461C2103
:1044000007F0A2F8204610BD38B5044620252A46FC
:10441000002107F0A7FD6571204638BDF8B5037D82
:1044200005460F4616468BB10368DB6883B19A8850
:10443000012A06D09B68F9E79B684BB19A88012A4C
:10444000FAD12BB19A89BA42F6D19E732846F8BDAB
:104450000A49102007F07AF8044668B110220021BA
:1044600007F080FD064B23600123A3802B69A36026
:10447000A781A6732C61E9E72875E7E7DCCF0D007B
:104480001000030070B5037D05460E46CBB10368EE
:10449000DB6823B19A88042A17D09B68F9E70C4996
:1044A000102007F053F8044668B11022002107F0ED
:1044B00059FD084B23600423A3802B692C61C4E9B8
:1044C0000236284670BD2875FBE7DE60F9E700BFBD
:1044D000DCCF0D0010000300002003F04FBC0000F3
:1044E0000246014804F088B9CD870D0007B5806801
:1044F0000B46002140B1CDE900210A46032103F01B
:10450000ADFBB0FA80F0400903B05DF804FB08B5DC
:10451000806828B1002103F0E1FB003818BF0120BA
:1045200008BD0EB410B58DB00FAA016852F8044B47
:10453000039200232020CDE90403CDE900421E2090
:1045400004AA03F0ABFD0DB0BDE8104003B0704706
:104550000EB410B58DB00FAA016852F8044B039247
:1045600000232020CDE90403CDE90042322004AA33
:1045700003F094FD0DB0BDE8104003B0704737B5AF
:1045800004689DF818508DF800308DF80450E468E8
:104590003C23A04703B030BD30B50B781C4D93B021
:1045A0000C4693B91B4902A807F029FD2B7953B19A
:1045B000194B1A491B788DF80030194B19481B7894
:1045C00002AAFFF7DCFF13B030BD084607F08CFCF1
:1045D000C8280DD1144902A807F011FD06F08BFC84
:1045E000124B286201221A70114B00221A70DDE76B
:1045F000204607F079FCC928ECD0204607F074FC6F
:104600000C4A0346402102A803F0D4FECEE700BFC7
:104610001CE403202DC30D00D5E2032064C30D006C
:10462000D4E20320D4E3032035C30D004CE403207F
:104630007FE3032047C30D0007B50B4906F077F968
:1046400070B100238DF80030084B094A1B780949E6
:104650000948FFF794FF09480A2102F07FFA012078
:1046600003B05DF804FB00BFF8C20D00D4E20320E4
:1046700071C30D0016C80D00D4E30320E4E203204B
:1046800037B51949054606F052F90446B0B1174B43
:10469000174A01241C71DB78147013B9012003B090
:1046A00030BD144B144A1B788DF80030134B1B7827
:1046B00013491448FFF763FF2046F0E712492846E4
:1046C00006F035F90028EAD0084B094A1C71DB785E
:1046D00001241470002BE1D0064B0C4A1B788DF896
:1046E0000030064B1B78E3E7F8C20D001CE4032002
:1046F0004CE40320D5E2032089C30D00D4E203205B
:104700005AC50D00D4E3032090C50D009AC30D00D7
:1047100000B50C4B0C4A1B7FC3B04FF4807102A84C
:1047200003F048FE094B0A491B788DF80030094B0D
:1047300009481B7802AAFFF722FF012043B05DF869
:1047400004FB00BF1CE40320AFC30D00D5E203202F
:1047500054C60D00D4E20320D4E3032030B5C5B025
:1047600000680A2203A907F02BFDB0F57A7F1ED856
:10477000104DA86006F0BFFB0F4BE86001241C70D1
:104780000E4AAB684FF4807104A803F013FE0C4B83
:10479000DB7853B10B4B0C491B788DF800300B4B79
:1047A0000B481B7804AAFFF7EAFE204600E0002031
:1047B00045B030BD50E3032074E30320C3C30D00B4
:1047C0001CE40320D5E20320D9C30D00D4E203206A
:1047D000D4E3032030B5C5B000680A2203A907F06E
:1047E000EFFC0A2827D8154DC1B2154885F82B10C3
:1047F00002F08EFE134B144A144801241C70082149
:1048000095F82B3003F0D6FD95F82B30104A4FF475
:10481000807104A803F0CEFDEB7853B10D4B0E4927
:104820001B788DF800300D4B0D481B7804AAFFF75C
:10483000A6FE204600E0002045B030BD1CE4032069
:1048400004E303204CE4032072C40D008CE1032038
:10485000DFC30D00D5E2032054C60D00D4E20320CF
:10486000D4E3032030B5C5B000680A2203A907F0DD
:10487000A7FC3C282BD8174D4FF47A71414385F89B
:104880002C006FF000421448FFF730FE134B144A1F
:10489000144801241C70082195F82C3003F08AFD7F
:1048A00095F82C30104A4FF4807104A803F082FD73
:1048B000EB7853B10D4B0E491B788DF800300D4B42
:1048C0000D481B7804AAFFF75AFE204600E000209E
:1048D00045B030BD1CE4032034E303204CE4032046
:1048E000F5C30D0076E10320FCC30D00D5E20320E3
:1048F00054C60D00D4E20320D4E3032013B52549A8
:10490000044606F014F820B32249204606F00FF8BA
:1049100038BB2149204606F00AF8002836D01F4C43
:10492000E27812B91E4B01221A701E4B1E4A1B78E8
:104930008DF800301D4B1E491B781E48FFF71FFEE7
:104940004FF47A7003F08AFD00231B49A3711022F3
:1049500019E01149204605F0EAFF0028D4D102B041
:1049600010BD0E4CE27852B10E4B144A1B788DF8F4
:1049700000300E4B0E491B780E48FFF700FE012356
:104980000F49A37110220F4807F079FB0E4B01204D
:104990001870E4E7F8C20D0090C50D001CE4032078
:1049A000D1E30320D5E2032026C40D00D4E2032086
:1049B0005AC50D00D4E3032038C40D0017C40D0000
:1049C0003CC40D00C0E303204CE4032070B5504DFF
:1049D0002B7892B0A3B1022004F0EAFA4D494E4878
:1049E000FFF79FFD00244FF47A702C7003F036FD22
:1049F0004A4900944FF0FF330122022004F0AEFA3E
:104A0000474C484D06F077FA2368C01A95F82C30C9
:104A1000984243D906F06FFA434B2060986840B142
:104A20006FF000420023CDE9002301211A4603F074
:104A300015F93E4E347806F07BFA84423C4C04D0A3
:104A400006F076FA01233070A361A3690133A361F4
:104A500006F051FA2368A268E06001330132236056
:104A6000A2604021009202A8324A03F0A3FC2B79F5
:104A70005BB1EB784BB100238DF800302E4B2F4902
:104A80001B782F4802AAFFF77AFD234802A9FFF7F7
:104A900048FD2C4B01221A7012B070BD2248FFF75E
:104AA00036FD0028F8D1284C284D2378BFF35B8FC2
:104AB00013F0010F09D12046FFF7FEFA28B103F0E9
:104AC00075F928602046FFF7FCFA2B6893F87030E0
:104AD0005E012378BFF35B8FDB0709D41A48FFF729
:104AE000EBFA28B103F062F928601748FFF7E9FAFA
:104AF0002B6893F8713003F01F03334302A802932D
:104B0000FFF710FB029A01239340C0F80C35C3E76E
:104B100010E4032046C40D003CE5032055410D0080
:104B2000D8E203201CE4032034E30320DCE203206A
:104B300050E3032058C40D00D4E203201DC60D002D
:104B4000D4E3032074E3032080E2032084E2032003
:104B500010B51A4C2368CAB0002B2CD0E26808921A
:104B6000174A118D0791A169069161690591116933
:104B7000049121690391107B124951F82010029190
:104B800092680192A26800924FF480710E4A0AA8BE
:104B900003F010FC00238DF800300C4B0C491B78FF
:104BA0000C480AAAFFF7EBFC0B4B01221A70236892
:104BB00063604AB010BD094A1268D0E750E3032091
:104BC0001CE4032048E1032075C40D00D4E2032057
:104BD000FCC40D00D4E303207FE3032098E303200B
:104BE00013B5012101A805F0C2FC0B4B1B69243B46
:104BF000402B01A84FF001040AD905F04BFD074BEB
:104C00001C73002401A805F0C1FC204602B010BDB1
:104C100005F029FDF6E700BF50E303201CE4032064
:104C200030B5194D0FCD99B004AC0FC40FCD0FC4E2
:104C300095E8030084E8030014490EA803F07EFC05
:104C40000EA803F0CEFC04460EA803F0E5FC0EA867
:104C500010EE105A03F010FD18AB10EE100A03EB23
:104C6000840406F0DFFDCDE90201284606F0DAFDF6
:104C7000CDE90001064A54F8503C0648402103F0B3
:104C800099FB19B030BD00BFECC80D0068E40320EB
:104C900014C50D0088E2032008B50F2006F0C3FB01
:104CA000B0F5C87F05DA322003F0D8FB0F2006F0FC
:104CB000BAFB06F0A5FD20A3D3E9002306F00AFE07
:104CC00007F062F8DFED147A07EE100A67EE277A34
:104CD00017EE900A06F0A6FD104B002206F042FCEB
:104CE0000F4B002206F0F6FD07F006F806F088FDEF
:104CF0000C4B002206F0EEFD0B4B002206F014FFD9
:104D00000A4B002206F030FC06F0F6FF084B186153
:104D1000084B01221A7008BD000080390000E03FF6
:104D200000005940000022400000144000004040B4
:104D300050E3032074E303206666666666660A40F5
:104D400000B591B06846FFF75FFB08A8FFF75CFB72
:104D5000002108A803F020FA134B5979A1B141F2C0
:104D6000D833ADF80630114B029341F27003ADF821
:104D70000C30009B43F4007300930021684603F05D
:104D80000BFA11B05DF804FB41F27003ADF8063088
:104D9000074B029341F21003ADF80C30009B43F433
:104DA00000730093EAE700BF1CE4032084030004BF
:104DB0008403840337B51B49054605F0B8FD044656
:104DC000C0B1194D01246C71FFF7BAFF174B1C706D
:104DD000EB7813B9012003B030BD154B154A1B7891
:104DE0008DF80030144B1B7814491548FFF7C7FBAA
:104DF0002046F0E71349284605F099FD0028EAD03F
:104E0000094D0A4B6C7101241C70FFF799FFEB7878
:104E1000002BDFD0064B0C4A1B788DF80030064B78
:104E20001B78E1E7F8C20D001CE403204CE40320EA
:104E3000D5E203202DC50D00D4E203205AC50D0094
:104E4000D4E3032090C50D0044C50D0010B5284CD7
:104E50002369D4ED057AFF2BBAEE087A88BF0023C8
:104E6000F4EEC77A88BF2361F1EE10FA06D4B2EEF1
:104E7000087AF4EEC77AF1EE10FA01DD1D4B63619A
:104E8000D4ED067AF5EEC07AF1EE10FA06D4B0EE63
:104E9000007AF4EEC77AF1EE10FA02DD4FF07E539D
:104EA000A361227F0C2A05D913491448FFF739FB67
:104EB00000232377637F124A0C3B0C2B84BF1823FB
:104EC0006377104B908B1968238D8B4284BF00232E
:104ED000238581423EBF002191830B4A4FF001039D
:104EE00038BF13706371094B01221A7010BD00BFE7
:104EF0001CE403200000A0C05FC50D003CE50320BA
:104F000050E303206CE1032074E303204CE403200E
:104F100010B5154CA38BB3F5C05F09D113491448E4
:104F200007F06DF8BDE810401049124807F067B867
:104F300094F82B30104A1148082103F03BFA94F8FA
:104F40002C300F4A0F48082103F034FA237F0E4A11
:104F50000748082103F02EFA637F0B4A0548BDE895
:104F60001040082103F026BA1CE4032089C50D0077
:104F70007EE1032064E1032072C40D008CE1032074
:104F8000F5C30D0076E103208CC50D0013B50A2290
:104F9000006801A907F014F917280CD8074C2077EE
:104FA000FFF7B6FF064B01201870E3780BB1FFF74F
:104FB000AFFB02B010BD0020FBE700BF1CE40320E4
:104FC0004CE4032030B5C5B000680A2203A907F0FD
:104FD000F7F818281CD8104D6877FFF799FF0F4B8A
:104FE0000F4A01241C704FF480716B7F04A803F0FA
:104FF000E1F9EB7853B10B4B0B491B788DF800307E
:105000000A4B0B481B7804AAFFF7B9FA204600E0C8
:10501000002045B030BD00BF1CE403204CE4032059
:1050200092C50D00D5E2032054C60D00D4E2032042
:10503000D4E3032038B50A4C0025C4E90055A56027
:1050400005F059FF074B084A1D61642323620123C1
:105050001370064AE06013706561A58338BD00BF18
:1050600050E303201CE4032074E303204CE40320FA
:1050700030B5144D144C15492A7820788DB00E2384
:1050800003FB0212009203FB0013114A282102A81D
:1050900003F090F92B7823700E4B1A7962B1DB780C
:1050A00053B10D4B0D491B788DF800300C4B0D485A
:1050B0001B7802AAFFF763FA0B4802A9FFF731FA3F
:1050C0000DB030BD11E40320D0E3032094E10320B0
:1050D000A9C50D001CE40320D5E20320B7C50D00CF
:1050E000D4E20320D4E303203CE503202DE9F0477C
:1050F000224B234C1B78234A2349244886B00025A1
:105100008DF80030224B1B78FFF739FA257103F038
:1051100081F810B1284603F09DF8FFF7DDF94FF054
:10512000000A054647F22F584FF00009FFF7D4F95F
:10513000461B61EB0A07B94508BFB04505D3FFF729
:10514000CEF810B903F056F8F0E7FFF7C8F8637926
:1051500013B9A368462B09DC0E4902A805F091FBA0
:1051600002A8FFF7CBFB02A805F040FBFFF762FFA8
:10517000094B01221A7006B0BDE8F087D5E2032082
:105180001CE40320C8C50D00D0C50D00D4E30320E6
:10519000D4E20320F8C20D004CE4032030B585B002
:1051A0000D4600226946009202F090FFB0B9009CC3
:1051B0000CB1236923B90A4A00210A2002F05EFFDC
:1051C0000023ADF806300C23ADF80430042303931C
:1051D0000295236901AA01212046984705B030BDF8
:1051E0004D7D0D0030B5264B002289B05868114620
:1051F00003F078F808B1FFF713FDFFF74DFD69469E
:105200000720FFF7CBFF1F4C1F4D0028A8BF0098B9
:105210002073FFF7E5FC10B96B6901336B616946D8
:105220000320FFF7BBFF40BBBDF8003007EE903A0C
:10523000FBEECC7AFDEEE77A17EE903A402BC4ED08
:10524000027A09DC237B012B06D16846FFF7DCF8E4
:105250000021684602F0A0FFA3682A6A9342B8BF03
:105260002B621D2BCCBF00230123084AE3710123CD
:105270001370074A137009B030BDFFEE007AD9E70A
:1052800068E403201CE4032050E303204CE40320E3
:1052900074E3032070B5D0E900531426044606FBDE
:1052A0000356AE4204D0284605F0A0FA1435F8E7BC
:1052B000206803F067F8204670BD0023022202F048
:1052C00089BF38B503681446DD683023A8472046F7
:1052D00038BD000070B5194B194C01221A70E378E3
:1052E00086B053B1174B184A1B788DF80030174B16
:1052F00017491B781748FFF742F900251649257111
:10530000012602A82670A570E57105F0BAFA02A878
:10531000FFF7F4FA02A805F069FA104B63614FF049
:105320007E53A361064A0E48667141F20653314628
:10533000A3832585FFF7C5FF06B070BDD1E3032029
:105340001CE40320D5E20320DEC50D00D4E20320D7
:105350005AC50D00D4E3032090C50D000000A0C085
:1053600080E30320000000002DE9F0414FF4FA60D3
:10537000AAB003F073F8C449C448C54FC54CDFF860
:105380003084FFF7CEF80021082006F00FF8002146
:10539000042006F00BF80121072006F007F8002191
:1053A000022006F003F80121072006F010F806A8F5
:1053B000002502F037FF00237D220AA906A805F088
:1053C000C8FAB5492B462A46CDE900550AA802F08D
:1053D00039FF2B460222AE49B04802F0FBFEB0492D
:1053E000B048FFF76AFFB049B048FEF785FFB04903
:1053F000B048FFF762FF2B460222AF49AF4802F0E8
:10540000E9FEAF49AF48FEF777FFAF49AF48FFF776
:1054100054FFAF49AF48FEF76FFFAF49AF48FEF703
:105420006BFFAF49AF48FEF767FF2B460222AE493C
:10543000AE4802F0CFFEAE49AE48FEF75DFF0C234A
:10544000CDE90355ADF80C30AB4BAC4905930422C4
:1054500003ABAB4802F0BEFEAA49AB48FEF74CFFD7
:10546000AA49AB48FEF748FFAA49AB48FFF738F80E
:10547000AA49AB48FFF734F8AA49AB48FFF730F820
:10548000AA49AB48FFF72CF8AA49AB48FFF728F820
:10549000AA49AB48FFF724F8AA49AB48FFF720F820
:1054A000AA49AB48FFF71CF8AA49AB48FFF718F820
:1054B000AA49AB48FFF714F8AA49AB48FFF710F820
:1054C000AA49AB48FFF70CF8AA49AB48FFF708F820
:1054D0000126032241F2883303A8CDE90323ADF866
:1054E000146003F0B4F9A54801F044FE3346A34824
:1054F0000DF10B02294601F07FFE9DF80B30032BC6
:1055000000F07F819D4801F03FFE9D4A9B480423A7
:10551000294601F0BCFE334698480DF10B0229469E
:1055200001F06AFE9DF80B30032B00F0678195496E
:10553000564888F80060FEF7F4FF934DFFF786FCAD
:10554000FFF7E6FC914A002300214FF4802002F08F
:10555000DFFD0823012128466B8101F0BDFC0123FA
:105560001A461021284601F022FA7C21A070284614
:1055700001F09AF994ED060A05F074FB00F0CCFFF7
:10558000002800F04F8105F08BFB94ED050A05F033
:1055900049FB05F0F5FC054605F0ADFC281A06F0C0
:1055A0002FF937A3D3E9002306F0BEFA784ACDE9F4
:1055B00000010A214E4802F0FDFE03220221754837
:1055C00002F002F894F82B10724801F0A1FF94F851
:1055D0002C3071484FF47A716FF000425943FEF756
:1055E00085FFA3791022002B00F01F816B493848FA
:1055F00006F045FD0022114603A8039202F08EFB3F
:10560000039B142B4FF0000240F0118164491F48A6
:10561000FEF787FF236901332361624B01221A7071
:105620003B68614D002B00F00D81FB682B60FFF79C
:1056300087FB042005F0E4FE08B9FFF74BFE05F0F8
:1056400083FC00210546F86805F0D0FA854201D0B8
:10565000FFF7F0FC05F060FC237F9842C0F2BA80AF
:1056600005F05AFC637F984280F2B48000230093D7
:105670004E494FF0FF33012202209BE0AFF3008040
:10568000000000000020AC40F6C50D003CE5032002
:1056900050E303201CE4032099450D0005C60D00CE
:1056A00058E303207DC60D0088E2032011C60D00DB
:1056B0002CE4032018C60D0060E3032023C60D0070
:1056C00070E103202FC60D0024E4032037C60D002F
:1056D000C0E3032042C60D007EE10320EAC60D00B0
:1056E00064E103204FC60D0064E3032059C60D009A
:1056F00075E3032060C60D0001430D0005410D0058
:105700006BC60D008CE1032001C70D0076E103207C
:1057100011C70D005D470D007AC60D0089420D00CE
:1057200088C60D0039460D0094C60D00D5410D0008
:105730009EC60D00FD480D00A6C60D00B54D0D001E
:10574000B3C60D0081460D00BEC60D00F1630D000D
:10575000CBC60D0059650D00D8C60D008D4F0D004C
:10576000E6C60D00C54F0D00F3C60D00D5470D0070
:10577000FDC60D0065480D000DC70D0080E3032038
:1057800014C90D001AC70D00E4E20320D5400D0036
:105790003EC70D0004E3032034E303203CC40D00A6
:1057A00048C70D004CE4032098E3032055410D0049
:1057B00011E4032003F0D2FBE37833B102F02AFDB9
:1057C00018B9224BE07001221A70FFF70BFD204B35
:1057D000204A1A6098F8003013B9022388F8003084
:1057E0001D491E48FEF79DFE0021072005F0EFFD34
:1057F00006A804F0FBFF2AB0BDE8F081FFF76AFDC0
:105800009BE617491548FEF78CFE224631463023A9
:10581000144801F0F1FC24233A465021114801F0CC
:10582000EBFC8AE605F048FAAFE60F49DFE61146E1
:1058300003A8039202F072FA039B8C2B7FF4F0AE64
:105840000A49E4E605F057FB2860F0E6D1E30320BF
:1058500014E40320905F010083C70D003CE50320A2
:105860002AC70D0080E3032038C40D0065C70D0072
:105870008842F8B504460D46164616D9904215D210
:10588000A2F11406751AA1F114072C44B7421CD0DA
:105890002CB13146204605F025F8337C2374304680
:1058A00004F0A4FF143E143CF0E70ED0B5420CD037
:1058B0002CB12946204605F015F82B7C2374284688
:1058C00004F094FF14351434F0E7F8BD2DE9F041ED
:1058D0000023C0E9003383604F689F4204460E46B0
:1058E00023DD4FF0140808FB07F002F043FD0546E6
:1058F000D8B1D4E9001208FB0212FFF7B9FF206803
:1059000002F040FD2560A760D6E9007308FB03782C
:10591000B84508D03946284604F0FEFF3B7C2B747E
:1059200014371435F4E7736863602046BDE8F081EE
:105930002DE9F047624B634DDFF8E48101271F70CA
:10594000614B082290B01A7005F0DAFC00231A4669
:105950000D2105F0DDFC05F0D3FC00231A460921DA
:1059600005F0DEFC594B002464229C831A62584BDC
:10597000584A1C609C809C719A60022002F0B8FB1F
:105980002146384602F0CCFB3946042002F0BEF92D
:10599000514B1A46191D42F8091BA3F8094094708F
:1059A0004E4A1F75C3E903445A601C7205F084FD1A
:1059B000234601464FF40052284601F0D1FB484BE4
:1059C0002B60484D48494FF40062284601F0F0FF33
:1059D000464B2B6005F070FD69220146444800F0FB
:1059E00065FE2146434803F001FA1D21424801F0BB
:1059F000EBFCCDE90344059405F0C0FB09AE8146FC
:105A000003A906A8FFF762FFC24606A93046FFF7C2
:105A10005DFF3A4B4AF8043B0CAD31462846FFF790
:105A200055FF2A461E21504604F0CFF92846FFF7BD
:105A300031FC3046FFF72EFC314BC8F8003006A889
:105A4000C8F82090FFF726FC2E4BC8F8003005F070
:105A500095FB4FF4165105F081FB03F05BFE4146C8
:105A600004F045F903A8FFF715FC274B0C9395E8C4
:105A70000300264B264A1A6003F10C0286E8030055
:105A800092E8030085E8030096E8030082E803003B
:105A9000204A5A619A690F921F4A9A611C719C6050
:105AA0001E4A0E944FF47A7103F10800CDE9007498
:105AB00002F0BCF82846FEF769FC10B0BDE8F0879C
:105AC000D4E2032080E30320D5E2032050E3032047
:105AD000C8E203200000FFFF1CE3032010000300C6
:105AE000B0C80D00D4E3032000F40320CCC80D009F
:105AF000E4E2032090E3032004E3032080C80D00C8
:105B000090CE0D0098C80D00FB400D0034E303203B
:105B10006CC80D00E5400D00E1400D004D420D0048
:105B20009CE303202DE9F04F85B04FF0000A01A857
:105B3000CDE901AAADF80CA002F06FFEFEF7CCFC97
:105B400043F6972883464FF00009FEF7C5FCB0EBFB
:105B50000B0661EB0A07B94508BFB04505D302F053
:105B600059FB10B902F046FBEFE702F053FB214866
:105B7000DFF880A0FEF704FCFEF7AEFC4FF0000952
:105B8000804647F22F560027FEF7A6FCB0EB08042C
:105B900061EB0905AF4208BFA64206D3504604F0A8
:105BA00053FC10B902F026FBEEE7124804F04CFC5F
:105BB0001148002100F078FE104B1A7D0AB1022234
:105BC0001A72002204210D48FEF728FC42F21071DF
:105BD000FEF758FC094901A804F046FF01A8FEF7AA
:105BE00075FB4FF0FF31044800F05EFE05B0BDE8E4
:105BF000F08F00BF68E40320E4E203201CE30320ED
:105C00002DE9F04F85B04FF0000A01A8CDE901AAB7
:105C1000ADF80CA002F001FEFEF75EFC43F69728FB
:105C200083464FF00009FEF757FCB0EB0B0661EB23
:105C30000A07B94508BFB04505D302F0EBFA10B129
:105C400002F0D8FAEFE7184E02F0E4FA002202213F
:105C5000706802F03FFB3046FEF792FBFEF73CFC1B
:105C60004FF0000A074647F22F584FF00009FEF7A1
:105C700033FCC41B61EB0A05A94508BFA04506D348
:105C8000304604F0E1FB10B902F0B4FAEFE7064841
:105C900004F0DAFB054B0022DA70054B0120187086
:105CA00005B0BDE8F08F00BF68E403201CE40320CA
:105CB0004CE403202DE9F0437F4CDFF85482237835
:105CC0007E4F7F4E013B97B0062B00F2A580DFE8A8
:105CD00013F0D90207003A002101B8013A02A902E3
:105CE000784B1B78022B01D0FFF7C2F9764DAB79C8
:105CF00053B102F033F8754B1B68C01A744B1B6824
:105D0000984284BF0423237005F006F9714B814645
:105D10000021186804F062FF81451CBF0623237030
:105D200005F0FAF86B7F984207DB032323706A4B78
:105D30001B78002B70D0052312E005F0EDF82B7FC7
:105D40009842F2DBF3E75F4B1B78032B01D0FFF7A0
:105D50008FF9022003F02CF9604B1B6813B1062366
:105D6000237059E0584BDA7899460AB1FFF748FF9B
:105D700000215B4800F098FD05F0BDF84FF4616527
:105D800090FBF5F303FB1505564BC5F561651A7DD0
:105D9000B5F5616FA8BF4FF461650AB102221A72AE
:105DA000002204214F48FEF739FB4FF47A71694312
:105DB000FEF768FB4B4903A804F056FE48484FF035
:105DC000FF3100F071FD039B4BB19A88012A06D187
:105DD0009B89022B5ED101F0C1FF3C4B186005F09E
:105DE0009BF899F81D30984211DA05F095F899F86A
:105DF0001C3098420BDB0023009301224FF0FF334D
:105E00003949022003F0AAF8314B384A1A600223BC
:105E1000237003A8FEF75AFA98F800300BB1FEF78A
:105E2000D5FD2F4801F038F93B7833B1264A304888
:105E30000121FFF746FA00233B7033783BB124235E
:105E4000264A2B48502101F022FA00233370294BB7
:105E50001B68002B1BDB284A402106A802F0AAFA87
:105E600006A92648FEF75DFB642002F0F7FA00233E
:105E70008DF80030224B23491B78234806AAFEF7F1
:105E80007EFB4FF4FA6002F0E9FA04F0E9FD17B086
:105E9000BDE8F083042BA2D11C4906A804F0F1FC54
:105EA00006A8FEF72BFD06A804F0A0FC4FF4C05393
:105EB000A9F81C3093E700BF11E403204CE4032051
:105EC00074E30320D0E303201CE4032018E4032040
:105ED00014E4032098E30320D1E3032050E30320DC
:105EE000E4E203201CE3032055410D00905F010014
:105EF00080E3032088E103203DC80D003CE503203A
:105F0000D4E203205CC80D00D4E3032090C50D004B
:105F100010E40320A94B1B78042B01D0FFF7A8F84D
:105F200098F80030002B7FF477AFA548FEF7EFFA22
:105F300000287FF471AFA34BDB780BB1FFF760FE55
:105F4000A14B4FF47A721A60A04B197D0222227085
:105F500001B11A72002204219C489D4D9D4CFEF710
:105F60005DFA01220221FEF759FA4EF66021FEF792
:105F700089FA9948002100F097FC2B78BFF35B8FDA
:105F800013F0010F09D12846FEF796F828B101F069
:105F90000DFF20602846FEF794F8236893F82090C0
:105FA0002B78BFF35B8FD8074FEA491909D488488B
:105FB000FEF782F828B101F0F9FE20608448FEF770
:105FC00080F8236893F8214004F01F0444EA090490
:105FD00006A80694FEF7A6F8D0F81035069406A891
:105FE000FEF7A0F8069AD0F81035D340D90701D5AE
:105FF000FEF7ECFC754903A804F036FD76484FF037
:10600000FF3100F051FC039B002B3FF402AF9A8854
:10601000012A7FF4FEAE9B89022B04D101F09EFE83
:106020006E4B1860F5E6042B7FF4F3AE6C4906A8BE
:1060300004F027FC06A8FEF761FC06A804F0D6FBD6
:10604000E7E65E4B1B78052B13D09A1F5342534152
:10605000644A1370FFF70CF804F04DFF624B1860B0
:106060006248002340681A46194602F043F902F0DC
:10607000C9F802F0CFF85E4D8146002842D0DFF823
:10608000449100232B70012389F8033004F033FF7F
:10609000C9F824002B78002B7FF4BEAE04F02BFF50
:1060A000514B484D1B68534AC01A534B918B1B6888
:1060B00080B29842288588BF2B852B8D994238BFA6
:1060C000938320214D4A06A802F074F94C4806A992
:1060D000FEF727FA2B794BB100238DF80030494B9E
:1060E00049491B78494806AAFEF749FA01233B7043
:1060F0003370EB7823B13B4B1B78002B7FF42FAE32
:1061000002232DE604F0F7FE374B3B4A1B6812686A
:10611000C31A9342BED985F8009004F0ECFE294AD8
:10612000536AC31AB3F5E15F06D90123237001F066
:1061300015FE374B18606FE63649314882F80390F8
:10614000FEF7EFF9A6E71D4B1B78062B01D0FEF7F3
:106150008FFF04F0D0FE1B4D2F4B1860EB78A94643
:106160001BB9234B01221A70E5E5AB79B3B104F0FA
:10617000D3FE99F81C3098421DD1FEF7B7FF04F00A
:10618000CBFE99F81C30984202D108B9FEF7E0FC2A
:1061900001F0E4FD214B18600723E1E5FFF722F849
:1061A000EB78002BE3D1084B1D4A1A6001F0D6FDB5
:1061B0000A4B1860A4E7FEF7CBFCE0E7D0E303202E
:1061C00034E303201CE4032014E403201CE3032035
:1061D00080E2032084E20320E4E2032018E40320A9
:1061E00090C50D00DDE20320E0E2032068E4032017
:1061F000D1E3032050E303206CE10320B2C70D007C
:106200003CE50320D4E20320C7C70D00D4E30320FC
:106210000CE4032094C70D0098E3032050E403200E
:10622000905F0100584B1B78072B01D0FEF720FF31
:10623000564B1D78B5B9564B564A1A6001F08EFD83
:10624000554B186002232370544B596800293FF4C2
:10625000E3AD1A685D60521AC3E905551A6001235F
:106260003370D9E501F07AFD4D4B1B68C01A47F237
:10627000305398427FF6D0AD01F070FD494B186065
:1062800001236DE5404B1B78012B01D0FEF7F0FE9A
:1062900001F064FD434B1B6803F5EA43303383424E
:1062A000BFF4BAAD404D04F026FE6B6AC01AB0F5DB
:1062B000E15F2C4613D904F01EFEA0F56160686210
:1062C0002A4601213948FEF7FCFF39483949FEF7D3
:1062D0003FF9642002F0C2F8FFF724FC9CE504F0CB
:1062E0000AFE2B6AC01AB0F5E15FEB7819D953B1F9
:1062F000314B324A1B788DF80030314B31491B78D5
:106300003148FEF73CF94FF4FA6002F0A7F8002399
:10631000236104F0F0FD0123A0F5616020623B7071
:10632000DAE72A69032A12DC53B1234B274A1B7888
:106330008DF80030224B23491B782348FEF71FF9C4
:106340004FF4FA6002F08AF804F08AFB64E553B176
:10635000194B1A4A1B788DF80030194B19491B78D4
:106360001948FEF70CF94FF4FA6002F077F80023B1
:106370000D4A0E4823610121FEF7A3FF1E21144898
:1063800000F0ECFB48E500BFD0E303207FE30320EF
:1063900014E40320905F010018E4032050E303207D
:1063A00050E403200CE403201CE4032080E30320DA
:1063B0003CE50320D0C70D00D5E20320FDC70D004A
:1063C000D4E203201CC80D00D4E3032022C80D0032
:1063D000E4E2032008B5002001F044FF28B101F0F9
:1063E00019FF80F00100C0B208BD0120FCE70000E9
:1063F0002DE9F047C8B0804601F00CFF10B1002035
:1064000001F028FF002001F0B9FC4FF0000A81469E
:1064100047F22F560027002001F0B0FCB0EB090432
:1064200061EB0A05AF4208BFA64205D3FFF7D2FFD2
:1064300010B901F0DFFEEEE7FFF7CCFFD8F800005F
:106440000A2203A905F0BCFE00F10C03DBB2182BF5
:1064500048D845B207EE905A274BB8EEE70A012418
:1064600083ED050A04F0DEFB244B1C7004F088FD6C
:10647000064604F040FD301A05F0C2F91CA3D3E92A
:10648000002305F051FB1E4ACDE900010A211D48F9
:1064900001F090FF01F0BEFE10B32B461A4A1B4DCF
:1064A0004FF48071002608A801F084FF8DF8006089
:1064B00017492B78174808AAFEF761F804F01BFD6E
:1064C0000246C31704A804F013FC8DF800602B7873
:1064D000049A0F490F48FEF752F804A804F086F911
:1064E000204600E0002048B0BDE8F087AFF3008010
:1064F000000000000020AC401CE403204CE403201A
:106500003EC70D0075E3032018C90D0054E40320B5
:1065100054C60D00D4E3032038B504F015FD05463C
:1065200004F026FD044604F01BFD231F062B0ED9A4
:10653000E31E082B0DD801382D1A04D50B2C14BFDF
:106540000020012038BD072D03DD032CF7E70120D3
:10655000F8E70020F6E7000070B52DED028BC8B01B
:10656000054604F0C8FC0A22044603A9286805F081
:1065700027FEC3B2022B59D843B208EE103AB8EE48
:10658000C88AB0EE480A04F06DFB2D4B83ED068AF5
:106590002C4B01221A7018EE100A05F043F92A4A12
:1065A000CDE900014FF4807108A801F003FF04F069
:1065B00085FC28B1FFF7B0FF002834D004F070FB51
:1065C00004F0DEFC054604F096FC281A05F018F9E4
:1065D00019A3D3E9002305F0A7FA1C4ACDE900016D
:1065E0000A211B4801F0E6FE01F014FEC8B1194D66
:1065F00019491A4800268DF800602B7808AAFDF783
:10660000BEFF2246E31704A804F072FB8DF8006079
:106610002B78049A10491148FDF7B1FF04A804F043
:10662000E5F8012003E004F047FBC9E7002048B08B
:10663000BDEC028B70BD00BF000000000020AC402C
:106640001CE403204CE403202CC90D003EC70D00C0
:1066500075E3032054E4032054C60D00D4E3032063
:10666000014B01221A70704754E40320704710B5A3
:106670002021044604F068FF204610BD0EB410B57A
:106680008DB00FAA016852F8044B0392002320201A
:10669000CDE90403CDE90042012004AA01F0FEFC8B
:1066A0000DB0BDE8104003B07047000010B5027295
:1066B000FF2242810022C0E9032242610276C261C8
:1066C000024A034C1060C0E9004110BD5CE40320A5
:1066D0008CCB0D002DE9F8439DF8208004468946B7
:1066E00016461F46B8F1000F02D0406802F022FCA7
:1066F000217A606802F0F8FB6068036849469B688D
:1067000098476068002102F00EFC054600BB01239B
:10671000217A60683A4602F0D2FB8742034609D1EB
:106720003744BE421CD0606803685B69984706F82E
:10673000010BF6E70B490C484A46FDF709FFB8F193
:10674000000F02D0606802F0FEFB2846BDE8F88327
:106750000346064904484A46FDF7FAFE0025EEE7DF
:106760000125ECE73DC90D0058E4032062C90D0086
:1067700007B500930123FFF7ADFF03B05DF804FBFD
:1067800073B54389FF2B044610D0194E194D01F003
:10679000E5FAB0F57A7F09D2608904F031FE01286C
:1067A00004D031462846FDF7BCFEF0E701230DF189
:1067B000070228212046FFF7DBFF30B90D480E49BC
:1067C000FDF7AFFE002002B070BD9DF80730182B1A
:1067D000F4D101230DF1070229212046FFF7C8FF5C
:1067E0000028EBD09DF80730052BE7D1EBE700BF81
:1067F00086C90D0058E403209BC90D0007B5134658
:1068000000228DF807200DF10702FFF7B1FF9DF878
:10681000070003B05DF804FB2DE9F0419DF81880F6
:1068200004460F4615461E46B8F1000F02D04068D8
:1068300002F080FB217A606802F056FB6068036812
:1068400039469B6898472E44B542606805D0036876
:1068500015F8011B9B689847F6E7012102F063FBDE
:10686000034670B1084909483A46FDF771FE002514
:10687000B8F1000F02D0606802F065FB2846BDE861
:10688000F0810125F4E700BFA8C90D0058E40320FA
:106890001FB58DF80F2000930DF10F020123FFF7B4
:1068A000BBFF05B05DF804FBF8B50A460C4605468B
:1068B0001A491B48FDF735FE002CB8BFEC687CB9BF
:1068C000012322461B212846FFF7E2FF1549024615
:1068D00006461348FFF7D2FEEC606C613046F8BD07
:1068E000032C19DDA7101F2FA8BF1F27BA0062F0C5
:1068F0007C020123D2B21B212846FFF7C9FF3A468A
:106900000346094906460648FFF7B8FE4FF4FA6306
:106910005F43EC606F61E1E70127E7E7CDC90D0058
:1069200058E40320D7C90D00F3C90D000B460749F1
:106930000246086848B1002B08BFB2F5006F04D1C9
:10694000C36813B10021FFF7AFBF70475CE40320B9
:106950002DE9FF419DF82880054616461F46B8F1EF
:10696000000F04D04068019102F0E4FA019901910E
:1069700000230DF10F022846FFF7FAFE044660B12E
:106980009DF80F3003EA06023A43934205D001997D
:1069900000232846FFF77CFF0446B8F1000F02D021
:1069A000686802F0D0FA204604B0BDE8F08113B563
:1069B00014460DF10702FFF7DBFE28B19DF8073002
:1069C0001C420CBF0120002002B010BD13B51446BC
:1069D0000DF10702FFF7CCFE28B19DF807301C42ED
:1069E00014BF0120002002B010BD07B5D2430093B0
:1069F000D2B20023FFF7ACFF03B05DF804FB000048
:106A000037B501230DF107020F210446FFF7B0FE51
:106A1000054638B91E491F48AD22FDF799FD2846A5
:106A200003B030BD9DF8073013F0200F4FF0010385
:106A30000BD02022E3610F212046FFF7D6FF164A34
:106A400016491448FDF76DFDE9E708221721204695
:106A5000FFF7BCFF18B10223114AE361F0E79DF88C
:106A600007301A0709D50323E361082201230F2108
:106A70002046FFF7BAFF0B4AE2E75B07CFD50422B7
:106A8000E26101230F212046FFF7AFFF064AD7E757
:106A900046CA0D0058E4032017CA0D0065CA0D0050
:106AA00020CA0D0030CA0D0040CA0D0007B5009382
:106AB0001346FF22FFF74CFF03B05DF804FB000014
:106AC000F8B50F461646012300220F210546FFF7B1
:106AD000DFFE044638B94FF425721E491E48FDF703
:106AE00037FD2046F8BD0123232218212846FFF751
:106AF000CFFE044610B940F29B22EEE7FF2FA8BF5D
:106B0000FF27012FB8BF01270123FAB21921284618
:106B1000FFF7BEFE044610B94FF42A72DDE70123E9
:106B2000082212212846FFF7C1FF044610B940F29F
:106B3000AF22D2E7002E4FF0010314BF832282223E
:106B400018212846FFF7A4FE04460028C9D140F2C8
:106B5000B922C2E776CA0D0058E403202DE9F743B5
:106B60000A4605460F464F484F49FDF7DAFC00211B
:106B70002846FFF799FE044648B940F2F7124B4900
:106B80004848FDF7E5FC204603B0BDE8F08301234B
:106B90001A4630212846FFF789FF044610B940F213
:106BA0000522ECE71022012311462846FFF71DFFBE
:106BB000044610B94FF40372E1E7012326221321A2
:106BC0002846FFF765FE044610B940F21322D6E7C7
:106BD000012600963346FC2211212846FFF7B8FE15
:106BE000044610B940F21B22C9E700223946284664
:106BF000FFF766FF044610B940F22222BFE7009675
:106C00000223772210212846FFF7A2FE044610B97E
:106C100040F22B22B3E7334604221C212846FFF71B
:106C200045FF044610B940F23222A8E70096182327
:106C3000E32211212846FFF78BFE044610B940F2EB
:106C400039229CE73346C02217212846FFF720FE51
:106C5000044610B94FF4107291E701F07FF8DFF8A5
:106C60005490DFF840804FF47A7106464F4301F0AC
:106C700075F8801BB8420ED2012217212846FFF773
:106C8000BDFD494602464046FDF74BFC4FF47A7085
:106C900001F0E4FBEBE706490248FDF759FC03F07D
:106CA000DFFE70E758E40320A1CA0D0096CA0D006C
:106CB000C7CA0D00B2CA0D002DE9F3479DF828A000
:106CC00005460C4691461F46BAF1000F02D04068B7
:106CD00002F030F907B3202F3E4628BF20267F2C34
:106CE00026D83319802B01D9C4F180060123042250
:106CF0003F212846FFF779FE002364F07F010093CF
:106D00004A463346C9B22846FFF7E4FC804628B11C
:106D10003444BF1BB144DDE74FF00108BAF1000F66
:106D200002D0686802F00FF9404602B0BDE8F08773
:106D3000012304223F212846FFF7B8FEDCE72DE9B6
:106D4000F3479DF828A005460C4691461F46BAF128
:106D5000000F02D0406802F0EDF807B31F2F3E4647
:106D600028BF1F267F2C26D83319802B01D9C4F1C8
:106D70008006012304223F212846FFF736FE002328
:106D800064F07F0100934A463346C9B22846FFF7B4
:106D900043FD804628B13444BF1BB144DDE74FF0CA
:106DA0000108BAF1000F02D0686802F0CCF8404642
:106DB00002B0BDE8F087012304223F212846FFF7F7
:106DC00075FEDCE730B585B00D68D1E90432039576
:106DD0004D6802958D680195C96800910133044999
:106DE00002F26C72044603F0CDFD204605B030BDC2
:106DF000D9CA0D0003110A2200F00F0002FB0300A4
:106E0000704738B5044600781546FFF7F3FF086071
:106E10006078FFF7EFFF4860A078FFF7EBFF88602E
:106E2000E078FFF7E7FFC8602079FFF7E3FF01385C
:106E300008612DB9651D2878FFF7DCFF886138BD32
:106E40006079FFF7D7FF6430A51D4861F3E70000C4
:106E500070B5012388B00D461A4610210446FFF78D
:106E6000A6FDF0B108230126204600960DEB030293
:106E70000021FFF72FFC044698B1324629460DF158
:106E80000900FFF7BEFF04A8FFF79CFF0848049A1B
:106E90000849FDF746FB04A803F0A8FC204608B00B
:106EA00070BD24220021284605F05CF80024F5E797
:106EB00058E40320F7CA0D0030B58BB00D4601A988
:106EC000FFF7C6FF044620B101A801F0B3FAC5E9F7
:106ED000000120460BB030BD10B5044688B011B19A
:106EE000406801F0CFFF2046FFF74AFC70B3204610
:106EF000FFF786FD01231A4610212046FFF757FDB4
:106F0000D8B103F0DBFFC0B902A92046FFF7D4FFD8
:106F1000DDE9020103F0D8FE0F4B10491B68009316
:106F200004A8DDE9022303F087FF0D48049A0D4908
:106F3000FDF7F7FA04A803F059FC0B4A00230021DF
:106F40004FF4006001F0E4F808B010BD07490448B0
:106F5000FDF7FEFAF1E700BF0CE2032090E5032005
:106F600058E4032005CB0D002D690D0022CB0D0048
:106F70000A2290FBF2F302FB130093FBF2F102FBF7
:106F8000113140EA0110C0B2704770B50546006883
:106F90000C461646FFF7ECFF20706868FFF7E8FF25
:106FA0006070A868FFF7E4FFA070E868FFF7E0FFF3
:106FB000E07028690130FFF7DBFF20712EB9661DF4
:106FC000A869FFF7D5FF307070BD6A69642392FB32
:106FD000F3F003FB1020FFF7CBFFA61D6071EFE776
:106FE000F0B587B0054602A816460C46FFF7EAFE44
:106FF0001E48029A1E49FDF794FA02A803F0F6FB18
:1070000016B1686801F096FF204601220DF10901D2
:1070100000278DF80870FFF7B8FF01231A461021EA
:107020002846FFF743FD0446E8B1082300970DEB1F
:10703000030239462846FFF7EFFB044660B10123FF
:107040001A4610212846FFF7D0FC16B1686801F0F7
:107050007AFF204607B0F0BD4FF48D720549034812
:10706000FDF776FAF1E74FF48F72F7E758E4032063
:107070003ACB0D0048CB0D0013B504466846CDE968
:10708000002304F035FF9DF8102001462046FFF74D
:10709000A7FF02B010BD0000F0B5057E89B0044620
:1070A00075BB03F00BFF58B30026002704A9284640
:1070B000CDE9046701F0DEF810B30125257603F071
:1070C0001AFF00950246C3172046CDE90223FFF7B9
:1070D000D3FF02A92046CDE90267FFF7EDFE124B70
:1070E00012491B68009304A8DDE9022303F0A4FE03
:1070F0000F48049A0F49FDF714FA04A803F076FB31
:10710000636973B100F02AFE2369C01A636998426B
:1071100007D300F023FE4FF0FF3120612046FFF738
:10712000C3FB09B0F0BD00BF0CE2032090E50320D3
:1071300058E4032063CB0D00014B024A1A607047EC
:1071400058E4032079CB0D00704710B51021044698
:1071500004F0FAF9204610BD0368C9B29B681847CD
:1071600030B5034DC0E90223C0E9005130BD00BF76
:10717000D0CB0D00406801F085BE10B50446006814
:1071800001F0E1FE204610BD2DE9F0418AB0044631
:107190004068019001F0CEFE1E22002102A8A768DF
:1071A00004F0E0FE0026EFB123681E2FB84628BF8A
:1071B0004FF01E08DD6802AA434631462046A84724
:1071C000054658B90A480B493246FDF7AAF901A805
:1071D000FFF7D3FF28460AB0BDE8F081A7EB080708
:1071E0004644E0E701A8FFF7C8FF0125F2E700BF2A
:1071F0003CE503209CCB0D002DE9F7430446406895
:1072000001900D4616461F4601F094FEA7B1E168B5
:10721000606841F0500101F06BFE290A6068FFF7D9
:107220009BFF29466068FFF797FF6068002101F027
:107230007AFE48B1002400E0012401A8FFF79DFF79
:10724000204603B0BDE8F083202F217B6068B8465C
:1072500028BF4FF020080123424641F0500101F0C1
:107260002EFE04F029F903681B6998474045E1DBCD
:1072700006EB080904F020F903685B69984706F8F3
:10728000010B4E45F6D14544A7EB0807BEE72DE9B3
:10729000F74F0446406801900E4690461D4601F0A7
:1072A00049FE4FF00109B9F1000F2AD04DB3E16852
:1072B000606841F0500101F01BFE310A6068FFF781
:1072C0004BFF60683146FFF747FFA5F11E0A4746AE
:1072D000A6EB080B606817F8011B0368013D9B686B
:1072E000984755450BEB0706B84601D0002DF1D164
:1072F0006068012101F017FE0028D7D04FF0000987
:10730000D1E701A8FFF739FF484603B0BDE8F08F89
:107310002DE9F0438BB00E4615468046406801903B
:107320001C4601F007FEAE4229D2264425448CB10A
:107330001E2C2746D8F8003028BF1E27F61BD3F88E
:10734000089002AA3B4631464046ED1BC84748B963
:10735000002400E0012401A8FFF70FFF20460BB036
:10736000BDE8F083D8F8003002AAD3F80C90294683
:107370003B464046C8470028EAD0E41BD7E7E9D996
:10738000002CE7D0D8F800301E2C274628BF1E2737
:10739000D3F8089002AA3B4631464046C847002829
:1073A000D6D0D8F8003002AAD3F80C9029463B4634
:1073B0004046C8470028CBD03E443D44E41BDFE7AD
:1073C0000368C9B29B68184701757047F8B507464E
:1073D0000C4615461E4604F06FF8397D01F084FD19
:1073E00004F06AF82146FFF7EBFF0024A64207DD10
:1073F00004F062F80368295D9B6898470134F5E75B
:1074000004F05AF8BDE8F84001F091BD07B501233A
:107410008DF807200DF10702FFF7D8FF03B05DF8E4
:1074200004FB38B504460D4604F046F8217D01F012
:107430005BFD04F041F82946FFF7C2FF04F03CF879
:10744000002101F070FD08B1002038BD04F034F8CF
:10745000217D012201F045FD0128F5D104F02CF831
:1074600003685B699847C0B2EFE738B50D460E2157
:107470000446FFF7D6FF20F0030242EA95022046B9
:10748000D2B2BDE838400E21FFF7C0BF38B50D4677
:107490002A210446FFF7C5FF20F0300242EAC50268
:1074A0002046D2B2BDE838402A21FFF7AFBF10B561
:1074B00011210446FFF7B5FF40F04000C2B2112190
:1074C0002046FFF7A3FF20465022BDE810401221BE
:1074D000FFF79CBF10B52A210446FFF7A2FF2A211F
:1074E00000F0FE022046BDE81040FFF78FBF10B548
:1074F0002A210446FFF795FF40F00100C2B22A217D
:107500002046BDE81040FFF781BF000000000000EA
:1075100037B5044600294FD00A29A8BF0A210846DA
:1075200004F06EF926A3D3E9002304F0D3F904F0A4
:107530000BFC0121102300917F22C0B200F082FFDA
:10754000C5B22046FFF7C6FF204615222121FFF7CE
:107550005DFF2A4620462321FFF758FF2A46204692
:107560002421FFF753FF2A4620462521FFF74EFF2F
:107570002046FF222621FFF749FF2046FF22272130
:10758000FFF744FF2046FF222821FFF73FFF204658
:1075900002222C21FFF73AFF204608222D21FFF777
:1075A00035FF204608222E21FFF730FF204603B08A
:1075B000BDE83040FFF79BBF0120B1E7AFF300808B
:1075C000666666666666294038B5417515460446A6
:1075D00003F072FF01F056FC0D212046FFF721FF5A
:1075E0002A2812D12046FFF775FF617D2046FFF75C
:1075F0003CFF29462046FFF749FF2046FFF757FF8B
:107600002046FFF774FF012038BD0020FCE7012A67
:10761000034602D1016000207047022A04BFD1E96D
:107620000001C3E90001F6E710B501230374836884
:10763000044643B1C0689847012363740020BDE845
:10764000104000F053BB00680028F5D083680BB9E8
:1076500003F080FFC368EEE710B44268034654109D
:1076600001EB6200D20748BF0A591B685DF8044B62
:1076700048BFD358184700000123F7B580F82930D8
:107680000646083000F0F2FA0420FCF704FD054637
:1076900098B31B49142003F059FF30B10023C0E90F
:1076A0000033C0E90233037443742860A0B1154B62
:1076B0001549C0E902364FF40063CDE90003022208
:1076C000124B043000F09AFA30B92B681B7CA3B936
:1076D000012000F033FBF8E72C6800232B6064B135
:1076E000276837B13846FCF751FE1021384603F0C1
:1076F0002BFF1421204603F027FF756003B0F0BD77
:10770000DCCF0D0017790D00E4CB0D0029760D00BC
:1077100047F23051084AC160084902600022C0E9BE
:1077200004120749C16107494260C0E9082281612A
:10773000028580F82A207047A8CC0D00817A0D00C0
:1077400059760D000F760D0010B5044B044640F835
:10775000103BFCF71BFE204610BD00BFA8CC0D005F
:1077600010B5034B03600446FFF7EEFF204610BD43
:10777000D0CC0D0010B50446FFF7F2FF20463821AB
:1077800003F0E2FE204610BD806800F077BA806802
:1077900000F07CBA10B504460068FFF7F8FF2046F9
:1077A00010BD13B504460190FFF7EEFFE36ADC88D5
:1077B000A4B20CB103F1080401A8FFF7EBFF2046C7
:1077C00002B010BD13B504460190FFF7DDFF94F839
:1077D000283043B9E26A0124D38001A8FFF7DAFF19
:1077E000204602B010BD0024F7E713B5044601900F
:1077F000FFF7CAFFE36A01A8DC88FFF7CBFF20464A
:1078000002B010BD2DE9F047994686B090F82930B6
:107810009DF838A09DF83C8004460F46164613B9E3
:1078200003689B689847314B3846002E08BF1E46B8
:1078300004F00BFC0546304604F007FC284400F138
:107840000A05AB071CBF25F0030504353346CDE917
:107850000285CDE9009A264926483A46FCF761FEA2
:10786000238E083BAB4212D20024204606B0BDE86E
:10787000F087CB88012B36D005A8FFF78BFF236854
:1078800094F828109B69204698470028ECD02046A1
:107890000594FFF779FFE16A228E636B0A44D21ADE
:1078A000AA42E6D348EA0A0883F80480C3F80090A5
:1078B000636B03F108083946404604F0A0FB4046DC
:1078C00004F0C3FB01303146404404F098FB636B85
:1078D000E26A1D446563D3880133D380012405A87F
:1078E000FFF758FFC1E70024F9E700BF59CE0D00AC
:1078F000F6CB0D0060E4032008B5044600F1100546
:10790000A3690BB903F026FEE36921462846984790
:1079100000F07CF9F4E708B5FFF7EEFF68B501F178
:1079200008050646284604F090FB01300544284629
:1079300004F08BFBF36A01302844C31A13F00303ED
:107940001CBFC3F10403C01868BDF7B504460E465A
:107950000190FFF719FFE76AFB8807F10805E6B118
:10796000012B22D929462046FFF7D8FF0546294694
:107970002046FFF7D3FF228E3A44121A0146A0EBAD
:10798000050602D0284604F0D3FA636B9B1B6363A1
:10799000FB88013BFB80012601E0002BE7D101A819
:1079A000FFF7F8FE304603B0F0BD0026F7E7000011
:1079B0002DE9F0470D4604462F461646FFF7A8FE70
:1079C000154B57F8082B2360144BE5629A42268624
:1079D000984617D1AB889BB2B34213D105EB060A88
:1079E00067634FF00009EB881FFA89F29BB29A4255
:1079F0000ED2616B2046FFF791FF5045606309F19D
:107A00000109F0D90023C5F800806763AE80EB80E0
:107A10002046BDE8F08700BFD0CC0D0061AB9CD103
:107A200010B5D1E9002386B00021044604910AB9BB
:107A3000D90705D5CDE902230F4B05930F4B0493CE
:107A400002AB93E803006A4682E8030094E803006F
:107A500083E8030092E80300049A84E80300A16825
:107A6000A260059A04911846E168E2600591FCF76E
:107A70008DFC204606B010BD59760D000F760D0026
:107A800007B5054B00936946002310300193FFF7BB
:107A9000C7FF03B05DF804FBC97A0D0013B50446B7
:107AA00000F05CF9636AC01AE368984208D3054B9A
:107AB00000936946002304F110000193FFF7B0FF23
:107AC00002B010BDC97A0D002DE9F04190F82A30BE
:107AD00086B00446002B64D100F09CFB002860D0E7
:107AE00000F03CF9636AC01A40F2F133984258D969
:107AF000236820465B6998470546002851D000F16D
:107B00000807012384F82830384604F09EFA95F8D7
:107B10000480CDF8048001302B682B4900933E1877
:107B200033462A483A46FCF7FCFC2B688DF8008067
:107B30003246394602A800F099FF029D6B781BB9C6
:107B4000012000F08BFCF8E7002000F0F1FA20B1F2
:107B50006B7813B900F04EFBFAE72B78012B23D199
:107B60001B491A48FCF7DDFC236800219B6920466D
:107B70009847002384F8283000F0F0F86062039CF6
:107B80007CB16368013B63605BB9236820469B68F6
:107B90009847A368013BA3601BB923682046DB68B4
:107BA000984706B0BDE8F081E2680A490748FCF74B
:107BB000B8FC094B049304A9002304F110000593B9
:107BC000FFF72EFFD5E700BF37CC0D0060E40320A0
:107BD00058CC0D006FCC0D009D7A0D00014B024A70
:107BE0001A60704760E4032096CC0D0008B5024B84
:107BF0001B685B6C019308BD7402030008B5024B5F
:107C00001B685B68019308BD4802030008B5024B7E
:107C10001B68DB68019308BD4802030008B5024BEE
:107C20001B68DB69019308BD4802030008B5024BDD
:107C30001B681B6A019308BD4802030008B5024B8C
:107C40001B685B6A019308BD4802030008B5024B3C
:107C50001B689B6A019308BD4802030008B5024BEC
:107C60001B68DB6A019308BD4802030008B5024B9C
:107C70001B681B6B019308BD4802030008B5024B4B
:107C80001B689B6B019308BD4802030008B5024BBB
:107C90001B681B6C019308BD4802030008B5024B2A
:107CA0001B685B6C019308BD4802030008B5024BDA
:107CB0001B689B6C019308BD4802030008B5024B8A
:107CC0001B68DB6C019308BD4802030008B5024B3A
:107CD0001B685B6D019308BD4802030008B5024BA9
:107CE0001B689B6D019308BD4802030008B5024B59
:107CF0001B68DB6E019308BD4802030008B5024B08
:107D00001B681B6F019308BD4802030008B5024BB6
:107D10001B685B6E019308BD3402030008B5024B7B
:107D20001B68DB6E019308BD3402030008B5024BEB
:107D30001B685B68019308BD1802030008B5024B7D
:107D40001B689B68019308BD1802030008B5024B2D
:107D50001B68DB68019308BD1802030008B5024BDD
:107D60001B685B69019308BD1802030008B5024B4C
:107D70001B689B6D019308BD1802030008B5024BF8
:107D80001B68DB6D019308BD1802030008B5024BA8
:107D90001B685B6E019308BD1802030008B5024B17
:107DA0001B689B6E019308BD1802030008B5024BC7
:107DB0001B681B68019308BD2C02030008B5024B29
:107DC0001B685B68019308BD2C02030008B5024BD9
:107DD0001B689B68019308BD2C02030008B5024B89
:107DE0001B68DB68019308BD2C02030008B5024B39
:107DF0001B681B69019308BD2C02030008B5024BE8
:107E00001B685B69019308BD2C02030008B5024B97
:107E10001B689B69019308BD2C02030008B5024B47
:107E20001B68DB69019308BD2C02030008B5024BF7
:107E30001B681B6B019308BD2C02030008B5024BA5
:107E40001B68DB68019308BD2802030008B5024BDC
:107E50001B689B69019308BD2802030008B5024B0B
:107E60001B68DB69019308BD2802030008B5024BBB
:107E70001B681B6A019308BD2802030008B5024B6A
:107E80001B685B6A019308BD2802030008B5024B1A
:107E90001B689B6A019308BD2802030008B5024BCA
:107EA0001B68DB6A019308BD2802030008B5024B7A
:107EB0001B681B6B019308BD2802030008B5024B29
:107EC0001B685B6B019308BD2802030008B5024BD9
:107ED0001B681B6C019308BD2802030008B5024B08
:107EE0001B689B6C019308BD2802030008B5024B78
:107EF0001B68DB6C019308BD2802030008B5024B28
:107F00001B681B6D019308BD2802030008B5024BD6
:107F10001B685B69019308BD6402030008B5024B4E
:107F20001B689B68019308BD6802030008B5024BFB
:107F30001B68DB68019308BD6802030008B5024BAB
:107F40001B68DB69019308BD3002030008B5024BD2
:107F50001B681B6A019308BD3002030008B5024B81
:107F60001B681B68019308BD3C02030008B5024B67
:107F70001B689B68019308BD3C02030008B5024BD7
:107F80001B68DB68019308BD3C02030008B5024B87
:107F90001B681B69019308BD3C02030008B5024B36
:107FA0001B685B69019308BD3C02030008B5024BE6
:107FB0001B689B69019308BD3C02030008B5024B96
:107FC0001B68DB69019308BD3C02030008B5024B46
:107FD0001B681B6A019308BD3C02030008B5024BF5
:107FE0001B689B6A019308BD3C02030008B5024B65
:107FF0001B68DB6A019308BD3C02030008B5024B15
:108000001B681B68019308BD4C02030008B5024BB6
:108010001B685B68019308BD4C02030008B5024B66
:108020001B689B68019308BD4C02030008B5024B16
:108030001B681B69019308BD4C02030008B5024B85
:108040001B685B69019308BD4C02030008B5024B35
:108050001B689B69019308BD4C02030008B5024BE5
:108060001B68DB69019308BD4C02030008B5024B95
:108070001B681B6A019308BD4C02030008B5024B44
:108080001B685B6B019308BD6002030008B5024BDF
:108090001B681B6D019308BD6002030008B5024B0D
:1080A0001B685B6D019308BD6002030008B5024BBD
:1080B0001B68DB6E019308BD6002030008B5024B2C
:1080C0001B681B6F019308BD6002030008B5034BDA
:1080D0001B68D3F89830019308BD000060020300CC
:1080E00008B5024B1B681B68019308BD2002030002
:1080F00008B5024B1B685B68019308BD20020300B2
:1081000008B5024B1B685B69019308BD20020300A0
:1081100008B5024B1B681B6A019308BD20020300CF
:1081200008B5024B1B68DB6A019308BD20020300FF
:1081300008B5024B1B68DB6C019308BD20020300ED
:1081400008B5024B1B685B6D019308BD200203005C
:1081500008B5024B1B689B6D019308BD200203000C
:1081600008B5024B1B68DB6D019308BD20020300BC
:1081700008B5034B1B68D3F88830019308BD000095
:108180002002030008B5034B1B68D3F89430019319
:1081900008BD00002002030008B5034B1B68D3F89C
:1081A000A830019308BD00002002030008B5034B6E
:1081B0001B68D3F8AC30019308BD00002002030017
:1081C00008B5034B1B68D3F8B030019308BD00001D
:1081D0002002030008B5024B1B681B68019308BD11
:1081E0004402030008B5024B1B685B68019308BD9D
:1081F0004402030008B5024B1B689B68019308BD4D
:108200004402030008B5024B1B68DB68019308BDFC
:108210004402030008B5024B1B685B69019308BD6B
:108220004402030008B5024B1B68DB69019308BDDB
:108230004402030008B5024B1B681B6A019308BD8A
:108240004402030008B5024B1B685B6A019308BD3A
:108250004402030008B5024B1B68DB6A019308BDAA
:108260004402030008B5024B1B681B6B019308BD59
:108270004402030008B5024B1B685B6B019308BD09
:108280004402030008B5024B1B689B6B019308BDB9
:108290004402030008B5024B1B68DB6B019308BD69
:1082A0004402030008B5024B1B685B6C019308BDD8
:1082B0004402030008B5024B1B685B68019308BDCC
:1082C0004002030008B5024B1B689B68019308BD80
:1082D0004002030008B5024B1B68DB68019308BD30
:1082E0004002030008B5024B1B681B69019308BDDF
:1082F0004002030008B5024B1B685B69019308BD8F
:108300004002030008B5024B1B689B69019308BD3E
:108310004002030008B5024B1B68DB69019308BDEE
:108320004002030008B5024B1B681B6A019308BD9D
:108330004002030008B5024B1B681B6B019308BD8C
:108340004002030008B5024B1B685B6B019308BD3C
:108350004002030008B5024B1B681B6C019308BD6B
:108360004002030008B5024B1B685B6C019308BD1B
:108370004002030008B5024B1B681B68019308BD4F
:108380001C02030008B5024B1B685B68019308BD23
:108390001C02030008B5024B1B689B68019308BDD3
:1083A0001C02030008B5024B1B681B69019308BD42
:1083B0001C02030008B5024B1B68DB69019308BD72
:1083C0001C02030008B5024B1B685B6A019308BDE1
:1083D0001C02030008B5024B1B68DB6A019308BD51
:1083E0001C02030008B5024B1B681B6B019308BD00
:1083F0001C02030008B5024B1B685B6C019308BDAF
:108400001C02030008B5024B1B689B6C019308BD5E
:108410001C02030008B5024B1B68DB6C019308BD0E
:108420001C02030008B5024B1B681B6D019308BDBD
:108430001C02030008B5024B1B685B6D019308BD6D
:108440001C0203008A4210B507D0029C401AE41AAD
:108450006043521A90FBF2F0184410BD0021FFF760
:108460004FBE10B5836804460BB903F073F8C368B8
:108470009847A3681BB1032221462046984720460F
:108480001021BDE8104003F05FB810B50368044642
:108490009B689847A368013BA3602BB923682046DB
:1084A000DB68BDE81040184710BD0B68036013B1CE
:1084B0005A6801325A60704710B50446006828B106
:1084C0004368013B43600BB9FFF7DFFF204610BD57
:1084D000024800230360FFF7E1BB00BF64E4032010
:1084E000002240681146FFF7FDBE00224068114699
:1084F000FFF718BF002240681146FFF723BF40680E
:108500000022FFF717BF4068002281F00101FFF74A
:1085100001BF002340681A461946FFF7EBBE002250
:1085200040681146FFF7CEBE406800220221FFF7E7
:10853000D1BE002340681A46FFF7BCBEF0B51B4B06
:10854000036000250F4630331826C0E9025589B074
:108550004360324629460446103003F003FD786834
:108560002A462946FFF7BEFE18B9A060204609B08A
:10857000F0BD2946324602A8CDE9005503F0F2FCD1
:1085800002A96846ADF80860FFF730FB10B101237F
:10859000A360EBE7009B019AA360E2600BB90223A2
:1085A000A36002A9204600F0C0F8DFE734CD0D003B
:1085B000084B10B5282422461846002103F0D2FCAF
:1085C000054B04804FF0FF32426004225A60034A98
:1085D0001A6010BD70E4032068E40320F8CC0D009D
:1085E0007047007D7047037D4BB18369B3F1004F45
:1085F00005D0006AB0F1004018BF0120704700208C
:10860000704703681B6A184710B52821044602F01A
:108610009BFF204610BD0000037D7BB1C369002B8A
:108620000CDB07EE903A9FED077AF8EEE77A87EEDB
:10863000870ADFED057A20EE270A7047BFEE000AB1
:10864000704700BF00FF7F470000C842037D63B151
:108650008369B3F1004F08D007EE903A9FED047A9A
:10866000F8EEE77A87EE870A70479FED020A7047B7
:108670000000C84200000000037D7BB1436A002B6C
:108680000CDB07EE903A9FED077AF8EEE77A87EE7B
:10869000870ADFED057A20EE270A7047BFEE000A51
:1086A000704700BF00FF7F470000C842037D63B1F1
:1086B000036AB3F1004F08D007EE903A9FED047AB9
:1086C000F8EEE77A87EE870A70479FED020A704757
:1086D0000000C8420000000070B50C1E06460ADA11
:1086E0002D2102F014F8614205460A22304602F0BC
:1086F0001DF8284470BD21460025F6E770B50C46EC
:10870000054681682046FFF7E7FF2C2106462046F4
:1087100001F0FDFFE96806442046FFF7DDFF304425
:1087200070BDA0F10400FFF7E9BF30B50D4600F1C0
:1087300010040FCD0FC495E8030084E80300012066
:1087400030BD70470020704710B51021044602F07C
:10875000FBFE204610BD08B5FFF7F6FF08BD30B59B
:1087600000224FF69C74026084808D888C800C6897
:10877000858004600A6030BD10B504460068FFF7CC
:1087800001FE204610BD38B5C468F4B12378022B31
:1087900003D104F10C00FFF7EFFF656835B12846FF
:1087A000FBF7F4FD1021284602F0CEFEA56835B196
:1087B0002846FBF7EBFD1021284602F0C5FE2046B7
:1087C0001421BDE8384002F0BFBE38BD10B588B0F6
:1087D0000446684602F055F8694604A802F09CF881
:1087E00004A8A047044604A802F000F8684601F077
:1087F000FDFF204608B010BD1FB50023CDE90201E2
:10880000019210241A4669461846ADF80230ADF8B8
:108810000040FFF7E7FC04B010BD1FB50C23ADF816
:10882000043003688DF80630037A8DF8073043680A
:1088300002930021437AADF80D1001A88DF80F10B6
:108840008DF80C30FFF72EFD05B05DF804FB1FB569
:108850000C22ADF8042002688DF80620027A8DF80B
:108860000720426802920023427A8DF80C201946B4
:1088700001AA0220ADF80D308DF80F30FFF702FD90
:1088800005B05DF804FB73B50E46044656F8043B8C
:1088900000930D4601A83146FFF707FE019A009BA1
:1088A0006260236001A8002301930093FFF704FE98
:1088B0003046FFF701FE2846082102F045FE20461B
:1088C00002B070BD13B50B460246D0E900016C46FC
:1088D00084E8030093E8030082E8030094E80300BF
:1088E00083E8030002B010BD826810B50AB902F037
:1088F00031FEBDE81040C368184708B5006800F1B4
:108900001001FFF7F1FF08BD826810B50AB902F047
:1089100021FEBDE81040C368184708B5006800F1A3
:108920001001FFF7F1FF08BD38B5002304460360CE
:1089300010200D46FBF7AFFB28B10123C0E901333E
:10894000024B0360C5602060204638BD70CD0D002D
:1089500038B5002383608B6804460D462BB1022294
:108960009847EB68E360AB68A360204638BD000021
:10897000F0B589B004686846FFF7F1FE4FF00203D6
:10898000D4E84F2F002A03D1C4E8413F0029F7D192
:1089900025D104F10C0569462846FFF7E0FEBFF338
:1089A0005B8F01236370002004F10803BFF35B8F2A
:1089B00053E8006F43E80002002AF9D1BFF35B8F50
:1089C0006EB1FFF7B5FB78B129463046FFF78CFF53
:1089D0003046FBF7DBFC1021304602F0B5FD68465F
:1089E000FFF7CAFE09B0F0BD314602A8FFF7B0FF9D
:1089F000E068B4F9105008B103F00AFB06901020AB
:108A0000ADF81C50FBF747FB0546E8B1002787602F
:108A10001820FBF740FB044688B10146876002A896
:108A2000FFF750FF049BA268A360059B049206A970
:108A3000E268E36004F110000592FFF790FE084B36
:108A4000EB60084B2C60AB6006A8FFF795FE02A810
:108A5000FBF79CFC002229460348FFF771FBB7E7B0
:108A6000FB880D00918B0D0063840D002DE9F0470C
:108A70008AB005469DF848900C4617469846FFF781
:108A8000C9FB07AE824638BB4FF62E73059005A989
:108A90003046ADF81830FFF762FE1420FBF7FBFA02
:108AA000044648B1022303700123C0E901AA4370C0
:108AB00031460C30FFF753FE2846214640F8044B60
:108AC000FFF732FF3046FFF757FE05A8FFF754FEC9
:108AD00028460AB0BDE8F0870C234FF0000A1420A6
:108AE000CDE908AA0793FBF7D6FA014628B1C0E9F9
:108AF00001AA80F800A080F801A004A80391FFF764
:108B000013FF224B08930820FBF7C5FA824628B1D1
:108B1000039B40F8043B04A9FFF7C7FC00965FFAEB
:108B200089F3424639462046CDF824A0FFF782FB60
:108B3000B8B9039B5B7803F0FF0293B94FF69C73BF
:108B400005A903A80592ADF81830FFF711FF05A895
:108B5000FFF712FE05A80999FFF795FE06A8FFF793
:108B6000ABFC039B059304A906A8FFF79EFC059B9D
:108B7000069A2B606A60002306A806930593FFF708
:108B80009BFC04A8FFF798FCA2E700BF558C0D00E2
:108B9000022AF8B5054607D0032A18D0012A01D1C8
:108BA0000B6803600020F8BD18200E68FBF773FA0D
:108BB000044650B13146FFF7CBFE3069B6F9147068
:108BC00008B103F025FA2061A7822C60EAE7046867
:108BD000002CE7D004F11000FFF7CEFD2046FBF794
:108BE000D5FB1821204602F0AFFCDBE738B50023A7
:108BF00083608B6804460D462BB102229847EB68D0
:108C0000E360AB68A360204638BD022A70B5044615
:108C100007D0032A12D0012A01D10B68036000207B
:108C200070BD14200E68FBF736FA054620B13146B8
:108C3000FFF7DCFF337C2B742560F0E70468002C21
:108C4000EDD02046FBF7A2FB1421204602F07CFC6D
:108C5000E5E70000F0B589B004460D4601A81146CD
:108C6000FFF711FEA4B124B21DB1284603F0D0F9DC
:108C7000054601A803A90395ADF81040FFF778FE5B
:108C800003A8FFF779FD02A8FFF716FC09B0F0BDB5
:108C9000019D0123D5E84F2F002A03D1C5E8413FAC
:108CA0000029F7D1EFD12B73BFF35B8F6B702B1DB6
:108CB000BFF35B8F53E8006F43E80042002AF9D10D
:108CC000BFF35B8F002EDED02046FFF731FA074658
:108CD00060B105F10C013046FFF716FE3046FBF798
:108CE00055FB1021304602F02FFCCCE7314603A89B
:108CF000FFF77CFF2B7B8DF81C301020FBF7CBF9A6
:108D00000546D0B187601420FBF7C5F9044678B159
:108D10008760014603A8FFF7D5FD059BA268A36005
:108D2000069B0592E268E3609DF81C30069223746E
:108D3000064BEB60064B2C60AB6003A8FBF726FBF1
:108D4000002229460348FFF7FBF9C7E71B890D00FE
:108D50000B8C0D0063840D00002240681146FFF764
:108D6000E1BA002240681146FFF7ECBA40680022E1
:108D7000FFF7E0BA4068002281F00101FFF7CABAAC
:108D8000002340681A461946FFF7BCBA0023406822
:108D90001A461946FFF7AEBA002240681146FFF79F
:108DA000A1BA002240681146FFF78CBA4068002241
:108DB0000221FFF78FBA002340681A46FFF77ABAFC
:108DC000024B03225A60024A1A60704798E403205B
:108DD0008CCD0D00006800F0ADB810B50446016000
:108DE00002710AB1FFF7F6FF204610BD13B5044625
:108DF000019102F085FB019A01462046FFF7EDFF45
:108E0000204602B010BD7047F8B5064615460C4620
:108E10008F18BC4206D0336814F8011B9B6830469B
:108E20009847F6E72846F8BD007C0022FFF71EB8F9
:108E3000007C0021FFF722B8007C0021FFF726B854
:108E4000007C0021FFF72AB8007C0021FFF72EB834
:108E500010B51421044602F077FB204610BD000037
:108E600010B54FF47A73044608460021C4E9011393
:108E7000034B236020741146FFF728F8204610BDED
:108E8000C8CD0D000023007C1A461946FEF7D6BF58
:108E90007FB500221423CDE90122ADF804300B7810
:108EA0008DF808304B680393CB680493007C0B7AF1
:108EB000059301A9FFF722F807B05DF804FB1FB581
:108EC000003B8DF800104FF06401039118BF01239F
:108ED000694601928DF80830FFF7DAFF05B05DF8BA
:108EE00004FB0123FFF7EBBF007C0022FEF7AEBFBF
:108EF000C9B2FFF7F9BF7FB50023CDE901334A6856
:108F000003921423CA68ADF804300B7804920A7AED
:108F10000592007C8DF8083001AA1946FEF796FFED
:108F200007B05DF804FB007C0022FEF797BF01212B
:108F3000FFF7F9BF08B50021007CFEF7CFFFB0FABC
:108F400080F0400908BD08B50021007CFEF7CEFF87
:108F5000B0FA80F0400908BD004700002DE9FF414C
:108F600000241D460F4690460646FEF757FFA542D1
:108F70004FF00403ADF80D408DF80C308DF80F4024
:108F8000A2BF9DF828308DF80E3003AC074900943D
:108F900043463A463046A8BF8DF80D50FEF736FFDF
:108FA000B0FA80F0400904B0BDE8F081598F0D009F
:108FB000F8B50446FEF732FF054670B9084F57F87A
:108FC000246046B13046FBF7E1F91021304602F04B
:108FD000BBFA47F82450012000E00020F8BD00BF94
:108FE000A0E40320704710B51821044602F0ACFA43
:108FF000204610BDF0B5037D062B8DB00E4600F166
:1090000004074FF0000412D000F1080515F8011D07
:109010000A22304601F08AFBAF42044419D0002CEA
:10902000F4D02E21304601F072FB0444EEE72F23EA
:109030006A4639460A208DF80040FEF767FF684609
:1090400003F003F833680246DB6869463046984708
:10905000044620460DB0F0BD10B5054B0446112264
:1090600040F8043B002102F07DFF204610BD00BF08
:10907000F0CD0D000346074A10B543F8042B01F16B
:10908000100251F8044B43F8044B9142F9D10A788D
:109090001A7010BDF0CD0D0010B59DF8084044EADF
:1090A000032343EA024242EA01610423416003755B
:1090B00010BD13B5CB7800938B784A780978FFF709
:1090C000EBFF02B010BD00F11003012213F8101CD9
:1090D0000129184608D153F8041C02EB4102013A59
:1090E00003F11003F2D17047022904BF53F8041CA6
:1090F0005218F4E70EB4F0B588B000AF07F13405AC
:10910000102155F8042B7A6004462B467818FD6030
:10911000FFF758F90F287A681AD900F1080323F0ED
:1091200007036E46ADEB030D411C2B466846FD6000
:10913000FFF748F9021E04DD236869469B68204654
:109140009847B5462037BD46BDE8F04003B07047AC
:109150000028F7D0236802469B6807F110012046DB
:109160009847EFE710B5036804469B689847A368E3
:10917000013BA3602BB923682046DB68BDE81040A3
:10918000184710BD07B503688DF807109B680122CA
:109190000DF10701984703B05DF804FB38B50B6883
:1091A00003604D6843689D4204460CD015B16B685E
:1091B00001336B60606828B14368013B43600BB9C1
:1091C000FFF7D0FF6560204638BD0B4611460022F0
:1091D00010B5C0E90022044683600BB9204610BDDB
:1091E000FFF7DCFFFAE78368EBB11A78032A1AD895
:1091F000DFE802F00417021B0520704702685B6875
:109200005268D05C2D2812D0A0F13003092B0ED962
:1092100074280ED066280CD0A0F16E035842584135
:1092200070470620704700207047042070470320D5
:1092300070470220704710B50446FFF7D4FF02289C
:109240000ED0C31EDBB2012B14D82268A36850686D
:109250005B68BDE810400A220021184402F0B0BF4C
:109260002268A36852685B68D05CA0F1740358421E
:10927000584110BD0020FCE738B50023C0E9003399
:1092800004460E48C4E90203A9B10B78032B06D0AB
:109290008BB9136858684B68C35C6E2B07D0136892
:1092A0004D6858688B6828445B1BA060E3601146DA
:1092B0002046FFF773FF204638BD00BF59CE0D0092
:1092C00038B500250B46C0E90055C0E90255C0E994
:1092D0000455044611464BB11A78012A06D103F110
:1092E0001002DB6882604361FFF758FF204638BDFB
:1092F00010B54369044663B18068E060013B1030FB
:10930000A0602061636113B1FFF7DDFEA060012062
:1093100000E0184610BD10B57D210446FFF732FF6E
:1093200001232371204610BD08B50379012B02D01B
:10933000022B04D008BD2C21FFF724FFFAE73A21C5
:10934000FAE710B50446FFF7EFFF20467B21FFF751
:1093500019FF00232371204610BD000013B50446F9
:109360000191FFF7E1FF2368019ADB68034920467A
:10937000984701232046237102B010BDD4C90D00C7
:1093800013B504460191FFF7CFFF2368019ADB680C
:1093900003492046984701232046237102B010BD9F
:1093A000C3CB0D002DE9F0410D4617462221DFF811
:1093B000A08004462F44FFF7E5FE2946BD422A4619
:1093C00038D015F8016B222E03D05C2E01D01F2E51
:1093D000F4D82368521A9B68204698475C2120469F
:1093E000FFF7D0FE0D2E0AD8072E1CD9A6F10803D0
:1093F000052B18D8DFE803F00D0F11171315222ED7
:1094000001D05C2E0FD131462046FFF7BBFE294626
:10941000D4E76221F8E77421F6E76E21F4E76621CC
:10942000F2E77221F0E723683246DB6841462046C6
:109430009847ECE78D4204D023686A1A9B6820465F
:10944000984722212046FFF79DFEBDE8F08100BF2E
:10945000FCCD0D0013B50446CDE90021FFF764FFF4
:109460002046DDE90021FFF79DFF022320462371FE
:1094700002B010BD13B50446CDE90021FFF754FF3B
:109480002046DDE90021FFF78DFF012320462371EF
:1094900002B010BD80680368DB6818477047084653
:1094A00011B10B685B681847704770477047704789
:1094B000704738B504460D4600682E2102F08BFD3A
:1094C0002368C31A2B6023B1037803B101302368EA
:1094D0002060184638BD10B50C21044602F034F85F
:1094E000204610BD10B50421044602F02DF8204698
:1094F00010BD10B50421044602F026F8204610BD28
:1095000008B502F072FDB0FA80F0400908BD70475E
:1095100010B50C4601F032FE844210D001F0A6FDD9
:10952000844205D101F0A2FDBDE8104001F09BBDD1
:109530002CB1236820465B68BDE81040184710BD79
:1095400013B504460846019102F07FFD01990246D9
:10955000204602B0BDE81040FFF78CBF13B50446AB
:109560000846019102F071FD23680199DB6802460B
:10957000204602B0BDE81040184707B503688DF8D3
:109580000710DB6801220DF10701984703B05DF871
:1095900004FB0EB403B503AB002153F8042B006A9F
:1095A000019301F0E1F802B05DF804EB03B07047FD
:1095B0002DE9F74FD0E900954FF0140808FB05F5A9
:1095C0000093AB10184D17465D434C46002D23DD2C
:1095D0006E1008FB06F004EB000A3A46BAF804B035
:1095E000205801915F4528BF5A4602F036FD019987
:1095F000012378B95F4503D1009A13703546E5E73A
:109600008CBF012000200028F8D0AE1B0AF1140402
:10961000013EF3E7C00FF6E7A4EB09040248A410EB
:10962000604303B0BDE8F08FCDCCCCCC7FB50369EF
:10963000067E01910BB301B3002500F10C040395E4
:1096400003A901A8FFF735FF0146B0B10DF10B03E7
:10965000039A8DF80B502046FFF7AAFF9DF80B30B8
:109660005BB12468142303FB004000F10804B0F947
:109670000630002BA8BFDEB2E2E7304604B070BD72
:1096800010B5094C2378BFF35B8FDB0709D4204664
:10969000FAF712FD28B12046FAF713FD034802F04D
:1096A0001DFC034810BD00BF34E50320AB940D0042
:1096B00004E2032010B5094C2378BFF35B8FDB076E
:1096C00009D42046FAF7F8FC28B12046FAF7F9FC4D
:1096D000034802F003FC034810BD00BF38E5032037
:1096E0000F950D0008E2032038B500250446C0E9B7
:1096F0000055C0E904558560856140F8245FFEF798
:10970000CDFAFFF7BDFFE061FFF7D4FF25732062BC
:10971000204638BD10B50A4C2378BFF35B8FDB07BA
:109720000CD42046FAF7C8FC40B10648FFF7DCFF2E
:109730002046FAF7C6FC044802F0D0FB014810BDF1
:1097400030E5032040E50320F59B0D00024A034964
:1097500003480023FEF7B2BC7D9A0D00099A0D0064
:1097600089990D0000231A4619461846FEF7A6BC33
:1097700037B50D6951F8043B0093044601A8FEF784
:1097800094FE6A4629462046FFF71FFD01A8FEF712
:1097900093FE204603B030BD37B58D6851F8043BC9
:1097A0000093044601A8FEF780FE6A46294620463B
:1097B000FFF786FD01A8FEF77FFE204603B030BD0F
:1097C00037B5CD6851F8043B0093044601A8FEF775
:1097D0006CFE6A4629462046FFF74EFD01A8FEF7BB
:1097E0006BFE204603B030BD70B58AB00D46014611
:1097F00004A8FFF7D1FF144E04A8FFF779FDE8B1E4
:1098000004A96846FFF7DCFF02983146FFF778FEAF
:10981000044610B12C1E18BF012401A8FEF74CFE0F
:10982000002CE9D004A96846FFF7A2FF6846FFF7BD
:1098300002FD286001A8FEF73FFEDDE705A8FEF760
:109840003BFE0AB070BD00BF02CE0D0037B50C461E
:1098500020461249154602F0C8FB48B901F08EFCBB
:109860004FF4165101F07AFC01F088FC03B030BDD2
:109870000B49204602F0B9FB70B94FF4165301A909
:1098800028460193FFF7B0FF01F0F0FB019901F0CA
:10989000E7FB01F0EBFBE9E70020E7E707CE0D006F
:1098A0000ECE0D0070B5D0E900531426044606FB19
:1098B0000356AE4205D005F10800FFF7F3FF14355B
:1098C000F7E72068FEF75EFD204670BD70B5D0E971
:1098D0000053044605EB0316AE4204D0284600F0C0
:1098E00085FF1035F8E72068FEF74CFD204670BD77
:1098F00010B504460C30FFF7D5FF2046FFF7E6FF12
:10990000204610BD10B5044B044640F8043BFFF759
:10991000EFFF204610BD00BF80C80D0010B5044603
:10992000FFF7F0FF2046242101F00EFE204610BD77
:1099300010B5034B03600446FFF7E4FF204610BD5B
:10994000A8CE0D0010B50446FFF7F2FF20462421F3
:1099500001F0FAFD204610BD0022C0E9002210B53A
:1099600082600C6804604C6844608C680A604A60DD
:1099700084608A6010BD10B5036804461868FEF75D
:10998000A5F9204610BD00002DE9F04F87B08046B4
:1099900003931C4B5B68C3F30803894616466BB9F7
:1099A000FFF7B8FE044600F12403406A0593FEF772
:1099B00085F9237B2BB105A8FFF7DDFF07B0BDE8D4
:1099C000F08F01232373D4E900535FFA89F905EB83
:1099D000830AAA4512D055F8047B3146381DFFF79B
:1099E00025FE8145F5D33B68039A0092D3F808B071
:1099F0004A46334641463846D847EAE700232373B0
:109A0000D9E700BF00ED00E02DE9F74F9B461A4B68
:109A10005B68C3F308038046894616466BB9FFF7B7
:109A200079FE044600F12403406A0193FEF746F9EB
:109A3000237B2BB101A8FFF79EFF03B0BDE8F08F99
:109A400001232373D4E90053F6B205EB830A55458D
:109A50000ED055F8047B5946381DFFF7E7FD8642C6
:109A6000F5D33B684A46DB68414638469847EEE7FF
:109A700000232373DEE700BF00ED00E02DE9F34192
:109A8000164B5B68C3F3080305460F461BBBFFF785
:109A900041FE00F124030446406A0193FEF70EF9EB
:109AA000D4E90063462406EB8308B04509D101A838
:109AB000FFF761FFA542B4BF0020012002B0BDE85E
:109AC000F08156F8040B39460430FFF7AFFD8442AD
:109AD000A8BF0446E9E70020F0E700BF00ED00E082
