:02000002D0002C
:1040000000400D00A4D90D00000006000D000501C0
:08401000040135080000000066
:0440180034C20D00A1
:1040200009480A49884208B505D0094A824202D0A7
:10403000121A07F09FFF0748074A0021121A07F0DB
:10404000C1FF014808BD00BFE8E1032054D80D00BE
:104050000CE3032010E30320F8E7032070B5074EBC
:10406000074C07F039F9A41BA4080025A54200D18C
:1040700070BD56F8043B98470135F7E714D00D00A2
:1040800044D00D0001F0E8B808B501F0A1FDBDE88D
:10409000084007F0E3B804F0BDB804F0BBB804F082
:1040A000C1B8000008B5034A00210C2003F036FF18
:1040B000FEE700BFED7B0D000078B0FA80F040090C
:1040C00070470123037070477047006A0368DB681C
:1040D00018470000014B1A60704700BF20E2032020
:1040E00003681847012A03D0022A03D00020704732
:1040F0000160FBE70B680360F8E70021072007F089
:1041000084B9000010B5054B1A7B054B044653F8E3
:10411000221006F0CAFB204610BD00BFBCE40320FD
:10412000E8E1032038B50446006928B185680C2110
:1041300007F033FA2846F8E7204638BD094B01223C
:104140001A70094B53E8002F013243E8002100297F
:10415000F8D1064B53E8002F013243E80021002933
:10416000F8D17047B0E4032034E4032014E40320C2
:1041700008B5044906F0EFFB18B1034B06221A708C
:10418000012008BD8CC20D00B1E40320436913B1C6
:1041900083690C301847704710B5034B0360044621
:1041A00003F02EFA204610BDB0C70D0010B504462E
:1041B000FFF7F2FF2046382107F0EFF9204610BD47
:1041C00010B5034B0360044602F00EFF204610BDFD
:1041D00094C70D0010B50446FFF7F2FF20461021EA
:1041E00007F0DBF9204610BD13B500210446084650
:1041F00003F064FC0023204601A9019303F076FC40
:10420000019C0CB1012323710021012003F056FC15
:104210002CB1236820469B6898470023237102B085
:1042200010BD000008B50A4906F095FB002368B1EF
:10423000084A09491360936053615360074A0B6150
:104240001370074B01201870064B187008BD00BF93
:104250008CC20D00E4E30320BCE4032018E4032037
:1042600008E40320ECE4032010B50446006818B10C
:1042700003F0D8FF0023236010BD10B50446FFF7FC
:10428000F3FF204610BD08B5002003F03BFF28B126
:1042900003F010FF80F00100C0B208BD0120FCE770
:1042A0000023042203F0E6BE30B585B00346144671
:1042B00068460D4698470298206003F0ABFF2860DF
:1042C00050B12268009907F055FE0024684606F0B8
:1042D000A1FA204605B030BD004CF7E7FCFEFFFF19
:1042E0000A4B10B50446036005F01CFA214605F0A0
:1042F0001EFC06F067FF06F059FF2046044B40F80D
:10430000043B05F001FB204610BD00BF7CC70D003B
:1043100064C70D0010B50446FFF7E2FF20462421D4
:1043200007F03BF9204610BD002340681A461946A5
:1043300003F038BF10B58368044613B10322014669
:104340009847204610BD000037B5134B0360044664
:104350008068C8B100256FF00043CDE90035022127
:104360002B462A4603F0CAFBA068294603F016FC38
:10437000237903F0FF0513B103F098FBF8E7A06879
:10438000294603F0ABFBA56004F10C00FFF7D2FF58
:10439000204603B030BD00BF50C70D0010B5044625
:1043A000FFF7D2FF20461C2107F0F7F8204610BD8A
:1043B00038B5044620252A46002107F003FE657122
:1043C000204638BDF8B5037D05460F4616468BB12D
:1043D0000368DB6883B19A88012A06D09B68F9E7F5
:1043E0009B684BB19A88012AFAD12BB19A89BA42BB
:1043F000F6D19E732846F8BD0A49102007F0CFF881
:10440000044668B11022002107F0DCFD064B236052
:104410000123A3802B69A360A781A6732C61E9E720
:104420002875E7E7B8CE0D001000030070B5037DD6
:1044300005460E46CBB10368DB6823B19A88042A8F
:1044400017D09B68F9E70C49102007F0A8F804463C
:1044500068B11022002107F0B5FD084B236004234A
:10446000A3802B692C61C4E90236284670BD2875EB
:10447000FBE7DE60F9E700BFB8CE0D0010000300D7
:10448000002003F0CBBB00000246014804F006B94F
:1044900071860D000EB410B58DB00FAA016852F8E8
:1044A000044B039200232020CDE90403CDE9004210
:1044B0001E2004AA03F042FD0DB0BDE8104003B079
:1044C00070470EB410B58DB00FAA016852F8044BB6
:1044D000039200232020CDE90403CDE900423220DD
:1044E00004AA03F02BFD0DB0BDE8104003B07047E7
:1044F00037B504689DF818508DF800308DF80450D9
:10450000E4683C23A04703B030BD000030B50B7811
:104510001C4D93B00C4693B91B4902A807F09FFDB0
:104520002B7953B1194B1A491B788DF80030194B70
:1045300019481B7802AAFFF7DBFF13B030BD08460D
:1045400007F0F4FCC8280DD1144902A807F087FD34
:1045500006F0F1FC124B286201221A70114B002266
:104560001A70DDE7204607F0E1FCC928ECD02046B0
:1045700007F0DCFC0C4A0346402102A803F06AFE67
:10458000CEE700BFBCE40320C1C20D0069E30320F5
:10459000F8C20D0068E3032074E40320C9C20D00D3
:1045A000ECE4032018E40320DBC20D0007B50B493F
:1045B00006F0D1F970B100238DF80030084B094A9C
:1045C0001B7809490948FFF793FF09480A2102F0BF
:1045D00015FA012003B05DF804FB00BF8CC20D008A
:1045E00068E3032005C30D00F8C60D0074E4032042
:1045F00078E3032037B51949054606F0ACF90446BF
:10460000B0B1174B174A01241C71DB78147013B931
:10461000012003B030BD144B144A1B788DF80030D4
:10462000134B1B7813491448FFF762FF2046F0E74D
:104630001249284606F08FF90028EAD0084B094AAB
:104640001C71DB7801241470002BE1D0064B0C4A5E
:104650001B788DF80030064B1B78E3E78CC20D0009
:10466000BCE40320ECE4032069E303201DC30D0038
:1046700068E30320D5C40D0074E40320E1C40D00F9
:104680002EC30D0000B50C4B0C4A1B7FC3B04FF47A
:10469000807102A803F0DEFD094B0A491B788DF8F2
:1046A0000030094B09481B7802AAFFF721FF0120BF
:1046B00043B05DF804FB00BFBCE4032043C30D001E
:1046C00069E3032096C50D0068E3032074E403202A
:1046D00030B5C5B000680A2203A907F0A1FDB0F506
:1046E0007A7F1ED8104DA86006F025FC0F4BE860BD
:1046F00001241C700E4AAB684FF4807104A803F0CB
:10470000A9FD0C4BDB7853B10B4B0C491B788DF892
:1047100000300B4B0B481B7804AAFFF7E9FE20463C
:1047200000E0002045B030BDE4E3032008E40320AE
:1047300057C30D00BCE4032069E303206DC30D00E3
:1047400068E3032074E4032030B5C5B000680A2292
:1047500003A907F065FD0A2820D8124DC1B21248FE
:1047600085F82B1002F024FE104B114A01241C7016
:104770004FF4807195F82B3004A803F06BFDEB78B3
:1047800053B10C4B0C491B788DF800300B4B0C4887
:104790001B7804AAFFF7ACFE204600E0002045B0DD
:1047A00030BD00BFBCE4032098E30320ECE4032009
:1047B00073C30D0069E3032096C50D0068E3032071
:1047C00074E4032030B5C5B000680A2203A907F0DD
:1047D00027FD0A281BD80F4D0F4B85F82C0001240C
:1047E0001C700E4A03464FF4807104A803F032FD9A
:1047F000EB7853B10A4B0B491B788DF800300A4B0C
:104800000A481B7804AAFFF773FE204600E0002048
:1048100045B030BDBCE40320ECE4032089C30D00A7
:1048200069E3032096C50D0068E3032074E40320C8
:1048300013B52549044606F08EF820B322492046D8
:1048400006F089F838BB2149204606F084F8002894
:1048500036D01F4CE27812B91E4B01221A701E4B43
:104860001E4A1B788DF800301D4B1E491B781E48D0
:10487000FFF73EFE4FF47A7003F040FD00231B4922
:10488000A371102219E01149204606F064F80028AF
:10489000D4D102B010BD0E4CE27852B10E4B144A86
:1048A0001B788DF800300E4B0E491B780E48FFF731
:1048B0001FFE01230F49A37110220F4807F00FFCC0
:1048C0000E4B01201870E4E78CC20D00E1C40D000E
:1048D000BCE4032071E4032069E30320B3C30D00AB
:1048E00068E30320D5C40D0074E40320C5C30D00A4
:1048F000A4C30D00C9C30D0060E40320ECE4032051
:104900002DE9F0414C4C4D4EC2B003F077F92368CD
:1049100096F82C20C01A4FF47A73534398427AD9F0
:1049200003F06CF9464D20602B78464FBFF35B8F48
:1049300013F0010F09D12846FFF7BEFB28B103F0A1
:1049400085F938602846FFF7BCFB3B6893F8704058
:104950002B78BFF35B8FDB074FEA441809D4384844
:10496000FFF7AAFB28B103F071F938603448FFF76C
:10497000A8FB3B6893F8714004F01F0444EA080464
:104980002F2C53DD304A00210A2003F0C7FA2F4BA9
:1049900004F01F04012101FA04F4C3F808452C4B6C
:1049A000986838B16FF000420023CDE900231A4621
:1049B00003F0A4F8274D2C7806F0DAFA8442264C4E
:1049C00004D006F0D5FA01232870A361A36901334E
:1049D000A36106F0B0FA2368A2683179E060013380
:1049E00001322360A26099B1F17889B100924FF44D
:1049F00080711A4A02A803F02DFC194B19491B7843
:104A00008DF80030184B19481B7802AAFFF770FD8B
:104A1000174B01221A70174C237823B1164802F065
:104A200096FC0023237042B0BDE8F0811F2CAEDC61
:104A30004FF0A043AEE700BF6CE30320BCE40320CB
:104A400014E3032018E30320ED7B0D000003005066
:104A5000C8E3032070E30320E4E30320D3C30D0085
:104A600069E303205FC50D0068E3032074E40320BD
:104A700008E40320B0E4032098E3032010B51B4CA6
:104A80002368CAB0002B2DD0E2680892184A118D15
:104A90000791A169069161690591116904912169E4
:104AA0000391107B134951F82010029192680192F2
:104AB000A26800924FF480710F4A0AA803F0CAFB63
:104AC0000E4B0F491B788DF800300E4B0E481B78AB
:104AD0000AAAFFF70DFD0D4B01221A7023686360CF
:104AE0004AB010BD0A4A1268CFE700BFE4E30320D2
:104AF000BCE40320E8E10320F0C30D0069E30320D8
:104B000077C40D0068E3032074E4032018E4032055
:104B100038E4032013B5012101A805F02EFD0B4B4D
:104B20001B69243B402B01A84FF001040AD905F072
:104B3000B7FD074B1C73002401A805F02DFD20468E
:104B400002B010BD05F095FDF6E700BFE4E30320D9
:104B5000BCE4032030B5194D0FCD99B004AC0FC49F
:104B60000FCD0FC495E8030084E8030014490EA894
:104B700003F048FC0EA803F098FC04460EA803F0CE
:104B80009DFC0EA810EE105A03F0C8FC18AB10EEF6
:104B9000100A03EB840406F06DFECDE902012846FD
:104BA00006F068FECDE90001064A54F8503C06487C
:104BB000402103F04FFB19B030BD00BFD0C70D003E
:104BC00008E503208FC40D001CE303200000000053
:104BD00008B50F2006F045FCB0F5C87F05DA322095
:104BE00003F08CFB0F2006F03CFC06F031FE20A306
:104BF000D3E9002306F096FE07F0EEF8DFED147A15
:104C000007EE100A67EE277A17EE900A06F032FEDA
:104C1000104B002206F0CEFC0F4B002206F082FE65
:104C200007F092F806F014FE0C4B002206F07AFE14
:104C30000B4B002206F0A0FF0A4B002206F0BCFC42
:104C400007F082F8084B1861084B01221A7008BD62
:104C5000000080390000E03F000059400000224081
:104C60000000144000004040E4E3032008E4032077
:104C70006666666666660A4000B591B06846FFF7EC
:104C800097FB08A8FFF794FB002108A803F0D4F9CC
:104C9000134B5979A1B141F2D833ADF80630114B1D
:104CA000029341F27003ADF80C30009B43F40073A3
:104CB00000930021684603F0BFF911B05DF804FBD2
:104CC00041F27003ADF80630074B029341F2100336
:104CD000ADF80C30009B43F400730093EAE700BF8B
:104CE000BCE40320840300048403840337B51B4918
:104CF000054605F030FE0446C0B1194D01246C7123
:104D0000FFF7BAFF174B1C70EB7813B9012003B003
:104D100030BD154B154A1B788DF80030144B1B78AD
:104D200014491548FFF7E4FB2046F0E713492846ED
:104D300005F011FE0028EAD0094D0A4B6C710124E0
:104D40001C70FFF799FFEB78002BDFD0064B0C4A65
:104D50001B788DF80030064B1B78E1E78CC20D0004
:104D6000BCE40320ECE4032069E30320A8C40D00A5
:104D700068E30320D5C40D0074E40320E1C40D00F2
:104D8000BFC40D00244B1A69D3ED057AFF2ABAEE91
:104D9000087A88BF0022F4EEC77A88BF1A61F1EE64
:104DA00010FA06D4B2EE087AF4EEC77AF1EE10FAF1
:104DB00001DD1A4A5A61D3ED067AF5EEC07AF1EEBA
:104DC00010FA06D4B0EE007AF4EEC77AF1EE10FADB
:104DD00002DD4FF07E529A611A7F0C2A84BF0022B6
:104DE0001A775A7F0C3A0C2A84BF18225A770C4A39
:104DF00011681A8D8A4284BF00221A8501225A71D5
:104E0000084B988B81423FBF00219983064B1A7053
:104E1000064B01221A707047BCE403200000A0C0BA
:104E20000CE20320E4E3032008E40320ECE4032085
:104E300010B50E4CA38BB3F5C05F09D10C490D48DA
:104E400007F00DF9BDE8104009490B4807F007B914
:104E5000237F0A4A0748082103F0FCF9637F074AC9
:104E60000548BDE81040082103F0F4B9BCE4032074
:104E7000DAC40D0016E2032004E20320DDC40D00B5
:104E800013B50A22006801A907F0CAF917280CD83F
:104E9000074C2077FFF7CCFF064B01201870E37812
:104EA0000BB1FFF7EFFB02B010BD0020FBE700BF26
:104EB000BCE40320ECE4032030B5C5B000680A224E
:104EC00003A907F0ADF918281CD8104D6877FFF733
:104ED000AFFF0F4B0F4A01241C704FF480716B7FA2
:104EE00004A803F0B7F9EB7853B10B4B0B491B78CF
:104EF0008DF800300A4B0B481B7804AAFFF7F8FA2C
:104F0000204600E0002045B030BD00BFBCE40320D7
:104F1000ECE40320E3C40D0069E3032096C50D0013
:104F200068E3032074E4032038B50A4C0025C4E983
:104F30000055A56005F0FFFF074B084A1D6164237B
:104F4000236201231370064AE06013706561A58334
:104F500038BD00BFE4E30320BCE4032008E40320E1
:104F6000ECE4032030B5144D144C15492A78207810
:104F70008DB00E2303FB0212009203FB0013114AB3
:104F8000282102A803F066F92B7823700E4B1A79BA
:104F900082B1DB7853B10D4B0D491B788DF8003091
:104FA0000C4B0D481B7802AAFFF7A2FA0B4802A986
:104FB000FFF770FA0DB030BDB1E4032070E40320B8
:104FC00024E20320FAC40D00BCE4032069E30320BB
:104FD00008C50D0068E3032074E40320DCE503202A
:104FE0002DE9F047224B234C1B78234A23492448C0
:104FF00086B000258DF80030224B1B78FFF778FA39
:10500000257103F057F810B1284603F073F8FFF745
:1050100037FA4FF0000A054647F22F584FF00009C3
:10502000FFF72EFA461B61EB0A07B94508BFB045EA
:1050300005D3FFF728F910B903F02CF8F0E7FFF7D4
:1050400022F9637913B9A368462B09DC0E4902A83B
:1050500005F02BFC02A8FFF7EBFB02A805F0DAFB3A
:10506000FFF762FF094B01221A7006B0BDE8F08716
:1050700069E30320BCE4032019C50D0021C50D0020
:1050800074E4032068E303208CC20D00ECE40320E9
:1050900030B585B00D4600226946009202F066FFE9
:1050A000B0B9009C0CB1236923B90A4A00210A2037
:1050B00002F034FF0023ADF806300C23ADF80430C5
:1050C000042303930295236901AA012120469847EE
:1050D00005B030BDED7B0D0030B5264B002289B008
:1050E0005868114603F04EF808B1FFF733FDFFF79B
:1050F0006FFD69460720FFF7CBFF1F4C1F4D0028AF
:10510000A8BF00982073FFF705FD10B96B69013344
:105110006B6169460320FFF7BBFF40BBBDF8003061
:1051200007EE903AFBEECC7AFDEEE77A17EE903A76
:10513000402BC4ED027A09DC237B012B06D16846A3
:10514000FFF736F90021684602F076FFA3682A6A65
:105150009342B8BF2B621D2BCCBF00230123084A0A
:10516000E37101231370074A137009B030BDFFEEDD
:10517000007AD9E708E50320BCE40320E4E3032038
:10518000ECE4032008E4032070B5D0E900531426B2
:10519000044606FB0356AE4204D0284605F03AFB0F
:1051A0001435F8E7206803F03DF8204670BD002371
:1051B000022202F05FBF38B503681446DD68302371
:1051C000A847204638BD000070B5194B194C012284
:1051D0001A70E37886B053B1174B184A1B788DF8D4
:1051E0000030174B17491B781748FFF781F9002546
:1051F00016492571012602A82670A570E57105F0F3
:1052000054FB02A8FFF714FB02A805F003FB104BA8
:1052100063614FF07E53A361064A0E48667141F206
:1052200006533146A3832585FFF7C5FF06B070BD41
:1052300071E40320BCE4032069E303202FC50D00C3
:1052400068E30320D5C40D0074E403208CC20D0074
:105250000000A0C01CE403202DE9F0410021AAB009
:10526000082006F0C1F80021042006F0BDF8012155
:10527000072006F0B9F80021022006F0B5F8012158
:10528000072006F0C2F806A8002502F01BFF002345
:105290007D220AA906A805F070FBBD49BD4CBE4F92
:1052A000DFF804842B462A46CDE900550AA802F00F
:1052B00019FF2B460222B849B84802F0DBFEB84974
:1052C000B848FFF774FFB849B848FEF7E9FF04F1A2
:1052D0001001B748FFF76BFF2B460222B549B648CD
:1052E00002F0C8FEB549B648FEF7DAFF04F108013E
:1052F000B448FFF75CFFB449B448FEF7D1FFB449A6
:10530000B448FEF7CDFFB449B448FEF7C9FF2B46B9
:105310000222B349B34802F0ADFEB349B348FEF7E9
:10532000BFFF0C23CDE90355ADF80C30B04BB149AC
:105330000593042203ABB04802F09CFE94F82B3096
:10534000039302222B4603A9AC4802F093FE94F883
:105350002C30039302222B4603A9A94802F08AFEAF
:10536000A849A948FFF790F8A849A948FFF78CF881
:10537000A849A948FFF788F8A849A948FFF784F881
:10538000A849A948FFF780F8A849A948FFF77CF881
:10539000A849A948FFF778F8A849A948FFF774F881
:1053A000A849A948FFF770F8A849A948FFF76CF881
:1053B000A849A948FFF768F8A849A948FFF764F881
:1053C000A849A948FFF760F80126032241F2883373
:1053D00003A8CDE90323ADF8146003F08AF9A348CC
:1053E00001F018FE3346A1480DF10B02294601F0E9
:1053F00053FE9DF80B30032B00F065819B4801F0B4
:1054000013FE9B4A99480423294601F090FE334637
:1054100096480DF10B02294601F03EFE9DF80B3037
:10542000032B00F04D819349934888F80060FFF703
:1054300031F8924DFFF7A6FCFFF7FAFC904A0023E3
:1054400000214FF4802002F0B3FD082301212846FB
:105450006B8101F091FC01231A461021284601F0CE
:10546000F6F97C21A070284601F06EF994ED060A49
:1054700005F018FC00F0A0FF002800F0318105F0D5
:105480002FFC94ED050A05F0EDFB05F099FD0546AE
:1054900005F051FD281A06F0DBF93BA3D3E9002300
:1054A00006F06AFB774ACDE900010A214E4802F076
:1054B000D1FE03220221744801F0D6FF94F82B108C
:1054C000714801F075FFA3791022002B00F00B81C9
:1054D0006E493D4806F003FE0022114603A80392E0
:1054E00002F06CFB039B142B4FF0000240F0FD8098
:1054F000236901332361664B01221A703B68654DB5
:10550000002B00F0FC80FB682B60FFF7B5FB04204C
:1055100005F094FF08B9FFF757FE05F035FD0021AF
:105520000546F86805F082FB854201D0FFF7FCFCD8
:1055300005F012FD237F98421BDB05F00DFD637F14
:10554000984216DA0023009353494FF0FF330122AB
:10555000022003F005FDE37833B102F0ABFD18B98A
:105560004E4BE07001221A70FFF7B6FD4C4B4D4ACE
:105570001A6098F80030002B40F09880022388F8D9
:10558000003093E0AFF30080000000000020AC404A
:105590000D450D00BCE40320E4E3032047C50D00E6
:1055A000ECE30320BFC50D001CE3032053C50D0031
:1055B0005AC50D00F4E3032065C50D0010E2032079
:1055C00071C50D0079C50D0060E4032084C50D0090
:1055D00016E203202CC60D0004E2032091C50D0045
:1055E000F8E303209BC50D0009E40320A2C50D00CC
:1055F000A9420D0005410D00ADC50D0043C60D00CB
:1056000053C60D00D1460D00BCC50D0025420D004E
:10561000CAC50D00AD450D00D6C50D0071410D0088
:10562000E0C50D0031480D00E8C50D00ED4C0D0042
:10563000F5C50D00F5450D0000C60D0091620D0089
:105640000DC60D00F9630D001AC60D00814E0D0048
:1056500028C60D00B94E0D0035C60D0049470D0096
:105660003FC60D00C5470D004FC60D001CE40320CA
:10567000F8C70D005CC60D00DCE5032078E30320CD
:10568000D5400D006CC60D0098E30320C9C30D0082
:10569000ECE4032038E403203D410D0071E40320D5
:1056A000B4E40320905F0100B1E40320002107204F
:1056B00005F0ABFE06A805F0ADF82AB0BDE8F08114
:1056C000FFF782FDB5E62246314630230E4801F051
:1056D000E3FC24233A4650210B4801F0DDFCA8E608
:1056E00005F00AFBCDE60949F3E6114603A803924B
:1056F00002F064FA039B8C2B7FF400AFF8E605F010
:105700001AFC286001E700BF1CE40320C5C30D009C
:105710008842F8B504460D46164616D9904215D271
:10572000A2F11406751AA1F114072C44B7421CD03B
:105730002CB13146204605F0E9F8337C237430461D
:1057400005F068F8143E143CF0E70ED0B5420CD0DA
:105750002CB12946204605F0D9F82B7C2374284625
:1057600005F058F814351434F0E7F8BD2DE9F04190
:105770000023C0E9003383604F689F4204460E4611
:1057800023DD4FF0140808FB07F002F043FD054647
:10579000D8B1D4E9001208FB0212FFF7B9FF206864
:1057A00002F040FD2560A760D6E9007308FB03788E
:1057B000B84508D03946284605F0C2F83B7C2B7422
:1057C00014371435F4E7736863602046BDE8F08150
:1057D0002DE9F04F784B794D794E4FF0010883F861
:1057E0000080784B082291B01A7005F0A7FD0023C5
:1057F0001A460D2105F0AAFD05F0A0FD0023414643
:105800001A4605F0ABFD704B002464229C831A629B
:105810006E4BAB602C60AC80AC71022002F0B8FB28
:1058200032466B49284605F0B3FE2146404602F059
:10583000C7FB4146042002F0B9F966486649A0F862
:1058400009400346021D43F8092B9C70634B4360DB
:105850003246C0E9034480F81480047205F098FED3
:1058600005F046FE5E4D014623464FF400522846A1
:1058700001F0C6FB5B4B2B6028465B4D5B49324613
:1058800005F086FE5A494FF40062284601F0E0FF19
:10589000584B2B6032465849284605F079FE05F0F2
:1058A00027FE564D01466922284600F04FFE284645
:1058B000534D5449324605F06BFE2146284603F00D
:1058C000E7F932465049284605F062FE1D214F484F
:1058D0004F4D01F0C9FCCDE90344059405F072FC7D
:1058E0000DF12409824603A906A8FFF73FFFAB4646
:1058F00006A94846FFF73AFF464B4BF8043B0CAF6E
:1059000049463846FFF732FF3A464146584604F0CA
:1059100061FA3846FFF738FC4846FFF735FC3E4B46
:105920002B60C5F820A006A8FFF72EFC3B4B2B6090
:1059300005F048FC4FF4165105F034FC03F0F2FE7C
:10594000294604F0D9F903A8FFF71EFC3246344972
:10595000284605F01DFE334B0C93334D334B2B6023
:1059600097E8030005F10C0389E8030093E80300BE
:1059700087E8030099E8030083E803002C4B6B6180
:10598000AB690F932B4BAB612B4A2C712B46AC6050
:105990004FF47A71CDE9008405F108000E9402F00D
:1059A00095F83846FEF7C6FC24493246284605F0ED
:1059B000EFFD11B0BDE8F08F68E303205CE3032046
:1059C00010E3032069E30320E4E303200000FFFF6A
:1059D0007B420D00B0E3032025410D0010000300C1
:1059E0001CE4032094C70D0074E40320C1410D00A2
:1059F00000F40320B0C70D0099410D0078E30320A7
:105A00002CE403200D650D00B18C0D0098E30320FC
:105A10003CE4032064C70D006CCD0D007CC70D0075
:105A2000E1420D00FB400D00C8E3032050C70D000C
:105A3000E5400D00E1400D00E9410D0049430D0036
:105A40002DE9F04F85B04FF0000A01A8CDE901AA79
:105A5000ADF80CA002F033FEFEF712FD43F69728D6
:105A600083464FF00009FEF70BFDB0EB0B0661EB30
:105A70000A07B94508BFB04505D302F01BFB10B9B2
:105A800002F008FBEFE702F015FB2148DFF880A0E9
:105A9000FEF74AFCFEF7F4FC4FF00009804647F29F
:105AA0002F560027FEF7ECFCB0EB080461EB09056C
:105AB000AF4208BFA64206D3504604F0CBFC10B953
:105AC00002F0E8FAEEE7124804F0C4FC11480021A5
:105AD00000F03AFE104B1A7D0AB102221A7200221F
:105AE00004210D48FEF76EFC42F21071FEF79EFC99
:105AF000094901A804F0CCFF01A8FEF7B5FB4FF05F
:105B0000FF31044800F020FE05B0BDE8F08F00BF73
:105B100008E5032078E30320B0E303202DE9F04FEC
:105B200085B04FF0000A01A8CDE901AAADF80CA09C
:105B300002F0C5FDFEF7A4FC43F6972883464FF01C
:105B40000009FEF79DFCB0EB0B0661EB0A07B945B7
:105B500008BFB04505D302F0ADFA10B102F09AFAD1
:105B6000EFE7184E02F0A6FA00220221706802F058
:105B700001FB3046FEF7D8FBFEF782FC4FF0000A2F
:105B8000074647F22F584FF00009FEF779FCC41B77
:105B900061EB0A05A94508BFA04506D3304604F0CD
:105BA00059FC10B902F076FAEFE7064804F052FC0F
:105BB000054B0022DA70054B0120187005B0BDE8D6
:105BC000F08F00BF08E50320BCE40320ECE40320D1
:105BD0002DE9F0438E4CDFF87C8223788D4F8E4E7A
:105BE000013B97B0062B00F23B81DFE813F0A702E0
:105BF00007003B00B500850105024002874B1B787A
:105C0000022B01D0FFF7AEF9854DAB7953B101F00E
:105C1000F5FF844B1B68C01A834B1B68984284BFF6
:105C20000423237005F098F9804B81460021186801
:105C300004F0F4FF81451CBF0623237005F08CF9A6
:105C40006B7F984208DB03232370794B1B78002B72
:105C500000F00681052312E005F07EF92B7F9842C3
:105C6000F1DBF2E76D4B1B78032B01D0FFF77AF9DC
:105C7000022003F09FF96F4B1B6813B106232370BA
:105C8000EEE0674BDA7899460AB1FFF747FF00214B
:105C9000694800F059FD05F04EF94FF4616590FB3D
:105CA000F5F303FB1505654BC5F561651A7DB5F583
:105CB000616FA8BF4FF461650AB102221A72002217
:105CC00004215E48FEF77EFB4FF47A716943FEF7CC
:105CD000ADFB5A4903A804F0DBFE4FF0FF315648F4
:105CE00000F032FD564803F06DF8554803F061F8B6
:105CF000039B9BB19A88012A10D19B89042B0DD15B
:105D0000504906A804F0D1FD06A8FEF791FD06A8AB
:105D100004F080FD4FF4C053A9F81C3005F01CF9C5
:105D200099F81D30984211DA05F016F999F81C30EF
:105D300098420BDB0023009301224FF0FF334249CE
:105D4000022003F00DF9384B404A1A60022303A8E1
:105D50002370FEF789FA83E0304B1B78042B01D0C7
:105D6000FFF700F998F8003003F0FF01002B77D11E
:105D7000374B986800286FD1294BDB780BB1FFF7C0
:105D8000CDFE294B2C484FF47A7200211A6000F0A6
:105D9000DBFC05F0D0F84FF4616590FBF5F303FBF5
:105DA0001505264BC5F561651A7DB5F5616FA8BF70
:105DB0004FF461650AB102221A72002204211F48C1
:105DC000FEF700FB01220221FEF7FCFA4FF47A7184
:105DD0006943FEF72BFB194903A804F059FE4FF065
:105DE000FF31154800F0B0FC154802F0EBFF1448F5
:105DF00002F0DFFF039B002BA8D09A88012AA5D1CF
:105E00009B89022B6AD101F0F9FE064B18609DE7D1
:105E1000B1E40320ECE4032008E4032070E4032051
:105E2000BCE40320B8E40320B4E4032038E40320F6
:105E300071E40320E4E3032078E30320B0E30320CC
:105E40002CE40320E1C40D003D410D00905F0100F2
:105E5000C8E30320B0E4032001F090FE00288BD0BB
:105E600098F800300BB1FEF74BFD994801F064F84B
:105E70003B7833B1974A98480121FFF79CF90023FA
:105E80003B7033783BB12423944A9348502101F06E
:105E90004EF900233370924B1B68002B1BDB914A99
:105EA000402106A802F0D6F906A98F48FEF7F2FABB
:105EB000642002F023FA00238DF800308B4B8C49CC
:105EC0001B788C4806AAFEF713FB4FF4FA6002F029
:105ED00015FA04F0D9FD17B0BDE8F083042B7FF468
:105EE00035AF854906A804F0E0FC06A8FEF7A0FC43
:105EF00006A804F08FFC29E7804B1B78052B13D0F4
:105F00009A1F534253417E4A1370FFF72BF805F056
:105F100012F87C4B18607C48002340681A461946EA
:105F200002F038F902F0BEF802F0C4F8DFF8F091A0
:105F30000546002840D0674D002389F80030012332
:105F4000EB7004F0F8FF686299F80030002B87D1FD
:105F500004F0F1FF6B4B5F4D1B68604AC01A6B4B3E
:105F6000918B1B6880B29842288588BF2B852B8D2A
:105F7000994238BF93832021654A06A802F06AF946
:105F8000594806A9FEF786FA2B794BB100238DF804
:105F90000030564B5F491B78564806AAFEF7A8FA10
:105FA00001233B703370EB7823B1554B1B78002BEA
:105FB0007FF464AE022362E604F0BDFF514B1B6820
:105FC000C01A524B1B689842BED989F8005004F0A1
:105FD000B2FF404B5A6A801AB0F5E15F06D901233F
:105FE000237001F00BFE4C4B186039E74B493E48DB
:105FF000DD70FEF74FFAA7E7404B1B78062B01D068
:10600000FEF7B0FF334DEB78A9463BB9444B012274
:106010001A7004F090FF434B18601BE6AB79B3B1E4
:1060200004F09AFF99F81C3098421DD1FEF7D8FF72
:1060300004F092FF99F81C30984202D108B9FEF79B
:106040001DFD01F0DBFD384B1860072317E6FFF755
:1060500043F8EB78002BE3D1344B354A1A6001F05A
:10606000CDFD344B1860A5E7FEF708FDE0E7234BB4
:106070001B78072B01D0FEF775FF2F4B1D78B5B9A4
:106080002A4B2B4A1A6001F0B9FD2A4B18600223F3
:106090002370124B596800293FF4E2AE1A685D6024
:1060A000521AC3E905551A6001233370D8E601F08E
:1060B000A5FD1D4B1B68C01A47F2305398427FF66E
:1060C000CFAE01F09BFD144B18600123D7E500BF54
:1060D00078E30320BCE403201CE40320E4E3032072
:1060E00020E203201FC70D00DCE5032068E3032046
:1060F0003EC70D0074E40320E1C40D0070E40320EA
:1061000071E3032074E3032008E503200CE203207D
:1061100094C60D00A9C60D00ACE4032076C60D00A0
:1061200071E4032038E40320F0E40320B4E4032006
:10613000905F0100B8E4032018E40320404B1B7873
:10614000012B01D0FEF70EFF01F058FD3D4B1B68FF
:1061500003F5EA4330338342BFF482AE3A4D04F094
:10616000EAFE6B6AC01AB0F5E15F2C4613D904F061
:10617000E2FEA0F5616068622A4601213348FFF71C
:106180001AF833483349FEF79CF9642002F0B6F858
:10619000FFF756FC64E604F0CEFE2B6AC01AB0F599
:1061A000E15FEB7819D953B12B4B2C4A1B788DF852
:1061B00000302B4B2B491B782B48FEF799F94FF4F5
:1061C000FA6002F09BF80023236104F0B4FE01237F
:1061D000A0F5616020623B70DAE72A69032A12DCCD
:1061E00053B11D4B214A1B788DF800301C4B1D49C3
:1061F0001B781D48FEF77CF94FF4FA6002F07EF838
:1062000004F042FC2CE653B1134B144A1B788DF872
:106210000030134B13491B781348FEF769F94FF40C
:10622000FA6002F06BF80023074A08482361012155
:10623000FEF7C1FF1E210E4800F0E0FB10E600BF94
:1062400070E40320ACE40320BCE403201CE403203E
:10625000DCE50320B2C60D0069E30320DFC60D00B4
:1062600068E30320FEC60D0074E4032004C70D009C
:1062700078E3032008B5002001F044FF28B101F0C5
:1062800019FF80F00100C0B208BD0120FCE700004A
:106290002DE9F047C8B0804601F00CFF10B1002096
:1062A00001F028FF002001F0B9FC4FF0000A814600
:1062B00047F22F560027002001F0B0FCB0EB090494
:1062C00061EB0A05AF4208BFA64205D3FFF7D2FF34
:1062D00010B901F0DFFEEEE7FFF7CCFFD8F80000C1
:1062E0000A2203A905F09CFF00F10C03DBB2182B76
:1062F00048D845B207EE905A274BB8EEE70A01247A
:1063000083ED050A04F0AEFC244B1C7004F058FE2B
:10631000064604F010FE301A05F09AFA1CA3D3E9E1
:10632000002305F029FC1E4ACDE900010A211D4881
:1063300001F090FF01F0BEFE10B32B461A4A1B4D30
:106340004FF48071002608A801F084FF8DF80060EA
:1063500017492B78174808AAFEF7CAF804F0EBFD96
:106360000246C31704A804F0E3FC8DF800602B7804
:10637000049A0F490F48FEF7BBF804A804F04AFA44
:10638000204600E0002048B0BDE8F087AFF3008071
:10639000000000000020AC40BCE40320ECE403203B
:1063A0006CC60D0009E40320FCC70D00F4E40320D3
:1063B00096C50D0074E4032038B504F0E5FD0546EC
:1063C00004F0F6FD044604F0EBFD231F062B0ED966
:1063D000E31E082B0DD801382D1A04D50B2C14BF41
:1063E0000020012038BD072D03DD032CF7E7012035
:1063F000F8E70020F6E7000070B52DED028BC8B07D
:10640000054604F098FD0A22044603A9286805F011
:1064100007FFC3B2022B59D843B208EE103AB8EEC8
:10642000C88AB0EE480A04F03DFC2D4B83ED068A85
:106430002C4B01221A7018EE100A05F01BFA2A4A9A
:10644000CDE900014FF4807108A801F003FF04F0CA
:1064500055FD28B1FFF7B0FF002834D004F040FC10
:1064600004F0AEFD054604F066FD281A05F0F0F9CB
:1064700019A3D3E9002305F07FFB1C4ACDE90001F5
:106480000A211B4801F0E6FE01F014FEC8B1194DC7
:1064900019491A4800268DF800602B7808AAFEF7E3
:1064A00027F82246E31704A804F042FC8DF80060A8
:1064B0002B78049A10491148FEF71AF804A804F042
:1064C000A9F9012003E004F017FCC9E7002048B057
:1064D000BDEC028B70BD00BF000000000020AC408E
:1064E000BCE40320ECE4032010C80D006CC60D00D2
:1064F00009E40320F4E4032096C50D0074E40320AE
:10650000014B01221A707047F4E40320704710B564
:106510002021044605F041F8204610BD0EB410B508
:106520008DB00FAA016852F8044B0392002320207B
:10653000CDE90403CDE90042012004AA01F0FEFCEC
:106540000DB0BDE8104003B07047000010B50272F6
:10655000FF2242810022C0E9032242610276C26129
:10656000024A034C1060C0E9004110BDFCE4032066
:1065700070CA0D002DE9F8439DF820800446894635
:1065800016461F46B8F1000F02D0406802F0D4FC56
:10659000217A606802F0AAFC6068036849469B683B
:1065A00098476068002102F0C0FC054600BB01234B
:1065B000217A60683A4602F084FC8742034609D19A
:1065C0003744BE421CD0606803685B69984706F890
:1065D000010BF6E70B490C484A46FDF772FFB8F18C
:1065E000000F02D0606802F0B0FC2846BDE8F883D6
:1065F0000346064904484A46FDF763FF0025EEE7D7
:106600000125ECE721C80D00F8E4032046C80D0081
:1066100007B500930123FFF7ADFF03B05DF804FB5E
:1066200073B54389FF2B044610D0194E194D01F064
:10663000E5FAB0F57A7F09D2608904F0FFFE0128FF
:1066400004D031462846FDF725FFF0E701230DF180
:10665000070228212046FFF7DBFF30B90D480E491D
:10666000FDF718FF002002B070BD9DF80730182B11
:10667000F4D101230DF1070229212046FFF7C8FFBD
:106680000028EBD09DF80730052BE7D1EBE700BFE2
:106690006AC80D00F8E403207FC80D0007B5134653
:1066A00000228DF807200DF10702FFF7B1FF9DF8DA
:1066B000070003B05DF804FB2DE9F0419DF8188058
:1066C00004460F4615461E46B8F1000F02D040683A
:1066D00002F032FC217A606802F008FC606803680E
:1066E00039469B6898472E44B542606805D00368D8
:1066F00015F8011B9B689847F6E7012102F015FC8D
:10670000034670B1084909483A46FDF7DAFE00250C
:10671000B8F1000F02D0606802F017FC2846BDE80F
:10672000F0810125F4E700BF8CC80D00F8E40320D8
:106730001FB58DF80F2000930DF10F020123FFF715
:10674000BBFF05B05DF804FBF8B50A460C460546EC
:106750001A491B48FDF79EFE002CB8BFEC687CB9B7
:10676000012322461B212846FFF7E2FF1549024676
:1067700006461348FFF7D2FEEC606C613046F8BD68
:10678000032C19DDA7101F2FA8BF1F27BA0062F026
:106790007C020123D2B21B212846FFF7C9FF3A46EB
:1067A0000346094906460648FFF7B8FE4FF4FA6368
:1067B0005F43EC606F61E1E70127E7E7B1C80D00D7
:1067C000F8E40320BBC80D00D7C80D000B460749ED
:1067D0000246086848B1002B08BFB2F5006F04D12B
:1067E000C36813B10021FFF7AFBF7047FCE403207B
:1067F0002DE9FF419DF82880054616461F46B8F151
:10680000000F04D04068019102F096FB01990191BC
:1068100000230DF10F022846FFF7FAFE044660B18F
:106820009DF80F3003EA06023A43934205D00199DE
:1068300000232846FFF77CFF0446B8F1000F02D082
:10684000686802F082FB204604B0BDE8F08113B511
:1068500014460DF10702FFF7DBFE28B19DF8073063
:106860001C420CBF0120002002B010BD13B514461D
:106870000DF10702FFF7CCFE28B19DF807301C424E
:1068800014BF0120002002B010BD07B5D243009311
:10689000D2B20023FFF7ACFF03B05DF804FB0000A9
:1068A00037B501230DF107020F210446FFF7B0FEB3
:1068B000054638B91E491F48AD22FDF702FE28469D
:1068C00003B030BD9DF8073013F0200F4FF00103E7
:1068D0000BD02022E3610F212046FFF7D6FF164A96
:1068E00016491448FDF7D6FDE9E70822172120468E
:1068F000FFF7BCFF18B10223114AE361F0E79DF8EE
:1069000007301A0709D50323E361082201230F2169
:106910002046FFF7BAFF0B4AE2E75B07CFD5042218
:10692000E26101230F212046FFF7AFFF064AD7E7B8
:106930002AC90D00F8E40320FBC80D0049C90D0069
:1069400004C90D0014C90D0024C90D0007B500933A
:106950001346FF22FFF74CFF03B05DF804FB000075
:10696000F8B50F461646012300220F210546FFF712
:10697000DFFE044638B94FF425721E491E48FDF764
:10698000A0FD2046F8BD0123232218212846FFF749
:10699000CFFE044610B940F29B22EEE7FF2FA8BFBE
:1069A000FF27012FB8BF01270123FAB2192128467A
:1069B000FFF7BEFE044610B94FF42A72DDE701234B
:1069C000082212212846FFF7C1FF044610B940F201
:1069D000AF22D2E7002E4FF0010314BF83228222A0
:1069E00018212846FFF7A4FE04460028C9D140F22A
:1069F000B922C2E75AC90D00F8E403202DE9F74394
:106A00000A4605460F464F484F49FDF743FD002112
:106A10002846FFF799FE044648B940F2F7124B4961
:106A20004848FDF74EFD204603B0BDE8F083012342
:106A30001A4630212846FFF789FF044610B940F274
:106A40000522ECE71022012311462846FFF71DFF1F
:106A5000044610B94FF40372E1E701232622132103
:106A60002846FFF765FE044610B940F21322D6E728
:106A7000012600963346FC2211212846FFF7B8FE76
:106A8000044610B940F21B22C9E7002239462846C5
:106A9000FFF766FF044610B940F22222BFE70096D6
:106AA0000223772210212846FFF7A2FE044610B9E0
:106AB00040F22B22B3E7334604221C212846FFF77D
:106AC00045FF044610B940F23222A8E70096182389
:106AD000E32211212846FFF78BFE044610B940F24D
:106AE00039229CE73346C02217212846FFF720FEB3
:106AF000044610B94FF4107291E701F07FF8DFF807
:106B00005490DFF840804FF47A7106464F4301F00D
:106B100075F8801BB8420ED2012217212846FFF7D4
:106B2000BDFD494602464046FDF7B4FC4FF47A707D
:106B300001F0E4FBEBE706490248FDF7C2FC03F075
:106B4000A3FF70E7F8E4032085C90D007AC90D00A2
:106B5000ABC90D0096C90D002DE9F3479DF828A09B
:106B600005460C4691461F46BAF1000F02D0406818
:106B700002F0E2F907B3202F3E4628BF20267F2CE3
:106B800026D83319802B01D9C4F1800601230422B1
:106B90003F212846FFF779FE002364F07F01009330
:106BA0004A463346C9B22846FFF7E4FC804628B17E
:106BB0003444BF1BB144DDE74FF00108BAF1000FC8
:106BC00002D0686802F0C1F9404602B0BDE8F08723
:106BD000012304223F212846FFF7B8FEDCE72DE918
:106BE000F3479DF828A005460C4691461F46BAF18A
:106BF000000F02D0406802F09FF907B31F2F3E46F6
:106C000028BF1F267F2C26D83319802B01D9C4F129
:106C10008006012304223F212846FFF736FE002389
:106C200064F07F0100934A463346C9B22846FFF715
:106C300043FD804628B13444BF1BB144DDE74FF02B
:106C40000108BAF1000F02D0686802F07EF94046F0
:106C500002B0BDE8F087012304223F212846FFF758
:106C600075FEDCE730B585B00D68D1E904320395D7
:106C70004D6802958D680195C968009101330449FA
:106C800002F26C72044603F091FE204605B030BD5E
:106C9000BDC90D0003110A2200F00F0002FB030022
:106CA000704738B5044600781546FFF7F3FF0860D3
:106CB0006078FFF7EFFF4860A078FFF7EBFF886090
:106CC000E078FFF7E7FFC8602079FFF7E3FF0138BE
:106CD00008612DB9651D2878FFF7DCFF886138BD94
:106CE0006079FFF7D7FF6430A51D4861F3E7000026
:106CF00070B5012388B00D461A4610210446FFF7EF
:106D0000A6FDF0B108230126204600960DEB0302F4
:106D10000021FFF72FFC044698B1324629460DF1B9
:106D20000900FFF7BEFF04A8FFF79CFF0848049A7C
:106D30000849FDF7AFFB04A803F06CFD204608B03E
:106D400070BD24220021284605F03CF90024F5E717
:106D5000F8E40320DBC90D0030B58BB00D4601A966
:106D6000FFF7C6FF044620B101A801F0B3FAC5E958
:106D7000000120460BB030BD10B5044688B011B1FB
:106D8000406802F081F82046FFF74AFC70B32046C5
:106D9000FFF786FD01231A4610212046FFF757FD15
:106DA000D8B104F0ABF8C0B902A92046FFF7D4FF70
:106DB000DDE9020103F0A8FF0F4B10491B680093A7
:106DC00004A8DDE9022304F057F80D48049A0D49A0
:106DD000FDF760FB04A803F01DFD0B4A0023002112
:106DE0004FF4006001F0E4F808B010BD0749044812
:106DF000FDF767FBF1E700BF9CE2032030E60320CC
:106E0000F8E40320E9C90D00CD670D0006CA0D00A6
:106E10000A2290FBF2F302FB130093FBF2F102FB58
:106E2000113140EA0110C0B2704770B505460068E4
:106E30000C461646FFF7ECFF20706868FFF7E8FF86
:106E40006070A868FFF7E4FFA070E868FFF7E0FF54
:106E5000E07028690130FFF7DBFF20712EB9661D55
:106E6000A869FFF7D5FF307070BD6A69642392FB93
:106E7000F3F003FB1020FFF7CBFFA61D6071EFE7D7
:106E8000F0B587B0054602A816460C46FFF7EAFEA5
:106E90001E48029A1E49FDF7FDFA02A803F0BAFC4B
:106EA00016B1686802F048F8204601220DF1090188
:106EB00000278DF80870FFF7B8FF01231A4610214C
:106EC0002846FFF743FD0446E8B1082300970DEB81
:106ED000030239462846FFF7EFFB044660B1012361
:106EE0001A4610212846FFF7D0FC16B1686802F058
:106EF0002CF8204607B0F0BD4FF48D7205490348C9
:106F0000FDF7DFFAF1E74FF48F72F7E7F8E40320BB
:106F10001ECA0D002CCA0D0013B504466846CDE903
:106F2000002305F015F89DF8102001462046FFF7D4
:106F3000A7FF02B010BD0000F0B5057E89B0044681
:106F400075BB03F0DBFF58B30026002704A92846D1
:106F5000CDE9046701F0DEF810B30125257603F0D2
:106F6000EAFF00950246C3172046CDE90223FFF74A
:106F7000D3FF02A92046CDE90267FFF7EDFE124BD1
:106F800012491B68009304A8DDE9022303F074FF93
:106F90000F48049A0F49FDF77DFA04A803F03AFC64
:106FA000636973B100F02AFE2369C01A63699842CD
:106FB00007D300F023FE4FF0FF3120612046FFF79A
:106FC000C3FB09B0F0BD00BF9CE2032030E6032004
:106FD000F8E4032047CA0D00014B024A1A607047CB
:106FE000F8E403205DCA0D00704710B51021044677
:106FF00004F0D3FA204610BD0368C9B29B68184755
:1070000030B5034DC0E90223C0E9005130BD00BFD7
:10701000B4CA0D00406801F037BF10B504460068DF
:1070200001F093FF204610BD2DE9F0418AB00446DF
:107030004068019001F080FF1E22002102A8A7688D
:1070400004F0C0FF0026EFB123681E2FB84628BF0A
:107050004FF01E08DD6802AA434631462046A84785
:10706000054658B90A480B493246FDF713FA01A8FC
:10707000FFF7D3FF28460AB0BDE8F081A7EB080769
:107080004644E0E701A8FFF7C8FF0125F2E700BF8B
:10709000DCE5032080CA0D002DE9F7430446406873
:1070A00001900D4616461F4601F046FFA7B1E16864
:1070B000606841F0500101F01DFF290A6068FFF788
:1070C0009BFF29466068FFF797FF6068002101F089
:1070D0002CFF48B1002400E0012401A8FFF79DFF28
:1070E000204603B0BDE8F083202F217B6068B846BE
:1070F00028BF4FF020080123424641F0500101F023
:10710000E0FE04F0F5F903681B6998474045E1DBB0
:1071100006EB080904F0ECF903685B69984706F888
:10712000010B4E45F6D14544A7EB0807BEE72DE914
:10713000F74F0446406801900E4690461D4601F008
:10714000FBFE4FF00109B9F1000F2AD04DB3E16801
:10715000606841F0500101F0CDFE310A6068FFF730
:107160004BFF60683146FFF747FFA5F11E0A47460F
:10717000A6EB080B606817F8011B0368013D9B68CC
:10718000984755450BEB0706B84601D0002DF1D1C5
:107190006068012101F0C9FE0028D7D04FF0000936
:1071A000D1E701A8FFF739FF484603B0BDE8F08FEB
:1071B0002DE9F0438BB00E4615468046406801909D
:1071C0001C4601F0B9FEAE4229D2264425448CB1BA
:1071D0001E2C2746D8F8003028BF1E27F61BD3F8F0
:1071E000089002AA3B4631464046ED1BC84748B9C5
:1071F000002400E0012401A8FFF70FFF20460BB098
:10720000BDE8F083D8F8003002AAD3F80C902946E4
:107210003B464046C8470028EAD0E41BD7E7E9D9F7
:10722000002CE7D0D8F800301E2C274628BF1E2798
:10723000D3F8089002AA3B4631464046C84700288A
:10724000D6D0D8F8003002AAD3F80C9029463B4695
:107250004046C8470028CBD03E443D44E41BDFE70E
:107260000368C9B29B68184701757047F8B50746AF
:107270000C4615461E4604F03BF9397D01F036FEFA
:1072800004F036F92146FFF7EBFF0024A64207DDA4
:1072900004F02EF90368295D9B6898470134F5E7EF
:1072A00004F026F9BDE8F84001F043BE07B501231C
:1072B0008DF807200DF10702FFF7D8FF03B05DF846
:1072C00004FB38B504460D4604F012F9217D01F0A7
:1072D0000DFE04F00DF92946FFF7C2FF04F008F98E
:1072E000002101F022FE08B1002038BD04F000F9B1
:1072F000217D012201F0F7FD0128F5D104F0F8F815
:1073000003685B699847C0B2EFE738B50D460E21B8
:107310000446FFF7D6FF20F0030242EA950220461A
:10732000D2B2BDE838400E21FFF7C0BF38B50D46D8
:107330002A210446FFF7C5FF20F0300242EAC502C9
:107340002046D2B2BDE838402A21FFF7AFBF222144
:10735000FFF7B7BF10B511210446FFF7B2FF40F0A9
:107360004000C2B211212046FFF7A0FF2046502264
:10737000BDE810401221FFF799BF10B52A2104463D
:10738000FFF79FFF2A2100F0FE022046BDE81040D3
:10739000FFF78CBF10B52A210446FFF792FF40F09B
:1073A0000100C2B22A212046BDE81040FFF77EBF8F
:1073B00037B5044600294FD00A29A8BF0A2108463C
:1073C00004F046FA26A3D3E9002304F0ABFA04F054
:1073D000E3FC0121102300917F22C0B200F082FF64
:1073E000C5B22046FFF7C9FF204655222121FFF7ED
:1073F0005DFF2A4620462321FFF758FF2A462046F4
:107400002421FFF753FF2A4620462521FFF74EFF90
:107410002046FF222621FFF749FF2046642227212C
:10742000FFF744FF2046FF222821FFF73FFF2046B9
:1074300002222C21FFF73AFF204608222D21FFF7D8
:1074400035FF204608222E21FFF730FF204603B0EB
:10745000BDE83040FFF79EBF0120B1E7AFF30080E9
:10746000666666666666294038B541751546044607
:1074700004F03EF801F008FD0D212046FFF721FF42
:107480002A2812D12046FFF778FF617D2046FFF7BA
:107490003CFF29462046FFF749FF2046FFF75AFFE9
:1074A0002046FFF777FF012038BD0020FCE7012AC6
:1074B000034602D1016000207047022A04BFD1E9CF
:1074C0000001C3E90001F6E710B5012303748368E6
:1074D000044643B1C0689847012363740020BDE8A7
:1074E000104000F053BB00680028F5D083680BB94A
:1074F00004F059F8C368EEE710B44268034654102C
:1075000001EB6200D20748BF0A591B685DF8044BC3
:1075100048BFD358184700000123F7B580F8293039
:107520000646083000F0F2FA0420FCF7B4FD0546E8
:1075300098B31B49142004F032F830B10023C0E99D
:107540000033C0E90233037443742860A0B1154BC3
:107550001549C0E902364FF40063CDE90003022269
:10756000124B043000F09AFA30B92B681B7CA3B997
:10757000012000F033FBF8E72C6800232B6064B196
:10758000276837B13846FCF7D5FE1021384604F09D
:1075900004F81421204604F000F8756003B0F0BD33
:1075A000B8CE0D00B7770D00C8CA0D00C9740D0024
:1075B00047F23051084AC160084902600022C0E920
:1075C00004120749C16107494260C0E9082281618C
:1075D000028580F82A2070478CCB0D0021790D00A0
:1075E000F9740D00AF740D0010B5044B044640F85B
:1075F000103BFCF79FFE204610BD00BF8CCB0D005A
:1076000010B5034B03600446FFF7EEFF204610BDA4
:10761000B4CB0D0010B50446FFF7F2FF2046382129
:1076200003F0BBFF204610BD806800F077BA806889
:1076300000F07CBA10B504460068FFF7F8FF20465A
:1076400010BD13B504460190FFF7EEFFE36ADC8836
:10765000A4B20CB103F1080401A8FFF7EBFF204628
:1076600002B010BD13B504460190FFF7DDFF94F89A
:10767000283043B9E26A0124D38001A8FFF7DAFF7A
:10768000204602B010BD0024F7E713B50446019070
:10769000FFF7CAFFE36A01A8DC88FFF7CBFF2046AB
:1076A00002B010BD2DE9F047994686B090F8293018
:1076B0009DF838A09DF83C8004460F46164613B945
:1076C00003689B689847314B3846002E08BF1E461A
:1076D00004F0EBFC0546304604F0E7FC284400F1DA
:1076E0000A05AB071CBF25F0030504353346CDE979
:1076F0000285CDE9009A264926483A46FCF7CAFE9B
:10770000238E083BAB4212D20024204606B0BDE8CF
:10771000F087CB88012B36D005A8FFF78BFF2368B5
:1077200094F828109B69204698470028ECD0204602
:107730000594FFF779FFE16A228E636B0A44D21A3F
:10774000AA42E6D348EA0A0883F80480C3F8009006
:10775000636B03F108083946404604F080FC40465C
:1077600004F0A3FC01303146404404F078FC636B24
:10777000E26A1D446563D3880133D380012405A8E0
:10778000FFF758FFC1E70024F9E700BF35CD0D0032
:10779000DACA0D0000E5032008B5044600F1100523
:1077A000A3690BB903F0FFFEE36921462846984719
:1077B00000F07CF9F4E708B5FFF7EEFF68B501F1DA
:1077C00008050646284604F070FC013005442846AA
:1077D00004F06BFCF36A01302844C31A13F003036E
:1077E0001CBFC3F10403C01868BDF7B504460E46BC
:1077F0000190FFF719FFE76AFB8807F10805E6B17A
:10780000012B22D929462046FFF7D8FF05462946F5
:107810002046FFF7D3FF228E3A44121A0146A0EB0E
:10782000050602D0284604F0B3FB636B9B1B636321
:10783000FB88013BFB80012601E0002BE7D101A87A
:10784000FFF7F8FE304603B0F0BD0026F7E7000072
:107850002DE9F0470D4604462F461646FFF7A8FED1
:10786000154B57F8082B2360144BE5629A42268685
:10787000984617D1AB889BB2B34213D105EB060AE9
:1078800067634FF00009EB881FFA89F29BB29A42B6
:107890000ED2616B2046FFF791FF5045606309F1FE
:1078A0000109F0D90023C5F800806763AE80EB8042
:1078B0002046BDE8F08700BFB4CB0D0061AB9CD182
:1078C00010B5D1E9002386B00021044604910AB91D
:1078D000D90705D5CDE902230F4B05930F4B049330
:1078E00002AB93E803006A4682E8030094E80300D1
:1078F00083E8030092E80300049A84E80300A16887
:10790000A260059A04911846E168E2600591FCF7CF
:1079100011FD204606B010BDF9740D00AF740D00C6
:1079200007B5054B00936946002310300193FFF71C
:10793000C7FF03B05DF804FB69790D0013B5044679
:1079400000F05CF9636AC01AE368984208D3054BFB
:1079500000936946002304F110000193FFF7B0FF84
:1079600002B010BD69790D002DE9F04190F82A3080
:1079700086B00446002B64D100F09CFB002860D048
:1079800000F03CF9636AC01A40F2F133984258D9CA
:10799000236820465B6998470546002851D000F1CE
:1079A0000807012384F82830384604F07EFB95F858
:1079B0000480CDF8048001302B682B4900933E18D9
:1079C00033462A483A46FCF765FD2B688DF800805F
:1079D0003246394602A800F09BFF029D6B781BB926
:1079E000012000F08BFCF8E7002000F0F1FA20B154
:1079F0006B7813B900F04EFBFAE72B78012B23D1FB
:107A00001B491A48FCF746FD236800219B69204664
:107A10009847002384F8283000F0F0F86062039C57
:107A20007CB16368013B63605BB9236820469B6857
:107A30009847A368013BA3601BB923682046DB6815
:107A4000984706B0BDE8F081E2680A490748FCF7AC
:107A500021FD094B049304A9002304F110000593B0
:107A6000FFF72EFFD5E700BF1BCB0D0000E503207D
:107A70003CCB0D0053CB0D003D790D00014B024A6C
:107A80001A60704700E503207ACB0D0008B5024B61
:107A90001B685B6C019308BD7402030008B5024BC0
:107AA0001B685B68019308BD4802030008B5024BE0
:107AB0001B68DB68019308BD4802030008B5024B50
:107AC0001B68DB69019308BD4802030008B5024B3F
:107AD0001B681B6A019308BD4802030008B5024BEE
:107AE0001B685B6A019308BD4802030008B5024B9E
:107AF0001B689B6A019308BD4802030008B5024B4E
:107B00001B68DB6A019308BD4802030008B5024BFD
:107B10001B681B6B019308BD4802030008B5024BAC
:107B20001B689B6B019308BD4802030008B5024B1C
:107B30001B681B6C019308BD4802030008B5024B8B
:107B40001B685B6C019308BD4802030008B5024B3B
:107B50001B689B6C019308BD4802030008B5024BEB
:107B60001B68DB6C019308BD4802030008B5024B9B
:107B70001B685B6D019308BD4802030008B5024B0A
:107B80001B689B6D019308BD4802030008B5024BBA
:107B90001B68DB6E019308BD4802030008B5024B69
:107BA0001B681B6F019308BD4802030008B5024B18
:107BB0001B685B6E019308BD3402030008B5024BDD
:107BC0001B68DB6E019308BD3402030008B5024B4D
:107BD0001B685B68019308BD1802030008B5024BDF
:107BE0001B689B68019308BD1802030008B5024B8F
:107BF0001B68DB68019308BD1802030008B5024B3F
:107C00001B685B69019308BD1802030008B5024BAD
:107C10001B689B6D019308BD1802030008B5024B59
:107C20001B68DB6D019308BD1802030008B5024B09
:107C30001B685B6E019308BD1802030008B5024B78
:107C40001B689B6E019308BD1802030008B5024B28
:107C50001B681B68019308BD2C02030008B5024B8A
:107C60001B685B68019308BD2C02030008B5024B3A
:107C70001B689B68019308BD2C02030008B5024BEA
:107C80001B68DB68019308BD2C02030008B5024B9A
:107C90001B681B69019308BD2C02030008B5024B49
:107CA0001B685B69019308BD2C02030008B5024BF9
:107CB0001B689B69019308BD2C02030008B5024BA9
:107CC0001B68DB69019308BD2C02030008B5024B59
:107CD0001B681B6B019308BD2C02030008B5024B07
:107CE0001B68DB68019308BD2802030008B5024B3E
:107CF0001B689B69019308BD2802030008B5024B6D
:107D00001B68DB69019308BD2802030008B5024B1C
:107D10001B681B6A019308BD2802030008B5024BCB
:107D20001B685B6A019308BD2802030008B5024B7B
:107D30001B689B6A019308BD2802030008B5024B2B
:107D40001B68DB6A019308BD2802030008B5024BDB
:107D50001B681B6B019308BD2802030008B5024B8A
:107D60001B685B6B019308BD2802030008B5024B3A
:107D70001B681B6C019308BD2802030008B5024B69
:107D80001B689B6C019308BD2802030008B5024BD9
:107D90001B68DB6C019308BD2802030008B5024B89
:107DA0001B681B6D019308BD2802030008B5024B38
:107DB0001B685B69019308BD6402030008B5024BB0
:107DC0001B689B68019308BD6802030008B5024B5D
:107DD0001B68DB68019308BD6802030008B5024B0D
:107DE0001B68DB69019308BD3002030008B5024B34
:107DF0001B681B6A019308BD3002030008B5024BE3
:107E00001B681B68019308BD3C02030008B5024BC8
:107E10001B689B68019308BD3C02030008B5024B38
:107E20001B68DB68019308BD3C02030008B5024BE8
:107E30001B681B69019308BD3C02030008B5024B97
:107E40001B685B69019308BD3C02030008B5024B47
:107E50001B689B69019308BD3C02030008B5024BF7
:107E60001B68DB69019308BD3C02030008B5024BA7
:107E70001B681B6A019308BD3C02030008B5024B56
:107E80001B689B6A019308BD3C02030008B5024BC6
:107E90001B68DB6A019308BD3C02030008B5024B76
:107EA0001B681B68019308BD4C02030008B5024B18
:107EB0001B685B68019308BD4C02030008B5024BC8
:107EC0001B689B68019308BD4C02030008B5024B78
:107ED0001B681B69019308BD4C02030008B5024BE7
:107EE0001B685B69019308BD4C02030008B5024B97
:107EF0001B689B69019308BD4C02030008B5024B47
:107F00001B68DB69019308BD4C02030008B5024BF6
:107F10001B681B6A019308BD4C02030008B5024BA5
:107F20001B685B6B019308BD6002030008B5024B40
:107F30001B681B6D019308BD6002030008B5024B6E
:107F40001B685B6D019308BD6002030008B5024B1E
:107F50001B68DB6E019308BD6002030008B5024B8D
:107F60001B681B6F019308BD6002030008B5034B3B
:107F70001B68D3F89830019308BD0000600203002D
:107F800008B5024B1B681B68019308BD2002030063
:107F900008B5024B1B685B68019308BD2002030013
:107FA00008B5024B1B685B69019308BD2002030002
:107FB00008B5024B1B681B6A019308BD2002030031
:107FC00008B5024B1B68DB6A019308BD2002030061
:107FD00008B5024B1B68DB6C019308BD200203004F
:107FE00008B5024B1B685B6D019308BD20020300BE
:107FF00008B5024B1B689B6D019308BD200203006E
:1080000008B5024B1B68DB6D019308BD200203001D
:1080100008B5034B1B68D3F88830019308BD0000F6
:108020002002030008B5034B1B68D3F8943001937A
:1080300008BD00002002030008B5034B1B68D3F8FD
:10804000A830019308BD00002002030008B5034BCF
:108050001B68D3F8AC30019308BD00002002030078
:1080600008B5034B1B68D3F8B030019308BD00007E
:108070002002030008B5024B1B681B68019308BD72
:108080004402030008B5024B1B685B68019308BDFE
:108090004402030008B5024B1B689B68019308BDAE
:1080A0004402030008B5024B1B68DB68019308BD5E
:1080B0004402030008B5024B1B685B69019308BDCD
:1080C0004402030008B5024B1B68DB69019308BD3D
:1080D0004402030008B5024B1B681B6A019308BDEC
:1080E0004402030008B5024B1B685B6A019308BD9C
:1080F0004402030008B5024B1B68DB6A019308BD0C
:108100004402030008B5024B1B681B6B019308BDBA
:108110004402030008B5024B1B685B6B019308BD6A
:108120004402030008B5024B1B689B6B019308BD1A
:108130004402030008B5024B1B68DB6B019308BDCA
:108140004402030008B5024B1B685B6C019308BD39
:108150004402030008B5024B1B685B68019308BD2D
:108160004002030008B5024B1B689B68019308BDE1
:108170004002030008B5024B1B68DB68019308BD91
:108180004002030008B5024B1B681B69019308BD40
:108190004002030008B5024B1B685B69019308BDF0
:1081A0004002030008B5024B1B689B69019308BDA0
:1081B0004002030008B5024B1B68DB69019308BD50
:1081C0004002030008B5024B1B681B6A019308BDFF
:1081D0004002030008B5024B1B681B6B019308BDEE
:1081E0004002030008B5024B1B685B6B019308BD9E
:1081F0004002030008B5024B1B681B6C019308BDCD
:108200004002030008B5024B1B685B6C019308BD7C
:108210004002030008B5024B1B681B68019308BDB0
:108220001C02030008B5024B1B685B68019308BD84
:108230001C02030008B5024B1B689B68019308BD34
:108240001C02030008B5024B1B681B69019308BDA3
:108250001C02030008B5024B1B68DB69019308BDD3
:108260001C02030008B5024B1B685B6A019308BD42
:108270001C02030008B5024B1B68DB6A019308BDB2
:108280001C02030008B5024B1B681B6B019308BD61
:108290001C02030008B5024B1B685B6C019308BD10
:1082A0001C02030008B5024B1B689B6C019308BDC0
:1082B0001C02030008B5024B1B68DB6C019308BD70
:1082C0001C02030008B5024B1B681B6D019308BD1F
:1082D0001C02030008B5024B1B685B6D019308BDCF
:1082E0001C0203008A4210B507D0029C401AE41A0F
:1082F0006043521A90FBF2F0184410BD0021FFF7C2
:108300004FBE10B5836804460BB903F04CF9C3683F
:108310009847A3681BB10322214620469847204670
:108320001021BDE8104003F038B910B503680446C9
:108330009B689847A368013BA3602BB9236820463C
:10834000DB68BDE81040184710BD10B50446006852
:1083500008B1FFF7FBFB204610BD0B68036013B1AB
:108360005A6801325A60704710B50446006828B157
:108370004368013B43600BB9FFF7D7FF204610BDB0
:1083800010B5064C002320462360FFF7D7FB20469C
:10839000034A0449BDE8104003F0FAB804E503209D
:1083A00010E303204B830D00002240681146FFF7C5
:1083B000E9BE002240681146FFF704BF0022406872
:1083C0001146FFF70FBF40680022FFF703BF406868
:1083D000002281F00101FFF7EDBE002340681A463C
:1083E0001946FFF7D7BE002240681146FFF7BABE14
:1083F000406800220221FFF7BDBE002340681A46F4
:10840000FFF7A8BEF0B51B4B036000250F462833CD
:108410001826C0E9025589B0436032462946044611
:10842000103003F0CFFD78682A462946FFF7AAFEF0
:1084300018B9A060204609B0F0BD2946324602A80E
:10844000CDE9005503F0BEFD02A96846ADF808600D
:10845000FFF71CFB10B10123A360EBE7009B019A1F
:10846000A360E2600BB90223A36002A9204600F0DA
:10847000AEF8DFE718CC0D00084B10B528242246D3
:108480001846002103F09EFD054B04804FF0FF329B
:10849000426004225A60034A1A6010BD10E50320AE
:1084A00008E50320DCCB0D007047007D704710B558
:1084B0002821044603F071F8204610BD037D7BB1EE
:1084C000C369002B0CDB07EE903A9FED077AF8EEBC
:1084D000E77A87EE870ADFED057A20EE270A7047F4
:1084E000BFEE000A704700BF00FF7F470000C84290
:1084F000037D63B18369B3F1004F08D007EE903A72
:108500009FED047AF8EEE77A87EE870A70479FEDD1
:10851000020A70470000C84200000000037D7BB1E2
:10852000436A002B0CDB07EE903A9FED077AF8EEDA
:10853000E77A87EE870ADFED057A20EE270A704793
:10854000BFEE000A704700BF00FF7F470000C8422F
:10855000037D63B1036AB3F1004F08D007EE903A90
:108560009FED047AF8EEE77A87EE870A70479FED71
:10857000020A70470000C8420000000070B50C1EDF
:1085800006460ADA2D2102F0C8F8614205460A22A1
:10859000304602F0D1F8284470BD21460025F6E7A8
:1085A00070B50C46054681682046FFF7E7FF2C2191
:1085B0000646204602F0B1F8E96806442046FFF777
:1085C000DDFF304470BDA0F10400FFF7E9BF30B516
:1085D0000D4600F110040FCD0FC495E8030084E8A8
:1085E0000300012030BD70470020704710B51021F6
:1085F000044602F0D2FF204610BD08B5FFF7F6FF93
:1086000008BD30B500224FF69C74026084808D88CE
:108610008C800C68858004600A6030BD10B504460B
:108620000068FFF7FFFD204610BD38B5C468F4B1FF
:108630002378022B03D104F10C00FFF7EFFF6568EC
:1086400035B12846FBF776FE1021284602F0A5FF3B
:10865000A56835B12846FBF76DFE1021284602F0CB
:108660009CFF20461421BDE8384002F096BF38BD7B
:1086700010B588B00446684602F017F9694604A8A8
:1086800002F05EF904A8A047044604A802F0C2F86C
:10869000684602F0BFF8204608B010BD1FB50023A1
:1086A000CDE90201019210241A4669461846ADF838
:1086B0000230ADF80040FFF7E5FC04B010BD1FB577
:1086C0000C23ADF8043003688DF80630037A8DF87A
:1086D0000730436802930021437AADF80D1001A8DA
:1086E0008DF80F108DF80C30FFF72CFD05B05DF8FC
:1086F00004FB1FB50C22ADF8042002688DF806209B
:10870000027A8DF80720426802920023427A8DF89F
:108710000C20194601AA0220ADF80D308DF80F305B
:10872000FFF700FD05B05DF804FB73B50E46044687
:1087300056F8043B00930D4601A83146FFF70DFEA5
:10874000019A009B6260236001A8002301930093BB
:10875000FFF70AFE3046FFF707FE2846082102F021
:108760001CFF204602B070BD13B50B460246D0E98F
:1087700000016C4684E8030093E8030082E80300EC
:1087800094E8030083E8030002B010BD826810B5CE
:108790000AB902F008FFBDE81040C368184708B5E1
:1087A000006800F11001FFF7F1FF08BD826810B505
:1087B0000AB902F0F8FEBDE81040C368184708B5D2
:1087C000006800F11001FFF7F1FF08BD38B5002384
:1087D0000446036010200D46FBF75DFC28B1012321
:1087E000C0E90133024B0360C5602060204638BDFC
:1087F0004CCC0D0038B5002383608B6804460D46D1
:108800002BB102229847EB68E360AB68A360204677
:1088100038BD0000F0B589B004686846FFF7F1FE86
:108820004FF00203D4E84F2F002A03D1C4E8413FA0
:108830000029F7D125D104F10C0569462846FFF738
:10884000E0FEBFF35B8F01236370002004F1080397
:10885000BFF35B8F53E8006F43E80002002AF9D1B1
:10886000BFF35B8F6EB1FFF7B3FB78B1294630469B
:10887000FFF78CFF3046FBF75DFD1021304602F01C
:108880008CFE6846FFF7CAFE09B0F0BD314602A86B
:10889000FFF7B0FFE068B4F9105008B103F0E8FB4F
:1088A00006901020ADF81C50FBF7F5FB0546E8B12B
:1088B000002787601820FBF7EEFB044688B10146CD
:1088C000876002A8FFF750FF049BA268A360059B86
:1088D000049206A9E268E36004F110000592FFF734
:1088E00090FE084BEB60084B2C60AB6006A8FFF7CE
:1088F00095FE02A8FBF71EFD002229460348FFF75C
:108900006FFBB7E79F870D00358A0D0003830D00CD
:108910002DE9F0478AB005469DF848900C46174669
:108920009846FFF7C7FB07AE824638BB4FF62E735B
:10893000059005A93046ADF81830FFF762FE142007
:10894000FBF7A9FB044648B1022303700123C0E9E9
:1089500001AA437031460C30FFF753FE28462146EA
:1089600040F8044BFFF732FF3046FFF757FE05A8EB
:10897000FFF754FE28460AB0BDE8F0870C234FF0FD
:10898000000A1420CDE908AA0793FBF784FB0146EF
:1089900028B1C0E901AA80F800A080F801A004A8CD
:1089A0000391FFF713FF224B08930820FBF773FB9B
:1089B000824628B1039B40F8043B04A9FFF7CDFC95
:1089C00000965FFA89F3424639462046CDF824A046
:1089D000FFF780FBB8B9039B5B7803F0FF0293B904
:1089E0004FF69C7305A903A80592ADF81830FFF760
:1089F00011FF05A8FFF712FE05A80999FFF795FEDC
:108A000006A8FFF7B1FC039B059304A906A8FFF78E
:108A1000A4FC059B069A2B606A60002306A80693B7
:108A20000593FFF7A1FC04A8FFF79EFCA2E700BF97
:108A3000F98A0D00022AF8B5054607D0032A18D096
:108A4000012A01D10B6803600020F8BD18200E68D0
:108A5000FBF721FB044650B13146FFF7CBFE3069EE
:108A6000B6F9147008B103F003FB2061A7822C60F3
:108A7000EAE70468002CE7D004F11000FFF7CEFD10
:108A80002046FBF757FC1821204602F086FDDBE765
:108A900038B5002383608B6804460D462BB1022253
:108AA0009847EB68E360AB68A360204638BD022AB4
:108AB00070B5044607D0032A12D0012A01D10B68F1
:108AC0000360002070BD14200E68FBF7E4FA054631
:108AD00020B13146FFF7DCFF337C2B742560F0E7D3
:108AE0000468002CEDD02046FBF724FC142120461E
:108AF00002F053FDE5E70000F0B589B004460D46ED
:108B000001A81146FFF711FEA4B124B21DB12846F9
:108B100003F0AEFA054601A803A90395ADF810408D
:108B2000FFF778FE03A8FFF779FD02A8FFF71CFC0A
:108B300009B0F0BD019D0123D5E84F2F002A03D1D4
:108B4000C5E8413F0029F7D1EFD12B73BFF35B8F0D
:108B50006B702B1DBFF35B8F53E8006F43E800423F
:108B6000002AF9D1BFF35B8F002EDED02046FFF73D
:108B70002FFA074660B105F10C013046FFF716FEEB
:108B80003046FBF7D7FB1021304602F006FDCCE75C
:108B9000314603A8FFF77CFF2B7B8DF81C3010209B
:108BA000FBF779FA0546D0B187601420FBF773FA1A
:108BB000044678B18760014603A8FFF7D5FD059B01
:108BC000A268A360069B0592E268E3609DF81C30F2
:108BD00006922374064BEB60064B2C60AB6003A837
:108BE000FBF7A8FB002229460348FFF7F9F9C7E77E
:108BF000BF870D00AF8A0D0003830D00002240687F
:108C00001146FFF7DFBA002240681146FFF7EABAC3
:108C100040680022FFF7DEBA4068002281F00101BF
:108C2000FFF7C8BA002340681A461946FFF7BABAD8
:108C3000002340681A461946FFF7ACBA0022406884
:108C40001146FFF79FBA002240681146FFF78ABA23
:108C5000406800220221FFF78DBA002340681A46BF
:108C6000FFF778BA024B03225A60024A1A60704733
:108C700038E5032068CC0D00006800F05DB910B540
:108C80000446016002710AB1FFF7F6FF204610BDED
:108C900013B50446019102F053FC019A01462046A7
:108CA000FFF7EDFF204602B010BD006800F04DB99F
:108CB00010B5037904460BB1FFF7F7FF204610BD4E
:108CC0002DE9FF4104460D4617461E46FFF7D4FF27
:108CD00036238DF800300023206801934FF00108FF
:108CE0000A23694603938DF8088000F006F920688E
:108CF000036829469B6898472068414600F015F9AB
:108D0000054640B16FF09F052046FFF7CEFF28468D
:108D100004B0BDE8F081022320680193694600F0A9
:108D2000B9F80228EED1206803685B69984738706B
:108D3000206803685B6998473070E5E713460A4688
:108D40000C21FFF7BDBF2DE9FF41164604461D4625
:108D50000F46FFF791FF36238DF80030002320687F
:108D600001934FF001080A23694603938DF80880A8
:108D700000F0C3F82068036839469B68984720686C
:108D8000036831469B6898472068036829469B68BA
:108D900098474146206800F0C8F8002820460CBFDC
:108DA00000256FF09F05FFF780FF284604B0BDE85F
:108DB000F08108B5402200230621FFF7C4FF00EA36
:108DC000E07008BD37B50546FFF756FF00230DF1EB
:108DD00007020DF1060128468DF806308DF80730A0
:108DE000FFF7ACFF041E0BDB9DF807309DF8062053
:108DF00003F07F030C212846FFF7A5FF00EAE0748B
:108E00002846FFF752FF204603B030BD7047F8B543
:108E1000064615460C468F18BC4206D0336814F837
:108E2000011B9B6830469847F6E72846F8BD007C52
:108E30000022FEF76BBF007C0021FEF76FBF007CB5
:108E40000021FEF773BF007C0021FEF777BF007C96
:108E50000021FEF77BBF10B51421044602F09DFBF4
:108E6000204610BD10B54FF47A7304460846002121
:108E7000C4E90113034B236020741146FEF776FF0B
:108E8000204610BDA4CC0D000023007C1A461946D4
:108E9000FEF724BF7FB500221423CDE90122ADF8EF
:108EA00004300B788DF808304B680393CB6804933B
:108EB000007C0B7A059301A9FEF770FF07B05DF8FF
:108EC00004FB1FB5003B8DF800104FF064010391C7
:108ED00018BF0123694601928DF80830FFF7DAFFC9
:108EE00005B05DF804FB0123FFF7EBBF007C002217
:108EF000FEF7FCBEC9B2FFF7F9BF7FB50023CDE98D
:108F000001334A6803921423CA68ADF804300B7821
:108F100004920A7A0592007C8DF8083001AA19465D
:108F2000FEF7E4FE07B05DF804FB007C0022FEF7CC
:108F3000E5BE0121FFF7F9BF08B50021007CFEF76F
:108F40001DFFB0FA80F0400908BD08B50021007C83
:108F5000FEF71CFFB0FA80F0400908BD0047000092
:108F60002DE9FF4100241D460F4690460646FEF7B8
:108F7000A5FEA5424FF00403ADF80D408DF80C306E
:108F80008DF80F40A2BF9DF828308DF80E3003AC4D
:108F90000749009443463A463046A8BF8DF80D5025
:108FA000FEF784FEB0FA80F0400904B0BDE8F0811D
:108FB0005D8F0D00F8B50446FEF780FE054670B9DA
:108FC000084F57F8246046B13046FBF7B3F910213B
:108FD000304602F0E2FA47F82450012000E0002079
:108FE000F8BD00BF40E50320704710B518210446C6
:108FF00002F0D3FA204610BDF0B5037D062B8DB0EC
:109000000E4600F104074FF0000412D000F10805ED
:1090100015F8011D0A22304601F08EFBAF420444D0
:1090200019D0002CF4D02E21304601F076FB0444F8
:10903000EEE72F236A4639460A208DF80040FEF7F6
:10904000B5FE684603F031F833680246DB686946CE
:1090500030469847044620460DB0F0BD10B5054B8C
:109060000446112240F8043B002102F0ABFF2046E9
:1090700010BD00BFCCCC0D000346074A10B543F825
:10908000042B01F1100251F8044B43F8044B9142B8
:10909000F9D10A781A7010BDCCCC0D0010B59DF82E
:1090A000084044EA032343EA024242EA01610423FE
:1090B0004160037510BD13B5CB7800938B784A7867
:1090C0000978FFF7EBFF02B010BD00F11003012299
:1090D00013F8101C0129184608D153F8041C02EBA0
:1090E0004102013A03F11003F2D17047022904BF93
:1090F00053F8041C5218F4E70EB4F0B588B000AF72
:1091000007F13405102155F8042B7A6004462B46EC
:109110007818FD60FFF7A6F80F287A681AD900F1D1
:10912000080323F007036E46ADEB030D411C2B46ED
:109130006846FD60FFF796F8021E04DD2368694665
:109140009B6820469847B5462037BD46BDE8F040AD
:1091500003B070470028F7D0236802469B6807F1E8
:10916000100120469847EFE710B5036804469B6856
:109170009847A368013BA3602BB923682046DB68AE
:10918000BDE81040184710BD07B503688DF80710FB
:109190009B6801220DF10701984703B05DF804FBBD
:1091A00038B50B6803604D6843689D4204460CD097
:1091B00015B16B6801336B60606828B14368013B8F
:1091C00043600BB9FFF7D0FF6560204638BD0B4602
:1091D0001146002210B5C0E90022044683600BB995
:1091E000204610BDFFF7DCFFFAE78368EBB11A7881
:1091F000032A1AD8DFE802F00417021B0520704783
:1092000002685B685268D05C2D2812D0A0F1300350
:10921000092B0ED974280ED066280CD0A0F16E034D
:10922000584258417047062070470020704704207C
:109230007047032070470220704710B50446FFF7BF
:10924000D4FF02280ED0C31EDBB2012B14D8226833
:10925000A36850685B68BDE810400A2200211844EA
:1092600002F0DEBF2268A36852685B68D05CA0F1A0
:1092700074035842584110BD0020FCE738B5002364
:10928000C0E9003304460E48C4E90203A9B10B78D3
:10929000032B06D08BB9136858684B68C35C6E2BE0
:1092A00007D013684D6858688B6828445B1BA06022
:1092B000E36011462046FFF773FF204638BD00BF2C
:1092C00035CD0D0038B500250B46C0E90055C0E985
:1092D0000255C0E90455044611464BB11A78012ADB
:1092E00006D103F11002DB6882604361FFF758FF8B
:1092F000204638BD10B54369044663B18068E0601C
:10930000013B1030A0602061636113B1FFF7DDFE07
:10931000A060012000E0184610BD10B57D21044674
:10932000FFF732FF01232371204610BD08B50379F2
:10933000012B02D0022B04D008BD2C21FFF724FF03
:10934000FAE73A21FAE710B50446FFF7EFFF2046A7
:109350007B21FFF719FF00232371204610BD000079
:1093600013B504460191FFF7E1FF2368019ADB681A
:1093700003492046984701232046237102B010BDBF
:10938000B8C80D0013B504460191FFF7CFFF23685D
:10939000019ADB6803492046984701232046237140
:1093A00002B010BDA7CA0D002DE9F0410D461746C9
:1093B0002221DFF8A08004462F44FFF7E5FE29466E
:1093C000BD422A4638D015F8016B222E03D05C2E00
:1093D00001D01F2EF4D82368521A9B682046984764
:1093E0005C212046FFF7D0FE0D2E0AD8072E1CD98F
:1093F000A6F10803052B18D8DFE803F00D0F1117AD
:109400001315222E01D05C2E0FD131462046FFF7D6
:10941000BBFE2946D4E76221F8E77421F6E76E2106
:10942000F4E76621F2E77221F0E723683246DB6851
:10943000414620469847ECE78D4204D023686A1ADB
:109440009B682046984722212046FFF79DFEBDE8F5
:10945000F08100BFD8CC0D0013B50446CDE9002142
:10946000FFF764FF2046DDE90021FFF79DFF02239F
:109470002046237102B010BD13B50446CDE900218A
:10948000FFF754FF2046DDE90021FFF78DFF0123A0
:109490002046237102B010BD80680368DB6818475E
:1094A0007047084611B10B685B68184770477047F2
:1094B0007047704738B504460D4600682E2102F00B
:1094C000BAFD2368C31A2B6023B1037803B10130BE
:1094D00023682060184638BD10B50C21044602F000
:1094E0005CF8204610BD10B50421044602F055F882
:1094F000204610BD10B50421044602F04EF8204667
:1095000010BD08B502F0A1FDB0FA80F0400908BD19
:1095100010B50C4601F056FE844210D001F0C6FD95
:10952000844205D101F0C2FDBDE8104001F0BBBD91
:109530002CB1236820465B68BDE81040184710BD79
:1095400013B504460846019102F0AFFD01990246A9
:10955000204602B0BDE81040FFF78EBF13B50446A9
:109560000846019102F0A1FD23680199DB680246DB
:10957000204602B0BDE81040184707B503688DF8D3
:109580000710DB6801220DF10701984703B05DF871
:1095900004FB0EB403B503AB002153F8042B006A9F
:1095A000019301F0E7F802B05DF804EB03B07047F7
:1095B0002DE9F74FD0E900954FF0140808FB05F5A9
:1095C0000093AB10184D17465D434C46002D23DD2C
:1095D0006E1008FB06F004EB000A3A46BAF804B035
:1095E000205801915F4528BF5A4602F066FD019957
:1095F000012378B95F4503D1009A13703546E5E73A
:109600008CBF012000200028F8D0AE1B0AF1140402
:10961000013EF3E7C00FF6E7A4EB09040248A410EB
:10962000604303B0BDE8F08FCDCCCCCC7FB50369EF
:10963000067E01910BB301B3002500F10C040395E4
:1096400003A901A8FFF736FF0146B0B10DF10B03E6
:10965000039A8DF80B502046FFF7AAFF9DF80B30B8
:109660005BB12468142303FB004000F10804B0F947
:109670000630002BA8BFDEB2E2E7304604B070BD72
:1096800010B50A4C2378BFF35B8FDB070BD4204661
:10969000FAF712FD38B12046FAF713FD044A0549DE
:1096A000054801F075FF044810BD00BFD4E5032054
:1096B00010E30320B1940D0094E2032010B50A4C8E
:1096C0002378BFF35B8FDB070BD42046FAF7F4FC5B
:1096D00038B12046FAF7F5FC044A0549054801F07F
:1096E00057FF044810BD00BFD8E5032010E3032056
:1096F000AF940D0098E2032038B500250446C0E978
:109700000055C0E904558560856140F8245FFEF787
:1097100015FAFFF7B5FFE061FFF7D0FF2573206270
:10972000204638BD10B50B4C2378BFF35B8FDB07A9
:109730000ED42046FAF7C0FC50B10748FFF7DCFF13
:109740002046FAF7BEFC054A0549034801F020FF10
:10975000014810BDD0E50320E0E5032010E303201D
:10976000B99B0D00024A034903480023FEF7F6BBEC
:10977000959A0D00219A0D00A1990D0000231A461B
:1097800019461846FEF7EABB37B50D6951F8043B98
:109790000093044601A8FEF7E0FD6A4629462046EC
:1097A000FFF715FD01A8FEF7DFFD204603B030BD31
:1097B00037B58D6851F8043B0093044601A8FEF7C5
:1097C000CCFD6A4629462046FFF77CFD01A8FEF73E
:1097D000CBFD204603B030BD37B5CD6851F8043B12
:1097E0000093044601A8FEF7B8FD6A4629462046C4
:1097F000FFF744FD01A8FEF7B7FD204603B030BDDA
:1098000070B58AB00D46014604A8FFF7D1FF144E8B
:1098100004A8FFF76FFDE8B104A96846FFF7DCFF75
:1098200002983146FFF76DFE044610B12C1E18BF9A
:10983000012401A8FEF798FD002CE9D004A9684690
:10984000FFF7A2FF6846FFF7F8FC286001A8FEF7C3
:109850008BFDDDE705A8FEF787FD0AB070BD00BFF0
:10986000DECC0D0037B50C4620461249154602F0F5
:10987000ECFB48B901F0A6FC4FF4165101F092FC44
:1098800001F0A0FC03B030BD0B49204602F0DDFB27
:1098900070B94FF4165301A928460193FFF7B0FFA2
:1098A00001F004FC019901F0FBFB01F0FFFBE9E78B
:1098B0000020E7E7E3CC0D00EACC0D0070B5D0E95D
:1098C00000531426044606FB0356AE4205D005F1AC
:1098D0000800FFF7F3FF1435F7E72068FEF7A2FC56
:1098E000204670BD70B5D0E90053044605EB031661
:1098F000AE4204D0284600F08DFF1035F8E720680E
:10990000FEF790FC204670BD10B504460C30FFF702
:10991000D5FF2046FFF7E6FF204610BD10B5044BEB
:10992000044640F8043BFFF7EFFF204610BD00BFA0
:1099300064C70D0010B50446FFF7F0FF2046242150
:1099400001F02BFE204610BD10B5034B036004460A
:10995000FFF7E4FF204610BD84CD0D0010B504468E
:10996000FFF7F2FF2046242101F017FE204610BD2C
:109970000022C0E9002210B582600C6804604C68C7
:1099800044608C680A604A6084608A6010BD10B5CB
:10999000036804461868FEF7E9F8204610BD000089
:1099A0002DE9F04F87B0804603931C4B5B68C3F3EF
:1099B0000803894616466BB9FFF7B4FE044600F16A
:1099C0002403406A0593FEF7C9F8237B2BB105A851
:1099D000FFF7DDFF07B0BDE8F08F01232373D4E963
:1099E00000535FFA89F905EB830AAA4512D055F8AE
:1099F000047B3146381DFFF719FE8145F5D33B68DE
:109A0000039A0092D3F808B04A4633464146384696
:109A1000D847EAE700232373D9E700BF00ED00E051
:109A20002DE9F74F9B461A4B5B68C3F3080380464A
:109A3000894616466BB9FFF775FE044600F124030C
:109A4000406A0193FEF78AF8237B2BB101A8FFF748
:109A50009EFF03B0BDE8F08F01232373D4E90053C8
:109A6000F6B205EB830A55450ED055F8047B5946EE
:109A7000381DFFF7DBFD8642F5D33B684A46DB68BD
:109A8000414638469847EEE700232373DEE700BFE0
:109A900000ED00E02DE9F341164B5B68C3F30803CA
:109AA00005460F461BBBFFF73DFE00F124030446AD
:109AB000406A0193FEF752F8D4E90063462406EBAE
:109AC0008308B04509D101A8FFF761FFA542B4BFE3
:109AD0000020012002B0BDE8F08156F8040B3946A1
