:02000002D0002C
:1040000000400D0004D90D00000006000D00050160
:08401000040135080000000066
:0440180090C10D0046
:1040200009480A49884208B505D0094A824202D0A7
:10403000121A07F04DFF0748074A0021121A07F02D
:104040006FFF014808BD00BFE0E10320B4D70D00B9
:1040500004E3032008E30320F8E7032070B5074ECC
:10406000074C07F0E7F8A41BA4080025A54200D1DF
:1040700070BD56F8043B98470135F7E774CF0D0043
:10408000A4CF0D0001F040B908B501F085FDBDE8F1
:10409000084007F091B804F02BB804F029B804F0F8
:1040A0002FB8000008B5034A00210C2003F09CFE45
:1040B000FEE700BFB97A0D000078B0FA80F0400941
:1040C00070470123037070477047006A0368DB681C
:1040D00018470000014B1A60704700BF18E2032028
:1040E00003681847012A03D0022A03D00020704732
:1040F0000160FBE70B680360F8E70021072007F089
:1041000032B9000010B5054B1A7B054B044653F835
:10411000221006F032FB204610BD00BFC0E4032091
:10412000E0E1032038B50446006928B185680C2118
:1041300007F0E1F92846F8E7204638BD094B01228F
:104140001A70094B53E8002F013243E8002100297F
:10415000F8D1064B53E8002F013243E80021002933
:10416000F8D17047B4E4032038E4032018E40320B6
:1041700008B5044906F057FB18B1034B05221A7025
:10418000012008BDE8C10D00B5E40320436913B167
:1041900083690C301847704710B5034B0360044621
:1041A00003F08CF9204610BD14C70D0010B504466D
:1041B000FFF7F2FF2046382107F09DF9204610BD99
:1041C00010B5034B0360044602F084FE204610BD88
:1041D000F8C60D0010B50446FFF7F2FF2046102187
:1041E00007F089F9204610BD13B5002104460846A2
:1041F00003F0CAFB0023204601A9019303F0DCFB76
:10420000019C0CB1012323710021012003F0BCFBB0
:104210002CB1236820469B6898470023237102B085
:1042200010BD000008B50A4906F0FDFA002368B188
:10423000084A09491360936053615360074A0B6150
:104240001370074B01201870064B187008BD00BF93
:10425000E8C10D00E8E30320C0E403201CE40320D0
:104260000CE40320ECE4032008B503F091FE20B138
:10427000BDE80840002003F0ABBE08BD08B5002033
:1042800003F0AEFE28B103F083FE80F00100C0B25F
:1042900008BD0120FCE70023042203F059BE000002
:1042A00030B585B00346144668460D4698470298D7
:1042B000206003F01DFF286050B12268009907F0CC
:1042C00007FE0024684606F00DFA204605B030BD12
:1042D000004CF7E7FCFEFFFF0A4B10B504460360F5
:1042E00005F088F9214605F08AFB06F019FF06F073
:1042F0000BFF2046044B40F8043B05F06DFA2046C6
:1043000010BD00BFE0C60D00C8C60D0010B50446C4
:10431000FFF7E2FF2046242107F0EDF8204610BD0C
:1043200010B50446006808B103F0EAFE204610BD4F
:1043300010B58368044613B103220146984720460E
:1043400010BD000037B5134B036004468068C8B148
:1043500000256FF00043CDE9003502212B462A46A7
:1043600003F032FBA068294603F07EFB237903F0BB
:10437000FF0513B103F000FBF8E7A068294603F03E
:1043800013FBA56004F10C00FFF7D2FF204603B039
:1043900030BD00BFB4C60D0010B50446FFF7D2FF14
:1043A00020461C2107F0A7F8204610BD38B504466A
:1043B00020252A46002107F0B3FD6571204638BD4F
:1043C000F8B5037D05460F4616468BB10368DB68DA
:1043D00083B19A88012A06D09B68F9E79B684BB1A4
:1043E0009A88012AFAD12BB19A89BA42F6D19E73E2
:1043F0002846F8BD0A49102007F07FF8044668B146
:104400001022002107F08CFD064B23600123A380BE
:104410002B69A360A781A6732C61E9E72875E7E7FC
:1044200018CE0D001000030070B5037D05460E4642
:10443000CBB10368DB6823B19A88042A17D09B6844
:10444000F9E70C49102007F058F8044668B110222B
:10445000002107F065FD084B23600423A3802B692E
:104460002C61C4E90236284670BD2875FBE7DE6082
:10447000F9E700BF18CE0D0010000300002003F084
:1044800033BB0EB410B58DB00FAA016852F8044BBF
:10449000039200232020CDE90403CDE900421E2031
:1044A00004AA03F0B1FC0DB0BDE8104003B07047A2
:1044B00037B504689DF818508DF800308DF8045019
:1044C000E4683C23A04703B030BD000030B50B7852
:1044D0001C4D93B00C4693B91B4902A807F06DFD23
:1044E0002B7953B1194B1A491B788DF80030194BB1
:1044F00019481B7802AAFFF7DBFF13B030BD08464E
:1045000007F0C2FCC8280DD1144902A807F055FDD8
:1045100006F0BFFC124B286201221A70114B0022D8
:104520001A70DDE7204607F0AFFCC928ECD0204622
:1045300007F0AAFC0C4A0346402102A803F0F8FD4C
:10454000CEE700BFC0E403201DC20D0071E30320CD
:1045500054C20D0070E3032078E4032025C20D004F
:10456000ECE403201CE4032037C20D0007B50B491F
:1045700006F059F970B100238DF80030084B094A54
:104580001B7809490948FFF793FF09480A2102F0FF
:10459000ABF9012003B05DF804FB00BFE8C10D00DA
:1045A00070E3032061C20D003FC60D0078E40320D4
:1045B0007CE3032037B51A49054606F034F9044672
:1045C000B8B1184B01241C71174B1C7003F0E0FCB0
:1045D00010B9012003B030BD144B154A1B788DF87B
:1045E0000030144B1B7814491448FFF761FF204634
:1045F000F0E71349284606F016F90028EAD0094BDF
:104600001C71094B01241C7003F0C2FC0028E0D08F
:10461000064B0C4A1B788DF80030064B1B78E2E7FE
:10462000E8C10D00C0E40320ECE4032071E30320A3
:1046300079C20D0070E30320EFC30D0078E403207E
:10464000FBC30D008AC20D0000B50C4B0C4A1B7F4A
:10465000C3B04FF4807102A803F06AFD094B0A4908
:104660001B788DF80030094B09481B7802AAFFF728
:104670001FFF012043B05DF804FB00BFC0E403202E
:104680009FC20D0071E3032028C50D0070E30320D5
:1046900078E4032030B5C5B000680A2203A907F00A
:1046A0006DFDB0F57A7F1ED8104DA86006F0F1FBC5
:1046B0000F4B104AE86001241C704FF48071AB6806
:1046C00004A803F035FD03F063FC50B10A4B0B491D
:1046D0001B788DF800300A4B0A481B7804AAFFF7B4
:1046E000E7FE204600E0002045B030BDE8E30320AF
:1046F0000CE40320B3C20D0071E30320C9C20D0016
:1047000070E3032078E40320F0B54F4CC3B003F00E
:10471000DBF92368C01AB0F57A7F7DD903F0D4F9AC
:104720004A4D20602B784A4EBFF35B8F13F0010F88
:1047300009D12846FFF7C0FC28B103F0EDF930603D
:104740002846FFF7BEFC336893F870402B78BFF320
:104750005B8FDB074FEA441709D43C48FFF7ACFCFA
:1047600028B103F0D9F930603848FFF7AAFC336864
:1047700093F8714004F01F043C432F2C5FDD354A51
:1047800000210A2003F030FB334B04F01F04012109
:1047900001FA04F4C3F80845304B986838B16FF05B
:1047A00000420023CDE900231A4603F00DF92C4DF9
:1047B0002C7806F08BFB84422A4C04D006F086FB52
:1047C00001232870A361A3690133A36106F061FB93
:1047D0002368E06001332360A3680133A360224BA8
:1047E0001B79B3B103F0D4FB98B1A368009323689D
:1047F0001E4A4FF4807102A803F09AFC1C4B1D491D
:104800001B788DF800301C4B1C481B7802AAFFF760
:104810004FFE1B4B01221A701A4C23786BB11A48B9
:1048200002F00BFD002323708DF80030124B174A65
:104830001B7817491148FFF73BFE43B0F0BD1F2C12
:10484000A2DC4FF0A043A2E774E303200CE30320B3
:1048500010E30320B97A0D0000030050CCE30320DD
:1048600078E30320E8E30320C0E40320CFC20D0077
:1048700071E30320F1C40D0070E3032078E403200A
:104880000CE40320B4E403209CE30320ECC20D00FD
:1048900003C30D0010B51B4C2368CAB0002B2DD0EC
:1048A000E2680892184A118D0791A1690691616921
:1048B00005911169049121690391107B134951F805
:1048C0002010029192680192A26800924FF48071C8
:1048D0000F4A0AA803F02CFC0E4B0F491B788DF8E9
:1048E00000300E4B0E481B780AAAFFF7E1FD0D4B76
:1048F00001221A70236863604AB010BD0A4A126828
:10490000CFE700BFE8E30320C0E40320E0E1032099
:104910000AC30D0071E3032091C30D0070E303206F
:1049200078E403201CE403203CE4032013B50121B8
:1049300001A805F08AFD0B4B1B69243B402B01A805
:104940004FF001040AD905F013FE074B1C73002435
:1049500001A805F089FD204602B010BD05F0F1FD6B
:10496000F6E700BFE8E30320C0E4032030B5194DAB
:104970000FCD99B004AC0FC40FCD0FC495E8030060
:1049800084E8030014490EA803F0A4FC0EA803F069
:10499000F4FC04460EA803F0F9FC0EA810EE105A21
:1049A00003F024FD18AB10EE100A03EB840406F0AC
:1049B0000FFFCDE90201284606F00AFFCDE900010C
:1049C000064A54F8503C0648402103F0B1FB19B0A8
:1049D00030BD00BF34C70D000CE50320A9C30D0096
:1049E00020E303200000000008B50F2006F0E7FCDC
:1049F000B0F5C87F05DA322003F0E2FB0F2006F0A5
:104A0000DEFC06F0D3FE20A3D3E9002306F038FF36
:104A100007F090F9DFED147A07EE100A67EE277AB7
:104A200017EE900A06F0D4FE104B002206F070FD3F
:104A30000F4B002206F024FF07F034F906F0B6FE13
:104A40000C4B002206F01CFF0B4B002207F042F833
:104A50000A4B002206F05EFD07F024F9084B1861AE
:104A6000084B01221A7008BD000080390000E03FA9
:104A70000000594000002240000014400000404067
:104A8000E8E303200CE403206666666666660A4077
:104A900000B591B06846FFF789FC08A8FFF786FCCF
:104AA000002108A803F036FA134B5979A1B141F25D
:104AB000D833ADF80630114B029341F27003ADF8D4
:104AC0000C30009B43F4007300930021684603F010
:104AD00021FA11B05DF804FB41F27003ADF8063025
:104AE000074B029341F21003ADF80C30009B43F4E6
:104AF00000730093EAE700BFC0E4032084030004CE
:104B00008403840337B51C49054605F08CFE044632
:104B1000C8B11A4B01245C71FFF7BAFF184B1C7027
:104B200003F036FA10B9012003B030BD154B164A18
:104B30001B788DF80030154B1B7815491548FFF789
:104B4000B7FC2046F0E71449284605F06CFE002823
:104B5000EAD00A4B5C710A4B01241C70FFF798FFE6
:104B600003F016FA0028DED0064B0C4A1B788DF8AD
:104B70000030064B1B78E0E7E8C10D00C0E40320DD
:104B8000ECE4032071E30320C2C30D0070E30320B3
:104B9000EFC30D0078E40320FBC30D00D9C30D0063
:104BA000244B1A69D3ED057AFF2ABAEE087A88BF3A
:104BB0000022F4EEC77A88BF1A61F1EE10FA06D42B
:104BC000B2EE087AF4EEC77AF1EE10FA01DD1A4A75
:104BD0005A61D3ED067AF5EEC07AF1EE10FA06D4FA
:104BE000B0EE007AF4EEC77AF1EE10FA02DD4FF083
:104BF0007E529A611A7F0C2A84BF00221A775A7F4C
:104C00000C3A0C2A84BF18225A770C4A11681A8D64
:104C10008A4284BF00221A8501225A71084B988B60
:104C200081423FBF00219983064B1A70064B012237
:104C30001A707047C0E403200000A0C004E2032003
:104C4000E8E303200CE40320ECE4032010B50E4C51
:104C5000A38BB3F5C05F09D10C490D4807F0ADF93E
:104C6000BDE8104009490B4807F0A7B9237F0A4A5D
:104C70000748082103F05CFA637F074A0548BDE84E
:104C80001040082103F054BAC0E40320F4C30D001F
:104C90000EE20320FCE10320F7C30D0013B50A2246
:104CA000006801A907F06AFA17280DD8084B187791
:104CB000FFF7CCFF074B01241C7003F069F928B102
:104CC000FFF7C2FC02B010BD0020FBE72046F9E769
:104CD000C0E40320ECE4032030B5C5B000680A222C
:104CE00003A907F04BFA18281DD8104D6877FFF775
:104CF000ADFF0F4B0F4A01241C704FF480716B7F86
:104D000004A803F015FA03F043F950B10A4B0B491C
:104D10001B788DF800300A4B0A481B7804AAFFF76D
:104D2000C7FB204600E0002045B030BDC0E40320B2
:104D3000ECE40320FDC30D0071E3032028C50D0042
:104D400070E3032078E403202DE9F04F8DB006F0E6
:104D5000A0F803904248DFF830A1406800231A46CB
:104D6000194603F085F903F00BF9002440F2E73807
:104D70004FF00009DAF80030A34228D9FFF77EFB94
:104D80004FF0000B0546FFF779FB461B61EB0B0765
:104D9000B94508BFB04505D303F0FAF810B903F0E0
:104DA000E7F8F0E703F0F4F888B92E4B1B780BB165
:104DB000FFF7AAFC02F088FE2B4B186003F0D8F82E
:104DC0002A484FF0FF3101F035FC0134D2E703F0FF
:104DD000DFF8274C274E054668B92749E070274879
:104DE000FFF74FFB02F070FE254B264A18600123A7
:104DF000137033702FE00123E37006F04AF860620D
:104E000006F047F8039B204AC31A12689BB29342EC
:104E100023851E4A84BF00232385238D918B9942CD
:104E200038BF938320211A4A04A803F081F913485C
:104E300004A9FFF726FB23794BB100238DF800303E
:104E4000144B15491B78154804AAFFF731FB144A87
:104E500001233370137028460DB0BDE8F08F00BFFA
:104E60000CE50320B4E40320C4E703207CE3032023
:104E7000C0E40320ECE4032032C40D00E0E503208D
:104E8000B0E40320B5E4032004E20320E8E30320B8
:104E900014C40D0070E3032029C40D0078E403203E
:104EA0000CE4032013B52649044605F0BCFC20B3EE
:104EB0002349204605F0B7FC38BB2249204605F0BF
:104EC000B2FC002837D003F063F808B9FFF73CFFC5
:104ED0001D4B1E4A1B788DF800301D4B1D491B7859
:104EE0001D48FFF7E5FA4FF47A7003F069F91B4BA0
:104EF0001B4900229A7110221AE01249204605F03F
:104F000092FC0028D4D102B010BD03F041F850B19A
:104F10000D4B144A1B788DF800300D4B0D491B7852
:104F20000D48FFF7C5FA0D4B0F4901229A71102267
:104F30000E4807F082F80E4B01201870E3E700BF1F
:104F4000E8C10D00FBC30D0071E303205FC40D0039
:104F500070E30320EFC30D0078E40320C0E40320D6
:104F600071C40D0050C40D0075C40D0064E403202D
:104F7000ECE4032070B586B0FFF7E6FE03F008F816
:104F800050B1174B174A1B788DF80030164B174954
:104F90001B781748FFF78CFA164C17490025012695
:104FA00002A826702571A570E57105F0E6FB02A840
:104FB000FFF778FF02A805F095FB104B63614FF0F7
:104FC0007E53A36141F20653A38322462C2331462C
:104FD0000B486671258502F020F806B070BD00BF51
:104FE00071E303207FC40D0070E30320EFC30D00C5
:104FF00078E40320C0E40320E8C10D000000A0C055
:1050000020E4032038B50A4C0025C4E90055A5600A
:1050100005F03FFF074B084A1D616423236201230B
:105020001370064AE06013706561A58338BD00BF48
:10503000E8E30320C0E403200CE40320ECE40320B5
:1050400030B5154D154C16492A7820788DB00E23B1
:1050500003FB0212009203FB0013124A282102A84C
:1050600003F066F82B7823700F4B1B798BB102F09D
:105070008FFF50B10D4B0E491B788DF800300D4B52
:105080000D481B7802AAFFF713FA0C4802A9FFF794
:10509000F8F90DB030BD00BFB5E4032074E403207F
:1050A0001CE2032097C40D00C0E4032071E3032039
:1050B000A5C40D0070E3032078E40320E0E503209D
:1050C00030B585B0002301A8CDE90133ADF80C302F
:1050D00003F05DFA02F0F8FC43F69725044602F06F
:1050E00057FF40B102F0F0FC001BA84203D8642037
:1050F00003F066F8F3E70021094B47F23052084607
:1051000002F02AFC4FF47A7003F05AF8054B0A2299
:105110001B68012101A805F0A7FC05B030BD00BF48
:10512000B6C40D006CE303202DE9F047204B214C61
:105130001B78214A2149224886B000258DF800308D
:10514000204B1B78FFF7B4F92571FFF78DF8FFF7B7
:1051500095F947F22F5882464FF00009FFF78EF974
:10516000B0EB0A0661EB0507B94508BFB04505D3AA
:10517000FFF784F810B902F0FBFEEFE7FFF77EF8C7
:10518000637913B9A368462B09DC0F4902A805F01F
:10519000F4FA02A8FFF786FE02A805F0A3FAFFF7CB
:1051A00031FF0A4B01221A7006B0BDE8F08700BF3C
:1051B00071E30320C0E40320C3C40D00CBC40D0081
:1051C00078E4032070E30320E8C10D00ECE4032041
:1051D00030B585B00D4600226946009202F02CFEE3
:1051E000B0B9009C0CB1236923B90A4A00210A20F6
:1051F00002F0FAFD0023ADF806300C23ADF80430C0
:10520000042303930295236901AA012120469847AC
:1052100005B030BDB97A0D0030B5264B002289B0FB
:105220005868114602F01CFF08B1FFF79FFBFFF71B
:10523000DBFB69460720FFF7CBFF1F4C1F4D002803
:10524000A8BF00982073FFF771FB10B96B69013399
:105250006B6169460320FFF7BBFF40BBBDF8003020
:1052600007EE903AFBEECC7AFDEEE77A17EE903A35
:10527000402BC4ED027A09DC237B012B06D1684662
:10528000FFF794F80021684602F044FEA3682A6AFA
:105290009342B8BF2B621D2BCCBF00230123084AC9
:1052A000E37101231370074A137009B030BDFFEE9C
:1052B000007AD9E70CE50320C0E40320E8E30320EB
:1052C000ECE403200CE4032070B5D0E9005314266D
:1052D000044606FB0356AE4204D0284605F002FA07
:1052E0001435F8E7206802F00BFF204670BD00235C
:1052F000022202F02DBE00000246014803F036B93A
:1053000041850D00000000002DE9F0410021AAB008
:10531000082006F017F80021042006F013F80121F8
:10532000072006F00FF80021022006F00BF80121FB
:10533000072006F018F806A8002402F031FE00232A
:105340007D220AA906A805F080FABD49BD4FBE4DD1
:10535000DFF8F88323462246CDE900440AA802F08C
:105360002FFE23460222B749B84802F0F1FDB849A2
:10537000B848FFF7BCFFB849B848FEF78CFFB849FA
:10538000B848FFF7B4FF23460222B749B74802F0F6
:10539000DFFDB749B748FEF77EFFB749B748FFF7CB
:1053A000A6FFB749B748FEF776FFB749B748FEF7FB
:1053B00072FFB749B748FEF76EFF23460222B6498F
:1053C000B64802F0C5FDB649B648FEF764FF0C23A7
:1053D000CDE90344ADF80C30B34BB4490593042236
:1053E00003ABB34802F0B4FDB24AB349B34803F08B
:1053F000BDF8B34AB349B14803F0B8F8B24AB3496B
:10540000AE4803F0B3F8B24AB249AC4803F0AEF884
:10541000B149B248FFF770FFB14AB249A74803F05B
:10542000A5F8B149B148FFF767FFB149B148FFF7A7
:1054300063FFB14AB149A14803F098F8B049B148B7
:10544000FFF75AFFB049B14A9C4803F08FF8012694
:10545000032241F2883303A8CDE90323ADF8146099
:1054600003F0AFF8AA4801F04BFD3346A8480DF110
:105470000B02214601F086FD9DF80B30032B00F056
:105480006A81A34801F046FDA24AA14804232146AF
:1054900001F0C3FD33469E480DF10B02214601F099
:1054A00071FD9DF80B30032B00F052819A499B4807
:1054B00088F80060FEF7E5FF994CFFF771FBFFF7F6
:1054C000C5FB984A002300214FF4802002F0DEFC47
:1054D000082301212046638101F0C4FB01231A4601
:1054E0001021204601F029F97C21A870204601F006
:1054F000A1F8032202218C4801F015FF8A4801F02F
:10550000D7FE95ED060A05F07BFB05F0A5FC00280B
:1055100040F02E81AB78002B00F02A81834E20468C
:10552000314601F08FFBD6E9000105F09BFB00F04E
:10553000A3FE002800F0218105F080FB95ED050A0F
:1055400005F03EFB05F0EAFC044605F0A2FC201A3B
:1055500006F02CF938A3D3E9002306F0BBFA744A0D
:10556000CDE900014E480A2102F0E2FDAB7910229C
:10557000002B00F005816F49414806F05EFD0022D6
:10558000114603A8039202F07FFA039B142B4FF0FD
:10559000000240F0F7802B6901332B61664B01223A
:1055A0001A703B68654C002B00F0F680FB682360A6
:1055B000FFF76EFA042005F0EFFE08B9FFF7DAFCFA
:1055C00005F090FC00210446F86805F0DDFA8442FD
:1055D00001D0FFF717FD05F06DFC2B7F984219DB1A
:1055E00005F068FC6B7F984214DA0023009354495D
:1055F0004FF0FF330122022003F01AFCEB7823B1B5
:1056000002F0C6FC08B9FFF79FFBFFF705FE4D4B04
:105610004D4A1A6098F8003013B9022388F8003018
:105620000021072005F09FFE06A805F05BF82AB0D0
:10563000BDE8F081AFF30080000000000020AC4026
:10564000CD440D00E8E30320C0E40320D9C40D00DD
:10565000F0E3032051C50D0020E30320E5C40D0055
:10566000D0E40320ECC40D00F8E30320F7C40D00E0
:1056700008E2032003C50D00C8E403200BC50D009C
:1056800064E4032016C50D000EE20320BEC50D0024
:10569000FCE1032023C50D00FCE303202DC50D0014
:1056A0000DE4032034C50D00A1420D0005410D009D
:1056B0003FC50D004EC50D0095460D0041850D00FE
:1056C0005CC50D0025420D0068C50D006D450D003F
:1056D00072C50D0071410D00A54E0D007AC50D007B
:1056E00087C50D00054B0D00B5450D0092C50D0099
:1056F00051610D009FC50D00ACC50D00B9620D00D4
:105700009D4C0D00BAC50D00D94C0D00C7C50D004C
:1057100020E403205CC70D00D1C50D00E0E50320A7
:105720007CE30320D5400D009CE3032018E3032015
:10573000E1C50D0075C40D00ECE403203CE403203A
:105740003D410D00B8E40320905F0100B5E4032063
:10575000FFF710FCB0E62A4631462C23104801F032
:1057600011FC24233A4650210D4801F00BFCA3E61E
:10577000FFF7EAFAFEF778FDD9E605F06BFADDE609
:105780000849F9E6114603A8039202F07DF9039B4C
:105790008C2B7FF406AFFEE605F07BFB206007E76D
:1057A00020E4032071C40D008842F8B504460D467C
:1057B000164616D9904215D2A2F11406751AA1F117
:1057C00014072C44B7421CD02CB13146204605F0BA
:1057D00005F8337C2374304604F084FF143E143CF7
:1057E000F0E70ED0B5420CD02CB12946204604F08B
:1057F000F5FF2B7C2374284604F074FF1435143411
:10580000F0E7F8BD2DE9F0410023C0E900338360E3
:105810004F689F4204460E4623DD4FF0140808FBF4
:1058200007F002F065FC0546D8B1D4E9001208FB88
:105830000212FFF7B9FF206802F062FC2560A76042
:10584000D6E9007308FB0378B84508D039462846E6
:1058500004F0DEFF3B7C2B7414371435F4E77368D7
:1058600063602046BDE8F0817A4B2DE9F04F0024BB
:105870001C60794B794D7A4E4FF0010883F8008017
:10588000784B082291B01A7005F006FD2346224697
:105890000D2105F009FD05F0FFFC41462346224697
:1058A00005F00AFD704B2C6064229C831A626F4BDA
:1058B000AB60AC80AC71022002F0D0FA32466C4989
:1058C000284605F013FE2146404602F0E7FA41461D
:1058D000042002F0D1F867486749A0F80940034660
:1058E000021D43F8092B9C70644B43603246C0E9AB
:1058F000034480F81480047205F0F8FD05F0A6FD5D
:105900005F4D014623464FF40052284601F0EEFA5F
:105910005C4B2B6028465C4D5C49324605F0E6FD49
:105920005B494FF40062284601F0F0FE594B2B60B2
:1059300032465949284605F0D9FD05F087FD574DF7
:1059400001466922284600F077FD2846544D554906
:10595000324605F0CBFD2146284603F001F93246D8
:105960005149284605F0C2FD1D215048504D01F017
:10597000F1FBCDE90344059405F0D2FB0DF12409B8
:10598000824603A906A8FFF73DFFAB4606A9484695
:10599000FFF738FF474B4BF8043B0CAF49463846FE
:1059A000FFF730FF3A464146584604F07BF9384647
:1059B000FFF78AFC4846FFF787FC3F4B2B60C5F892
:1059C00020A006A8FFF780FC3C4B2B6005F0A8FB4D
:1059D0004FF4165105F094FB03F00CFE294604F039
:1059E000F3F803A8FFF770FC32463549284605F066
:1059F0007DFD344B0C93344D344B2B6097E8030002
:105A000005F10C0389E8030093E8030087E803002D
:105A100099E8030083E803002D4B6B61AB690F939A
:105A20002C4BAB612C4A2C712B46AC604FF47A7135
:105A3000CDE9008405F108000E9401F0ADFF384671
:105A4000FEF776FC25493246284605F04FFD11B099
:105A5000BDE8F08F6CE3032070E3032060E30320D4
:105A600008E3032071E30320E8E303200000FFFFC5
:105A700021430D00B4E3032025410D001000030075
:105A800020E40320F8C60D0078E40320C1410D0096
:105A900000F4032014C70D0099410D007CE303209E
:105AA00030E40320CD630D00818B0D009CE30320C7
:105AB00040E40320C8C60D00CCCC0D00E0C60D00AC
:105AC000D9420D00FB400D00CCE30320B4C60D000D
:105AD000E5400D00E1400D00E9410D0045430D009A
:105AE0002DE9F04F85B04FF0000A01A8CDE901AAD9
:105AF000ADF80CA002F04BFDFEF7C0FC43F6972872
:105B000083464FF00009FEF7B9FCB0EB0B0661EBE2
:105B10000A07B94508BFB04505D302F039FA10B1FC
:105B200002F026FAEFE7194E02F032FA706800220E
:105B3000022102F08DFA002370681A46194602F01D
:105B40009FFAFEF79BFC4FF0000A074647F22F58DA
:105B50004FF00009FEF792FCC41B61EB0A05A94552
:105B600008BFA04506D3304604F0DCFB10B902F0B4
:105B7000FFF9EFE7054804F0D5FB054B0022DA708A
:105B8000044B0120187005B0BDE8F08F0CE5032030
:105B9000C0E40320ECE403202DE9F043AE4CDFF831
:105BA00014832378AD4FAE4E013B97B0052B34D80C
:105BB000DFE813F0FD0106007400F0009001C3015E
:105BC000A84B1B78022B01D0FFF73AFAA64DAB7910
:105BD00053B101F079FFA54B1B68C01AA44B1B6899
:105BE000984284BF0423237005F064F9A14B8146D9
:105BF0000021186804F0C0FF81451CBF05232370F5
:105C000005F058F96B7F984202DB0323237004E010
:105C100005F050F92B7F9842F7DB98F80030002B05
:105C200000F04182FEF770FD934801F0FBF83378F5
:105C30003BB12C238C4A9148012101F0EEF900235D
:105C400033703B783BB124238D4A8C48502101F0BE
:105C5000E4F900233B708B4B1B68002B1BDB8A4A4B
:105C6000402106A802F064FA06A98848FEF709FC5C
:105C7000642002F0A5FA00238DF80030844B85499A
:105C80001B78854806AAFEF713FC4FF4FA6002F071
:105C900097FA04F081FE17B0BDE8F083714B1B78D2
:105CA000032B01D0FFF7CCF9022003F0EBF8744B83
:105CB0001B680BB10523A9E76B4BDA7899460AB14B
:105CC000FFF70EFF00216C4800F0B4FC05F0E1F88E
:105CD0004FF4616590FBF5F303FB15056F4BC5F5BC
:105CE00061651A7DB5F5616FA8BF4FF461650AB1B2
:105CF00002221A72002204216848FEF761FB4FF469
:105D00007A716943FEF790FB644903A804F048FEEA
:105D10004FF0FF31584800F08DFC614802F0BAFFA7
:105D20005F4802F0AEFF039B9BB19A88012A10D115
:105D30009B89042B0DD15B4906A804F01EFD06A823
:105D4000FFF7B0F806A804F0CDFC4FF4C053A9F853
:105D50001C3005F0AFF899F81D30984211DA05F0C3
:105D6000A9F899F81C3098420BDB0023009301221C
:105D70004FF0FF334C49022003F05AF83C4B4B4A9A
:105D80001A6002232370039800283FF446AF02F004
:105D9000B7F942E7334B1B78042B01D0FFF750F9DA
:105DA00098F8003003F0FF01002B7FF436AF404B32
:105DB000986800284BD12C4BDB780BB1FFF790FE95
:105DC0002B4B2D484FF47A7200211A6000F032FC00
:105DD00005F05FF84FF4616590FBF5F303FB1505E3
:105DE0002E4BC5F561651A7DB5F5616FA8BF4FF4FF
:105DF00061650AB102221A72002204212748FEF7C7
:105E0000DFFA01220221FEF7DBFA4FF47A716943CF
:105E1000FEF70AFB214903A804F0C2FD4FF0FF3151
:105E2000154800F007FC1E4802F034FF1C4802F041
:105E300028FF039B002BA4D09A88012AA1D19B891B
:105E4000022B39D101F040FE084B186099E701F0B0
:105E5000FBFD0028AFD0E0E6B5E403200CE403200E
:105E6000ECE4032074E40320C0E40320BCE403203A
:105E7000B8E403203CE403207CE3032020E4032077
:105E8000E8E3032018E2032084C60D00E0E50320C8
:105E900070E30320A3C60D0078E40320B4E30320DD
:105EA00030E40320FBC30D003D410D00905F010075
:105EB000CCE30320B4E40320042B7FF462AF8349D6
:105EC00006A804F05AFC06A8FEF7ECFF06A804F0AA
:105ED00009FC56E77E4B1B78052B01D0FFF7B0F885
:105EE0007C4DEB7813B9FEF72FFF96E602F050F8E1
:105EF000E8B1FFF791F904F0DDFF2B7F984213D151
:105F0000FFF712F904F0D6FF2B7F984202D108B9AF
:105F1000FEF7C0FC01F0D8FD6F4B186004F0B9FF2C
:105F20006E4B1860062371E6FEF7B4FCEAE701F059
:105F3000CBFD6B4B1860012368E6654B1B78062B85
:105F400001D0FFF77DF8674B1D78B5B9664B674AFE
:105F50001A6001F0B9FD664B186002232370654B8F
:105F6000596800293FF459AE1A685D60521AC3E9B6
:105F700005551A6001233B704FE601F0A5FD564B15
:105F80001B68C01A47F2305398427FF646AE01F0C4
:105F90009BFD534B584A1860584B59491B788DF854
:105FA0000030584B58481B78FEF782FAC3E7484B3D
:105FB0001B78012B01D0FFF743F801F085FD484B1A
:105FC0001B6803F5EA4330338342BFF426AE414CED
:105FD00004F05FFF636AC01AB0F5E15F10D92C23AB
:105FE00022460121494801F018F849494948FEF77D
:105FF00048FA642002F0E4F847481E2100F074FCDF
:106000002369032B14DC01F0C3FF50B13B4B434A1F
:106010001B788DF800303B4B41491B783A48FEF71E
:1060200047FA4FF4FA6002F0CBF804F0B5FCF4E55F
:1060300004F02FFF236AC01AB0F5E15F1AD901F00E
:10604000A7FF50B12D4B374A1B788DF800302D4BF0
:1060500033491B782C48FEF72BFA4FF4FA6002F014
:10606000AFF8002323610A2101232B48337000F08D
:106070003BFCD2E501F08CFF50B1204B2A4A1B7843
:106080008DF800301F4B26491B781F48FEF710FA89
:106090004FF4FA6002F094F8002323610123337077
:1060A000FFF70EF8B9E5214C01F00EFD2368C01A88
:1060B00064287FF6B9AD01F007FD20601C4801F0AF
:1060C000BFF800283FF4B0ADACE500BFFBC30D0046
:1060D00074E40320C0E40320F4E403203CE4032040
:1060E000B0E403201CE40320B8E40320905F010027
:1060F000BCE40320E8E30320C2C40D0071E30320E5
:10610000EBC50D0070E3032078E4032020E40320B6
:1061100004C60D00E0E503207CE3032031C60D003A
:1061200045C60D004BC60D0065C60D00F0E403200A
:106130009CE3032008B5002001F052FF28B101F0D4
:1061400027FF80F00100C0B208BD0120FCE700007D
:106150002DE9F047C8B0804601F01AFF10B10020C9
:1061600001F036FF002001F0BFFC4FF0000A81462D
:1061700047F22F560027002001F0B6FCB0EB0904CF
:1061800061EB0A05AF4208BFA64205D3FFF7D2FF75
:1061900010B901F0EDFEEEE7FFF7CCFFD8F80000F4
:1061A0000A2203A905F0EAFF00F10C03DBB2182B69
:1061B00048D845B207EE905A274BB8EEE70A0124BB
:1061C00083ED050A04F0FCFC244B1C7004F0A6FED1
:1061D000064604F05EFE301A05F0E8FA1CA3D3E987
:1061E000002305F077FC1E4ACDE900010A211D4875
:1061F00001F09EFF01F0CCFE10B32B461A4A1B4D56
:106200004FF48071002608A801F092FF8DF800601D
:1062100017492B78174808AAFEF74AF904F039FE07
:106220000246C31704A804F031FD8DF800602B78F6
:10623000049A0F490F48FEF73BF904A804F052FAFC
:10624000204600E0002048B0BDE8F087AFF30080B2
:10625000000000000020AC40C0E40320ECE4032078
:10626000E1C50D000DE4032060C70D00F8E4032034
:1062700028C50D0078E4032038B504F033FE054648
:1062800004F044FE044604F039FE231F062B0ED909
:10629000E31E082B0DD801382D1A04D50B2C14BF82
:1062A0000020012038BD072D03DD032CF7E7012076
:1062B000F8E70020F6E7000070B52DED028BC8B0BE
:1062C000054604F0E6FD0A22044603A9286805F005
:1062D00055FFC3B2022B59D843B208EE103AB8EEBC
:1062E000C88AB0EE480A04F08BFC2D4B83ED068A79
:1062F0002C4B01221A7018EE100A05F069FA2A4A8E
:10630000CDE900014FF4807108A801F011FF04F0FD
:10631000A3FD28B1FFF7B0FF002834D004F08EFCB5
:1063200004F0FCFD054604F0B4FD281A05F03EFA21
:1063300019A3D3E9002305F0CDFB1C4ACDE90001E8
:106340000A211B4801F0F4FE01F022FEC8B1194DEC
:1063500019491A4800268DF800602B7808AAFEF724
:10636000A7F82246E31704A804F090FC8DF800601B
:106370002B78049A10491148FEF79AF804A804F003
:10638000B1F9012003E004F065FCC9E7002048B042
:10639000BDEC028B70BD00BF000000000020AC40CF
:1063A000C0E40320ECE4032074C70D00E1C50D0038
:1063B0000DE40320F8E4032028C50D0078E4032051
:1063C000014B01221A707047F8E40320704710B5A2
:1063D0002021044605F08FF8204610BD0EB410B5FC
:1063E0008DB00FAA016852F8044B039200232020BD
:1063F000CDE90403CDE90042012004AA01F004FD27
:106400000DB0BDE8104003B070470EB410B58DB0AC
:106410000FAA016852F8044B039200232020CDE913
:106420000403CDE90042322004AA01F0EDFC0DB0D6
:10643000BDE8104003B0704710B50272FF224281E0
:106440000022C0E9032242610276C261024A034C83
:106450001060C0E9004110BD00E50320D4C90D0063
:106460002DE9F8439DF820800446894616461F46CC
:10647000B8F1000F02D0406802F0C6FC217A6068D3
:1064800002F09CFC6068036849469B689847606816
:10649000002102F0B2FC054600BB0123217A6068AE
:1064A0003A4602F076FC8742034609D13744BE42A1
:1064B0001CD0606803685B69984706F8010BF6E733
:1064C0000B490C484A46FFF7A0FFB8F1000F02D075
:1064D000606802F0A2FC2846BDE8F883034606493E
:1064E00004484A46FFF791FF0025EEE70125ECE757
:1064F00085C70D00FCE40320AAC70D0007B5009373
:106500000123FFF7ADFF03B05DF804FB73B54389CA
:10651000FF2B044610D0194E194D01F0D5FAB0F5F5
:106520007A7F09D2608904F037FF012804D0314610
:106530002846FDF7A6FFF0E701230DF10702282109
:106540002046FFF7DBFF30B90D480E49FDF799FFF4
:10655000002002B070BD9DF80730182BF4D1012344
:106560000DF1070229212046FFF7C8FF0028EBD0D4
:106570009DF80730052BE7D1EBE700BFCEC70D0034
:10658000FCE40320E3C70D0007B5134600228DF895
:1065900007200DF10702FFF7B1FF9DF8070003B0D8
:1065A0005DF804FB2DE9F0419DF8188004460F4684
:1065B00015461E46B8F1000F02D0406802F024FCD8
:1065C000217A606802F0FAFB6068036839469B68CC
:1065D00098472E44B542606805D0036815F8011B42
:1065E0009B689847F6E7012102F007FC034670B16B
:1065F000084909483A46FFF708FF0025B8F1000F9F
:1066000002D0606802F009FC2846BDE8F08101254F
:10661000F4E700BFF0C70D00FCE403201FB58DF8C0
:106620000F2000930DF10F020123FFF7BBFF05B010
:106630005DF804FBF8B50A460C4605461A491B48A6
:10664000FDF71FFF002CB8BFEC687CB90123224680
:106650001B212846FFF7E2FF15490246064613486C
:10666000FFF7BCFEEC606C613046F8BD032C19DD11
:10667000A7101F2FA8BF1F27BA0062F07C020123BA
:10668000D2B21B212846FFF7C9FF3A460346094903
:1066900006460648FFF7A2FE4FF4FA635F43EC603C
:1066A0006F61E1E70127E7E715C80D00FCE403206F
:1066B0001FC80D003BC80D000B460749024608687D
:1066C00048B1002B08BFB2F5006F04D1C36813B105
:1066D0000021FFF7AFBF704700E503202DE9FF4120
:1066E0009DF82880054616461F46B8F1000F04D0D5
:1066F0004068019102F088FB0199019100230DF19E
:106700000F022846FFF7FAFE044660B19DF80F30ED
:1067100003EA06023A43934205D001990023284632
:10672000FFF77CFF0446B8F1000F02D0686802F062
:1067300074FB204604B0BDE8F08113B514460DF19A
:106740000702FFF7DBFE28B19DF807301C420CBFA3
:106750000120002002B010BD13B514460DF1070250
:10676000FFF7CCFE28B19DF807301C4214BF012072
:10677000002002B010BD07B5D2430093D2B200236F
:10678000FFF7ACFF03B05DF804FB000037B5012351
:106790000DF107020F210446FFF7B0FE054638B998
:1067A0001E491F48AD22FFF730FE284603B030BD1A
:1067B0009DF8073013F0200F4FF001030BD020227B
:1067C000E3610F212046FFF7D6FF164A1649144809
:1067D000FDF757FEE9E7082217212046FFF7BCFF27
:1067E00018B10223114AE361F0E79DF807301A0758
:1067F00009D50323E361082201230F212046FFF777
:10680000BAFF0B4AE2E75B07CFD50422E26101231E
:106810000F212046FFF7AFFF064AD7E78EC80D00CD
:10682000FCE403205FC80D00ADC80D0068C80D0072
:1068300078C80D0088C80D0007B500931346FF22E5
:10684000FFF74CFF03B05DF804FB0000F8B50F46FE
:106850001646012300220F210546FFF7DFFE0446FE
:1068600038B94FF425721E491E48FFF7CEFD204669
:10687000F8BD0123232218212846FFF7CFFE044646
:1068800010B940F29B22EEE7FF2FA8BFFF27012F90
:10689000B8BF01270123FAB219212846FFF7BEFE2F
:1068A000044610B94FF42A72DDE7012308221221B1
:1068B0002846FFF7C1FF044610B940F2AF22D2E7E5
:1068C000002E4FF0010314BF832282221821284694
:1068D000FFF7A4FE04460028C9D140F2B922C2E75E
:1068E000BEC80D00FCE403202DE9F7430A46054627
:1068F0000F464F484F49FDF7C4FD00212846FFF7DA
:1069000099FE044648B940F2F7124B494848FFF750
:106910007CFD204603B0BDE8F08301231A463021F8
:106920002846FFF789FF044610B940F20522ECE73C
:106930001022012311462846FFF71DFF044610B917
:106940004FF40372E1E70123262213212846FFF7C3
:1069500065FE044610B940F21322D6E701260096E0
:106960003346FC2211212846FFF7B8FE044610B931
:1069700040F21B22C9E7002239462846FFF766FF8E
:10698000044610B940F22222BFE700960223772284
:1069900010212846FFF7A2FE044610B940F22B2230
:1069A000B3E7334604221C212846FFF745FF04467F
:1069B00010B940F23222A8E700961823E3221121F1
:1069C0002846FFF78BFE044610B940F239229CE7B7
:1069D0003346C02217212846FFF720FE044610B98F
:1069E0004FF4107291E701F06FF8DFF85490DFF880
:1069F00040804FF47A7106464F4301F065F8801BE2
:106A0000B8420ED2012217212846FFF7BDFD4946A4
:106A100002464046FDF735FD4FF47A7001F0D0FB99
:106A2000EBE706490248FFF7F0FC03F0B5FF70E71B
:106A3000FCE40320E9C80D00DEC80D000FC90D00FD
:106A4000FAC80D002DE9F3479DF828A005460C462D
:106A500091461F46BAF1000F02D0406802F0D4F907
:106A600007B3202F3E4628BF20267F2C26D8331977
:106A7000802B01D9C4F18006012304223F2128463E
:106A8000FFF779FE002364F07F0100934A46334606
:106A9000C9B22846FFF7E4FC804628B13444BF1B46
:106AA000B144DDE74FF00108BAF1000F02D0686889
:106AB00002F0B3F9404602B0BDE8F087012304229A
:106AC0003F212846FFF7B8FEDCE72DE9F3479DF8A4
:106AD00028A005460C4691461F46BAF1000F02D089
:106AE000406802F091F907B31F2F3E4628BF1F26CA
:106AF0007F2C26D83319802B01D9C4F180060123BD
:106B000004223F212846FFF736FE002364F07F0170
:106B100000934A463346C9B22846FFF743FD8046F4
:106B200028B13444BF1BB144DDE74FF00108BAF18E
:106B3000000F02D0686802F070F9404602B0BDE86C
:106B4000F087012304223F212846FFF775FEDCE78A
:106B500030B585B00D68D1E9043203954D680295D2
:106B60008D680195C96800910133044902F26C7285
:106B7000044603F083FE204605B030BD21C90D0058
:106B800003110A2200F00F0002FB0300704738B522
:106B9000044600781546FFF7F3FF08606078FFF7BA
:106BA000EFFF4860A078FFF7EBFF8860E078FFF721
:106BB000E7FFC8602079FFF7E3FF013808612DB9CE
:106BC000651D2878FFF7DCFF886138BD6079FFF725
:106BD000D7FF6430A51D4861F3E7000070B50123BD
:106BE00088B00D461A4610210446FFF7A6FDF0B105
:106BF00008230126204600960DEB03020021FFF733
:106C00002FFC044698B1324629460DF10900FFF7E2
:106C1000BEFF04A8FFF79CFF0848049A0849FDF747
:106C200030FC04A803F05EFD204608B070BD2422AD
:106C30000021284605F074F90024F5E7FCE4032060
:106C40003FC90D0030B58BB00D4601A9FFF7C6FF57
:106C5000044620B101A801F0ABFAC5E900012046C5
:106C60000BB030BD10B5044688B011B1406802F0D9
:106C700073F82046FFF74AFC70B32046FFF786FD05
:106C800001231A4610212046FFF757FDD8B104F022
:106C9000E3F8C0B902A92046FFF7D4FFDDE90201FD
:106CA00003F0E0FF0F4B10491B68009304A8DDE9D7
:106CB000022304F08FF80D48049A0D49FDF7E1FB1B
:106CC00004A803F00FFD0B4A002300214FF40060DD
:106CD00001F0DCF808B010BD07490448FFF795FB48
:106CE000F1E700BF94E2032034E60320FCE4032034
:106CF0004DC90D00B9660D006AC90D000A2290FB4E
:106D0000F2F302FB130093FBF2F102FB113140EAB4
:106D10000110C0B2704770B5054600680C461646B3
:106D2000FFF7ECFF20706868FFF7E8FF6070A86865
:106D3000FFF7E4FFA070E868FFF7E0FFE070286964
:106D40000130FFF7DBFF20712EB9661DA869FFF740
:106D5000D5FF307070BD6A69642392FBF3F003FBCA
:106D60001020FFF7CBFFA61D6071EFE7F0B587B0ED
:106D7000054602A816460C46FFF7EAFE1E48029A90
:106D80001E49FDF77EFB02A803F0ACFC16B1686853
:106D900002F03AF8204601220DF1090100278DF892
:106DA0000870FFF7B8FF01231A4610212846FFF7A5
:106DB00043FD0446E8B1082300970DEB0302394672
:106DC0002846FFF7EFFB044660B101231A46102165
:106DD0002846FFF7D0FC16B1686802F01EF820467E
:106DE00007B0F0BD4FF48D7205490348FFF70DFB66
:106DF000F1E74FF48F72F7E7FCE4032082C90D003E
:106E000090C90D0013B504466846CDE9002305F08E
:106E10004DF89DF8102001462046FFF7A7FF02B06D
:106E200010BD0000F0B5057E89B0044675BB04F0C6
:106E300013F858B30026002704A92846CDE90467B3
:106E400001F0D6F810B30125257604F022F800955C
:106E50000246C3172046CDE90223FFF7D3FF02A95C
:106E60002046CDE90267FFF7EDFE124B12491B6881
:106E7000009304A8DDE9022303F0ACFF0F48049A55
:106E80000F49FDF7FEFA04A803F02CFC636973B107
:106E900000F01AFE2369C01A6369984207D300F014
:106EA00013FE4FF0FF3120612046FFF7C3FB09B00E
:106EB000F0BD00BF94E2032034E60320FCE403208D
:106EC000ABC90D00014B024A1A607047FCE4032075
:106ED000C1C90D00704710B51021044604F00BFB2A
:106EE000204610BD0368C9B29B68184730B5034DF2
:106EF000C0E90223C0E9005130BD00BF18CA0D002F
:106F0000406801F029BF10B50446006801F085FF14
:106F1000204610BD2DE9F0418AB00446406801903A
:106F200001F072FF1E22002102A8A76804F0F8FFFA
:106F30000026EFB123681E2FB84628BF4FF01E0869
:106F4000DD6802AA434631462046A847054658B99F
:106F50000A480B493246FDF794FA01A8FFF7D3FF20
:106F600028460AB0BDE8F081A7EB08074644E0E7F1
:106F700001A8FFF7C8FF0125F2E700BFE0E5032005
:106F8000E4C90D002DE9F7430446406801900D4621
:106F900016461F4601F038FFA7B1E168606841F06E
:106FA000500101F00FFF290A6068FFF79BFF294697
:106FB0006068FFF797FF6068002101F01EFF48B18D
:106FC000002400E0012401A8FFF79DFF204603B044
:106FD000BDE8F083202F217B6068B84628BF4FF0C2
:106FE00020080123424641F0500101F0D2FE04F096
:106FF0002DFA03681B6998474045E1DB06EB080959
:1070000004F024FA03685B69984706F8010B4E45C3
:10701000F6D14544A7EB0807BEE72DE9F74F044634
:10702000406801900E4690461D4601F0EDFE4FF07F
:107030000109B9F1000F2AD04DB3E168606841F051
:10704000500101F0BFFE310A6068FFF74BFF606836
:107050003146FFF747FFA5F11E0A4746A6EB080B8E
:10706000606817F8011B0368013D9B689847554508
:107070000BEB0706B84601D0002DF1D16068012165
:1070800001F0BBFE0028D7D04FF00009D1E701A8DE
:10709000FFF739FF484603B0BDE8F08F2DE9F04314
:1070A0008BB00E4615468046406801901C4601F0A4
:1070B000ABFEAE4229D2264425448CB11E2C274675
:1070C000D8F8003028BF1E27F61BD3F8089002AA74
:1070D0003B4631464046ED1BC84748B9002400E016
:1070E000012401A8FFF70FFF20460BB0BDE8F08395
:1070F000D8F8003002AAD3F80C9029463B46404607
:10710000C8470028EAD0E41BD7E7E9D9002CE7D02C
:10711000D8F800301E2C274628BF1E27D3F8089029
:1071200002AA3B4631464046C8470028D6D0D8F888
:10713000003002AAD3F80C9029463B464046C84787
:107140000028CBD03E443D44E41BDFE70368C9B2CE
:107150009B68184701757047F8B507460C461546F9
:107160001E4604F073F9397D01F028FE04F06EF933
:107170002146FFF7EBFF0024A64207DD04F066F985
:107180000368295D9B6898470134F5E704F05EF9D0
:10719000BDE8F84001F035BE07B501238DF80720A2
:1071A0000DF10702FFF7D8FF03B05DF804FB38B517
:1071B00004460D4604F04AF9217D01F0FFFD04F07C
:1071C00045F92946FFF7C2FF04F040F9002101F01C
:1071D00014FE08B1002038BD04F038F9217D0122E9
:1071E00001F0E9FD0128F5D104F030F903685B698D
:1071F0009847C0B2EFE738B50D460E210446FFF7B9
:10720000D6FF20F0030242EA95022046D2B2BDE842
:1072100038400E21FFF7C0BF38B50D462A2104467D
:10722000FFF7C5FF20F0300242EAC5022046D2B285
:10723000BDE838402A21FFF7AFBF1C21FFF7B7BFD9
:1072400008B52221FFF7B3FF03064CBF00F07F0013
:10725000002008BD10B511210446FFF7A8FF40F03B
:107260004000C2B211212046FFF796FF204650226F
:10727000BDE810401221FFF78FBF10B52A21044648
:10728000FFF795FF2A2100F0FE022046BDE81040DE
:10729000FFF782BF10B52A210446FFF788FF40F0B0
:1072A0000100C2B22A212046BDE81040FFF774BF9A
:1072B00010B50446FFF7E1FF204655222121FFF7D4
:1072C0006BFF204610222321FFF766FF2046102285
:1072D0002421FFF761FF204610222521FFF75CFFE4
:1072E0002046FF222621FFF757FF20466422272150
:1072F000FFF752FF2046FF222821FFF74DFF2046CF
:1073000002222C21FFF748FF204619222D21FFF7EA
:1073100043FF204601222E21FFF73EFF2046BDE815
:107320001040FFF7B7BF38B541751546044604F065
:107330008DF801F011FD0D212046FFF738FF2A28B6
:1073400012D12046FFF799FF617D2046FFF753FFDA
:1073500029462046FFF760FF2046FFF77BFF2046C7
:10736000FFF798FF012038BD0020FCE7012A034603
:1073700002D1016000207047022A04BFD1E9000158
:10738000C3E90001F6E710B50123037483680446DE
:1073900043B1C0689847012363740020BDE81040E2
:1073A00000F05ABB00680028F5D083680BB904F0E0
:1073B000A8F8C368EEE710B442680346541001EB26
:1073C0006200D20748BF0A591B685DF8044B48BFEA
:1073D000D35818470123F7B580F8293006460830FE
:1073E00000F0FAFA0420FCF756FE054698B31B4954
:1073F000142004F082F830B10023C0E90033C0E962
:107400000233037443742860A0B1154B1549C0E9D9
:1074100002364FF40063CDE900030222124B043020
:1074200000F0A2FA30B92B681B7CA3B9012000F050
:107430003BFBF8E72C6800232B6064B1276837B169
:107440003846FCF775FF1021384604F054F8142133
:10745000204604F050F8756003B0F0BD18CE0D0062
:1074600073760D002CCA0D0087730D0047F2305162
:10747000084AC160084902600022C0E904120749B5
:10748000C16107494260C0E908228161028580F834
:107490002A207047F0CA0D00DD770D00B7730D008C
:1074A0006D730D0010B5044B044640F8103BFCF71B
:1074B0003FFF204610BD00BFF0CA0D0010B5034BC2
:1074C00003600446FFF7EEFF204610BD18CB0D0009
:1074D00010B50446FFF7F2FF2046382104F00BF800
:1074E000204610BD806800F07FBA806800F084BA42
:1074F00010B504460068FFF7F8FF204610BD13B52D
:1075000004460190FFF7EEFFE36ADC88A4B20CB1F9
:1075100003F1080401A8FFF7EBFF204602B010BDFD
:1075200013B504460190FFF7DDFF94F8283043B906
:10753000E26A0124D38001A8FFF7DAFF204602B0F7
:1075400010BD0024F7E713B504460190FFF7CAFF0A
:10755000E36A01A8DC88FFF7CBFF204602B010BD2C
:107560002DE9F047994686B090F829309DF838A06B
:107570009DF83C8004460F46164613B903689B6885
:107580009847314B3846002E08BF1E4604F03BFD9D
:107590000546304604F037FD284400F10A05AB07E4
:1075A0001CBF25F0030504353346CDE90285CDE93E
:1075B000009A264926483A46FCF763FF238E083B8B
:1075C000AB4212D20024204606B0BDE8F087CB883B
:1075D000012B36D005A8FFF78BFF236894F82810FD
:1075E0009B69204698470028ECD020460594FFF779
:1075F00079FFE16A228E636B0A44D21AAA42E6D36B
:1076000048EA0A0883F80480C3F80090636B03F12A
:1076100008083946404604F0D0FC404604F0F3FC2C
:1076200001303146404404F0C8FC636BE26A1D44FB
:107630006563D3880133D380012405A8FFF758FF81
:10764000C1E70024F9E700BFC2C40D003ECA0D0027
:1076500004E5032008B5044600F11005A3690BB941
:1076600003F04FFFE36921462846984700F084F96C
:10767000F4E708B5FFF7EEFF68B501F10805064627
:10768000284604F0C0FC01300544284604F0BBFC49
:10769000F36A01302844C31A13F003031CBFC3F17B
:1076A0000403C01868BDF7B504460E460190FFF705
:1076B00019FFE76AFB8807F10805E6B1012B22D91B
:1076C00029462046FFF7D8FF054629462046FFF702
:1076D000D3FF228E3A44121A0146A0EB050602D0CF
:1076E000284604F003FC636B9B1B6363FB88013B30
:1076F000FB80012601E0002BE7D101A8FFF7F8FE8F
:10770000304603B0F0BD0026F7E700002DE9F04752
:107710000D4604462F461646FFF7A8FE154B57F8B0
:10772000082B2360144BE5629A422686984617D1AF
:10773000AB889BB2B34213D105EB060A67634FF0E7
:107740000009EB881FFA89F29BB29A420ED2616B54
:107750002046FFF791FF5045606309F10109F0D918
:107760000023C5F800806763AE80EB802046BDE84B
:10777000F08700BF18CB0D0061AB9CD110B5D1E9EB
:10778000002386B00021044604910AB9D90705D523
:10779000CDE902230F4B05930F4B049302AB93E803
:1077A00003006A4682E8030094E8030083E80300CC
:1077B00092E80300049A84E80300A168A260059A95
:1077C00004911846E168E2600591FCF7B1FD20469E
:1077D00006B010BDB7730D006D730D0007B5054BF6
:1077E00000936946002310300193FFF7C7FF03B0F1
:1077F0005DF804FB25780D0013B5044600F064F92C
:10780000636AC01AE368984208D3054B009369463F
:10781000002304F110000193FFF7B0FF02B010BD88
:1078200025780D002DE9F04190F82A3086B0044605
:10783000002B64D100F0ACFB002860D000F044F9CC
:10784000636AC01A40F2F133984258D9236820463F
:107850005B6998470546002851D000F108070123CD
:1078600084F82830384604F0CEFB95F80480CDF833
:10787000048001302B682B4900933E1833462A4878
:107880003A46FCF7FEFD2B688DF8008032463946FB
:1078900002A800F0A5FF029D6B781BB9012000F043
:1078A0008FFCF8E7002000F001FB20B16B7813B9E2
:1078B00000F05EFBFAE72B78012B23D11B491A4815
:1078C000FCF7DFFD236800219B69204698470023D1
:1078D00084F8283000F0F8F86062039C7CB163689B
:1078E000013B63605BB9236820469B689847A368A7
:1078F000013BA3601BB923682046DB68984706B0AC
:10790000BDE8F081E2680A490748FCF7BAFD094B77
:10791000049304A9002304F110000593FFF72EFF40
:10792000D5E700BF7FCA0D0004E50320A0CA0D0003
:10793000B7CA0D00F9770D00014B024A1A60704773
:1079400004E50320DECA0D0008B5024B1B685B6C22
:10795000019308BD7402030008B5024B1B689B6CC1
:10796000019308BD7402030008B5024B1B685B68F5
:10797000019308BD4802030008B5024B1B68DB6891
:10798000019308BD4802030008B5024B1B68DB6980
:10799000019308BD4802030008B5024B1B681B6A2F
:1079A000019308BD4802030008B5024B1B685B6ADF
:1079B000019308BD4802030008B5024B1B689B6A8F
:1079C000019308BD4802030008B5024B1B68DB6A3F
:1079D000019308BD4802030008B5024B1B681B6BEE
:1079E000019308BD4802030008B5024B1B689B6B5E
:1079F000019308BD4802030008B5024B1B681B6CCD
:107A0000019308BD4802030008B5024B1B685B6C7C
:107A1000019308BD4802030008B5024B1B689B6C2C
:107A2000019308BD4802030008B5024B1B68DB6CDC
:107A3000019308BD4802030008B5024B1B685B6D4B
:107A4000019308BD4802030008B5024B1B689B6DFB
:107A5000019308BD4802030008B5024B1B68DB6EAA
:107A6000019308BD4802030008B5024B1B681B6F59
:107A7000019308BD4802030008B5024B1B685B6E0A
:107A8000019308BD3402030008B5024B1B68DB6E8E
:107A9000019308BD3402030008B5024B1B685B6804
:107AA000019308BD1802030008B5024B1B689B68D0
:107AB000019308BD1802030008B5024B1B68DB6880
:107AC000019308BD1802030008B5024B1B685B69EF
:107AD000019308BD1802030008B5024B1B689B6D9B
:107AE000019308BD1802030008B5024B1B68DB6D4B
:107AF000019308BD1802030008B5024B1B685B6EBA
:107B0000019308BD1802030008B5024B1B689B6E69
:107B1000019308BD1802030008B5024B1B681B68DF
:107B2000019308BD2C02030008B5024B1B685B687B
:107B3000019308BD2C02030008B5024B1B689B682B
:107B4000019308BD2C02030008B5024B1B68DB68DB
:107B5000019308BD2C02030008B5024B1B681B698A
:107B6000019308BD2C02030008B5024B1B685B693A
:107B7000019308BD2C02030008B5024B1B689B69EA
:107B8000019308BD2C02030008B5024B1B68DB699A
:107B9000019308BD2C02030008B5024B1B681B6B48
:107BA000019308BD2C02030008B5024B1B68DB687B
:107BB000019308BD2802030008B5024B1B689B69AE
:107BC000019308BD2802030008B5024B1B68DB695E
:107BD000019308BD2802030008B5024B1B681B6A0D
:107BE000019308BD2802030008B5024B1B685B6ABD
:107BF000019308BD2802030008B5024B1B689B6A6D
:107C0000019308BD2802030008B5024B1B68DB6A1C
:107C1000019308BD2802030008B5024B1B681B6BCB
:107C2000019308BD2802030008B5024B1B685B6B7B
:107C3000019308BD2802030008B5024B1B681B6CAA
:107C4000019308BD2802030008B5024B1B689B6C1A
:107C5000019308BD2802030008B5024B1B68DB6CCA
:107C6000019308BD2802030008B5024B1B681B6D79
:107C7000019308BD2802030008B5024B1B685B692D
:107C8000019308BD6402030008B5024B1B689B68A2
:107C9000019308BD6802030008B5024B1B68DB684E
:107CA000019308BD6802030008B5024B1B68DB693D
:107CB000019308BD3002030008B5024B1B681B6A24
:107CC000019308BD3002030008B5024B1B681B6816
:107CD000019308BD3C02030008B5024B1B689B687A
:107CE000019308BD3C02030008B5024B1B68DB682A
:107CF000019308BD3C02030008B5024B1B681B69D9
:107D0000019308BD3C02030008B5024B1B685B6988
:107D1000019308BD3C02030008B5024B1B689B6938
:107D2000019308BD3C02030008B5024B1B68DB69E8
:107D3000019308BD3C02030008B5024B1B681B6A97
:107D4000019308BD3C02030008B5024B1B689B6A07
:107D5000019308BD3C02030008B5024B1B68DB6AB7
:107D6000019308BD3C02030008B5024B1B681B6869
:107D7000019308BD4C02030008B5024B1B685B6809
:107D8000019308BD4C02030008B5024B1B689B68B9
:107D9000019308BD4C02030008B5024B1B681B6928
:107DA000019308BD4C02030008B5024B1B685B69D8
:107DB000019308BD4C02030008B5024B1B689B6988
:107DC000019308BD4C02030008B5024B1B68DB6938
:107DD000019308BD4C02030008B5024B1B681B6AE7
:107DE000019308BD4C02030008B5024B1B685B6B96
:107DF000019308BD6002030008B5024B1B681B6DB0
:107E0000019308BD6002030008B5024B1B685B6D5F
:107E1000019308BD6002030008B5024B1B68DB6ECE
:107E2000019308BD6002030008B5024B1B681B6F7D
:107E3000019308BD6002030008B5034B1B68D3F82B
:107E40009830019308BD00006002030008B5024BA2
:107E50001B681B68019308BD2002030008B5024B94
:107E60001B685B68019308BD2002030008B5024B44
:107E70001B685B69019308BD2002030008B5024B33
:107E80001B689B69019308BD2002030008B5024BE3
:107E90001B681B6A019308BD2002030008B5024B52
:107EA0001B68DB6A019308BD2002030008B5024B82
:107EB0001B68DB6C019308BD2002030008B5024B70
:107EC0001B685B6D019308BD2002030008B5024BDF
:107ED0001B689B6D019308BD2002030008B5024B8F
:107EE0001B68DB6D019308BD2002030008B5034B3E
:107EF0001B68D3F88830019308BD000020020300FE
:107F000008B5034B1B68D3F89430019308BD0000FB
:107F10002002030008B5034B1B68D3F8A830019377
:107F200008BD00002002030008B5034B1B68D3F80E
:107F3000AC30019308BD00002002030008B5034BDC
:107F40001B68D3F8B030019308BD00002002030085
:107F500008B5024B1B681B68019308BD440203006F
:107F600008B5024B1B685B68019308BD440203001F
:107F700008B5024B1B689B68019308BD44020300CF
:107F800008B5024B1B68DB68019308BD440203007F
:107F900008B5024B1B685B69019308BD44020300EE
:107FA00008B5024B1B68DB69019308BD440203005E
:107FB00008B5024B1B681B6A019308BD440203000D
:107FC00008B5024B1B685B6A019308BD44020300BD
:107FD00008B5024B1B68DB6A019308BD440203002D
:107FE00008B5024B1B681B6B019308BD44020300DC
:107FF00008B5024B1B685B6B019308BD440203008C
:1080000008B5024B1B689B6B019308BD440203003B
:1080100008B5024B1B68DB6B019308BD44020300EB
:1080200008B5024B1B685B6C019308BD440203005A
:1080300008B5024B1B685B68019308BD4002030052
:1080400008B5024B1B689B68019308BD4002030002
:1080500008B5024B1B68DB68019308BD40020300B2
:1080600008B5024B1B681B69019308BD4002030061
:1080700008B5024B1B685B69019308BD4002030011
:1080800008B5024B1B689B69019308BD40020300C1
:1080900008B5024B1B68DB69019308BD4002030071
:1080A00008B5024B1B681B6A019308BD4002030020
:1080B00008B5024B1B681B6B019308BD400203000F
:1080C00008B5024B1B685B6B019308BD40020300BF
:1080D00008B5024B1B681B6C019308BD40020300EE
:1080E00008B5024B1B685B6C019308BD400203009E
:1080F00008B5024B1B681B68019308BD1C020300F6
:1081000008B5024B1B685B68019308BD1C020300A5
:1081100008B5024B1B689B68019308BD1C02030055
:1081200008B5024B1B681B69019308BD1C020300C4
:1081300008B5024B1B68DB69019308BD1C020300F4
:1081400008B5024B1B685B6A019308BD1C02030063
:1081500008B5024B1B68DB6A019308BD1C020300D3
:1081600008B5024B1B681B6B019308BD1C02030082
:1081700008B5024B1B685B6C019308BD1C02030031
:1081800008B5024B1B689B6C019308BD1C020300E1
:1081900008B5024B1B68DB6C019308BD1C02030091
:1081A00008B5024B1B681B6D019308BD1C02030040
:1081B00008B5024B1B685B6D019308BD1C020300F0
:1081C0000021FFF753BE10B5836804460BB903F0D6
:1081D00098F9C3689847A3681BB10322214620463B
:1081E000984720461021BDE8104003F084B910B52F
:1081F000036804469B689847A368013BA3602BB9BA
:1082000023682046DB68BDE81040184710BD10B554
:108210000446006808B1FFF7FFFB204610BD0B685D
:10822000036013B15A6801325A60704710B50446B2
:10823000006828B14368013B43600BB9FFF7D7FFE3
:10824000204610BD10B5064C002320462360FFF7E2
:10825000DBFB2046034A0449BDE8104003F046B961
:1082600008E5032008E303200F820D000022406888
:108270001146FFF7F5BE002240681146FFF710BF18
:10828000002240681146FFF71BBF40680022FFF73D
:108290000FBF4068002281F00101FFF7F9BE002303
:1082A00040681A461946FFF7EBBE002340681A469D
:1082B0001946FFF7DDBE002240681146FFF7C0BE39
:1082C000406800220221FFF7C3BE002340681A461F
:1082D000FFF7AEBEF0B51B4B036000250F462833F9
:1082E0001826C0E9025589B0436032462946044643
:1082F000103003F015FE78682A462946FFF7B0FED5
:1083000018B9A060204609B0F0BD2946324602A83F
:10831000CDE9005503F004FE02A96846ADF80860F7
:10832000FFF712FB10B10123A360EBE7009B019A5A
:10833000A360E2600BB90223A36002A9204600F00B
:10834000AEF8DFE77CCB0D00084B10B528242246A1
:108350001846002103F0E4FD054B04804FF0FF3286
:10836000426004225A60034A1A6010BD14E50320DB
:108370000CE5032040CB0D007047007D704710B521
:108380002821044603F0B7F8204610BD037D7BB1D9
:10839000C369002B0CDB07EE903A9FED077AF8EEED
:1083A000E77A87EE870ADFED057A20EE270A704725
:1083B000BFEE000A704700BF00FF7F470000C842C1
:1083C000037D63B18369B3F1004F08D007EE903AA3
:1083D0009FED047AF8EEE77A87EE870A70479FED03
:1083E000020A70470000C84200000000037D7BB114
:1083F000436A002B0CDB07EE903A9FED077AF8EE0C
:10840000E77A87EE870ADFED057A20EE270A7047C4
:10841000BFEE000A704700BF00FF7F470000C84260
:10842000037D63B1036AB3F1004F08D007EE903AC1
:108430009FED047AF8EEE77A87EE870A70479FEDA2
:10844000020A70470000C8420000000070B50C1E10
:1084500006460ADA2D2102F0C8F8614205460A22D2
:10846000304602F0D1F8284470BD21460025F6E7D9
:1084700070B50C46054681682046FFF7E7FF2C21C2
:108480000646204602F0B1F8E96806442046FFF7A8
:10849000DDFF304470BDA0F10400FFF7E9BF30B547
:1084A0000D4600F110040FCD0FC495E8030084E8D9
:1084B0000300012030BD70470020704710B5102127
:1084C000044603F018F8204610BD08B5FFF7F6FF84
:1084D00008BD30B500224FF69C74026084808D8800
:1084E0008C800C68858004600A6030BD10B504463D
:1084F0000068FFF705FE204610BD38B5C468F4B12A
:108500002378022B03D104F10C00FFF7EFFF65681D
:1085100035B12846FBF70CFF1021284602F0EBFF8F
:10852000A56835B12846FBF703FF1021284602F065
:10853000E2FF20461421BDE8384002F0DCBF38BD20
:1085400010B588B00446684602F017F9694604A8D9
:1085500002F05EF904A8A047044604A802F0C2F89D
:10856000684602F0BFF8204608B010BD1FB50023D2
:10857000CDE90201019210241A4669461846ADF869
:108580000230ADF80040FFF7EBFC04B010BD1FB5A2
:108590000C23ADF8043003688DF80630037A8DF8AB
:1085A0000730436802930021437AADF80D1001A80B
:1085B0008DF80F108DF80C30FFF732FD05B05DF827
:1085C00004FB1FB50C22ADF8042002688DF80620CC
:1085D000027A8DF80720426802920023427A8DF8D1
:1085E0000C20194601AA0220ADF80D308DF80F308D
:1085F000FFF706FD05B05DF804FB73B50E460446B3
:1086000056F8043B00930D4601A83146FFF707FEDC
:10861000019A009B6260236001A8002301930093EC
:10862000FFF704FE3046FFF701FE2846082102F05E
:1086300062FF204602B070BD13B50B460246D0E97A
:1086400000016C4684E8030093E8030082E803001D
:1086500094E8030083E8030002B010BD826810B5FF
:108660000AB902F04EFFBDE81040C368184708B5CC
:10867000006800F11001FFF7F1FF08BD826810B536
:108680000AB902F03EFFBDE81040C368184708B5BC
:10869000006800F11001FFF7F1FF08BD38B50023B5
:1086A0000446036010200D46FBF7F5FC28B10123BA
:1086B000C0E90133024B0360C5602060204638BD2D
:1086C000B0CB0D0038B5002383608B6804460D469F
:1086D0002BB102229847EB68E360AB68A3602046A9
:1086E00038BD0000F0B589B004686846FFF7F1FEB8
:1086F0004FF00203D4E84F2F002A03D1C4E8413FD2
:108700000029F7D125D104F10C0569462846FFF769
:10871000E0FEBFF35B8F01236370002004F10803C8
:10872000BFF35B8F53E8006F43E80002002AF9D1E2
:10873000BFF35B8F6EB1FFF7B9FB78B129463046C6
:10874000FFF78CFF3046FBF7F3FD1021304602F0B7
:10875000D2FE6846FFF7CAFE09B0F0BD314602A856
:10876000FFF7B0FFE068B4F9105008B103F02EFC39
:1087700006901020ADF81C50FBF78DFC0546E8B1C3
:10878000002787601820FBF786FC044688B1014665
:10879000876002A8FFF750FF049BA268A360059BB7
:1087A000049206A9E268E36004F110000592FFF765
:1087B00090FE084BEB60084B2C60AB6006A8FFF7FF
:1087C00095FE02A8FBF7B4FD002229460348FFF7F7
:1087D00075FBB7E76F860D0005890D00C7810D0099
:1087E0002DE9F0478AB005469DF848900C4617469B
:1087F0009846FFF7CDFB07AE824638BB4FF62E7387
:10880000059005A93046ADF81830FFF762FE142038
:10881000FBF741FC044648B1022303700123C0E981
:1088200001AA437031460C30FFF753FE284621461B
:1088300040F8044BFFF732FF3046FFF757FE05A81C
:10884000FFF754FE28460AB0BDE8F0870C234FF02E
:10885000000A1420CDE908AA0793FBF71CFC014687
:1088600028B1C0E901AA80F800A080F801A004A8FE
:108870000391FFF713FF224B08930820FBF70BFC33
:10888000824628B1039B40F8043B04A9FFF7C7FCCC
:1088900000965FFA89F3424639462046CDF824A077
:1088A000FFF786FBB8B9039B5B7803F0FF0293B92F
:1088B0004FF69C7305A903A80592ADF81830FFF791
:1088C00011FF05A8FFF712FE05A80999FFF795FE0D
:1088D00006A8FFF7ABFC039B059304A906A8FFF7C6
:1088E0009EFC059B069A2B606A60002306A80693EF
:1088F0000593FFF79BFC04A8FFF798FCA2E700BFD5
:10890000C9890D00022AF8B5054607D0032A18D0F8
:10891000012A01D10B6803600020F8BD18200E6801
:10892000FBF7B9FB044650B13146FFF7CBFE306987
:10893000B6F9147008B103F049FB2061A7822C60DE
:10894000EAE70468002CE7D004F11000FFF7CEFD41
:108950002046FBF7EDFC1821204602F0CCFDDBE7BA
:1089600038B5002383608B6804460D462BB1022284
:108970009847EB68E360AB68A360204638BD022AE5
:1089800070B5044607D0032A12D0012A01D10B6822
:108990000360002070BD14200E68FBF77CFB0546C9
:1089A00020B13146FFF7DCFF337C2B742560F0E704
:1089B0000468002CEDD02046FBF7BAFC14212046B9
:1089C00002F099FDE5E70000F0B589B004460D46D8
:1089D00001A81146FFF711FEA4B124B21DB128462B
:1089E00003F0F4FA054601A803A90395ADF8104079
:1089F000FFF778FE03A8FFF779FD02A8FFF716FC42
:108A000009B0F0BD019D0123D5E84F2F002A03D105
:108A1000C5E8413F0029F7D1EFD12B73BFF35B8F3E
:108A20006B702B1DBFF35B8F53E8006F43E8004270
:108A3000002AF9D1BFF35B8F002EDED02046FFF76E
:108A400035FA074660B105F10C013046FFF716FE16
:108A50003046FBF76DFC1021304602F04CFDCCE7B0
:108A6000314603A8FFF77CFF2B7B8DF81C301020CC
:108A7000FBF711FB0546D0B187601420FBF70BFB19
:108A8000044678B18760014603A8FFF7D5FD059B32
:108A9000A268A360069B0592E268E3609DF81C3023
:108AA00006922374064BEB60064B2C60AB6003A868
:108AB000FBF73EFC002229460348FFF7FFF9C7E712
:108AC0008F860D007F890D00C7810D000022406850
:108AD0001146FFF7E5BA002240681146FFF7F0BAE9
:108AE00040680022FFF7E4BA4068002281F00101EB
:108AF000FFF7CEBA002340681A461946FFF7C0BAFE
:108B0000002340681A461946FFF7B2BA00224068AF
:108B10001146FFF7A5BA002240681146FFF790BA48
:108B2000406800220221FFF793BA002340681A46EA
:108B3000FFF77EBA024B03225A60024A1A6070475E
:108B40003CE50320CCCB0D00006800F05DB910B50A
:108B50000446016002710AB1FFF7F6FF204610BD1E
:108B600013B50446019102F099FC019A0146204692
:108B7000FFF7EDFF204602B010BD006800F04DB9D0
:108B800010B5037904460BB1FFF7F7FF204610BD7F
:108B90002DE9FF4104460D4617461E46FFF7D4FF58
:108BA00036238DF800300023206801934FF0010830
:108BB0000A23694603938DF8088000F006F92068BF
:108BC000036829469B6898472068414600F015F9DC
:108BD000054640B16FF09F052046FFF7CEFF2846BF
:108BE00004B0BDE8F081022320680193694600F0DB
:108BF000B9F80228EED1206803685B69984738709D
:108C0000206803685B6998473070E5E713460A46B9
:108C10000C21FFF7BDBF2DE9FF41164604461D4656
:108C20000F46FFF791FF36238DF8003000232068B0
:108C300001934FF001080A23694603938DF80880D9
:108C400000F0C3F82068036839469B68984720689D
:108C5000036831469B6898472068036829469B68EB
:108C600098474146206800F0C8F8002820460CBF0D
:108C700000256FF09F05FFF780FF284604B0BDE890
:108C8000F08108B5402200230621FFF7C4FF00EA67
:108C9000E07008BD37B50546FFF756FF00230DF11C
:108CA00007020DF1060128468DF806308DF80730D1
:108CB000FFF7ACFF041E0BDB9DF807309DF8062084
:108CC00003F07F030C212846FFF7A5FF00EAE074BC
:108CD0002846FFF752FF204603B030BD7047F8B575
:108CE000064615460C468F18BC4206D0336814F869
:108CF000011B9B6830469847F6E72846F8BD007C84
:108D00000022FEF769BF007C0021FEF76DBF007CEA
:108D10000021FEF771BF007C0021FEF775BF007CCB
:108D20000021FEF779BF10B51421044602F0E3FBE1
:108D3000204610BD10B54FF47A7304460846002152
:108D4000C4E90113034B236020741146FEF774FF3E
:108D5000204610BD08CC0D000023007C1A461946A1
:108D6000FEF722BF7FB500221423CDE90122ADF822
:108D700004300B788DF808304B680393CB6804936C
:108D8000007C0B7A059301A9FEF76EFF07B05DF832
:108D900004FB1FB5003B8DF800104FF064010391F8
:108DA00018BF0123694601928DF80830FFF7DAFFFA
:108DB00005B05DF804FB0123FFF7EBBF007C002248
:108DC000FEF7FABEC9B2FFF7F9BF7FB50023CDE9C0
:108DD00001334A6803921423CA68ADF804300B7853
:108DE00004920A7A0592007C8DF8083001AA19468F
:108DF000FEF7E2FE07B05DF804FB007C0022FEF700
:108E0000E3BE0121FFF7F9BF08B50021007CFEF7A2
:108E10001BFFB0FA80F0400908BD08B50021007CB6
:108E2000FEF71AFFB0FA80F0400908BD00470000C5
:108E30002DE9FF4100241D460F4690460646FEF7E9
:108E4000A3FEA5424FF00403ADF80D408DF80C30A1
:108E50008DF80F40A2BF9DF828308DF80E3003AC7E
:108E60000749009443463A463046A8BF8DF80D5056
:108E7000FEF782FEB0FA80F0400904B0BDE8F08150
:108E80002D8E0D00F8B50446FEF77EFE054670B93E
:108E9000084F57F8246046B13046FBF749FA1021D5
:108EA000304602F028FB47F82450012000E0002063
:108EB000F8BD00BF44E50320704710B518210446F3
:108EC00002F019FB204610BDF0B5037D062B8DB0D6
:108ED0000E4600F104074FF0000412D000F108051F
:108EE00015F8011D0A22304601F08EFBAF42044402
:108EF00019D0002CF4D02E21304601F076FB04442A
:108F0000EEE72F236A4639460A208DF80040FEF727
:108F1000B3FE684603F077F833680246DB686946BB
:108F200030469847044620460DB0F0BD10B5054BBD
:108F30000446112240F8043B002102F0F1FF2046D4
:108F400010BD00BF30CC0D000346074A10B543F8F2
:108F5000042B01F1100251F8044B43F8044B9142E9
:108F6000F9D10A781A7010BD30CC0D0010B59DF8FB
:108F7000084044EA032343EA024242EA016104232F
:108F80004160037510BD13B5CB7800938B784A7898
:108F90000978FFF7EBFF02B010BD00F110030122CA
:108FA00013F8101C0129184608D153F8041C02EBD1
:108FB0004102013A03F11003F2D17047022904BFC4
:108FC00053F8041C5218F4E70EB4F0B588B000AFA3
:108FD00007F13405102155F8042B7A6004462B461E
:108FE0007818FD60FFF7ACF80F287A681AD900F1FD
:108FF000080323F007036E46ADEB030D411C2B461F
:109000006846FD60FFF79CF8021E04DD2368694690
:109010009B6820469847B5462037BD46BDE8F040DE
:1090200003B070470028F7D0236802469B6807F119
:10903000100120469847EFE710B5036804469B6887
:109040009847A368013BA3602BB923682046DB68DF
:10905000BDE81040184710BD07B503688DF807102C
:109060009B6801220DF10701984703B05DF804FBEE
:1090700038B50B6803604D6843689D4204460CD0C8
:1090800015B16B6801336B60606828B14368013BC0
:1090900043600BB9FFF7D0FF6560204638BD0B4633
:1090A0001146002210B5C0E90022044683600BB9C6
:1090B000204610BDFFF7DCFFFAE78368EBB11A78B2
:1090C000032A1AD8DFE802F00417021B05207047B4
:1090D00002685B685268D05C2D2812D0A0F1300382
:1090E000092B0ED974280ED066280CD0A0F16E037F
:1090F00058425841704706207047002070470420AE
:109100007047032070470220704710B50446FFF7F0
:10911000D4FF02280ED0C31EDBB2012B14D8226864
:10912000A36850685B68BDE810400A22002118441B
:1091300003F024B82268A36852685B68D05CA0F191
:1091400074035842584110BD0020FCE738B5002395
:10915000C0E9003304460E48C4E90203A9B10B7804
:10916000032B06D08BB9136858684B68C35C6E2B11
:1091700007D013684D6858688B6828445B1BA06053
:10918000E36011462046FFF773FF204638BD00BF5D
:10919000C2C40D0038B500250B46C0E90055C0E932
:1091A0000255C0E90455044611464BB11A78012A0C
:1091B00006D103F11002DB6882604361FFF758FFBC
:1091C000204638BD10B54369044663B18068E0604D
:1091D000013B1030A0602061636113B1FFF7DDFE39
:1091E000A060012000E0184610BD10B57D210446A6
:1091F000FFF732FF01232371204610BD08B5037924
:10920000012B02D0022B04D008BD2C21FFF724FF34
:10921000FAE73A21FAE710B50446FFF7EFFF2046D8
:109220007B21FFF719FF00232371204610BD0000AA
:1092300013B504460191FFF7E1FF2368019ADB684B
:1092400003492046984701232046237102B010BDF0
:109250001CC80D0013B504460191FFF7CFFF23682A
:10926000019ADB6803492046984701232046237171
:1092700002B010BD0BCA0D002DE9F0410D46174696
:109280002221DFF8A08004462F44FFF7E5FE29469F
:10929000BD422A4638D015F8016B222E03D05C2E31
:1092A00001D01F2EF4D82368521A9B682046984795
:1092B0005C212046FFF7D0FE0D2E0AD8072E1CD9C0
:1092C000A6F10803052B18D8DFE803F00D0F1117DE
:1092D0001315222E01D05C2E0FD131462046FFF708
:1092E000BBFE2946D4E76221F8E77421F6E76E2138
:1092F000F4E76621F2E77221F0E723683246DB6883
:10930000414620469847ECE78D4204D023686A1A0C
:109310009B682046984722212046FFF79DFEBDE826
:10932000F08100BF3CCC0D0013B50446CDE900210F
:10933000FFF764FF2046DDE90021FFF79DFF0223D0
:109340002046237102B010BD13B50446CDE90021BB
:10935000FFF754FF2046DDE90021FFF78DFF0123D1
:109360002046237102B010BD80680368DB6818478F
:109370007047084611B10B685B6818477047704723
:109380007047704738B504460D4600682E2102F03C
:1093900000FE2368C31A2B6023B1037803B10130A8
:1093A00023682060184638BD10B50C21044602F031
:1093B000A2F8204610BD10B50421044602F09BF827
:1093C000204610BD10B50421044602F094F8204652
:1093D00010BD08B502F0E7FDB0FA80F0400908BD05
:1093E00010B50C4601F09CFE844210D001F00CFE3A
:1093F000844205D101F008FEBDE8104001F001BE35
:109400002CB1236820465B68BDE81040184710BDAA
:1094100013B504460846019102F0F5FD0199024694
:10942000204602B0BDE81040FFF78EBF13B50446DA
:109430000846019102F0E7FD23680199DB680246C6
:10944000204602B0BDE81040184707B503688DF804
:109450000710DB6801220DF10701984703B05DF8A2
:1094600004FB0EB403B503AB002153F8042B006AD0
:10947000019301F0E7F802B05DF804EB03B0704728
:109480002DE9F74FD0E900954FF0140808FB05F5DA
:109490000093AB10184D17465D434C46002D23DD5D
:1094A0006E1008FB06F004EB000A3A46BAF804B066
:1094B000205801915F4528BF5A4602F0ACFD019942
:1094C000012378B95F4503D1009A13703546E5E76B
:1094D0008CBF012000200028F8D0AE1B0AF1140434
:1094E000013EF3E7C00FF6E7A4EB09040248A4101D
:1094F000604303B0BDE8F08FCDCCCCCC7FB5036921
:10950000067E01910BB301B3002500F10C04039515
:1095100003A901A8FFF736FF0146B0B10DF10B0317
:10952000039A8DF80B502046FFF7AAFF9DF80B30E9
:109530005BB12468142303FB004000F10804B0F978
:109540000630002BA8BFDEB2E2E7304604B070BDA3
:1095500010B50A4C2378BFF35B8FDB070BD4204692
:10956000FAF7AAFD38B12046FAF7ABFD044A0549DF
:10957000054801F0BBFF044810BD00BFD8E503203B
:1095800008E3032081930D008CE2032010B50A4C00
:109590002378BFF35B8FDB070BD42046FAF78CFDF3
:1095A00038B12046FAF78DFD044A0549054801F017
:1095B0009DFF044810BD00BFDCE5032008E3032045
:1095C0007F930D0090E2032038B500250446C0E9E2
:1095D0000055C0E904558560856140F8245FFEF7B9
:1095E00013FAFFF7B5FFE061FFF7D0FF25732062A4
:1095F000204638BD10B50B4C2378BFF35B8FDB07DB
:109600000ED42046FAF758FD50B10748FFF7DCFFAB
:109610002046FAF756FD054A0549034801F066FF62
:10962000014810BDD4E50320E4E5032008E303204E
:10963000899A0D00024A034903480023FEF7F4BB50
:1096400065990D00F1980D0071980D0000231A46E0
:1096500019461846FEF7E8BB37B50D6951F8043BCB
:109660000093044601A8FEF7DAFD6A462946204623
:10967000FFF715FD01A8FEF7D9FD204603B030BD68
:1096800037B58D6851F8043B0093044601A8FEF7F6
:10969000C6FD6A4629462046FFF77CFD01A8FEF775
:1096A000C5FD204603B030BD37B5CD6851F8043B49
:1096B0000093044601A8FEF7B2FD6A4629462046FB
:1096C000FFF744FD01A8FEF7B1FD204603B030BD11
:1096D00070B58AB00D46014604A8FFF7D1FF144EBD
:1096E00004A8FFF76FFDE8B104A96846FFF7DCFFA7
:1096F00002983146FFF76DFE044610B12C1E18BFCC
:10970000012401A8FEF792FD002CE9D004A96846C7
:10971000FFF7A2FF6846FFF7F8FC286001A8FEF7F4
:1097200085FDDDE705A8FEF781FD0AB070BD00BF2D
:1097300042CC0D0037B50C4620461249154602F0C2
:1097400032FC48B901F0ECFC4FF4165101F0D8FCA2
:1097500001F0E6FC03B030BD0B49204602F023FCCB
:1097600070B94FF4165301A928460193FFF7B0FFD3
:1097700001F04AFC019901F041FC01F045FCE9E7E8
:109780000020E7E747CC0D004ECC0D0070B5D0E9C6
:1097900000531426044606FB0356AE4205D005F1DD
:1097A0000800FFF7F3FF1435F7E72068FEF7A8FC81
:1097B000204670BD70B5D0E90053044605EB031692
:1097C000AE4204D0284600F08DFF1035F8E720683F
:1097D000FEF796FC204670BD10B504460C30FFF72E
:1097E000D5FF2046FFF7E6FF204610BD10B5044B1D
:1097F000044640F8043BFFF7EFFF204610BD00BFD2
:10980000C8C60D0010B50446FFF7F0FF204624211E
:1098100001F071FE204610BD10B5034B03600446F5
:10982000FFF7E4FF204610BDE4CC0D0010B5044660
:10983000FFF7F2FF2046242101F05DFE204610BD17
:109840000022C0E9002210B582600C6804604C68F8
:1098500044608C680A604A6084608A6010BD10B5FC
:10986000036804461868FEF7E7F8204610BD0000BC
:109870002DE9F04F87B0804603931C4B5B68C3F320
:109880000803894616466BB9FFF7B4FE044600F19B
:109890002403406A0593FEF7C7F8237B2BB105A884
:1098A000FFF7DDFF07B0BDE8F08F01232373D4E994
:1098B00000535FFA89F905EB830AAA4512D055F8DF
:1098C000047B3146381DFFF719FE8145F5D33B680F
:1098D000039A0092D3F808B04A46334641463846C8
:1098E000D847EAE700232373D9E700BF00ED00E083
:1098F0002DE9F74F9B461A4B5B68C3F3080380467C
:10990000894616466BB9FFF775FE044600F124033D
:10991000406A0193FEF788F8237B2BB101A8FFF77B
:109920009EFF03B0BDE8F08F01232373D4E90053F9
:10993000F6B205EB830A55450ED055F8047B59461F
:10994000381DFFF7DBFD8642F5D33B684A46DB68EE
:10995000414638469847EEE700232373DEE700BF11
:1099600000ED00E02DE9F341164B5B68C3F30803FB
:1099700005460F461BBBFFF73DFE00F124030446DE
:10998000406A0193FEF750F8D4E90063462406EBE1
:109990008308B04509D101A8FFF761FFA542B4BF14
:1099A0000020012002B0BDE8F08156F8040B3946D2
:1099B0000430FFF7A3FD8442A8BF0446E9E7002076
:1099C000F0E700BF00ED00E070B50446D0E900020A
:1099D0000B4600EB8202824207D001461D6851F817
:1099E000046BAE4203D00846F5E7002070BD521A62
:1099F00002F07CFA6368013B63600120F6E71FB563
:109A000000F124030446406A01910393FEF70CF829
:109A100001A92046FFF7D8FF18B163680BB9FFF71B
:109A200015FE03A8FFF71BFF04B010BD70B5D0E909
:109A300004561823044603FB0656AE4215D005F122
:109A400010012046FFF7C0FF63680BB9FFF7FEFD6A
:109A5000E06929690368DB689847696919B1206A78
:109A60000368DB6898471835E7E7D4E904531826FC
:109A700006FB0356AE4204D0284600F033FE1835EC
:109A8000F8E70023636170BD73B50446FFF7DEFDA0
:109A900004F12403606A0193FDF7C6FF2046FFF737
:109AA000C5FF01A8FFF7DBFE606A08B1FDF7B4FF50
:109AB000D4E90453182606FB0356AE4204D02846C8
:109AC00000F010FE1835F8E72069FEF719FB206852
:109AD000FEF716FB204602B070BD8842F8B5064678
