:02000002D0002C
:1040000000400D0084D90D00000006000D000501E0
:08401000040135080000000066
:04401800D4C10D0002
:1040200009480A49884208B505D0094A824202D0A7
:10403000121A07F06FFF0748074A0021121A07F00B
:1040400091FF014808BD00BFE8E1032034D80D000E
:104050000CE3032010E30320F8E7032070B5074EBC
:10406000074C07F009F9A41BA4080025A54200D1BC
:1040700070BD56F8043B98470135F7E7FCCF0D00BB
:104080002CD00D0001F078B808B501F00FFDBDE8A7
:10409000084007F0B3B804F099B804F097B804F0FA
:1040A0009DB8000008B5034A00210C2003F012FF60
:1040B000FEE700BFA57B0D000078B0FA80F0400954
:1040C00070470123037070477047006A0368DB681C
:1040D00018470000014B1A60704700BF20E2032020
:1040E00003681847012A03D0022A03D00020704732
:1040F0000160FBE70B680360F8E70021072007F089
:1041000054B9000010B5054B1A7B054B044653F813
:10411000221006F09AFB204610BD00BFBCE403202D
:10412000E8E1032038B50446006928B185680C2110
:1041300007F003FA2846F8E7204638BD094B01226C
:104140001A70094B53E8002F013243E8002100297F
:10415000F8D1064B53E8002F013243E80021002933
:10416000F8D17047B0E4032034E4032014E40320C2
:1041700008B5044906F0BFFB18B1034B06221A70BC
:10418000012008BD2CC20D00B1E40320436913B126
:1041900083690C301847704710B5034B0360044621
:1041A00003F00AFA204610BD98C70D0010B504466A
:1041B000FFF7F2FF2046382107F0BFF9204610BD77
:1041C00010B5034B0360044602F002FF204610BD09
:1041D0007CC70D0010B50446FFF7F2FF2046102102
:1041E00007F0ABF9204610BD13B500210446084680
:1041F00003F040FC0023204601A9019303F052FC88
:10420000019C0CB1012323710021012003F032FC39
:104210002CB1236820469B6898470023237102B085
:1042200010BD000008B50A4906F065FB002368B11F
:10423000084A09491360936053615360074A0B6150
:104240001370074B01201870064B187008BD00BF93
:104250002CC20D00E4E30320BCE4032018E4032097
:1042600008E40320E8E4032010B50446006818B110
:1042700003F0B4FF0023236010BD10B50446FFF720
:10428000F3FF204610BD08B5002003F017FF28B14A
:1042900003F0ECFE80F00100C0B208BD0120FCE795
:1042A0000023042203F0C2BE30B585B00346144695
:1042B00068460D4698470298206003F087FF286003
:1042C00050B12268009907F025FE0024684606F0E8
:1042D00071FA204605B030BD004CF7E7FCFEFFFF49
:1042E0000A4B10B50446036005F0ECF9214605F0D1
:1042F000EEFB06F037FF06F029FF2046044B40F89E
:10430000043B05F0D1FA204610BD00BF64C70D0084
:104310004CC70D0010B50446FFF7E2FF20462421EC
:1043200007F00BF9204610BD002340681A461946D5
:1043300003F014BF10B58368044613B1032201468D
:104340009847204610BD000037B5134B0360044664
:104350008068C8B100256FF00043CDE90035022127
:104360002B462A4603F0A6FBA068294603F0F2FB81
:10437000237903F0FF0513B103F074FBF8E7A0689D
:10438000294603F087FBA56004F10C00FFF7D2FF7C
:10439000204603B030BD00BF38C70D0010B504463D
:1043A000FFF7D2FF20461C2107F0C7F8204610BDBA
:1043B00038B5044620252A46002107F0D3FD657153
:1043C000204638BDF8B5037D05460F4616468BB12D
:1043D0000368DB6883B19A88012A06D09B68F9E7F5
:1043E0009B684BB19A88012AFAD12BB19A89BA42BB
:1043F000F6D19E732846F8BD0A49102007F09FF8B1
:10440000044668B11022002107F0ACFD064B236082
:104410000123A3802B69A360A781A6732C61E9E720
:104420002875E7E7A0CE0D001000030070B5037DEE
:1044300005460E46CBB10368DB6823B19A88042A8F
:1044400017D09B68F9E70C49102007F078F804466C
:1044500068B11022002107F085FD084B236004237A
:10446000A3802B692C61C4E90236284670BD2875EB
:10447000FBE7DE60F9E700BFA0CE0D0010000300EF
:10448000002003F0A7BB0EB410B58DB00FAA0168D1
:1044900052F8044B039200232020CDE90403CDE918
:1044A00000421E2004AA03F025FD0DB0BDE8104017
:1044B00003B070470EB410B58DB00FAA016852F862
:1044C000044B039200232020CDE90403CDE90042F0
:1044D000322004AA03F00EFD0DB0BDE8104003B079
:1044E000704737B504689DF818508DF800308DF886
:1044F0000450E4683C23A04703B030BD30B50B78CE
:104500001C4D93B00C4693B91B4902A807F077FDE8
:104510002B7953B1194B1A491B788DF80030194B80
:1045200019481B7802AAFFF7DCFF13B030BD08461C
:1045300007F0CCFCC8280DD1144902A807F05FFD94
:1045400006F0C9FC124B286201221A70114B00229E
:104550001A70DDE7204607F0B9FCC928ECD02046E8
:1045600007F0B4FC0C4A0346402102A803F04EFEBB
:10457000CEE700BFBCE4032061C20D0069E3032065
:1045800098C20D0068E3032074E4032069C20D00A3
:10459000E8E4032018E403207BC20D0007B50B49B3
:1045A00006F0A9F970B100238DF80030084B094AD4
:1045B0001B7809490948FFF794FF09480A2102F0CE
:1045C00011FA012003B05DF804FB00BF2CC20D00FE
:1045D00068E30320A5C20D0071C60D0074E403203A
:1045E00078E3032037B51949054606F084F90446F7
:1045F000B0B1174B174A01241C71DB78147013B942
:10460000012003B030BD144B144A1B788DF80030E4
:10461000134B1B7813491448FFF763FF2046F0E75C
:104620001249284606F067F90028EAD0084B094AE3
:104630001C71DB7801241470002BE1D0064B0C4A6E
:104640001B788DF80030064B1B78E3E72CC20D0079
:10465000BCE40320E8E4032069E30320BDC20D00AD
:1046600068E3032062C40D0074E403206EC40D00EF
:10467000CEC20D0000B50C4B0C4A1B7FC3B04FF4EB
:10468000807102A803F0C2FD094B0A491B788DF81E
:104690000030094B09481B7802AAFFF722FF0120CE
:1046A00043B05DF804FB00BFBCE40320E3C20D008F
:1046B00069E3032023C50D0068E3032074E40320AD
:1046C00030B5C5B000680A2203A907F079FDB0F53E
:1046D0007A7F1ED8104DA86006F0FDFB0F4BE860F6
:1046E00001241C700E4AAB684FF4807104A803F0DB
:1046F0008DFD0C4BDB7853B10B4B0C491B788DF8BF
:1047000000300B4B0B481B7804AAFFF7EAFE20464B
:1047100000E0002045B030BDE4E3032008E40320BE
:10472000F7C20D00BCE4032069E303200DC30D00B4
:1047300068E3032074E4032013B52549044606F01A
:10474000DAF820B32249204606F0D5F838BB2149D3
:10475000204606F0D0F8002836D01F4CE27812B977
:104760001E4B01221A701E4B1E4A1B788DF800301A
:104770001D4B1E491B781E48FFF7B3FE4FF47A709D
:1047800003F08CFD00231B49A371102219E011498D
:10479000204606F0B0F80028D4D102B010BD0E4C6F
:1047A000E27852B10E4B144A1B788DF800300E4B54
:1047B0000E491B780E48FFF794FE01230F49A371A1
:1047C00010220F4807F05BFC0E4B01201870E4E745
:1047D0002CC20D006EC40D00BCE4032071E4032064
:1047E00069E3032022C30D0068E3032062C40D00C7
:1047F00074E4032034C30D0013C30D0038C30D004F
:1048000060E40320E8E40320F0B54E4CC3B003F0AD
:10481000D1F92368C01AB0F57A7F7AD903F0CAF9C2
:10482000494D20602B78494EBFF35B8F13F0010F89
:1048300009D12846FFF740FC28B103F0E3F93060C6
:104840002846FFF73EFC336893F870402B78BFF39F
:104850005B8FDB074FEA441709D43B48FFF72CFC7A
:1048600028B103F0CFF930603748FFF72AFC3368EE
:1048700093F8714004F01F043C432F2C5CDD344A54
:1048800000210A2003F026FB324B04F01F04012113
:1048900001FA04F4C3F808452F4B986838B16FF05B
:1048A00000420023CDE900231A4603F003F92B4D03
:1048B0002C7806F02DFB8442294C04D006F028FB0E
:1048C00001232870A361A3690133A36106F003FBF0
:1048D00024492368A268E06008790133013223602B
:1048E000A26098B1C97889B100924FF480711E4AD4
:1048F00002A803F08BFC1D4B1D491B788DF800307E
:104900001C4B1D481B7802AAFFF7EBFD1B4B012235
:104910001A701B4C23786BB11A4802F00CFD00236F
:1049200023708DF80030134B174A1B781749124833
:10493000FFF7D7FD43B0F0BD1F2CA5DC4FF0A0431F
:10494000A5E700BF6CE3032014E3032018E3032072
:10495000A57B0D0000030050C8E3032070E3032093
:10496000E4E30320BCE4032042C30D0069E3032019
:10497000ECC40D0068E3032074E4032008E4032082
:10498000B0E4032098E303205FC30D0076C30D005D
:1049900010B51B4C2368CAB0002B2DD0E2680892DA
:1049A000184A118D0791A1690691616905911169F4
:1049B000049121690391107B134951F82010029151
:1049C00092680192A26800924FF480710F4A0AA87F
:1049D00003F01CFC0E4B0F491B788DF800300E4B7A
:1049E0000E481B780AAAFFF77CFD0D4B01221A70B6
:1049F000236863604AB010BD0A4A1268CFE700BF5F
:104A0000E4E30320BCE40320E8E103207DC30D00C0
:104A100069E3032004C40D0068E3032074E4032069
:104A200018E4032038E4032013B5012101A805F0A0
:104A300074FD0B4B1B69243B402B01A84FF0010474
:104A40000AD905F0FDFD074B1C73002401A805F0F1
:104A500073FD204602B010BD05F0DBFDF6E700BF98
:104A6000E4E30320BCE4032030B5194D0FCD99B029
:104A700004AC0FC40FCD0FC495E8030084E8030015
:104A800014490EA803F08EFC0EA803F0DEFC0446C9
:104A90000EA803F0E3FC0EA810EE105A03F00EFD72
:104AA00018AB10EE100A03EB840406F0B3FECDE958
:104AB0000201284606F0AEFECDE90001064A54F890
:104AC000503C0648402103F0A1FB19B030BD00BFA7
:104AD000B8C70D0008E503201CC40D001CE303202B
:104AE00008B50F2006F08DFCB0F5C87F05DA32203E
:104AF00003F0D4FB0F2006F084FC06F079FE20A31F
:104B0000D3E9002306F0DEFE07F036F9DFED147A74
:104B100007EE100A67EE277A17EE900A06F07AFE83
:104B2000104B002206F016FD0F4B002206F0CAFEC5
:104B300007F0DAF806F05CFE0C4B002206F0C2FE2D
:104B40000B4B002206F0E8FF0A4B002206F004FDA2
:104B500007F0CAF8084B1861084B01221A7008BD0B
:104B6000000080390000E03F000059400000224072
:104B70000000144000004040E4E3032008E4032068
:104B80006666666666660A4000B591B06846FFF7DD
:104B90000FFC08A8FFF70CFC002108A803F028FA76
:104BA000134B5979A1B141F2D833ADF80630114B0E
:104BB000029341F27003ADF80C30009B43F4007394
:104BC00000930021684603F013FA11B05DF804FB6E
:104BD00041F27003ADF80630074B029341F2100327
:104BE000ADF80C30009B43F400730093EAE700BF7C
:104BF000BCE40320840300048403840337B51B4909
:104C0000054605F078FE0446C0B1194D01246C71CB
:104C1000FFF7BAFF174B1C70EB7813B9012003B0F4
:104C200030BD154B154A1B788DF80030144B1B789E
:104C300014491548FFF755FC2046F0E7134928466C
:104C400005F059FE0028EAD0094D0A4B6C71012489
:104C50001C70FFF799FFEB78002BDFD0064B0C4A56
:104C60001B788DF80030064B1B78E1E72CC20D0055
:104C7000BCE40320E8E4032069E3032035C40D000D
:104C800068E3032062C40D0074E403206EC40D00C9
:104C90004CC40D00244B1A69D3ED057AFF2ABAEEF5
:104CA000087A88BF0022F4EEC77A88BF1A61F1EE55
:104CB00010FA06D4B2EE087AF4EEC77AF1EE10FAE2
:104CC00001DD1A4A5A61D3ED067AF5EEC07AF1EEAB
:104CD00010FA06D4B0EE007AF4EEC77AF1EE10FACC
:104CE00002DD4FF07E529A611A7F0C2A84BF0022A7
:104CF0001A775A7F0C3A0C2A84BF18225A770C4A2A
:104D000011681A8D8A4284BF00221A8501225A71C5
:104D1000084B988B81423FBF00219983064B1A7044
:104D2000064B01221A707047BCE403200000A0C0AB
:104D30000CE20320E4E3032008E40320E8E403207A
:104D400010B50E4CA38BB3F5C05F09D10C490D48CB
:104D500007F055F9BDE8104009490B4807F04FB975
:104D6000237F0A4A0748082103F050FA637F074A65
:104D70000548BDE81040082103F048BABCE4032010
:104D800067C40D0016E2032004E203206AC40D008C
:104D900013B50A22006801A907F012FA17280CD8E7
:104DA000074C2077FFF7CCFF064B01201870E37803
:104DB0000BB1FFF75FFC02B010BD0020FBE700BFA6
:104DC000BCE40320E8E4032030B5C5B000680A2243
:104DD00003A907F0F5F918281CD8104D6877FFF7DC
:104DE000AFFF0F4B0F4A01241C704FF480716B7F93
:104DF00004A803F00BFAEB7853B10B4B0B491B786B
:104E00008DF800300A4B0B481B7804AAFFF769FBAA
:104E1000204600E0002045B030BD00BFBCE40320C8
:104E2000E8E4032070C40D0069E3032023C50D00EE
:104E300068E3032074E4032038B50A4C0025C4E974
:104E40000055A56006F047F8074B084A1D6164232A
:104E5000236201231370064AE06013706561A58325
:104E600038BD00BFE4E30320BCE4032008E40320D2
:104E7000E8E4032030B5144D144C15492A78207805
:104E80008DB00E2303FB0212009203FB0013114AA4
:104E9000282102A803F0BAF92B7823700E4B1A7957
:104EA00082B1DB7853B10D4B0D491B788DF8003082
:104EB0000C4B0D481B7802AAFFF713FB0B4802A905
:104EC000FFF7E1FA0DB030BDB1E4032070E4032038
:104ED00024E2032087C40D00BCE4032069E303201F
:104EE00095C40D0068E3032074E40320DCE503208F
:104EF0002DE9F047224B234C1B78234A23492448B1
:104F000086B000258DF80030224B1B78FFF7E9FAB8
:104F1000257103F0ABF810B1284603F0C7F8FFF78E
:104F2000AFFA4FF0000A054647F22F584FF000093C
:104F3000FFF7A6FA461B61EB0A07B94508BFB04563
:104F400005D3FFF7A0F910B903F080F8F0E7FFF7F9
:104F50009AF9637913B9A368462B09DC0E4902A8B4
:104F600005F073FC02A8FFF7E7FB02A805F022FC9E
:104F7000FFF762FF094B01221A7006B0BDE8F08707
:104F800069E30320BCE40320A6C40D00AEC40D00F9
:104F900074E4032068E303202CC20D00E8E403203E
:104FA00030B585B00D4600226946009202F0BAFF86
:104FB000B0B9009C0CB1236923B90A4A00210A2028
:104FC00002F088FF0023ADF806300C23ADF8043062
:104FD000042303930295236901AA012120469847DF
:104FE00005B030BDA57B0D0030B5264B002289B041
:104FF0005868114603F0A2F808B1FFF735FDFFF736
:105000006FFD69460720FFF7CBFF1F4C1F4D00289F
:10501000A8BF00982073FFF707FD10B96B69013333
:105020006B6169460320FFF7BBFF40BBBDF8003052
:1050300007EE903AFBEECC7AFDEEE77A17EE903A67
:10504000402BC4ED027A09DC237B012B06D1684694
:10505000FFF7AEF90021684602F0CAFFA3682A6A8A
:105060009342B8BF2B621D2BCCBF00230123084AFB
:10507000E37101231370074A137009B030BDFFEECE
:10508000007AD9E708E50320BCE40320E4E3032029
:10509000E8E4032008E4032070B5D0E900531426A7
:1050A000044606FB0356AE4204D0284605F082FBB8
:1050B0001435F8E7206803F091F8204670BD00230E
:1050C000022202F0B3BF00000246014803F0B6BA64
:1050D00011860D0038B503681446DD682C23A847F7
:1050E000204638BD70B5194B194C01221A70E3786F
:1050F00086B053B1174B184A1B788DF80030174B08
:1051000017491B781748FFF7ECF900251649257158
:10511000012602A82670A570E57105F096FB02A88D
:10512000FFF70AFB02A805F045FB104B63614FF047
:105130007E53A361064A0E48667141F2065331461A
:10514000A3832585FFF7C6FF06B070BD71E4032079
:10515000BCE4032069E30320BCC40D0068E3032022
:1051600062C40D0074E403202CC20D000000A0C036
:105170001CE40320000000002DE9F0410021AAB04A
:10518000082006F001F90021042006F0FDF80121B5
:10519000072006F0F9F80021022006F0F5F80121B9
:1051A000072006F002F906A8002402F067FF00239A
:1051B0007D220AA906A805F0B0FBBD49BD4FBE4D32
:1051C000DFF8F88323462246CDE900440AA802F01E
:1051D00065FF23460222B749B84802F027FFB849C5
:1051E000B848FFF76CFFB849B848FFF759F8B84915
:1051F000B848FFF764FF23460222B749B74802F0D8
:1052000015FFB749B748FFF74BF8B749B748FFF75D
:1052100056FFB749B748FFF743F8B749B748FFF714
:105220003FF8B749B748FFF73BF823460222B64993
:10523000B64802F0FBFEB649B648FFF731F80C233A
:10524000CDE90344ADF80C30B34BB44905930422C7
:1052500003ABB34802F0EAFEB24AB349B34803F0E5
:10526000EDF9B34AB349B14803F0E8F9B24AB3499A
:10527000AE4803F0E3F9B24AB249AC4803F0DEF9B4
:10528000B149B248FFF720FFB14AB249A74803F03D
:10529000D5F9B149B148FFF717FFB149B148FFF758
:1052A00013FFB14AB149A14803F0C8F9B049B14868
:1052B000FFF70AFFB049B14A9C4803F0BFF9012645
:1052C000032241F2883303A8CDE90323ADF814602B
:1052D00003F0DFF9AA4801F091FE3346A8480DF12A
:1052E0000B02214601F0CCFE9DF80B30032B00F0A1
:1052F000CC80A34801F08CFEA24AA1480423214699
:1053000001F009FF33469E480DF10B02214601F0E2
:10531000B7FE9DF80B30032B00F0B4809A499B48F0
:1053200088F80060FFF7AFF8994CFFF7B3FCFFF780
:1053300007FD984A002300214FF4802002F014FE5C
:10534000082301212046638101F00AFD01231A464A
:105350001021204601F06FFA7C21A870204601F050
:10536000E7F995ED060A05F06DFC01F019F8002843
:1053700000F0268105F084FC95ED050A05F042FC5D
:1053800005F0EEFD044605F0A6FD201A06F030FA01
:1053900045A3D3E9002306F0BFFB7F4ACDE9000116
:1053A0000A215B4802F032FF032202217B4802F00F
:1053B00038F87A4801F0FAFFAB791022002B00F0A0
:1053C000028177494A4806F05AFE0022114603A896
:1053D000039202F0CFFB039B142B4FF0000240F02E
:1053E000F4802B6901332B616E4B01221A703B68EC
:1053F0006D4C002B00F0F380FB682360FFF7C4FBCB
:10540000042005F0EBFF08B9FFF76CFE05F08CFDFA
:1054100000210446F86805F0D9FB844201D0FFF76B
:105420000BFD05F069FD2B7F98421BDB05F064FD49
:105430006B7F984216DA002300935C494FF0FF33EC
:105440000122022003F05CFDEB7833B102F00EFE86
:1054500018B9574BE87001221A70FFF7C5FD554B7C
:10546000554A1A6098F8003013B9022388F80030C2
:105470000021072005F099FF06A805F09BF92AB046
:10548000BDE8F081FFF72EFE4EE72A4631462C2379
:105490003B4801F0F5FD24233A465021384801F0FD
:1054A000EFFD41E7AFF30080000000000020AC40BA
:1054B000FD440D00E4E30320BCE40320D4C40D004C
:1054C000ECE303204CC50D001CE30320E0C40D00F9
:1054D000CCE40320E7C40D00F4E30320F2C40D0084
:1054E00010E20320FEC40D00C4E4032006C50D0035
:1054F00060E4032011C50D0016E20320B9C50D00BC
:1055000004E203201EC50D00F8E3032028C50D00AA
:1055100009E403202FC50D00A9420D0005410D002F
:105520003AC50D0049C50D00C1460D0011860D009C
:1055300057C50D0025420D0063C50D009D450D00AA
:105540006DC50D0071410D0039470D0075C50D0089
:1055500082C50D00FD4B0D00E5450D008DC50D000C
:1055600079620D009AC50D00A7C50D00E1630D001D
:10557000914D0D00B5C50D00C94D0D00C2C50D0002
:105580001CE40320E0C70D00CCC50D00DCE50320C2
:1055900078E30320D5400D00DCC50D0098E303201F
:1055A00038C30D00E8E4032038E403203D410D003A
:1055B00071E40320B4E40320905F0100B1E4032010
:1055C00005F06AFBD8E60849FCE6114603A80392F9
:1055D00002F0D0FA039B8C2B7FF409AF01E705F0B2
:1055E0007AFC20600AE700BF34C30D008842F8B59A
:1055F00004460D46164616D9904215D2A2F114065D
:10560000751AA1F114072C44B7421CD02CB13146B5
:10561000204605F04BF9337C2374304605F0CAF878
:10562000143E143CF0E70ED0B5420CD02CB1294604
:10563000204605F03BF92B7C2374284605F0BAF888
:1056400014351434F0E7F8BD2DE9F0410023C0E92A
:10565000003383604F689F4204460E4623DD4FF0BF
:10566000140808FB07F002F0B1FD0546D8B1D4E9F3
:10567000001208FB0212FFF7B9FF206802F0AEFD2E
:105680002560A760D6E9007308FB0378B84508D009
:105690003946284605F024F93B7C2B741437143521
:1056A000F4E7736863602046BDE8F0812DE9F04FB0
:1056B000784B794D794E4FF0010883F80080784B94
:1056C000082291B01A7005F009FE00231A460D2138
:1056D00005F00CFE05F002FE002341461A4605F0D7
:1056E0000DFE704B002464229C831A626E4BAB60EB
:1056F0002C60AC80AC71022002F026FC32466B4973
:10570000284605F015FF2146404602F035FC41468B
:10571000042002F027FA66486649A0F809400346CB
:10572000021D43F8092B9C70634B43603246C0E96D
:10573000034480F81480047205F0FAFE05F0A8FE18
:105740005E4D014623464FF40052284601F04CFCC2
:105750005B4B2B6028465B4D5B49324605F0E8FE0B
:105760005A494FF40062284602F04EF8584B2B601D
:1057700032465849284605F0DBFE05F089FE564DB5
:1057800001466922284600F0D5FE2846534D54496B
:10579000324605F0CDFE2146284603F049FA32464E
:1057A0005049284605F0C4FE1D214F484F4D01F0D9
:1057B0004FFDCDE90344059405F0D4FC0DF1240917
:1057C000824603A906A8FFF73FFFAB4606A9484655
:1057D000FFF73AFF464B4BF8043B0CAF49463846BF
:1057E000FFF732FF3A464146584604F0C3FA3846BE
:1057F000FFF752FC4846FFF74FFC3E4B2B60C5F8C5
:1058000020A006A8FFF748FC3B4B2B6005F0AAFC44
:105810004FF4165105F096FC03F054FF294604F0AE
:105820003BFA03A8FFF738FC32463449284605F016
:105830007FFE334B0C93334D334B2B6097E80300C3
:1058400005F10C0389E8030093E8030087E80300EF
:1058500099E8030083E803002C4B6B61AB690F935D
:105860002B4BAB612B4A2C712B46AC604FF47A71F9
:10587000CDE9008405F108000E9402F003F93846E2
:10588000FEF758FD24493246284605F051FE11B076
:10589000BDE8F08F68E303205CE3032010E30320FE
:1058A00069E30320E4E303200000FFFF7B420D00D7
:1058B000B0E3032025410D00100003001CE4032089
:1058C0007CC70D0074E40320C1410D0000F40320E7
:1058D00098C70D0099410D0078E303202CE40320C4
:1058E000F5640D00518C0D0098E303203CE4032087
:1058F0004CC70D0054CD0D0064C70D00E1420D00F2
:10590000FB400D00C8E3032038C70D00E5400D0043
:10591000E1400D00E9410D0049430D002DE9F04F34
:1059200085B04FF0000A01A8CDE901AAADF80CA09E
:1059300002F095FEFEF7A4FD43F6972883464FF04C
:105940000009FEF79DFDB0EB0B0661EB0A07B945B8
:1059500008BFB04505D302F089FB10B102F076FB19
:10596000EFE7184E02F082FB00220221706802F07D
:10597000DDFB3046FEF7D8FCFEF782FD4FF0000A53
:10598000074647F22F584FF00009FEF779FDC41B78
:1059900061EB0A05A94508BFA04506D3304604F0CF
:1059A00029FD10B902F052FBEFE7064804F022FD92
:1059B000054B0022DA70054B0120187005B0BDE8D8
:1059C000F08F00BF08E50320BCE40320E8E40320D7
:1059D0002DE9F04F85B04FF0000A01A8CDE901AAEA
:1059E000ADF80CA002F03BFEFEF74AFD43F6972807
:1059F00083464FF00009FEF743FDB0EB0B0661EB69
:105A00000A07B94508BFB04505D302F02FFB10B90E
:105A100002F01CFBEFE702F029FB2148DFF880A031
:105A2000FEF782FCFEF72CFD4FF00009804647F29E
:105A30002F560027FEF724FDB0EB080461EB0905A3
:105A4000AF4208BFA64206D3504604F0D3FC10B9BB
:105A500002F0FCFAEEE7124804F0CCFC11480021F9
:105A600000F066FE104B1A7D0AB102221A72002263
:105A700004210D48FEF7A6FC42F21071FEF7D6FC99
:105A8000094901A804F0D4FF01A8FEF7EDFB4FF08F
:105A9000FF31044800F04CFE05B0BDE8F08F00BFB8
:105AA00008E5032078E30320B0E303202DE9F04369
:105AB0008E4CDFF87C8223788D4F8E4E013B99B05F
:105AC000062B00F23B81DFE813F0BB0207003B002E
:105AD000B500930116025102874B1B78022B01D0AF
:105AE000FFF7C8F9854DAB7953B102F063F8844BE9
:105AF0001B68C01A834B1B68984284BF0423237021
:105B000005F0FAF9804B81460021186805F056F837
:105B100081451CBF0623237005F0EEF96B7F984288
:105B200008DB03232370794B1B78002B00F00681E0
:105B3000052312E005F0E0F92B7F9842F1DBF2E754
:105B40006D4B1B78032B01D0FFF794F9022003F073
:105B500001FA6F4B1B6813B106232370EEE0674B0D
:105B6000DA7899460AB1FFF7D9FE0021694800F0BA
:105B7000DFFD05F0B0F94FF4616590FBF5F303FB31
:105B80001505654BC5F561651A7DB5F5616FA8BF53
:105B90004FF461650AB102221A72002204215E48A4
:105BA000FEF710FC4FF47A716943FEF73FFC5A4947
:105BB00005A804F03DFF4FF0FF31564800F0B8FD56
:105BC000564803F0CFF8554803F0C3F8059B9BB146
:105BD0009A88012A10D19B89042B0DD1504908A81D
:105BE00004F033FE08A8FEF7A7FD08A804F0E2FDC4
:105BF0004FF4C053A9F81C3005F07EF999F81D3018
:105C0000984211DA05F078F999F81C3098420BDBCC
:105C10000023009301224FF0FF334249022003F09A
:105C20006FF9384B404A1A60022305A82370FEF72B
:105C30001BFB83E0304B1B78042B01D0FFF71AF9D4
:105C400098F8003003F0FF01002B77D1374B9868AC
:105C500000286FD1294BDB780BB1FFF75FFE294B92
:105C60002C484FF47A7200211A6000F061FD05F0B3
:105C700032F94FF4616590FBF5F303FB1505264BF4
:105C8000C5F561651A7DB5F5616FA8BF4FF4616513
:105C90000AB102221A72002204211F48FEF792FB69
:105CA00001220221FEF78EFB4FF47A716943FEF761
:105CB000BDFB194905A804F0BBFE4FF0FF311548A4
:105CC00000F036FD154803F04DF8144803F041F894
:105CD000059B002BA8D09A88012AA5D19B89022B6D
:105CE00078D101F067FF064B18609DE7B1E403200F
:105CF000E8E4032008E4032070E40320BCE403206C
:105D0000B8E40320B4E4032038E4032071E4032062
:105D1000E4E3032078E30320B0E303202CE4032032
:105D20006EC40D003D410D00905F0100C8E30320EB
:105D3000B0E4032001F0FEFE00288BD098F800307C
:105D400003F0FF09002B00F0FC8100238DF80030E8
:105D50009E4B9F4A1B789F499F48FEF7C2FBFEF768
:105D600053FD9E4801F0DCF83B7833B19C4A9D48D6
:105D70000121FFF7AFF900233B7033783BB12423B7
:105D8000994A9848502101F0C6F900233370974B87
:105D90001B68002B1BDB964A402108A802F036FA4C
:105DA00008A99448FEF76FFB642002F077FA0023FD
:105DB0008DF80030854B90491B78874808AAFEF77C
:105DC00090FB4FF4FA6002F069FA04F02DFE19B06E
:105DD000BDE8F083042B7FF427AF884908A804F0BE
:105DE00034FD08A8FEF7A8FC08A804F0E3FC1BE7B4
:105DF000834B1B78052B13D09A1F53425341814A82
:105E00001370FFF737F805F066F87F4B18607F488E
:105E1000002340681A46194602F098F902F01EF96C
:105E200002F024F9DFF8FC910546002843D06C4DC0
:105E3000002389F800300123EB7005F04CF868620C
:105E400099F80030002B7FF479AF05F044F86E4BE1
:105E5000634D1B68644AC01A6D4B918B1B6880B2FE
:105E60009842288588BF2B852B8D99424FF02001C1
:105E700038BF93830DEB0100664A02F0C7F95D4815
:105E800008A9FEF700FB2B794BB100238DF80030F9
:105E90004E4B61491B78504808AAFEF722FB0123AC
:105EA0003B703370EB7823B1564B1B78002B7FF49B
:105EB00053AE022351E605F00EF8534B1B68C01A8F
:105EC000534B1B689842BBD989F8005005F003F882
:105ED000434B5A6A801AB0F5E15F06D9012323705B
:105EE00001F068FE4D4B186028E74D494148DD70D0
:105EF000FEF7C9FAA4E7424B1B78062B01D0FEF748
:105F0000B9FF374DEB78A9463BB9464B01221A70D1
:105F100004F0E1FF444B18600AE6AB79B3B104F03A
:105F2000EBFF99F81C3098421DD1FEF7E1FF04F019
:105F3000E3FF99F81C30984202D108B9FEF728FD1A
:105F400001F038FE394B1860072306E6FFF74CF8DE
:105F5000EB78002BE3D1364B364A1A6001F02AFE6B
:105F6000354B1860A5E7FEF713FDE0E7244B1B78DF
:105F7000072B01D0FEF77EFF304B1D78B5B92C4BB7
:105F80002C4A1A6001F016FE2B4B18600223237076
:105F9000154B596800293FF4D1AE1A685D60521A5A
:105FA000C3E905551A6001233370C7E601F002FE0C
:105FB0001E4B1B68C01A47F2305398427FF6BEAEA4
:105FC00001F0F8FD154B18600123C6E568E30320D6
:105FD00092C60D006CC30D0074E4032078E3032027
:105FE000BCE403201CE40320E4E3032020E20320BC
:105FF00009C70D00DCE5032028C70D006EC40D00A5
:1060000070E4032071E3032074E3032008E5032018
:106010000CE203200DC60D0022C60D00ACE40320E7
:10602000EFC50D0071E4032038E40320F0E4032001
:10603000B4E40320905F0100B8E4032018E40320D7
:106040006F4B1B78012B01D0FEF714FF01F0B2FD5E
:106050006C4B1B6803F5EA4330338342BFF46EAEEA
:10606000694D04F038FF6B6AC01AB0F5E15F2C4649
:1060700013D904F030FFA0F5616068622A4601215F
:106080006248FFF727F862486249FEF713FA642076
:1060900002F004F9FFF79CFC50E604F01CFF2B6AA9
:1060A000C01AB0F5E15FEB7819D953B15A4B5B4A8E
:1060B0001B788DF800305A4B5A491B785A48FEF726
:1060C00010FA4FF4FA6002F0E9F80023236104F0BB
:1060D00002FF0123A0F5616020623B70DAE72A69C4
:1060E000032A12DC53B14C4B504A1B788DF8003018
:1060F0004B4B4C491B784C48FEF7F3F94FF4FA60D0
:1061000002F0CCF804F090FC18E653B1424B434A3D
:106110001B788DF80030424B42491B784248FEF70D
:10612000E0F94FF4FA6002F0B9F80023364A374834
:1061300023610121FEF7CEFF1E213D4800F052FCF5
:10614000FCE53C4C01F036FD2368C01A64287FF65C
:1061500008AE01F02FFD2060374801F0EFF800286D
:106160003FF4FFAD022005F039F9344C344DDFF82F
:10617000B080002814BF23462B460320039305F06C
:106180002DF9002814BF20462846039B00902D4A75
:10619000402108A802F03AF88DF8009098F80030F5
:1061A0002949214808AAFEF79CF9FEF72DFB8DF836
:1061B000009098F80030254A25491B48FEF791F9D0
:1061C000022005F00BF9002814BF23462B460320BC
:1061D000039305F003F9002814BF20462846039BCB
:1061E00000901C4A402108A802F010F88DF8009099
:1061F00098F8003014490C4808AAFEF772F9B0E587
:1062000070E40320ACE40320BCE403201CE403207E
:10621000DCE503202BC60D0069E3032058C60D0002
:1062200068E30320C7C60D0074E4032077C60D00A1
:1062300078E30320ECE4032098E30320E6C50D0097
:10624000EBC50D00A4C60D00C3C60D00CDC60D00E4
:10625000E2C60D00EBC60D0008B5002001F02EFFD0
:1062600028B101F003FF80F00100C0B208BD012099
:10627000FCE70000000000002DE9F047C8B08046B0
:1062800001F0F4FE10B1002001F010FF002001F039
:10629000A1FC4FF0000A814647F22F56002700204C
:1062A00001F098FCB0EB090461EB0A05AF4208BFAE
:1062B000A64205D3FFF7D0FF10B901F0C7FEEEE705
:1062C000FFF7CAFFD8F800000A2203A905F078FFFB
:1062D00000F10C03DBB2182B48D845B207EE905AF8
:1062E000274BB8EEE70A012483ED050A04F08AFC87
:1062F000244B1C7004F034FE064604F0ECFD301A0A
:1063000005F076FA1CA3D3E9002305F005FC1E4A2C
:10631000CDE900010A211D4801F078FF01F0A6FE39
:1063200010B32B461A4A1B4D4FF48071002608A863
:1063300001F06CFF8DF8006017492B78174808AA08
:10634000FEF7CFF804F0C7FD0246C31704A804F017
:10635000BFFC8DF800602B78049A0F490F48FEF7B8
:10636000C0F804A804F026FA204600E0002048B057
:10637000BDE8F087AFF30080000000000020AC40D3
:10638000BCE40320E8E40320DCC50D0009E403209D
:10639000E4C70D00F4E4032023C50D0074E40320DA
:1063A00038B504F0C1FD054604F0D2FD044604F002
:1063B000C7FD231F062B0ED9E31E082B0DD801386D
:1063C0002D1A04D50B2C14BF0020012038BD072D39
:1063D00003DD032CF7E70120F8E70020F6E70000D3
:1063E00070B52DED028BC8B0054604F074FD0A228D
:1063F000044603A9286805F0E3FEC3B2022B59D86E
:1064000043B208EE103AB8EEC88AB0EE480A04F07B
:1064100019FC2D4B83ED068A2C4B01221A7018EEC5
:10642000100A05F0F7F92A4ACDE900014FF480710E
:1064300008A801F0EBFE04F031FD28B1FFF7B0FF32
:10644000002834D004F01CFC04F08AFD054604F05A
:1064500042FD281A05F0CCF919A3D3E9002305F071
:106460005BFB1C4ACDE900010A211B4801F0CEFE6E
:1064700001F0FCFDC8B1194D19491A4800268DF8E4
:1064800000602B7808AAFEF72CF82246E31704A830
:1064900004F01EFC8DF800602B78049A1049114816
:1064A000FEF71FF804A804F085F9012003E004F0CA
:1064B000F3FBC9E7002048B0BDEC028B70BD00BF04
:1064C000000000000020AC40BCE40320E8E403200E
:1064D000F8C70D00DCC50D0009E40320F4E4032037
:1064E00023C50D0074E40320014B01221A7070478C
:1064F000F4E40320704710B52021044605F01DF890
:10650000204610BD0EB410B58DB00FAA016852F828
:10651000044B039200232020CDE90403CDE900427F
:10652000012004AA01F0E6FC0DB0BDE8104003B064
:106530007047000010B50272FF2242810022C0E9BC
:10654000032242610276C261024A034C1060C0E934
:10655000004110BDFCE4032058CA0D002DE9F843AA
:106560009DF820800446894616461F46B8F1000F64
:1065700002D0406802F0B0FC217A606802F086FC2C
:106580006068036849469B6898476068002102F08C
:106590009CFC054600BB0123217A60683A4602F064
:1065A00060FC8742034609D13744BE421CD0606874
:1065B00003685B69984706F8010BF6E70B490C483E
:1065C0004A46FDF777FFB8F1000F02D0606802F08D
:1065D0008CFC2846BDE8F8830346064904484A4631
:1065E000FDF768FF0025EEE70125ECE709C80D007F
:1065F000F8E403202EC80D0007B500930123FFF730
:10660000ADFF03B05DF804FB73B54389FF2B04466F
:1066100010D0194E194D01F0CDFAB0F57A7F09D29C
:10662000608904F0DBFE012804D031462846FDF7DE
:106630002AFFF0E701230DF1070228212046FFF78A
:10664000DBFF30B90D480E49FDF71DFF002002B0F9
:1066500070BD9DF80730182BF4D101230DF107020E
:1066600029212046FFF7C8FF0028EBD09DF807300E
:10667000052BE7D1EBE700BF52C80D00F8E403207B
:1066800067C80D0007B5134600228DF807200DF1ED
:106690000702FFF7B1FF9DF8070003B05DF804FBA8
:1066A0002DE9F0419DF8188004460F4615461E4618
:1066B000B8F1000F02D0406802F00EFC217A606849
:1066C00002F0E4FB6068036839469B6898472E44F3
:1066D000B542606805D0036815F8011B9B689847B0
:1066E000F6E7012102F0F1FB034670B108490948C1
:1066F0003A46FDF7DFFE0025B8F1000F02D06068D2
:1067000002F0F3FB2846BDE8F0810125F4E700BF65
:1067100074C80D00F8E403201FB58DF80F20009316
:106720000DF10F020123FFF7BBFF05B05DF804FB7D
:10673000F8B50A460C4605461A491B48FDF7A3FE64
:10674000002CB8BFEC687CB9012322461B212846E7
:10675000FFF7E2FF1549024606461348FFF7D2FE4F
:10676000EC606C613046F8BD032C19DDA7101F2FBB
:10677000A8BF1F27BA0062F07C020123D2B21B21FE
:106780002846FFF7C9FF3A46034609490646064828
:10679000FFF7B8FE4FF4FA635F43EC606F61E1E727
:1067A0000127E7E799C80D00F8E40320A3C80D000E
:1067B000BFC80D000B4607490246086848B1002BC8
:1067C00008BFB2F5006F04D1C36813B10021FFF711
:1067D000AFBF7047FCE403202DE9FF419DF82880FE
:1067E000054616461F46B8F1000F04D040680191D7
:1067F00002F072FB0199019100230DF10F0228466E
:10680000FFF7FAFE044660B19DF80F3003EA060276
:106810003A43934205D0019900232846FFF77CFFB5
:106820000446B8F1000F02D0686802F05EFB204613
:1068300004B0BDE8F08113B514460DF10702FFF76F
:10684000DBFE28B19DF807301C420CBF0120002060
:1068500002B010BD13B514460DF10702FFF7CCFED0
:1068600028B19DF807301C4214BF0120002002B05F
:1068700010BD07B5D2430093D2B20023FFF7ACFF9F
:1068800003B05DF804FB000037B501230DF10702EA
:106890000F210446FFF7B0FE054638B91E491F48D0
:1068A000AD22FDF707FE284603B030BD9DF8073046
:1068B00013F0200F4FF001030BD02022E3610F21D2
:1068C0002046FFF7D6FF164A16491448FDF7DBFDB0
:1068D000E9E7082217212046FFF7BCFF18B1022381
:1068E000114AE361F0E79DF807301A0709D5032341
:1068F000E361082201230F212046FFF7BAFF0B4A6C
:10690000E2E75B07CFD50422E26101230F21204695
:10691000FFF7AFFF064AD7E712C90D00F8E40320DE
:10692000E3C80D0031C90D00ECC80D00FCC80D0016
:106930000CC90D0007B500931346FF22FFF74CFF6B
:1069400003B05DF804FB0000F8B50F4616460123BE
:1069500000220F210546FFF7DFFE044638B94FF449
:1069600025721E491E48FDF7A5FD2046F8BD0123EE
:10697000232218212846FFF7CFFE044610B940F223
:106980009B22EEE7FF2FA8BFFF27012FB8BF0127EB
:106990000123FAB219212846FFF7BEFE044610B9BA
:1069A0004FF42A72DDE70123082212212846FFF75F
:1069B000C1FF044610B940F2AF22D2E7002E4FF0DB
:1069C000010314BF8322822218212846FFF7A4FE68
:1069D00004460028C9D140F2B922C2E742C90D00DD
:1069E000F8E403202DE9F7430A4605460F464F48D1
:1069F0004F49FDF748FD00212846FFF799FE044660
:106A000048B940F2F7124B494848FDF753FD20467C
:106A100003B0BDE8F08301231A4630212846FFF772
:106A200089FF044610B940F20522ECE71022012349
:106A300011462846FFF71DFF044610B94FF40372B4
:106A4000E1E70123262213212846FFF765FE0446CD
:106A500010B940F21322D6E7012600963346FC22F5
:106A600011212846FFF7B8FE044610B940F21B2258
:106A7000C9E7002239462846FFF766FF044610B9E9
:106A800040F22222BFE700960223772210212846F7
:106A9000FFF7A2FE044610B940F22B22B3E73346BB
:106AA00004221C212846FFF745FF044610B940F296
:106AB0003222A8E700961823E32211212846FFF787
:106AC0008BFE044610B940F239229CE73346C022BF
:106AD00017212846FFF720FE044610B94FF4107224
:106AE00091E701F067F8DFF85490DFF840804FF449
:106AF0007A7106464F4301F05DF8801BB8420ED212
:106B0000012217212846FFF7BDFD494602464046AF
:106B1000FDF7B9FC4FF47A7001F0C0FBEBE70649D2
:106B20000248FDF7C7FC03F07FFF70E7F8E403209D
:106B30006DC90D0062C90D0093C90D007EC90D001D
:106B40002DE9F3479DF828A005460C4691461F46BF
:106B5000BAF1000F02D0406802F0BEF907B3202F4F
:106B60003E4628BF20267F2C26D83319802B01D9FA
:106B7000C4F18006012304223F212846FFF779FE55
:106B8000002364F07F0100934A463346C9B2284689
:106B9000FFF7E4FC804628B13444BF1BB144DDE775
:106BA0004FF00108BAF1000F02D0686802F09DF9B9
:106BB000404602B0BDE8F087012304223F21284669
:106BC000FFF7B8FEDCE72DE9F3479DF828A005465E
:106BD0000C4691461F46BAF1000F02D0406802F001
:106BE0007BF907B31F2F3E4628BF1F267F2C26D8D0
:106BF0003319802B01D9C4F18006012304223F21DF
:106C00002846FFF736FE002364F07F0100934A46D2
:106C10003346C9B22846FFF743FD804628B13444C5
:106C2000BF1BB144DDE74FF00108BAF1000F02D0FD
:106C3000686802F05AF9404602B0BDE8F0870123C7
:106C400004223F212846FFF775FEDCE730B585B00A
:106C50000D68D1E9043203954D6802958D68019560
:106C6000C96800910133044902F26C72044603F0D2
:106C70006DFE204605B030BDA5C90D0003110A22E6
:106C800000F00F0002FB0300704738B5044600789F
:106C90001546FFF7F3FF08606078FFF7EFFF4860E5
:106CA000A078FFF7EBFF8860E078FFF7E7FFC860A8
:106CB0002079FFF7E3FF013808612DB9651D2878B9
:106CC000FFF7DCFF886138BD6079FFF7D7FF6430DC
:106CD000A51D4861F3E7000070B5012388B00D469B
:106CE0001A4610210446FFF7A6FDF0B1082301263D
:106CF000204600960DEB03020021FFF72FFC04460F
:106D000098B1324629460DF10900FFF7BEFF04A8ED
:106D1000FFF79CFF0848049A0849FDF7B4FB04A854
:106D200003F048FD204608B070BD2422002128460B
:106D300005F018F90024F5E7F8E40320C3C90D00B5
:106D400030B58BB00D4601A9FFF7C6FF044620B150
:106D500001A801F09BFAC5E9000120460BB030BD47
:106D600010B5044688B011B1406802F05DF82046C5
:106D7000FFF74AFC70B32046FFF786FD01231A4651
:106D800010212046FFF757FDD8B104F087F8C0B9AD
:106D900002A92046FFF7D4FFDDE9020103F084FFDA
:106DA0000F4B10491B68009304A8DDE9022304F08F
:106DB00033F80D48049A0D49FDF765FB04A803F06C
:106DC000F9FC0B4A002300214FF4006001F0CCF8DD
:106DD00008B010BD07490448FDF76CFBF1E700BFA0
:106DE0009CE2032030E60320F8E40320D1C90D0023
:106DF000B5670D00EEC90D000A2290FBF2F302FB0D
:106E0000130093FBF2F102FB113140EA0110C0B212
:106E1000704770B5054600680C461646FFF7ECFF54
:106E200020706868FFF7E8FF6070A868FFF7E4FF6C
:106E3000A070E868FFF7E0FFE07028690130FFF715
:106E4000DBFF20712EB9661DA869FFF7D5FF3070F2
:106E500070BD6A69642392FBF3F003FB1020FFF717
:106E6000CBFFA61D6071EFE7F0B587B0054602A81D
:106E700016460C46FFF7EAFE1E48029A1E49FDF729
:106E800002FB02A803F096FC16B1686802F024F831
:106E9000204601220DF1090100278DF80870FFF747
:106EA000B8FF01231A4610212846FFF743FD044688
:106EB000E8B1082300970DEB030239462846FFF797
:106EC000EFFB044660B101231A4610212846FFF764
:106ED000D0FC16B1686802F008F8204607B0F0BD93
:106EE0004FF48D7205490348FDF7E4FAF1E74FF4DA
:106EF0008F72F7E7F8E4032006CA0D0014CA0D00EC
:106F000013B504466846CDE9002304F0F1FF9DF86F
:106F1000102001462046FFF7A7FF02B010BD000079
:106F2000F0B5057E89B0044675BB03F0B7FF58B3D2
:106F30000026002704A92846CDE9046701F0C6F819
:106F400010B30125257603F0C6FF00950246C3174E
:106F50002046CDE90223FFF7D3FF02A92046CDE961
:106F60000267FFF7EDFE124B12491B68009304A85D
:106F7000DDE9022303F050FF0F48049A0F49FDF7A3
:106F800082FA04A803F016FC636973B100F012FEE4
:106F90002369C01A6369984207D300F00BFE4FF0D3
:106FA000FF3120612046FFF7C3FB09B0F0BD00BFF1
:106FB0009CE2032030E60320F8E403202FCA0D00F2
:106FC000014B024A1A607047F8E4032045CA0D00DD
:106FD000704710B51021044604F0AFFA204610BDEA
:106FE0000368C9B29B68184730B5034DC0E9022356
:106FF000C0E9005130BD00BF9CCA0D00406801F0DF
:1070000013BF10B50446006801F06FFF204610BDA5
:107010002DE9F0418AB004464068019001F05CFF20
:107020001E22002102A8A76804F09CFF0026EFB1F1
:1070300023681E2FB84628BF4FF01E08DD6802AA3D
:10704000434631462046A847054658B90A480B49E9
:107050003246FDF718FA01A8FFF7D3FF28460AB019
:10706000BDE8F081A7EB08074644E0E701A8FFF779
:10707000C8FF0125F2E700BFDCE5032068CA0D0068
:107080002DE9F7430446406801900D4616461F4619
:1070900001F022FFA7B1E168606841F0500101F002
:1070A000F9FE290A6068FFF79BFF29466068FFF731
:1070B00097FF6068002101F008FF48B1002400E05C
:1070C000012401A8FFF79DFF204603B0BDE8F0832F
:1070D000202F217B6068B84628BF4FF0200801238D
:1070E000424641F0500101F0BCFE04F0D1F90368C2
:1070F0001B6998474045E1DB06EB080904F0C8F935
:1071000003685B69984706F8010B4E45F6D1454484
:10711000A7EB0807BEE72DE9F74F0446406801904A
:107120000E4690461D4601F0D7FE4FF00109B9F119
:10713000000F2AD04DB3E168606841F0500101F0C2
:10714000A9FE310A6068FFF74BFF60683146FFF720
:1071500047FFA5F11E0A4746A6EB080B606817F823
:10716000011B0368013D9B68984755450BEB0706DB
:10717000B84601D0002DF1D16068012101F0A5FED3
:107180000028D7D04FF00009D1E701A8FFF739FF59
:10719000484603B0BDE8F08F2DE9F0438BB00E46B2
:1071A00015468046406801901C4601F095FEAE42AF
:1071B00029D2264425448CB11E2C2746D8F800300D
:1071C00028BF1E27F61BD3F8089002AA3B4631467B
:1071D0004046ED1BC84748B9002400E0012401A83F
:1071E000FFF70FFF20460BB0BDE8F083D8F8003062
:1071F00002AAD3F80C9029463B464046C8470028CF
:10720000EAD0E41BD7E7E9D9002CE7D0D8F8003062
:107210001E2C274628BF1E27D3F8089002AA3B46FB
:1072200031464046C8470028D6D0D8F8003002AAD8
:10723000D3F80C9029463B464046C8470028CBD09F
:107240003E443D44E41BDFE70368C9B29B6818472E
:1072500001757047F8B507460C4615461E4604F002
:1072600017F9397D01F012FE04F012F92146FFF7FB
:10727000EBFF0024A64207DD04F00AF90368295D4C
:107280009B6898470134F5E704F002F9BDE8F8403F
:1072900001F01FBE07B501238DF807200DF107028D
:1072A000FFF7D8FF03B05DF804FB38B504460D4680
:1072B00004F0EEF8217D01F0E9FD04F0E9F829463B
:1072C000FFF7C2FF04F0E4F8002101F0FEFD08B171
:1072D000002038BD04F0DCF8217D012201F0D3FD4F
:1072E0000128F5D104F0D4F803685B699847C0B26F
:1072F000EFE738B50D460E210446FFF7D6FF20F024
:10730000030242EA95022046D2B2BDE838400E217F
:10731000FFF7C0BF38B50D462A210446FFF7C5FF69
:1073200020F0300242EAC5022046D2B2BDE8384021
:107330002A21FFF7AFBF1C21FFF7B7BF08B52221F5
:10734000FFF7B3FF03064CBF00F07F00002008BD2D
:1073500010B511210446FFF7A8FF40F04000C2B26B
:1073600011212046FFF796FF20465022BDE810402D
:107370001221FFF78FBF10B52A210446FFF795FFB2
:107380002A2100F0FE022046BDE81040FFF782BF30
:1073900010B52A210446FFF788FF40F00100C2B271
:1073A0002A212046BDE81040FFF774BF10B50446FF
:1073B000FFF7E1FF204655222121FFF76BFF204612
:1073C00001222321FFF766FF204601222421FFF737
:1073D00061FF204601222521FFF75CFF2046FF22A6
:1073E0002621FFF757FF204664222721FFF752FF8F
:1073F0002046FF222821FFF74DFF204602222C21A4
:10740000FFF748FF204619222D21FFF743FF2046B2
:1074100001222E21FFF73EFF2046BDE81040FFF776
:10742000B7BF38B541751546044604F031F801F090
:10743000FBFC0D212046FFF738FF2A2812D12046F9
:10744000FFF799FF617D2046FFF753FF294620464D
:10745000FFF760FF2046FFF77BFF2046FFF798FF0E
:10746000012038BD0020FCE7012A034602D101605B
:1074700000207047022A04BFD1E90001C3E90001DE
:10748000F6E710B5012303748368044643B1C0686E
:107490009847012363740020BDE8104000F052BB00
:1074A00000680028F5D083680BB904F04CF8C36875
:1074B000EEE710B442680346541001EB6200D207B5
:1074C00048BF0A591B685DF8044B48BFD35818479A
:1074D0000123F7B580F829300646083000F0F2FAAB
:1074E0000420FCF7D8FD054698B31B49142004F08E
:1074F00026F830B10023C0E90033C0E90233037439
:1075000043742860A0B1154B1549C0E902364FF409
:107510000063CDE900030222124B043000F09AFA16
:1075200030B92B681B7CA3B9012000F033FBF8E7CE
:107530002C6800232B6064B1276837B13846FCF70C
:10754000F9FE1021384603F0F8FF1421204603F01D
:10755000F4FF756003B0F0BDA0CE0D006F770D0095
:10756000B0CA0D0083740D0047F23051084AC16063
:10757000084902600022C0E904120749C1610749B5
:107580004260C0E908228161028580F82A207047A4
:1075900074CB0D00D9780D00B3740D0069740D0023
:1075A00010B5044B044640F8103BFCF7C3FE2046E0
:1075B00010BD00BF74CB0D0010B5034B0360044633
:1075C000FFF7EEFF204610BD9CCB0D0010B5044622
:1075D000FFF7F2FF2046382103F0AFFF204610BD31
:1075E000806800F077BA806800F07CBA10B5044675
:1075F0000068FFF7F8FF204610BD13B50446019060
:10760000FFF7EEFFE36ADC88A4B20CB103F10804D3
:1076100001A8FFF7EBFF204602B010BD13B50446EA
:107620000190FFF7DDFF94F8283043B9E26A0124A6
:10763000D38001A8FFF7DAFF204602B010BD002476
:10764000F7E713B504460190FFF7CAFFE36A01A804
:10765000DC88FFF7CBFF204602B010BD2DE9F047D4
:10766000994686B090F829309DF838A09DF83C8066
:1076700004460F46164613B903689B689847314B7A
:107680003846002E08BF1E4604F0DFFC0546304693
:1076900004F0DBFC284400F10A05AB071CBF25F011
:1076A000030504353346CDE90285CDE9009A264924
:1076B00026483A46FCF7E7FE238E083BAB4212D23F
:1076C0000024204606B0BDE8F087CB88012B36D0D9
:1076D00005A8FFF78BFF236894F828109B692046C4
:1076E00098470028ECD020460594FFF779FFE16A1F
:1076F000228E636B0A44D21AAA42E6D348EA0A08E9
:1077000083F80480C3F80090636B03F108083946DE
:10771000404604F074FC404604F097FC01303146CA
:10772000404404F06CFC636BE26A1D446563D388DB
:107730000133D380012405A8FFF758FFC1E70024D7
:10774000F9E700BF1DCD0D00C2CA0D0000E5032002
:1077500008B5044600F11005A3690BB903F0F3FE68
:10776000E36921462846984700F07CF9F4E708B51C
:10777000FFF7EEFF68B501F108050646284604F05C
:1077800064FC01300544284604F05FFCF36A0130D4
:107790002844C31A13F003031CBFC3F10403C01829
:1077A00068BDF7B504460E460190FFF719FFE76A7A
:1077B000FB8807F10805E6B1012B22D929462046AE
:1077C000FFF7D8FF054629462046FFF7D3FF228E54
:1077D0003A44121A0146A0EB050602D0284604F0EE
:1077E000A7FB636B9B1B6363FB88013BFB8001264C
:1077F00001E0002BE7D101A8FFF7F8FE304603B007
:10780000F0BD0026F7E700002DE9F0470D460446DD
:107810002F461646FFF7A8FE154B57F8082B236096
:10782000144BE5629A422686984617D1AB889BB2E4
:10783000B34213D105EB060A67634FF00009EB88EA
:107840001FFA89F29BB29A420ED2616B2046FFF773
:1078500091FF5045606309F10109F0D90023C5F893
:1078600000806763AE80EB802046BDE8F08700BFF4
:107870009CCB0D0061AB9CD110B5D1E9002386B043
:107880000021044604910AB9D90705D5CDE90223A0
:107890000F4B05930F4B049302AB93E803006A462A
:1078A00082E8030094E8030083E8030092E8030001
:1078B000049A84E80300A168A260059A049118461E
:1078C000E168E2600591FCF735FD204606B010BD89
:1078D000B3740D0069740D0007B5054B009369463C
:1078E000002310300193FFF7C7FF03B05DF804FBDE
:1078F00021790D0013B5044600F05CF9636AC01AE3
:10790000E368984208D3054B00936946002304F1CD
:1079100010000193FFF7B0FF02B010BD21790D00F8
:107920002DE9F04190F82A3086B00446002B64D14E
:1079300000F09CFB002860D000F03CF9636AC01A9C
:1079400040F2F133984258D9236820465B69984742
:107950000546002851D000F10807012384F828309B
:10796000384604F072FB95F80480CDF804800130AD
:107970002B682B4900933E1833462A483A46FCF7B9
:1079800082FD2B688DF800803246394602A800F04F
:107990008FFF029D6B781BB9012000F07FFCF8E798
:1079A000002000F0F1FA20B16B7813B900F04EFB23
:1079B000FAE72B78012B23D11B491A48FCF763FD0A
:1079C000236800219B6920469847002384F82830CB
:1079D00000F0F0F86062039C7CB16368013B636077
:1079E0005BB9236820469B689847A368013BA36066
:1079F0001BB923682046DB68984706B0BDE8F081D4
:107A0000E2680A490748FCF73EFD094B049304A9C4
:107A1000002304F110000593FFF72EFFD5E700BF08
:107A200003CB0D0000E5032024CB0D003BCB0D0064
:107A3000F5780D00014B024A1A60704700E50320FB
:107A400062CB0D0008B5024B1B685B6C019308BD4F
:107A50007402030008B5024B1B685B68019308BD04
:107A60004802030008B5024B1B68DB68019308BDA0
:107A70004802030008B5024B1B68DB69019308BD8F
:107A80004802030008B5024B1B681B6A019308BD3E
:107A90004802030008B5024B1B685B6A019308BDEE
:107AA0004802030008B5024B1B689B6A019308BD9E
:107AB0004802030008B5024B1B68DB6A019308BD4E
:107AC0004802030008B5024B1B681B6B019308BDFD
:107AD0004802030008B5024B1B689B6B019308BD6D
:107AE0004802030008B5024B1B681B6C019308BDDC
:107AF0004802030008B5024B1B685B6C019308BD8C
:107B00004802030008B5024B1B689B6C019308BD3B
:107B10004802030008B5024B1B68DB6C019308BDEB
:107B20004802030008B5024B1B685B6D019308BD5A
:107B30004802030008B5024B1B689B6D019308BD0A
:107B40004802030008B5024B1B68DB6E019308BDB9
:107B50004802030008B5024B1B681B6F019308BD68
:107B60004802030008B5024B1B685B6E019308BD19
:107B70003402030008B5024B1B68DB6E019308BD9D
:107B80003402030008B5024B1B685B68019308BD13
:107B90001802030008B5024B1B689B68019308BDDF
:107BA0001802030008B5024B1B68DB68019308BD8F
:107BB0001802030008B5024B1B685B69019308BDFE
:107BC0001802030008B5024B1B689B6D019308BDAA
:107BD0001802030008B5024B1B68DB6D019308BD5A
:107BE0001802030008B5024B1B685B6E019308BDC9
:107BF0001802030008B5024B1B689B6E019308BD79
:107C00001802030008B5024B1B681B68019308BDEE
:107C10002C02030008B5024B1B685B68019308BD8A
:107C20002C02030008B5024B1B689B68019308BD3A
:107C30002C02030008B5024B1B68DB68019308BDEA
:107C40002C02030008B5024B1B681B69019308BD99
:107C50002C02030008B5024B1B685B69019308BD49
:107C60002C02030008B5024B1B689B69019308BDF9
:107C70002C02030008B5024B1B68DB69019308BDA9
:107C80002C02030008B5024B1B681B6B019308BD57
:107C90002C02030008B5024B1B68DB68019308BD8A
:107CA0002802030008B5024B1B689B69019308BDBD
:107CB0002802030008B5024B1B68DB69019308BD6D
:107CC0002802030008B5024B1B681B6A019308BD1C
:107CD0002802030008B5024B1B685B6A019308BDCC
:107CE0002802030008B5024B1B689B6A019308BD7C
:107CF0002802030008B5024B1B68DB6A019308BD2C
:107D00002802030008B5024B1B681B6B019308BDDA
:107D10002802030008B5024B1B685B6B019308BD8A
:107D20002802030008B5024B1B681B6C019308BDB9
:107D30002802030008B5024B1B689B6C019308BD29
:107D40002802030008B5024B1B68DB6C019308BDD9
:107D50002802030008B5024B1B681B6D019308BD88
:107D60002802030008B5024B1B685B69019308BD3C
:107D70006402030008B5024B1B689B68019308BDB1
:107D80006802030008B5024B1B68DB68019308BD5D
:107D90006802030008B5024B1B68DB69019308BD4C
:107DA0003002030008B5024B1B681B6A019308BD33
:107DB0003002030008B5024B1B681B68019308BD25
:107DC0003C02030008B5024B1B689B68019308BD89
:107DD0003C02030008B5024B1B68DB68019308BD39
:107DE0003C02030008B5024B1B681B69019308BDE8
:107DF0003C02030008B5024B1B685B69019308BD98
:107E00003C02030008B5024B1B689B69019308BD47
:107E10003C02030008B5024B1B68DB69019308BDF7
:107E20003C02030008B5024B1B681B6A019308BDA6
:107E30003C02030008B5024B1B689B6A019308BD16
:107E40003C02030008B5024B1B68DB6A019308BDC6
:107E50003C02030008B5024B1B681B68019308BD78
:107E60004C02030008B5024B1B685B68019308BD18
:107E70004C02030008B5024B1B689B68019308BDC8
:107E80004C02030008B5024B1B681B69019308BD37
:107E90004C02030008B5024B1B685B69019308BDE7
:107EA0004C02030008B5024B1B689B69019308BD97
:107EB0004C02030008B5024B1B68DB69019308BD47
:107EC0004C02030008B5024B1B681B6A019308BDF6
:107ED0004C02030008B5024B1B685B6B019308BDA5
:107EE0006002030008B5024B1B681B6D019308BDBF
:107EF0006002030008B5024B1B685B6D019308BD6F
:107F00006002030008B5024B1B68DB6E019308BDDD
:107F10006002030008B5024B1B681B6F019308BD8C
:107F20006002030008B5034B1B68D3F89830019337
:107F300008BD00006002030008B5024B1B681B6807
:107F4000019308BD2002030008B5024B1B685B6863
:107F5000019308BD2002030008B5024B1B685B6952
:107F6000019308BD2002030008B5024B1B681B6A81
:107F7000019308BD2002030008B5024B1B68DB6AB1
:107F8000019308BD2002030008B5024B1B68DB6C9F
:107F9000019308BD2002030008B5024B1B685B6D0E
:107FA000019308BD2002030008B5024B1B689B6DBE
:107FB000019308BD2002030008B5024B1B68DB6D6E
:107FC000019308BD2002030008B5034B1B68D3F8DA
:107FD0008830019308BD00002002030008B5034B60
:107FE0001B68D3F89430019308BD00002002030001
:107FF00008B5034B1B68D3F8A830019308BD0000F7
:108000002002030008B5034B1B68D3F8AC30019382
:1080100008BD00002002030008B5034B1B68D3F81D
:10802000B030019308BD00002002030008B5024BE8
:108030001B681B68019308BD4402030008B5024B8E
:108040001B685B68019308BD4402030008B5024B3E
:108050001B689B68019308BD4402030008B5024BEE
:108060001B68DB68019308BD4402030008B5024B9E
:108070001B685B69019308BD4402030008B5024B0D
:108080001B68DB69019308BD4402030008B5024B7D
:108090001B681B6A019308BD4402030008B5024B2C
:1080A0001B685B6A019308BD4402030008B5024BDC
:1080B0001B68DB6A019308BD4402030008B5024B4C
:1080C0001B681B6B019308BD4402030008B5024BFB
:1080D0001B685B6B019308BD4402030008B5024BAB
:1080E0001B689B6B019308BD4402030008B5024B5B
:1080F0001B68DB6B019308BD4402030008B5024B0B
:108100001B685B6C019308BD4402030008B5024B79
:108110001B685B68019308BD4002030008B5024B71
:108120001B689B68019308BD4002030008B5024B21
:108130001B68DB68019308BD4002030008B5024BD1
:108140001B681B69019308BD4002030008B5024B80
:108150001B685B69019308BD4002030008B5024B30
:108160001B689B69019308BD4002030008B5024BE0
:108170001B68DB69019308BD4002030008B5024B90
:108180001B681B6A019308BD4002030008B5024B3F
:108190001B681B6B019308BD4002030008B5024B2E
:1081A0001B685B6B019308BD4002030008B5024BDE
:1081B0001B681B6C019308BD4002030008B5024B0D
:1081C0001B685B6C019308BD4002030008B5024BBD
:1081D0001B681B68019308BD1C02030008B5024B15
:1081E0001B685B68019308BD1C02030008B5024BC5
:1081F0001B689B68019308BD1C02030008B5024B75
:108200001B681B69019308BD1C02030008B5024BE3
:108210001B68DB69019308BD1C02030008B5024B13
:108220001B685B6A019308BD1C02030008B5024B82
:108230001B68DB6A019308BD1C02030008B5024BF2
:108240001B681B6B019308BD1C02030008B5024BA1
:108250001B685B6C019308BD1C02030008B5024B50
:108260001B689B6C019308BD1C02030008B5024B00
:108270001B68DB6C019308BD1C02030008B5024BB0
:108280001B681B6D019308BD1C02030008B5024B5F
:108290001B685B6D019308BD1C0203000021FFF702
:1082A0005BBE10B5836804460BB903F04CF9C36894
:1082B0009847A3681BB103222146204698472046D1
:1082C0001021BDE8104003F038B910B5036804462A
:1082D0009B689847A368013BA3602BB9236820469D
:1082E000DB68BDE81040184710BD10B504460068B3
:1082F00008B1FFF707FC204610BD0B68036013B1FF
:108300005A6801325A60704710B50446006828B1B7
:108310004368013B43600BB9FFF7D7FF204610BD10
:1083200010B5064C002320462360FFF7E3FB2046F0
:10833000034A0449BDE8104003F0FAB804E50320FD
:1083400010E30320EB820D00002240681146FFF786
:10835000F5BE002240681146FFF710BF00224068BA
:108360001146FFF71BBF40680022FFF70FBF4068B0
:10837000002281F00101FFF7F9BE002340681A4690
:108380001946FFF7E3BE002240681146FFF7C6BE5C
:10839000406800220221FFF7C9BE002340681A4648
:1083A000FFF7B4BEF0B51B4B036000250F46283322
:1083B0001826C0E9025589B0436032462946044672
:1083C000103003F0CFFD78682A462946FFF7B6FE45
:1083D00018B9A060204609B0F0BD2946324602A86F
:1083E000CDE9005503F0BEFD02A96846ADF808606E
:1083F000FFF728FB10B10123A360EBE7009B019A74
:10840000A360E2600BB90223A36002A9204600F03A
:10841000AEF8DFE700CC0D00084B10B5282422464B
:108420001846002103F09EFD054B04804FF0FF32FB
:10843000426004225A60034A1A6010BD10E503200E
:1084400008E50320C4CB0D007047007D704710B5D0
:108450002821044603F071F8204610BD037D7BB14E
:10846000C369002B0CDB07EE903A9FED077AF8EE1C
:10847000E77A87EE870ADFED057A20EE270A704754
:10848000BFEE000A704700BF00FF7F470000C842F0
:10849000037D63B18369B3F1004F08D007EE903AD2
:1084A0009FED047AF8EEE77A87EE870A70479FED32
:1084B000020A70470000C84200000000037D7BB143
:1084C000436A002B0CDB07EE903A9FED077AF8EE3B
:1084D000E77A87EE870ADFED057A20EE270A7047F4
:1084E000BFEE000A704700BF00FF7F470000C84290
:1084F000037D63B1036AB3F1004F08D007EE903AF1
:108500009FED047AF8EEE77A87EE870A70479FEDD1
:10851000020A70470000C8420000000070B50C1E3F
:1085200006460ADA2D2102F0C8F8614205460A2201
:10853000304602F0D1F8284470BD21460025F6E708
:1085400070B50C46054681682046FFF7E7FF2C21F1
:108550000646204602F0B1F8E96806442046FFF7D7
:10856000DDFF304470BDA0F10400FFF7E9BF30B576
:108570000D4600F110040FCD0FC495E8030084E808
:108580000300012030BD70470020704710B5102156
:10859000044602F0D2FF204610BD08B5FFF7F6FFF3
:1085A00008BD30B500224FF69C74026084808D882F
:1085B0008C800C68858004600A6030BD10B504466C
:1085C0000068FFF70BFE204610BD38B5C468F4B153
:1085D0002378022B03D104F10C00FFF7EFFF65684D
:1085E00035B12846FBF7A6FE1021284602F0A5FF6C
:1085F000A56835B12846FBF79DFE1021284602F0FC
:108600009CFF20461421BDE8384002F096BF38BDDB
:1086100010B588B00446684602F017F9694604A808
:1086200002F05EF904A8A047044604A802F0C2F8CC
:10863000684602F0BFF8204608B010BD1FB5002301
:10864000CDE90201019210241A4669461846ADF898
:108650000230ADF80040FFF7F1FC04B010BD1FB5CB
:108660000C23ADF8043003688DF80630037A8DF8DA
:108670000730436802930021437AADF80D1001A83A
:108680008DF80F108DF80C30FFF738FD05B05DF850
:1086900004FB1FB50C22ADF8042002688DF80620FB
:1086A000027A8DF80720426802920023427A8DF800
:1086B0000C20194601AA0220ADF80D308DF80F30BC
:1086C000FFF70CFD05B05DF804FB73B50E460446DC
:1086D00056F8043B00930D4601A83146FFF70DFE06
:1086E000019A009B6260236001A80023019300931C
:1086F000FFF70AFE3046FFF707FE2846082102F082
:108700001CFF204602B070BD13B50B460246D0E9EF
:1087100000016C4684E8030093E8030082E803004C
:1087200094E8030083E8030002B010BD826810B52E
:108730000AB902F008FFBDE81040C368184708B541
:10874000006800F11001FFF7F1FF08BD826810B565
:108750000AB902F0F8FEBDE81040C368184708B532
:10876000006800F11001FFF7F1FF08BD38B50023E4
:108770000446036010200D46FBF78DFC28B1012351
:10878000C0E90133024B0360C5602060204638BD5C
:1087900034CC0D0038B5002383608B6804460D4649
:1087A0002BB102229847EB68E360AB68A3602046D8
:1087B00038BD0000F0B589B004686846FFF7F1FEE7
:1087C0004FF00203D4E84F2F002A03D1C4E8413F01
:1087D0000029F7D125D104F10C0569462846FFF799
:1087E000E0FEBFF35B8F01236370002004F10803F8
:1087F000BFF35B8F53E8006F43E80002002AF9D112
:10880000BFF35B8F6EB1FFF7BFFB78B129463046EF
:10881000FFF78CFF3046FBF78DFD1021304602F04C
:108820008CFE6846FFF7CAFE09B0F0BD314602A8CB
:10883000FFF7B0FFE068B4F9105008B103F0E8FBAF
:1088400006901020ADF81C50FBF725FC0546E8B15A
:10885000002787601820FBF71EFC044688B10146FC
:10886000876002A8FFF750FF049BA268A360059BE6
:10887000049206A9E268E36004F110000592FFF794
:1088800090FE084BEB60084B2C60AB6006A8FFF72E
:1088900095FE02A8FBF74EFD002229460348FFF78C
:1088A0007BFBB7E73F870D00D5890D00A3820D0044
:1088B0002DE9F0478AB005469DF848900C461746CA
:1088C0009846FFF7D3FB07AE824638BB4FF62E73B0
:1088D000059005A93046ADF81830FFF762FE142068
:1088E000FBF7D9FB044648B1022303700123C0E91A
:1088F00001AA437031460C30FFF753FE284621464B
:1089000040F8044BFFF732FF3046FFF757FE05A84B
:10891000FFF754FE28460AB0BDE8F0870C234FF05D
:10892000000A1420CDE908AA0793FBF7B4FB01461F
:1089300028B1C0E901AA80F800A080F801A004A82D
:108940000391FFF713FF224B08930820FBF7A3FBCB
:10895000824628B1039B40F8043B04A9FFF7CDFCF5
:1089600000965FFA89F3424639462046CDF824A0A6
:10897000FFF78CFBB8B9039B5B7803F0FF0293B958
:108980004FF69C7305A903A80592ADF81830FFF7C0
:1089900011FF05A8FFF712FE05A80999FFF795FE3C
:1089A00006A8FFF7B1FC039B059304A906A8FFF7EF
:1089B000A4FC059B069A2B606A60002306A8069318
:1089C0000593FFF7A1FC04A8FFF79EFCA2E700BFF8
:1089D000998A0D00022AF8B5054607D0032A18D057
:1089E000012A01D10B6803600020F8BD18200E6831
:1089F000FBF751FB044650B13146FFF7CBFE30691F
:108A0000B6F9147008B103F003FB2061A7822C6053
:108A1000EAE70468002CE7D004F11000FFF7CEFD70
:108A20002046FBF787FC1821204602F086FDDBE795
:108A300038B5002383608B6804460D462BB10222B3
:108A40009847EB68E360AB68A360204638BD022A14
:108A500070B5044607D0032A12D0012A01D10B6851
:108A60000360002070BD14200E68FBF714FB054660
:108A700020B13146FFF7DCFF337C2B742560F0E733
:108A80000468002CEDD02046FBF754FC142120464E
:108A900002F053FDE5E70000F0B589B004460D464D
:108AA00001A81146FFF711FEA4B124B21DB128465A
:108AB00003F0AEFA054601A803A90395ADF81040EE
:108AC000FFF778FE03A8FFF779FD02A8FFF71CFC6B
:108AD00009B0F0BD019D0123D5E84F2F002A03D135
:108AE000C5E8413F0029F7D1EFD12B73BFF35B8F6E
:108AF0006B702B1DBFF35B8F53E8006F43E80042A0
:108B0000002AF9D1BFF35B8F002EDED02046FFF79D
:108B10003BFA074660B105F10C013046FFF716FE3F
:108B20003046FBF707FC1021304602F006FDCCE78B
:108B3000314603A8FFF77CFF2B7B8DF81C301020FB
:108B4000FBF7A9FA0546D0B187601420FBF7A3FA1A
:108B5000044678B18760014603A8FFF7D5FD059B61
:108B6000A268A360069B0592E268E3609DF81C3052
:108B700006922374064BEB60064B2C60AB6003A897
:108B8000FBF7D8FB002229460348FFF705FAC7E7A1
:108B90005F870D004F8A0D00A3820D000022406800
:108BA0001146FFF7EBBA002240681146FFF7F6BA0C
:108BB00040680022FFF7EABA4068002281F0010114
:108BC000FFF7D4BA002340681A461946FFF7C6BA21
:108BD000002340681A461946FFF7B8BA00224068D9
:108BE0001146FFF7ABBA002240681146FFF796BA6C
:108BF000406800220221FFF799BA002340681A4614
:108C0000FFF784BA024B03225A60024A1A60704787
:108C100038E5032050CC0D00006800F05DB910B5B8
:108C20000446016002710AB1FFF7F6FF204610BD4D
:108C300013B50446019102F053FC019A0146204607
:108C4000FFF7EDFF204602B010BD006800F04DB9FF
:108C500010B5037904460BB1FFF7F7FF204610BDAE
:108C60002DE9FF4104460D4617461E46FFF7D4FF87
:108C700036238DF800300023206801934FF001085F
:108C80000A23694603938DF8088000F006F92068EE
:108C9000036829469B6898472068414600F015F90B
:108CA000054640B16FF09F052046FFF7CEFF2846EE
:108CB00004B0BDE8F081022320680193694600F00A
:108CC000B9F80228EED1206803685B6998473870CC
:108CD000206803685B6998473070E5E713460A46E9
:108CE0000C21FFF7BDBF2DE9FF41164604461D4686
:108CF0000F46FFF791FF36238DF8003000232068E0
:108D000001934FF001080A23694603938DF8088008
:108D100000F0C3F82068036839469B6898472068CC
:108D2000036831469B6898472068036829469B681A
:108D300098474146206800F0C8F8002820460CBF3C
:108D400000256FF09F05FFF780FF284604B0BDE8BF
:108D5000F08108B5402200230621FFF7C4FF00EA96
:108D6000E07008BD37B50546FFF756FF00230DF14B
:108D700007020DF1060128468DF806308DF8073000
:108D8000FFF7ACFF041E0BDB9DF807309DF80620B3
:108D900003F07F030C212846FFF7A5FF00EAE074EB
:108DA0002846FFF752FF204603B030BD7047F8B5A4
:108DB000064615460C468F18BC4206D0336814F898
:108DC000011B9B6830469847F6E72846F8BD007CB3
:108DD0000022FEF777BF007C0021FEF77BBF007CFE
:108DE0000021FEF77FBF007C0021FEF783BF007CDF
:108DF0000021FEF787BF10B51421044602F09DFB49
:108E0000204610BD10B54FF47A7304460846002181
:108E1000C4E90113034B236020741146FEF782FF5F
:108E2000204610BD8CCC0D000023007C1A4619464C
:108E3000FEF730BF7FB500221423CDE90122ADF843
:108E400004300B788DF808304B680393CB6804939B
:108E5000007C0B7A059301A9FEF77CFF07B05DF853
:108E600004FB1FB5003B8DF800104FF06401039127
:108E700018BF0123694601928DF80830FFF7DAFF29
:108E800005B05DF804FB0123FFF7EBBF007C002277
:108E9000FEF708BFC9B2FFF7F9BF7FB50023CDE9E0
:108EA00001334A6803921423CA68ADF804300B7882
:108EB00004920A7A0592007C8DF8083001AA1946BE
:108EC000FEF7F0FE07B05DF804FB007C0022FEF721
:108ED000F1BE0121FFF7F9BF08B50021007CFEF7C4
:108EE00029FFB0FA80F0400908BD08B50021007CD8
:108EF000FEF728FFB0FA80F0400908BD00470000E7
:108F00002DE9FF4100241D460F4690460646FEF718
:108F1000B1FEA5424FF00403ADF80D408DF80C30C2
:108F20008DF80F40A2BF9DF828308DF80E3003ACAD
:108F30000749009443463A463046A8BF8DF80D5085
:108F4000FEF790FEB0FA80F0400904B0BDE8F08171
:108F5000FD8E0D00F8B50446FEF78CFE054670B98F
:108F6000084F57F8246046B13046FBF7E3F910216B
:108F7000304602F0E2FA47F82450012000E00020D9
:108F8000F8BD00BF40E50320704710B51821044626
:108F900002F0D3FA204610BDF0B5037D062B8DB04C
:108FA0000E4600F104074FF0000412D000F108054E
:108FB00015F8011D0A22304601F08EFBAF42044431
:108FC00019D0002CF4D02E21304601F076FB044459
:108FD000EEE72F236A4639460A208DF80040FEF757
:108FE000C1FE684603F031F833680246DB68694623
:108FF00030469847044620460DB0F0BD10B5054BED
:109000000446112240F8043B002102F0ABFF204649
:1090100010BD00BFB4CC0D000346074A10B543F89D
:10902000042B01F1100251F8044B43F8044B914218
:10903000F9D10A781A7010BDB4CC0D0010B59DF8A6
:10904000084044EA032343EA024242EA016104235E
:109050004160037510BD13B5CB7800938B784A78C7
:109060000978FFF7EBFF02B010BD00F110030122F9
:1090700013F8101C0129184608D153F8041C02EB00
:109080004102013A03F11003F2D17047022904BFF3
:1090900053F8041C5218F4E70EB4F0B588B000AFD2
:1090A00007F13405102155F8042B7A6004462B464D
:1090B0007818FD60FFF7B2F80F287A681AD900F126
:1090C000080323F007036E46ADEB030D411C2B464E
:1090D0006846FD60FFF7A2F8021E04DD23686946BA
:1090E0009B6820469847B5462037BD46BDE8F0400E
:1090F00003B070470028F7D0236802469B6807F149
:10910000100120469847EFE710B5036804469B68B6
:109110009847A368013BA3602BB923682046DB680E
:10912000BDE81040184710BD07B503688DF807105B
:109130009B6801220DF10701984703B05DF804FB1D
:1091400038B50B6803604D6843689D4204460CD0F7
:1091500015B16B6801336B60606828B14368013BEF
:1091600043600BB9FFF7D0FF6560204638BD0B4662
:109170001146002210B5C0E90022044683600BB9F5
:10918000204610BDFFF7DCFFFAE78368EBB11A78E1
:10919000032A1AD8DFE802F00417021B05207047E3
:1091A00002685B685268D05C2D2812D0A0F13003B1
:1091B000092B0ED974280ED066280CD0A0F16E03AE
:1091C00058425841704706207047002070470420DD
:1091D0007047032070470220704710B50446FFF720
:1091E000D4FF02280ED0C31EDBB2012B14D8226894
:1091F000A36850685B68BDE810400A22002118444B
:1092000002F0DEBF2268A36852685B68D05CA0F100
:1092100074035842584110BD0020FCE738B50023C4
:10922000C0E9003304460E48C4E90203A9B10B7833
:10923000032B06D08BB9136858684B68C35C6E2B40
:1092400007D013684D6858688B6828445B1BA06082
:10925000E36011462046FFF773FF204638BD00BF8C
:109260001DCD0D0038B500250B46C0E90055C0E9FD
:109270000255C0E90455044611464BB11A78012A3B
:1092800006D103F11002DB6882604361FFF758FFEB
:10929000204638BD10B54369044663B18068E0607C
:1092A000013B1030A0602061636113B1FFF7DDFE68
:1092B000A060012000E0184610BD10B57D210446D5
:1092C000FFF732FF01232371204610BD08B5037953
:1092D000012B02D0022B04D008BD2C21FFF724FF64
:1092E000FAE73A21FAE710B50446FFF7EFFF204608
:1092F0007B21FFF719FF00232371204610BD0000DA
:1093000013B504460191FFF7E1FF2368019ADB687A
:1093100003492046984701232046237102B010BD1F
:10932000A0C80D0013B504460191FFF7CFFF2368D5
:10933000019ADB68034920469847012320462371A0
:1093400002B010BD8FCA0D002DE9F0410D46174641
:109350002221DFF8A08004462F44FFF7E5FE2946CE
:10936000BD422A4638D015F8016B222E03D05C2E60
:1093700001D01F2EF4D82368521A9B6820469847C4
:109380005C212046FFF7D0FE0D2E0AD8072E1CD9EF
:10939000A6F10803052B18D8DFE803F00D0F11170D
:1093A0001315222E01D05C2E0FD131462046FFF737
:1093B000BBFE2946D4E76221F8E77421F6E76E2167
:1093C000F4E76621F2E77221F0E723683246DB68B2
:1093D000414620469847ECE78D4204D023686A1A3C
:1093E0009B682046984722212046FFF79DFEBDE856
:1093F000F08100BFC0CC0D0013B50446CDE90021BB
:10940000FFF764FF2046DDE90021FFF79DFF0223FF
:109410002046237102B010BD13B50446CDE90021EA
:10942000FFF754FF2046DDE90021FFF78DFF012300
:109430002046237102B010BD80680368DB681847BE
:109440007047084611B10B685B6818477047704752
:109450007047704738B504460D4600682E2102F06B
:10946000BAFD2368C31A2B6023B1037803B101301E
:1094700023682060184638BD10B50C21044602F060
:109480005CF8204610BD10B50421044602F055F8E2
:10949000204610BD10B50421044602F04EF82046C7
:1094A00010BD08B502F0A1FDB0FA80F0400908BD7A
:1094B00010B50C4601F056FE844210D001F0C6FDF6
:1094C000844205D101F0C2FDBDE8104001F0BBBDF2
:1094D0002CB1236820465B68BDE81040184710BDDA
:1094E00013B504460846019102F0AFFD019902460A
:1094F000204602B0BDE81040FFF78EBF13B504460A
:109500000846019102F0A1FD23680199DB6802463B
:10951000204602B0BDE81040184707B503688DF833
:109520000710DB6801220DF10701984703B05DF8D1
:1095300004FB0EB403B503AB002153F8042B006AFF
:10954000019301F0E7F802B05DF804EB03B0704757
:109550002DE9F74FD0E900954FF0140808FB05F509
:109560000093AB10184D17465D434C46002D23DD8C
:109570006E1008FB06F004EB000A3A46BAF804B095
:10958000205801915F4528BF5A4602F066FD0199B7
:10959000012378B95F4503D1009A13703546E5E79A
:1095A0008CBF012000200028F8D0AE1B0AF1140463
:1095B000013EF3E7C00FF6E7A4EB09040248A4104C
:1095C000604303B0BDE8F08FCDCCCCCC7FB5036950
:1095D000067E01910BB301B3002500F10C04039545
:1095E00003A901A8FFF736FF0146B0B10DF10B0347
:1095F000039A8DF80B502046FFF7AAFF9DF80B3019
:109600005BB12468142303FB004000F10804B0F9A7
:109610000630002BA8BFDEB2E2E7304604B070BDD2
:1096200010B50A4C2378BFF35B8FDB070BD42046C1
:10963000FAF742FD38B12046FAF743FD044A0549DE
:10964000054801F075FF044810BD00BFD4E50320B4
:1096500010E3032051940D0094E2032010B50A4C4E
:109660002378BFF35B8FDB070BD42046FAF724FD8A
:1096700038B12046FAF725FD044A0549054801F0AE
:1096800057FF044810BD00BFD8E5032010E30320B6
:109690004F940D0098E2032038B500250446C0E938
:1096A0000055C0E904558560856140F8245FFEF7E8
:1096B00021FAFFF7B5FFE061FFF7D0FF25732062C5
:1096C000204638BD10B50B4C2378BFF35B8FDB070A
:1096D0000ED42046FAF7F0FC50B10748FFF7DCFF44
:1096E0002046FAF7EEFC054A0549034801F020FF41
:1096F000014810BDD0E50320E0E5032010E303207E
:10970000599B0D00024A034903480023FEF702BC9F
:10971000359A0D00C1990D0041990D0000231A469C
:1097200019461846FEF7F6BB37B50D6951F8043BEC
:109730000093044601A8FEF7E0FD6A46294620464C
:10974000FFF715FD01A8FEF7DFFD204603B030BD91
:1097500037B58D6851F8043B0093044601A8FEF725
:10976000CCFD6A4629462046FFF77CFD01A8FEF79E
:10977000CBFD204603B030BD37B5CD6851F8043B72
:109780000093044601A8FEF7B8FD6A462946204624
:10979000FFF744FD01A8FEF7B7FD204603B030BD3A
:1097A00070B58AB00D46014604A8FFF7D1FF144EEC
:1097B00004A8FFF76FFDE8B104A96846FFF7DCFFD6
:1097C00002983146FFF76DFE044610B12C1E18BFFB
:1097D000012401A8FEF798FD002CE9D004A96846F1
:1097E000FFF7A2FF6846FFF7F8FC286001A8FEF724
:1097F0008BFDDDE705A8FEF787FD0AB070BD00BF51
:10980000C6CC0D0037B50C4620461249154602F06D
:10981000ECFB48B901F0A6FC4FF4165101F092FCA4
:1098200001F0A0FC03B030BD0B49204602F0DDFB87
:1098300070B94FF4165301A928460193FFF7B0FF02
:1098400001F004FC019901F0FBFB01F0FFFBE9E7EB
:109850000020E7E7CBCC0D00D2CC0D0070B5D0E9ED
:1098600000531426044606FB0356AE4205D005F10C
:109870000800FFF7F3FF1435F7E72068FEF7AEFCAA
:10988000204670BD70B5D0E90053044605EB0316C1
:10989000AE4204D0284600F08DFF1035F8E720686E
:1098A000FEF79CFC204670BD10B504460C30FFF757
:1098B000D5FF2046FFF7E6FF204610BD10B5044B4C
:1098C000044640F8043BFFF7EFFF204610BD00BF01
:1098D0004CC70D0010B50446FFF7F0FF20462421C9
:1098E00001F02BFE204610BD10B5034B036004466B
:1098F000FFF7E4FF204610BD6CCD0D0010B5044607
:10990000FFF7F2FF2046242101F017FE204610BD8C
:109910000022C0E9002210B582600C6804604C6827
:1099200044608C680A604A6084608A6010BD10B52B
:10993000036804461868FEF7F5F8204610BD0000DD
:109940002DE9F04F87B0804603931C4B5B68C3F34F
:109950000803894616466BB9FFF7B4FE044600F1CA
:109960002403406A0593FEF7D5F8237B2BB105A8A5
:10997000FFF7DDFF07B0BDE8F08F01232373D4E9C3
:1099800000535FFA89F905EB830AAA4512D055F80E
:10999000047B3146381DFFF719FE8145F5D33B683E
:1099A000039A0092D3F808B04A46334641463846F7
:1099B000D847EAE700232373D9E700BF00ED00E0B2
:1099C0002DE9F74F9B461A4B5B68C3F308038046AB
:1099D000894616466BB9FFF775FE044600F124036D
:1099E000406A0193FEF796F8237B2BB101A8FFF79D
:1099F0009EFF03B0BDE8F08F01232373D4E9005329
:109A0000F6B205EB830A55450ED055F8047B59464E
:109A1000381DFFF7DBFD8642F5D33B684A46DB681D
:109A2000414638469847EEE700232373DEE700BF40
:109A300000ED00E02DE9F341164B5B68C3F308032A
:109A400005460F461BBBFFF73DFE00F1240304460D
:109A5000406A0193FEF75EF8D4E90063462406EB02
:109A60008308B04509D101A8FFF761FFA542B4BF43
:109A70000020012002B0BDE8F08156F8040B394601
:109A80000430FFF7A3FD8442A8BF0446E9E70020A5
:109A9000F0E700BF00ED00E070B50446D0E9000239
:109AA0000B4600EB8202824207D001461D6851F846
:109AB000046BAE4203D00846F5E7002070BD521A91
:109AC00002F036FA6368013B63600120F6E71FB5D8
:109AD00000F124030446406A01910393FEF71AF84B
