:02000002D0002C
:1040000000400D0044DA0D00000006000D0005011F
:08401000040135080000000066
:04401800C4C20D0011
:1040200009480A49884208B505D0094A824202D0A7
:10403000121A07F0E7FF0748074A0021121A08F092
:1040400009F8014808BD00BFD8E10320E4D80D00FD
:104050000CE3032010E30320F8E7032070B5074EBC
:10406000074C07F081F9A41BA4080025A54200D144
:1040700070BD56F8043B98470135F7E7A8D00D000E
:10408000D8D00D0001F028B908B501F0E7FDBDE872
:10409000084007F02BB904F005B904F003B904F0A7
:1040A00009B9000008B5034A00210C2003F07EFF87
:1040B000FEE700BF7D7C0D000078B0FA80F040097B
:1040C00070470123037070477047006A0368DB681C
:1040D00018470000014B1A60704700BF18E2032028
:1040E00003681847012A03D0022A03D00020704732
:1040F0000160FBE70B680360F8E70021072007F089
:10410000CCB9000010B5054B1A7B054B044653F89B
:10411000221006F012FC204610BD00BFBCE40320B4
:10412000D8E1032038B50446006928B185680C2120
:1041300007F07BFA2846F8E7204638BD094B0122F4
:104140001A70094B53E8002F013243E8002100297F
:10415000F8D1064B53E8002F013243E80021002933
:10416000F8D17047B0E4032034E4032014E40320C2
:1041700008B5044906F037FC18B1034B06221A7043
:10418000012008BD1CC30D00B1E40320436913B135
:1041900083690C301847704710B5034B0360044621
:1041A00003F076FA204610BD44C80D0010B5044651
:1041B000FFF7F2FF2046382107F037FA204610BDFE
:1041C00010B5034B0360044602F056FF204610BDB5
:1041D00028C80D0010B50446FFF7F2FF2046102155
:1041E00007F023FA204610BD13B500210446084607
:1041F00003F0ACFC0023204601A9019303F0BEFCB0
:10420000019C0CB1012323710021012003F09EFCCD
:104210002CB1236820469B6898470023237102B085
:1042200010BD000008B50A4906F0DDFB002368B1A7
:10423000084A09491360936053615360074A0B6150
:104240001370074B01201870064B187008BD00BF93
:104250001CC30D00E4E30320BCE4032018E40320A6
:1042600008E40320ECE4032010B50446006818B10C
:1042700004F020F80023236010BD10B50446FFF7BA
:10428000F3FF204610BD08B5002003F083FF28B1DE
:1042900003F058FF80F00100C0B208BD0120FCE728
:1042A0000023042203F02EBF30B585B00346144628
:1042B00068460D4698470298206003F0F3FF286097
:1042C00050B12268009907F09DFE0024684606F070
:1042D000E9FA204605B030BD004CF7E7FCFEFFFFD1
:1042E0000A4B10B50446036005F064FA214605F058
:1042F00066FC06F0AFFF06F0A1FF2046044B40F835
:10430000043B05F049FB204610BD00BF10C80D005E
:10431000F8C70D0010B50446FFF7E2FF2046242140
:1043200007F083F9204610BD002340681A4619465D
:1043300003F080BF10B58368044613B10322014621
:104340009847204610BD000037B5134B0360044664
:104350008068C8B100256FF00043CDE90035022127
:104360002B462A4603F012FCA068294603F05EFCA7
:10437000237903F0FF0513B103F0E0FBF8E7A06831
:10438000294603F0F3FBA56004F10C00FFF7D2FF10
:10439000204603B030BD00BFE4C70D0010B5044691
:1043A000FFF7D2FF20461C2107F03FF9204610BD41
:1043B00038B5044620252A46002107F04BFE6571DA
:1043C000204638BDF8B5037D05460F4616468BB12D
:1043D0000368DB6883B19A88012A06D09B68F9E7F5
:1043E0009B684BB19A88012AFAD12BB19A89BA42BB
:1043F000F6D19E732846F8BD0A49102007F017F938
:10440000044668B11022002107F024FE064B236009
:104410000123A3802B69A360A781A6732C61E9E720
:104420002875E7E74CCF0D001000030070B5037D41
:1044300005460E46CBB10368DB6823B19A88042A8F
:1044400017D09B68F9E70C49102007F0F0F80446F4
:1044500068B11022002107F0FDFD084B2360042302
:10446000A3802B692C61C4E90236284670BD2875EB
:10447000FBE7DE60F9E700BF4CCF0D001000030042
:10448000002003F013BC00000246014804F04EB9BE
:1044900001870D0007B580680B46002140B1CDE9CA
:1044A00000210A46032103F071FBB0FA80F04009B5
:1044B00003B05DF804FB0EB410B58DB00FAA01680F
:1044C00052F8044B039200232020CDE90403CDE9E8
:1044D00000421E2004AA03F079FD0DB0BDE8104093
:1044E00003B070470EB410B58DB00FAA016852F832
:1044F000044B039200232020CDE90403CDE90042C0
:10450000322004AA03F062FD0DB0BDE8104003B0F4
:10451000704737B504689DF818508DF800308DF855
:104520000450E4683C23A04703B030BD30B50B789D
:104530001C4D93B00C4693B91B4902A807F0D7FD58
:104540002B7953B1194B1A491B788DF80030194B50
:1045500019481B7802AAFFF7DCFF13B030BD0846EC
:1045600007F02CFDC8280DD1144902A807F0BFFDA3
:1045700006F029FD124B286201221A70114B00220D
:104580001A70DDE7204607F019FDC928ECD0204657
:1045900007F014FD0C4A0346402102A803F0A2FED6
:1045A000CEE700BFBCE4032051C30D0069E3032044
:1045B00088C30D0068E3032074E4032059C30D0091
:1045C000ECE4032018E403206BC30D0007B50B498E
:1045D00006F009FA70B100238DF80030084B094A43
:1045E0001B7809490948FFF794FF09480A2102F09E
:1045F0004DFA012003B05DF804FB00BF1CC30D00A1
:1046000068E3032095C30D008FC70D0074E40320F9
:1046100078E3032037B51949054606F0E4F9044666
:10462000B0B1174B174A01241C71DB78147013B911
:10463000012003B030BD144B144A1B788DF80030B4
:10464000134B1B7813491448FFF763FF2046F0E72C
:104650001249284606F0C7F90028EAD0084B094A53
:104660001C71DB7801241470002BE1D0064B0C4A3E
:104670001B788DF80030064B1B78E3E71CC30D0058
:10468000BCE40320ECE4032069E30320ADC30D0088
:1046900068E303206CC50D0074E4032078C50D00A9
:1046A000BEC30D0000B50C4B0C4A1B7FC3B04FF4CA
:1046B000807102A803F016FE094B0A491B788DF899
:1046C0000030094B09481B7802AAFFF722FF01209E
:1046D00043B05DF804FB00BFBCE40320D3C30D006E
:1046E00069E303202DC60D0068E3032074E4032072
:1046F00030B5C5B000680A2203A907F0D9FDB0F5AE
:104700007A7F1ED8104DA86006F05DFC0F4BE86064
:1047100001241C700E4AAB684FF4807104A803F0AA
:10472000E1FD0C4BDB7853B10B4B0C491B788DF83A
:1047300000300B4B0B481B7804AAFFF7EAFE20461B
:1047400000E0002045B030BDE4E3032008E403208E
:10475000E7C30D00BCE4032069E30320FDC30D00A3
:1047600068E3032074E4032030B5C5B000680A2272
:1047700003A907F09DFD0A2827D8154DC1B2154899
:1047800085F82B1002F05CFE134B144A14480124E8
:104790001C70082195F82B3003F0A4FD95F82B3000
:1047A000104A4FF4807104A803F09CFDEB7853B1DC
:1047B0000D4B0E491B788DF800300D4B0D481B78C2
:1047C00004AAFFF7A6FE204600E0002045B030BD59
:1047D000BCE4032098E30320ECE4032084C40D0030
:1047E0001CE2032003C40D0069E303202DC60D0065
:1047F00068E3032074E4032030B5C5B000680A22E2
:1048000003A907F055FD3C282BD8174D4FF47A71BA
:10481000414385F82C006FF000421448FFF73AFE40
:10482000134B144A144801241C70082195F82C30AD
:1048300003F058FD95F82C30104A4FF4807104A80D
:1048400003F050FDEB7853B10D4B0E491B788DF8FA
:1048500000300D4B0D481B7804AAFFF75AFE204686
:1048600000E0002045B030BDBCE40320C8E30320D5
:10487000ECE4032019C40D0006E2032020C40D005F
:1048800069E303202DC60D0068E3032074E40320D0
:1048900013B52549044606F0A6F820B32249204660
:1048A00006F0A1F838BB2149204606F09CF8002804
:1048B00036D01F4CE27812B91E4B01221A701E4BE3
:1048C0001E4A1B788DF800301D4B1E491B781E4870
:1048D000FFF71FFE4FF47A7003F058FD00231B49C9
:1048E000A371102219E01149204606F07CF8002837
:1048F000D4D102B010BD0E4CE27852B10E4B144A26
:104900001B788DF800300E4B0E491B780E48FFF7D0
:1049100000FE01230F49A37110220F4807F027FC66
:104920000E4B01201870E4E71CC30D0078C50D0084
:10493000BCE4032071E4032069E303204AC40D00B2
:1049400068E303206CC50D0074E403205CC40D0013
:104950003BC40D0060C40D0060E40320ECE40320C0
:104960002DE9F0414A4C4B4EC2B006F02CFB2368B7
:10497000C01A96F82C3098427AD906F024FB464D9E
:1049800020602B78454FBFF35B8F13F0010F09D1E7
:104990002846FFF791FB28B103F0A0F938602846BC
:1049A000FFF78FFB3B6893F870402B78BFF35B8F6A
:1049B000DB074FEA441809D43748FFF77DFB28B1DD
:1049C00003F08CF938603448FFF77BFB3B6893F8C1
:1049D000714004F01F0444EA08042F2C53DD304AD0
:1049E00000210A2003F0E2FA2E4B04F01F040121FB
:1049F00001FA04F4C3F808452B4B986838B16FF0FE
:104A000000420023CDE900231A4603F0BFF8274DEA
:104A10002C7806F0F5FA8442254C04D006F0F0FA22
:104A200001232870A361A3690133A36106F0CBFAC7
:104A30002368A2683179E060013301322360A2600B
:104A400099B1F17889B100924FF48071194A02A8A6
:104A500003F048FC184B19491B788DF80030184BAF
:104A600018481B7802AAFFF754FD174B01221A7051
:104A7000164C237823B1164802F0B1FC00232370B2
:104A800042B0BDE8F0811F2CAEDC4FF0A043AEE792
:104A90006CE30320BCE4032014E3032018E30320A9
:104AA0007D7C0D0000030050C8E3032070E3032069
:104AB000E4E303206AC40D0069E30320F6C50D009A
:104AC00068E3032074E4032008E40320B0E4032037
:104AD00098E3032010B51A4C2368CAB0002B2CD0E1
:104AE000E2680892174A118D0791A16906916169E0
:104AF00005911169049121690391107B124951F8C4
:104B00002010029192680192A26800924FF4807185
:104B10000E4A0AA803F0E6FB00238DF800300C4B88
:104B20000C491B780C480AAAFFF7F3FC0B4B012237
:104B30001A70236863604AB010BD094A1268D0E752
:104B4000E4E30320BCE40320D8E1032087C40D0084
:104B500068E303200EC50D0074E4032018E403206D
:104B600038E4032013B5012101A805F04EFD0B4BDD
:104B70001B69243B402B01A84FF001040AD905F022
:104B8000D7FD074B1C73002401A805F04DFD2046FE
:104B900002B010BD05F0B5FDF6E700BFE4E3032069
:104BA000BCE4032030B5194D0FCD99B004AC0FC44F
:104BB0000FCD0FC495E8030084E8030014490EA844
:104BC00003F068FC0EA803F0B8FC04460EA803F03E
:104BD000BDFC0EA810EE105A03F0E8FC18AB10EE66
:104BE000100A03EB840406F08DFECDE9020128468D
:104BF00006F088FECDE90001064A54F8503C06480C
:104C0000402103F06FFB19B030BD00BF64C80D0038
:104C100008E5032026C50D001CE30320000000006A
:104C200008B50F2006F065FCB0F5C87F05DA322024
:104C300003F0ACFB0F2006F05CFC06F051FE20A355
:104C4000D3E9002306F0B6FE07F00EF9DFED147A83
:104C500007EE100A67EE277A17EE900A06F052FE6A
:104C6000104B002206F0EEFC0F4B002206F0A2FED5
:104C700007F0B2F806F034FE0C4B002206F09AFE64
:104C80000B4B002206F0C0FF0A4B002206F0DCFCB2
:104C900007F0A2F8084B1861084B01221A7008BDF2
:104CA000000080390000E03F000059400000224031
:104CB0000000144000004040E4E3032008E4032027
:104CC0006666666666660A4000B591B06846FFF79C
:104CD0006FFB08A8FFF76CFB002108A803F0F4F9AC
:104CE000134B5979A1B141F2D833ADF80630114BCD
:104CF000029341F27003ADF80C30009B43F4007353
:104D000000930021684603F0DFF911B05DF804FB61
:104D100041F27003ADF80630074B029341F21003E5
:104D2000ADF80C30009B43F400730093EAE700BF3A
:104D3000BCE40320840300048403840337B51B49C7
:104D4000054605F050FE0446C0B1194D01246C71B2
:104D5000FFF7BAFF174B1C70EB7813B9012003B0B3
:104D600030BD154B154A1B788DF80030144B1B785D
:104D700014491548FFF7CDFB2046F0E713492846B4
:104D800005F031FE0028EAD0094D0A4B6C71012470
:104D90001C70FFF799FFEB78002BDFD0064B0C4A15
:104DA0001B788DF80030064B1B78E1E71CC30D0023
:104DB000BCE40320ECE4032069E303203FC50D00BD
:104DC00068E303206CC50D0074E4032078C50D0072
:104DD00056C50D00244B1A69D3ED057AFF2ABAEEA9
:104DE000087A88BF0022F4EEC77A88BF1A61F1EE14
:104DF00010FA06D4B2EE087AF4EEC77AF1EE10FAA1
:104E000001DD1A4A5A61D3ED067AF5EEC07AF1EE69
:104E100010FA06D4B0EE007AF4EEC77AF1EE10FA8A
:104E200002DD4FF07E529A611A7F0C2A84BF002265
:104E30001A775A7F0C3A0C2A84BF18225A770C4AE8
:104E400011681A8D8A4284BF00221A8501225A7184
:104E5000084B988B81423FBF00219983064B1A7003
:104E6000064B01221A707047BCE403200000A0C06A
:104E7000FCE10320E4E3032008E40320ECE4032046
:104E800010B5154CA38BB3F5C05F09D11349144875
:104E900007F02DF9BDE810401049124807F027B976
:104EA00094F82B30104A1148082103F01BFA94F8AB
:104EB0002C300F4A0F48082103F014FA237F0E4AC2
:104EC0000748082103F00EFA637F0B4A0548BDE846
:104ED0001040082103F006BABCE4032071C50D00A0
:104EE0000EE20320F4E1032084C40D001CE2032041
:104EF00019C40D0006E2032074C50D0013B50A2283
:104F0000006801A907F0D4F917280CD8074C2077BE
:104F1000FFF7B6FF064B01201870E3780BB1FFF7DF
:104F2000C1FB02B010BD0020FBE700BFBCE40320C2
:104F3000ECE4032030B5C5B000680A2203A907F0ED
:104F4000B7F918281CD8104D6877FFF799FF0F4B59
:104F50000F4A01241C704FF480716B7F04A803F08A
:104F6000C1F9EB7853B10B4B0B491B788DF800302E
:104F70000A4B0B481B7804AAFFF7CBFA204600E047
:104F8000002045B030BD00BFBCE40320ECE40320AA
:104F90007AC50D0069E303202DC60D0068E30320E8
:104FA00074E4032038B50A4C0025C4E90055A56017
:104FB00006F009F8074B084A1D61642323620123A8
:104FC0001370064AE06013706561A58338BD00BFA9
:104FD000E4E30320BCE4032008E40320ECE4032022
:104FE00030B5144D144C15492A7820788DB00E2315
:104FF00003FB0212009203FB0013114A282102A8AE
:1050000003F070F92B7823700E4B1A7982B1DB789C
:1050100053B10D4B0D491B788DF800300C4B0D48EA
:105020001B7802AAFFF775FA0B4802A9FFF743FAAB
:105030000DB030BDB1E4032070E4032024E203206E
:1050400091C50D00BCE4032069E303209FC50D005A
:1050500068E3032074E40320DCE503202DE9F04736
:10506000224B234C1B78234A2349244886B0002531
:105070008DF80030224B1B78FFF74BFA257103F0B7
:1050800061F810B1284603F07DF8FFF7F9F94FF009
:10509000000A054647F22F584FF00009FFF7F0F9D4
:1050A000461B61EB0A07B94508BFB04505D3FFF7BA
:1050B000EAF810B903F036F8F0E7FFF7E4F863799F
:1050C00013B9A368462B09DC0E4902A805F035FC8C
:1050D00002A8FFF7DDFB02A805F0E4FBFFF762FF83
:1050E000094B01221A7006B0BDE8F08769E303207E
:1050F000BCE40320B0C50D00B8C50D0074E4032066
:1051000068E303201CC30D00ECE4032030B585B038
:105110000D4600226946009202F070FFB0B9009C73
:105120000CB1236923B90A4A00210A2002F03EFF8C
:105130000023ADF806300C23ADF8043004230393AC
:105140000295236901AA01212046984705B030BD88
:105150007D7C0D0030B5264B002289B05868114681
:1051600003F058F808B1FFF71DFDFFF759FD694638
:105170000720FFF7CBFF1F4C1F4D0028A8BF00984A
:105180002073FFF7EFFC10B96B6901336B6169465F
:105190000320FFF7BBFF40BBBDF8003007EE903A9D
:1051A000FBEECC7AFDEEE77A17EE903A402BC4ED99
:1051B000027A09DC237B012B06D16846FFF7F8F859
:1051C0000021684602F080FFA3682A6A9342B8BFB4
:1051D0002B621D2BCCBF00230123084AE37101235E
:1051E0001370074A137009B030BDFFEE007AD9E79B
:1051F00008E50320BCE40320E4E30320ECE40320FF
:1052000008E4032070B5D0E900531426044606FBD9
:105210000356AE4204D0284605F044FB1435F8E7A7
:10522000206803F047F8204670BD0023022202F0F8
:1052300069BF38B503681446DD683023A8472046A7
:1052400038BD000070B5194B194C01221A70E37873
:1052500086B053B1174B184A1B788DF80030174BA6
:1052600017491B781748FFF754F90025164925718F
:10527000012602A82670A570E57105F05EFB02A864
:10528000FFF706FB02A805F00DFB104B63614FF022
:105290007E53A361064A0E48667141F206533146B9
:1052A000A3832585FFF7C5FF06B070BD71E4032019
:1052B000BCE4032069E30320C6C50D0068E30320B6
:1052C0006CC50D0074E403201CC30D000000A0C0D9
:1052D0001CE40320000000002DE9F0410021AAB0E9
:1052E000082006F0C9F80021042006F0C5F80121C5
:1052F000072006F0C1F80021022006F0BDF80121C8
:10530000072006F0CAF806A8002502F023FF0023B4
:105310007D220AA906A805F078FBBB49BB4FBC4C0F
:10532000DFF810842B462A46CDE900550AA802F082
:1053300021FF2B460222B549B64802F0E3FEB649EA
:10534000B648FFF772FFB649B648FEF7A9FFB6495F
:10535000B648FFF76AFF2B460222B549B54802F06E
:10536000D1FEB549B548FEF79BFFB549B548FFF7F3
:105370005CFFB549B548FEF793FFB549B548FEF760
:105380008FFFB549B548FEF78BFF2B460222B44983
:10539000B44802F0B7FEB449B448FEF781FF0C23CD
:1053A000CDE90355ADF80C30B14BB2490593042259
:1053B00003ABB14802F0A6FEB049B148FEF770FF5A
:1053C000B049B148FEF76CFFB049B148FFF75CF84F
:1053D000B049B148FFF758F8B049B148FFF754F861
:1053E000B049B148FFF750F8B049B148FFF74CF861
:1053F000B049B148FFF748F8B049B148FFF744F861
:10540000B049B148FFF740F8B049B148FFF73CF860
:10541000B049B148FFF738F8B049B148FFF734F860
:10542000B049B148FFF730F8B049B148FFF72CF860
:105430000126032241F2883303A8CDE90323ADF806
:10544000146003F09EF9AB4801F02CFE3346A948E6
:105450000DF10B02294601F067FE9DF80B30032B7E
:1054600000F07781A34801F027FEA34AA148042356
:10547000294601F0A4FE33469E480DF10B02294651
:1054800001F052FE9DF80B30032B00F05F819B4929
:105490009B4888F80060FFF70EF89A4DFFF79AFCDA
:1054A000FFF7EEFC984A002300214FF4802002F021
:1054B000C7FD0823012128466B8101F0A5FC0123CB
:1054C0001A461021284601F00AFA7C21A0702846CD
:1054D00001F082F994ED060A05F02CFC00F0B4FF0F
:1054E000002800F0438105F043FC94ED050A05F027
:1054F00001FC05F0ADFD054605F065FD281A06F036
:10550000EFF93FA3D3E9002306F07EFB7F4ACDE904
:1055100000010A21544802F0E5FE032202217C48E2
:1055200001F0EAFF94F82B10794801F089FF94F814
:105530002C3078484FF47A716FF000425943FEF7EF
:10554000A9FFA3791022002B00F0138172493E4875
:1055500006F00DFE0022114603A8039202F076FB2E
:10556000039B142B4FF0000240F0058123690133A7
:1055700023616A4B01221A703B68694D002B00F0D1
:105580000481FB682B60FFF79FFB042005F09EFF62
:1055900008B9FFF757FE05F03FFD00210546F86802
:1055A00005F08CFB854201D0FFF7FCFC05F01CFDEB
:1055B000237F98421BDB05F017FD637F984216DAC4
:1055C0000023009357494FF0FF330122022003F0DC
:1055D0000FFDE37833B102F0B5FD18B9524BE0701E
:1055E00001221A70FFF7B6FD504B514A1A6098F825
:1055F0000030002B40F0A080022388F800309BE0B0
:10560000000000000020AC402D450D00E4E3032025
:10561000BCE40320DEC50D00ECE3032056C60D00FC
:105620001CE30320EAC50D00CCE40320F1C50D0006
:10563000F4E30320FCC50D0000E2032008C60D00C2
:10564000C4E4032010C60D0060E403201BC60D0057
:105650000EE20320C3C60D00F4E1032028C60D00AE
:10566000F8E3032032C60D0009E4032039C60D001B
:10567000A9420D0005410D0044C60D001CE20320A7
:10568000DAC60D0006E20320EAC60D00F1460D0061
:1056900053C60D0025420D0061C60D00CD450D001D
:1056A0006DC60D0071410D0077C60D0091480D00CB
:1056B0007FC60D003D4D0D008CC60D0015460D003A
:1056C00097C60D0021630D00A4C60D0089640D006E
:1056D000B1C60D00FD4E0D00BFC60D00354F0D00CB
:1056E000CCC60D0069470D00D6C60D00F9470D0068
:1056F000E6C60D001CE403208CC80D00F3C60D00A7
:10570000DCE5032078E30320D5400D0003C70D003E
:1057100098E30320C8E3032060C40D00ECE40320F9
:1057200038E403203D410D0071E40320B4E403207C
:10573000905F0100B1E403200021072005F0ADFED9
:1057400006A805F0AFF82AB0BDE8F081FFF77AFDB2
:10575000A3E62246314630230E4801F0E5FC24231F
:105760003A4650210B4801F0DFFC96E605F00CFBB1
:10577000BBE60949EBE6114603A8039202F066FA7C
:10578000039B8C2B7FF4F8AEF0E605F01CFC286040
:10579000F9E600BF1CE403205CC40D008842F8B5A4
:1057A00004460D46164616D9904215D2A2F11406AB
:1057B000751AA1F114072C44B7421CD02CB1314604
:1057C000204605F0EBF8337C2374304605F06AF888
:1057D000143E143CF0E70ED0B5420CD02CB1294653
:1057E000204605F0DBF82B7C2374284605F05AF898
:1057F00014351434F0E7F8BD2DE9F0410023C0E979
:10580000003383604F689F4204460E4623DD4FF00D
:10581000140808FB07F002F045FD0546D8B1D4E9AD
:10582000001208FB0212FFF7B9FF206802F042FDE8
:105830002560A760D6E9007308FB0378B84508D057
:105840003946284605F0C4F83B7C2B7414371435D0
:10585000F4E7736863602046BDE8F0812DE9F04FFE
:10586000784B794D794E4FF0010983F80090784BD1
:10587000082291B01A7005F0A9FD00231A460D21E7
:1058800005F0ACFD05F0A2FD00231A46022105F04B
:10589000ADFD704B002464229C831A626E4BAB609A
:1058A0002C60AC80AC71022002F0BAFB32466B492E
:1058B000284605F0B5FE2146484602F0C9FB494698
:1058C000042002F0BBF966486649A0F80940034687
:1058D000021D43F8092B9C70634B43603246C0E9BC
:1058E000034480F81490047205F09AFE05F048FE17
:1058F0005E4D014623464FF40052284601F0C8FB96
:105900005B4B2B6028465B4D5B49324605F088FEB9
:105910005A494FF40062284601F0E2FF584B2B60D1
:1059200032465849284605F07BFE05F029FE564DC3
:1059300001466922284600F051FE2846534D54493D
:10594000324605F06DFE2146284603F0E9F932465D
:105950005049284605F064FE1D214F484F4D01F087
:10596000CBFCCDE90344059405F074FC0DF124084B
:10597000824603A906A8FFF73FFFAB4606A94046AB
:10598000FFF73AFF464B4BF8043B0CAF4146384615
:10599000FFF732FF3A464946584604F063FA384664
:1059A000FFF730FC4046FFF72DFC3E4B2B60C5F85F
:1059B00020A006A8FFF726FC3B4B2B6005F04AFC15
:1059C0004FF4165105F036FC03F0F4FE294604F0BE
:1059D000DBF903A8FFF716FC32463449284605F0E8
:1059E0001FFE334B0C93334D334B2B6097E8030072
:1059F00005F10C0388E8030093E8030087E803003F
:105A000098E8030083E803002C4B6B61AB690F93AC
:105A10002B4BAB612B4A2C712B46AC604FF47A7147
:105A2000CDE9009405F108000E9402F097F838468D
:105A3000FEF780FC24493246284605F0F1FD11B0FE
:105A4000BDE8F08F68E303205CE3032010E303204C
:105A500069E30320E4E303200000FFFF7B420D0025
:105A6000B0E3032025410D00100003001CE40320D7
:105A700028C80D0074E40320C1410D0000F4032088
:105A800044C80D0099410D0078E303202CE4032065
:105A90009D650D00418D0D0098E303203CE403203B
:105AA000F8C70D0000CE0D0010C80D00E1420D003A
:105AB000FB400D00C8E30320E4C70D00E5400D00E6
:105AC000E1400D00E9410D0049430D002DE9F04F83
:105AD00085B04FF0000A01A8CDE901AAADF80CA0ED
:105AE00002F035FEFEF7CCFC43F6972883464FF0D4
:105AF0000009FEF7C5FCB0EB0B0661EB0A07B945E0
:105B000008BFB04505D302F01DFB10B902F00AFB37
:105B1000EFE702F017FB2148DFF880A0FEF704FC56
:105B2000FEF7AEFC4FF00009804647F22F560027E3
:105B3000FEF7A6FCB0EB080461EB0905AF4208BF15
:105B4000A64206D3504604F0CDFC10B902F0EAFAA2
:105B5000EEE7124804F0C6FC1148002100F03CFEBC
:105B6000104B1A7D0AB102221A72002204210D483C
:105B7000FEF728FC42F21071FEF758FC094901A813
:105B800004F0CEFF01A8FEF76FFB4FF0FF31044891
:105B900000F022FE05B0BDE8F08F00BF08E503204D
:105BA00078E30320B0E303202DE9F04F85B04FF0F8
:105BB000000A01A8CDE901AAADF80CA002F0C7FDCA
:105BC000FEF75EFC43F6972883464FF00009FEF788
:105BD00057FCB0EB0B0661EB0A07B94508BFB045AF
:105BE00005D302F0AFFA10B102F09CFAEFE7184EBD
:105BF00002F0A8FA00220221706802F003FB30468E
:105C0000FEF792FBFEF73CFC4FF0000A074647F216
:105C10002F584FF00009FEF733FCC41B61EB0A0557
:105C2000A94508BFA04506D3304604F05BFC10B977
:105C300002F078FAEFE7064804F054FC054B002226
:105C4000DA70054B0120187005B0BDE8F08F00BF79
:105C500008E50320BCE40320ECE403202DE9F04335
:105C60008E4CDFF87C8223788D4F8E4E013B97B0AF
:105C7000062B00F23B81DFE813F0A70207003B0090
:105C8000B500850105024002874B1B78022B01D02D
:105C9000FFF7A6F9854DAB7953B101F0F7FF844BBF
:105CA0001B68C01A834B1B68984284BF042323706F
:105CB00005F09AF9804B81460021186804F0F6FF40
:105CC00081451CBF0623237005F08EF96B7F984237
:105CD00008DB03232370794B1B78002B00F006812F
:105CE000052312E005F080F92B7F9842F1DBF2E703
:105CF0006D4B1B78032B01D0FFF772F9022003F0E4
:105D0000A1F96F4B1B6813B106232370EEE0674BBC
:105D1000DA7899460AB1FFF747FF0021694800F099
:105D20005BFD05F050F94FF4616590FBF5F303FB63
:105D30001505654BC5F561651A7DB5F5616FA8BFA1
:105D40004FF461650AB102221A72002204215E48F2
:105D5000FEF738FB4FF47A716943FEF767FB5A4947
:105D600003A804F0DDFE4FF0FF31564800F034FD8B
:105D7000564803F06FF8554803F063F8039B9BB156
:105D80009A88012A10D19B89042B0DD1504906A86D
:105D900004F0D3FD06A8FEF77BFD06A804F082FD03
:105DA0004FF4C053A9F81C3005F01EF999F81D30C6
:105DB000984211DA05F018F999F81C3098420BDB7B
:105DC0000023009301224FF0FF334249022003F0E9
:105DD0000FF9384B404A1A60022303A82370FEF7DC
:105DE00043FA83E0304B1B78042B01D0FFF7F8F81F
:105DF00098F8003003F0FF01002B77D1374B9868FB
:105E000000286FD1294BDB780BB1FFF7CDFE294B72
:105E10002C484FF47A7200211A6000F0DDFC05F086
:105E2000D2F84FF4616590FBF5F303FB1505264BA3
:105E3000C5F561651A7DB5F5616FA8BF4FF4616561
:105E40000AB102221A72002204211F48FEF7BAFA90
:105E500001220221FEF7B6FA4FF47A716943FEF788
:105E6000E5FA194903A804F05BFE4FF0FF3115482D
:105E700000F0B2FC154802F0EDFF144802F0E1FF1B
:105E8000039B002BA8D09A88012AA5D19B89022BBD
:105E90006AD101F0FBFE064B18609DE7B1E40320D8
:105EA000ECE4032008E4032070E40320BCE40320B6
:105EB000B8E40320B4E4032038E4032071E40320B1
:105EC000E4E3032078E30320B0E303202CE4032081
:105ED00078C50D003D410D00905F0100C8E303202F
:105EE000B0E4032001F092FE00288BD098F8003037
:105EF0000BB1FEF735FD994801F066F83B7833B1F8
:105F0000974A98480121FFF794F900233B703378B2
:105F10003BB12423944A9348502101F050F90023C7
:105F20003370924B1B68002B1BDB914A402106A863
:105F300002F0D8F906A98F48FEF7BDFA642002F0F6
:105F400025FA00238DF800308B4B8C491B788C4848
:105F500006AAFEF7DEFA4FF4FA6002F017FA04F030
:105F6000DBFD17B0BDE8F083042B7FF435AF854926
:105F700006A804F0E2FC06A8FEF78AFC06A804F0D6
:105F800091FC29E7804B1B78052B13D09A1F5342B5
:105F900053417E4A1370FFF723F805F014F87C4B49
:105FA00018607C48002340681A46194602F03AF906
:105FB00002F0C0F802F0C6F8DFF8F49105460028B8
:105FC00040D0674D002389F800300123EB7004F0C6
:105FD000FAFF686299F80030002B87D104F0F3FFD4
:105FE0006B4B5F4D1B68604AC01A6B4B918B1B68F3
:105FF00080B29842288588BF2B852B8D994238BF67
:1060000093832021654A06A802F06CF9594806A935
:10601000FEF751FA2B794BB100238DF80030564B27
:106020005F491B78564806AAFEF773FA01233B70B6
:106030003370EB7823B1554B1B78002B7FF464AEA3
:10604000022362E604F0BFFF514B1B68C01A524B9B
:106050001B689842BED989F8005004F0B4FF404B49
:106060005A6A801AB0F5E15F06D90123237001F066
:106070000DFE4C4B186039E74B493E48DD70FEF78A
:106080001AFAA7E7404B1B78062B01D0FEF7A8FFB2
:1060900004F099FF324D454B1860EB78A9461BB9C7
:1060A000434B01221A701BE6AB79B3B104F09CFF9D
:1060B00099F81C3098421DD1FEF7D0FF04F094FFF0
:1060C00099F81C30984202D108B9FEF703FD01F09F
:1060D000DDFD384B1860072317E6FFF73BF8EB7838
:1060E000002BE3D1344B354A1A6001F0CFFD344B1D
:1060F0001860A5E7FEF7EEFCE0E7234B1B78072BC3
:1061000001D0FEF76DFF2F4B1D78B5B92A4B2B4AF6
:106110001A6001F0BBFD2A4B186002232370124B5A
:10612000596800293FF4E2AE1A685D60521AC3E96B
:1061300005551A6001233370D8E601F0A7FD1D4B09
:106140001B68C01A47F2305398427FF6CFAE01F079
:106150009DFD144B18600123D7E500BF78E30320B1
:10616000BCE403201CE40320E4E3032018E2032042
:10617000B6C70D00DCE5032068E30320D5C70D009A
:1061800074E4032078C50D0070E4032071E303205C
:1061900074E3032008E50320FCE103202BC70D0076
:1061A00040C70D00ACE403200DC70D0038E4032008
:1061B00071E40320F0E40320B4E40320905F0100C5
:1061C000B8E4032018E40320404B1B78012B01D0D6
:1061D000FEF706FF01F05AFD3D4B1B6803F5EA434D
:1061E00030338342BFF482AE3A4D04F0ECFE6B6A6A
:1061F000C01AB0F5E15F2C4613D904F0E4FEA0F517
:10620000616068622A4601213348FFF712F833487B
:106210003349FEF767F9642002F0B8F8FFF756FC3F
:1062200064E604F0D0FE2B6AC01AB0F5E15FEB78AB
:1062300019D953B12B4B2C4A1B788DF800302B4BBE
:106240002B491B782B48FEF764F94FF4FA6002F0F3
:106250009DF80023236104F0B6FE0123A0F56160E0
:1062600020623B70DAE72A69032A12DC53B11D4B26
:10627000214A1B788DF800301C4B1D491B781D48A6
:10628000FEF747F94FF4FA6002F080F804F044FC9E
:106290002CE653B1134B144A1B788DF80030134B86
:1062A00013491B781348FEF734F94FF4FA6002F0F3
:1062B0006DF80023074A084823610121FEF7B9FF62
:1062C0001E210E4800F0E2FB10E600BF70E4032040
:1062D000ACE40320BCE403201CE40320DCE5032041
:1062E00049C70D0069E3032076C70D0068E303206A
:1062F00095C70D0074E403209BC70D0078E30320CD
:1063000008B5002001F046FF28B101F01BFF80F026
:106310000100C0B208BD0120FCE700000000000041
:106320002DE9F047C8B0804601F00CFF10B1002005
:1063300001F028FF002001F0B9FC4FF0000A81466F
:1063400047F22F560027002001F0B0FCB0EB090403
:1063500061EB0A05AF4208BFA64205D3FFF7D0FFA5
:1063600010B901F0DFFEEEE7FFF7CAFFD8F8000032
:106370000A2203A905F09CFF00F10C03DBB2182BE5
:1063800048D845B207EE905A274BB8EEE70A0124E9
:1063900083ED050A04F0AEFC244B1C7004F058FE9B
:1063A000064604F010FE301A05F09AFA1CA3D3E951
:1063B000002305F029FC1E4ACDE900010A211D48F1
:1063C00001F090FF01F0BEFE10B32B461A4A1B4DA0
:1063D0004FF48071002608A801F084FF8DF800605A
:1063E00017492B78174808AAFEF793F804F0EBFD3D
:1063F0000246C31704A804F0E3FC8DF800602B7874
:10640000049A0F490F48FEF784F804A804F04AFAEA
:10641000204600E0002048B0BDE8F087AFF30080E0
:10642000000000000020AC40BCE40320ECE40320AA
:1064300003C70D0009E4032090C80D00F4E4032015
:106440002DC60D0074E4032038B504F0E5FD0546C3
:1064500004F0F6FD044604F0EBFD231F062B0ED9D5
:10646000E31E082B0DD801382D1A04D50B2C14BFB0
:106470000020012038BD072D03DD032CF7E70120A4
:10648000F8E70020F6E7000070B52DED028BC8B0EC
:10649000054604F098FD0A22044603A9286805F081
:1064A00007FFC3B2022B59D843B208EE103AB8EE38
:1064B000C88AB0EE480A04F03DFC2D4B83ED068AF5
:1064C0002C4B01221A7018EE100A05F01BFA2A4A0A
:1064D000CDE900014FF4807108A801F003FF04F03A
:1064E00055FD28B1FFF7B0FF002834D004F040FC80
:1064F00004F0AEFD054604F066FD281A05F0F0F93B
:1065000019A3D3E9002305F07FFB1C4ACDE9000164
:106510000A211B4801F0E6FE01F014FEC8B1194D36
:1065200019491A4800268DF800602B7808AAFDF753
:10653000F0FF2246E31704A804F042FC8DF8006047
:106540002B78049A10491148FDF7E3FF04A804F0E2
:10655000A9F9012003E004F017FCC9E7002048B0C6
:10656000BDEC028B70BD00BF000000000020AC40FD
:10657000BCE40320ECE40320A4C80D0003C70D0015
:1065800009E40320F4E403202DC60D0074E4032085
:10659000014B01221A707047F4E40320704710B5D4
:1065A0002021044605F041F8204610BD0EB410B578
:1065B0008DB00FAA016852F8044B039200232020EB
:1065C000CDE90403CDE90042012004AA01F0FEFC5C
:1065D0000DB0BDE8104003B07047000010B5027266
:1065E000FF2242810022C0E9032242610276C26199
:1065F000024A034C1060C0E9004110BDFCE40320D6
:1066000004CB0D002DE9F8439DF82080044689460F
:1066100016461F46B8F1000F02D0406802F0D4FCC5
:10662000217A606802F0AAFC6068036849469B68AA
:1066300098476068002102F0C0FC054600BB0123BA
:10664000217A60683A4602F084FC8742034609D109
:106650003744BE421CD0606803685B69984706F8FF
:10666000010BF6E70B490C484A46FDF73BFFB8F132
:10667000000F02D0606802F0B0FC2846BDE8F88345
:106680000346064904484A46FDF72CFF0025EEE77D
:106690000125ECE7B5C80D00F8E40320DAC80D00C9
:1066A00007B500930123FFF7ADFF03B05DF804FBCE
:1066B00073B54389FF2B044610D0194E194D01F0D4
:1066C000E5FAB0F57A7F09D2608904F0FFFE01286F
:1066D00004D031462846FDF7EEFEF0E701230DF128
:1066E000070228212046FFF7DBFF30B90D480E498D
:1066F000FDF7E1FE002002B070BD9DF80730182BB9
:10670000F4D101230DF1070229212046FFF7C8FF2C
:106710000028EBD09DF80730052BE7D1EBE700BF51
:10672000FEC80D00F8E4032013C90D0007B5134699
:1067300000228DF807200DF10702FFF7B1FF9DF849
:10674000070003B05DF804FB2DE9F0419DF81880C7
:1067500004460F4615461E46B8F1000F02D04068A9
:1067600002F032FC217A606802F008FC606803687D
:1067700039469B6898472E44B542606805D0036847
:1067800015F8011B9B689847F6E7012102F015FCFC
:10679000034670B1084909483A46FDF7A3FE0025B3
:1067A000B8F1000F02D0606802F017FC2846BDE87F
:1067B000F0810125F4E700BF20C90D00F8E40320B3
:1067C0001FB58DF80F2000930DF10F020123FFF785
:1067D000BBFF05B05DF804FBF8B50A460C4605465C
:1067E0001A491B48FDF767FE002CB8BFEC687CB95E
:1067F000012322461B212846FFF7E2FF15490246E6
:1068000006461348FFF7D2FEEC606C613046F8BDD7
:10681000032C19DDA7101F2FA8BF1F27BA0062F095
:106820007C020123D2B21B212846FFF7C9FF3A465A
:106830000346094906460648FFF7B8FE4FF4FA63D7
:106840005F43EC606F61E1E70127E7E745C90D00B1
:10685000F8E403204FC90D006BC90D000B46074932
:106860000246086848B1002B08BFB2F5006F04D19A
:10687000C36813B10021FFF7AFBF7047FCE40320EA
:106880002DE9FF419DF82880054616461F46B8F1C0
:10689000000F04D04068019102F096FB019901912C
:1068A00000230DF10F022846FFF7FAFE044660B1FF
:1068B0009DF80F3003EA06023A43934205D001994E
:1068C00000232846FFF77CFF0446B8F1000F02D0F2
:1068D000686802F082FB204604B0BDE8F08113B581
:1068E00014460DF10702FFF7DBFE28B19DF80730D3
:1068F0001C420CBF0120002002B010BD13B514468D
:106900000DF10702FFF7CCFE28B19DF807301C42BD
:1069100014BF0120002002B010BD07B5D243009380
:10692000D2B20023FFF7ACFF03B05DF804FB000018
:1069300037B501230DF107020F210446FFF7B0FE22
:10694000054638B91E491F48AD22FDF7CBFD284644
:1069500003B030BD9DF8073013F0200F4FF0010356
:106960000BD02022E3610F212046FFF7D6FF164A05
:1069700016491448FDF79FFDE9E708221721204634
:10698000FFF7BCFF18B10223114AE361F0E79DF85D
:1069900007301A0709D50323E361082201230F21D9
:1069A0002046FFF7BAFF0B4AE2E75B07CFD5042288
:1069B000E26101230F212046FFF7AFFF064AD7E728
:1069C000BEC90D00F8E403208FC90D00DDC90D001C
:1069D00098C90D00A8C90D00B8C90D0007B50093EE
:1069E0001346FF22FFF74CFF03B05DF804FB0000E5
:1069F000F8B50F461646012300220F210546FFF782
:106A0000DFFE044638B94FF425721E491E48FDF7D3
:106A100069FD2046F8BD0123232218212846FFF7EF
:106A2000CFFE044610B940F29B22EEE7FF2FA8BF2D
:106A3000FF27012FB8BF01270123FAB219212846E9
:106A4000FFF7BEFE044610B94FF42A72DDE70123BA
:106A5000082212212846FFF7C1FF044610B940F270
:106A6000AF22D2E7002E4FF0010314BF832282220F
:106A700018212846FFF7A4FE04460028C9D140F299
:106A8000B922C2E7EEC90D00F8E403202DE9F7436F
:106A90000A4605460F464F484F49FDF70CFD0021B9
:106AA0002846FFF799FE044648B940F2F7124B49D1
:106AB0004848FDF717FD204603B0BDE8F0830123E9
:106AC0001A4630212846FFF789FF044610B940F2E4
:106AD0000522ECE71022012311462846FFF71DFF8F
:106AE000044610B94FF40372E1E701232622132173
:106AF0002846FFF765FE044610B940F21322D6E798
:106B0000012600963346FC2211212846FFF7B8FEE5
:106B1000044610B940F21B22C9E700223946284634
:106B2000FFF766FF044610B940F22222BFE7009645
:106B30000223772210212846FFF7A2FE044610B94F
:106B400040F22B22B3E7334604221C212846FFF7EC
:106B500045FF044610B940F23222A8E700961823F8
:106B6000E32211212846FFF78BFE044610B940F2BC
:106B700039229CE73346C02217212846FFF720FE22
:106B8000044610B94FF4107291E701F07FF8DFF876
:106B90005490DFF840804FF47A7106464F4301F07D
:106BA00075F8801BB8420ED2012217212846FFF744
:106BB000BDFD494602464046FDF77DFC4FF47A7024
:106BC00001F0E4FBEBE706490248FDF78BFC03F01C
:106BD000A3FF70E7F8E4032019CA0D000ECA0D00E8
:106BE0003FCA0D002ACA0D002DE9F3479DF828A0E1
:106BF00005460C4691461F46BAF1000F02D0406888
:106C000002F0E2F907B3202F3E4628BF20267F2C52
:106C100026D83319802B01D9C4F180060123042220
:106C20003F212846FFF779FE002364F07F0100939F
:106C30004A463346C9B22846FFF7E4FC804628B1ED
:106C40003444BF1BB144DDE74FF00108BAF1000F37
:106C500002D0686802F0C1F9404602B0BDE8F08792
:106C6000012304223F212846FFF7B8FEDCE72DE987
:106C7000F3479DF828A005460C4691461F46BAF1F9
:106C8000000F02D0406802F09FF907B31F2F3E4665
:106C900028BF1F267F2C26D83319802B01D9C4F199
:106CA0008006012304223F212846FFF736FE0023F9
:106CB00064F07F0100934A463346C9B22846FFF785
:106CC00043FD804628B13444BF1BB144DDE74FF09B
:106CD0000108BAF1000F02D0686802F07EF9404660
:106CE00002B0BDE8F087012304223F212846FFF7C8
:106CF00075FEDCE730B585B00D68D1E90432039547
:106D00004D6802958D680195C96800910133044969
:106D100002F26C72044603F091FE204605B030BDCD
:106D200051CA0D0003110A2200F00F0002FB0300FC
:106D3000704738B5044600781546FFF7F3FF086042
:106D40006078FFF7EFFF4860A078FFF7EBFF8860FF
:106D5000E078FFF7E7FFC8602079FFF7E3FF01382D
:106D600008612DB9651D2878FFF7DCFF886138BD03
:106D70006079FFF7D7FF6430A51D4861F3E7000095
:106D800070B5012388B00D461A4610210446FFF75E
:106D9000A6FDF0B108230126204600960DEB030264
:106DA0000021FFF72FFC044698B1324629460DF129
:106DB0000900FFF7BEFF04A8FFF79CFF0848049AEC
:106DC0000849FDF778FB04A803F06CFD204608B0E5
:106DD00070BD24220021284605F03CF90024F5E787
:106DE000F8E403206FCA0D0030B58BB00D4601A941
:106DF000FFF7C6FF044620B101A801F0B3FAC5E9C8
:106E0000000120460BB030BD10B5044688B011B16A
:106E1000406802F081F82046FFF74AFC70B3204634
:106E2000FFF786FD01231A4610212046FFF757FD84
:106E3000D8B104F0ABF8C0B902A92046FFF7D4FFDF
:106E4000DDE9020103F0A8FF0F4B10491B68009316
:106E500004A8DDE9022304F057F80D48049A0D490F
:106E6000FDF729FB04A803F01DFD0B4A00230021B8
:106E70004FF4006001F0E4F808B010BD0749044881
:106E8000FDF730FBF1E700BF9CE2032030E6032072
:106E9000F8E403207DCA0D005D680D009ACA0D005C
:106EA0000A2290FBF2F302FB130093FBF2F102FBC8
:106EB000113140EA0110C0B2704770B50546006854
:106EC0000C461646FFF7ECFF20706868FFF7E8FFF6
:106ED0006070A868FFF7E4FFA070E868FFF7E0FFC4
:106EE000E07028690130FFF7DBFF20712EB9661DC5
:106EF000A869FFF7D5FF307070BD6A69642392FB03
:106F0000F3F003FB1020FFF7CBFFA61D6071EFE746
:106F1000F0B587B0054602A816460C46FFF7EAFE14
:106F20001E48029A1E49FDF7C6FA02A803F0BAFCF1
:106F300016B1686802F048F8204601220DF10901F7
:106F400000278DF80870FFF7B8FF01231A461021BB
:106F50002846FFF743FD0446E8B1082300970DEBF0
:106F6000030239462846FFF7EFFB044660B10123D0
:106F70001A4610212846FFF7D0FC16B1686802F0C7
:106F80002CF8204607B0F0BD4FF48D720549034838
:106F9000FDF7A8FAF1E74FF48F72F7E7F8E4032062
:106FA000B2CA0D00C0CA0D0013B504466846CDE94B
:106FB000002305F015F89DF8102001462046FFF744
:106FC000A7FF02B010BD0000F0B5057E89B00446F1
:106FD00075BB03F0DBFF58B30026002704A9284641
:106FE000CDE9046701F0DEF810B30125257603F042
:106FF000EAFF00950246C3172046CDE90223FFF7BA
:10700000D3FF02A92046CDE90267FFF7EDFE124B40
:1070100012491B68009304A8DDE9022303F074FF02
:107020000F48049A0F49FDF746FA04A803F03AFC0A
:10703000636973B100F02AFE2369C01A636998423C
:1070400007D300F023FE4FF0FF3120612046FFF709
:10705000C3FB09B0F0BD00BF9CE2032030E6032073
:10706000F8E40320DBCA0D00014B024A1A607047A6
:10707000F8E40320F1CA0D00704710B51021044652
:1070800004F0D3FA204610BD0368C9B29B681847C4
:1070900030B5034DC0E90223C0E9005130BD00BF47
:1070A00048CB0D00406801F037BF10B504460068BA
:1070B00001F093FF204610BD2DE9F0418AB004464F
:1070C0004068019001F080FF1E22002102A8A768FD
:1070D00004F0C0FF0026EFB123681E2FB84628BF7A
:1070E0004FF01E08DD6802AA434631462046A847F5
:1070F000054658B90A480B493246FDF7DCF901A8A4
:10710000FFF7D3FF28460AB0BDE8F081A7EB0807D8
:107110004644E0E701A8FFF7C8FF0125F2E700BFFA
:10712000DCE5032014CB0D002DE9F743044640684D
:1071300001900D4616461F4601F046FFA7B1E168D3
:10714000606841F0500101F01DFF290A6068FFF7F7
:107150009BFF29466068FFF797FF6068002101F0F8
:107160002CFF48B1002400E0012401A8FFF79DFF97
:10717000204603B0BDE8F083202F217B6068B8462D
:1071800028BF4FF020080123424641F0500101F092
:10719000E0FE04F0F5F903681B6998474045E1DB20
:1071A00006EB080904F0ECF903685B69984706F8F8
:1071B000010B4E45F6D14544A7EB0807BEE72DE984
:1071C000F74F0446406801900E4690461D4601F078
:1071D000FBFE4FF00109B9F1000F2AD04DB3E16871
:1071E000606841F0500101F0CDFE310A6068FFF7A0
:1071F0004BFF60683146FFF747FFA5F11E0A47467F
:10720000A6EB080B606817F8011B0368013D9B683B
:10721000984755450BEB0706B84601D0002DF1D134
:107220006068012101F0C9FE0028D7D04FF00009A5
:10723000D1E701A8FFF739FF484603B0BDE8F08F5A
:107240002DE9F0438BB00E4615468046406801900C
:107250001C4601F0B9FEAE4229D2264425448CB129
:107260001E2C2746D8F8003028BF1E27F61BD3F85F
:10727000089002AA3B4631464046ED1BC84748B934
:10728000002400E0012401A8FFF70FFF20460BB007
:10729000BDE8F083D8F8003002AAD3F80C90294654
:1072A0003B464046C8470028EAD0E41BD7E7E9D967
:1072B000002CE7D0D8F800301E2C274628BF1E2708
:1072C000D3F8089002AA3B4631464046C8470028FA
:1072D000D6D0D8F8003002AAD3F80C9029463B4605
:1072E0004046C8470028CBD03E443D44E41BDFE77E
:1072F0000368C9B29B68184701757047F8B507461F
:107300000C4615461E4604F03BF9397D01F036FE69
:1073100004F036F92146FFF7EBFF0024A64207DD13
:1073200004F02EF90368295D9B6898470134F5E75E
:1073300004F026F9BDE8F84001F043BE07B501238B
:107340008DF807200DF10702FFF7D8FF03B05DF8B5
:1073500004FB38B504460D4604F012F9217D01F016
:107360000DFE04F00DF92946FFF7C2FF04F008F9FD
:10737000002101F022FE08B1002038BD04F000F920
:10738000217D012201F0F7FD0128F5D104F0F8F884
:1073900003685B699847C0B2EFE738B50D460E2128
:1073A0000446FFF7D6FF20F0030242EA950220468A
:1073B000D2B2BDE838400E21FFF7C0BF38B50D4648
:1073C0002A210446FFF7C5FF20F0300242EAC50239
:1073D0002046D2B2BDE838402A21FFF7AFBF2221B4
:1073E000FFF7B7BF10B511210446FFF7B2FF40F019
:1073F0004000C2B211212046FFF7A0FF20465022D4
:10740000BDE810401221FFF799BF10B52A210446AC
:10741000FFF79FFF2A2100F0FE022046BDE8104042
:10742000FFF78CBF10B52A210446FFF792FF40F00A
:107430000100C2B22A212046BDE81040FFF77EBFFE
:1074400037B5044600294FD00A29A8BF0A210846AB
:1074500004F046FA26A3D3E9002304F0ABFA04F0C3
:10746000E3FC0121102300917F22C0B200F082FFD3
:10747000C5B22046FFF7C9FF204655222121FFF75C
:107480005DFF2A4620462321FFF758FF2A46204663
:107490002421FFF753FF2A4620462521FFF74EFF00
:1074A0002046FF222621FFF749FF2046642227219C
:1074B000FFF744FF2046FF222821FFF73FFF204629
:1074C00002222C21FFF73AFF204608222D21FFF748
:1074D00035FF204608222E21FFF730FF204603B05B
:1074E000BDE83040FFF79EBF0120B1E7AFF3008059
:1074F000666666666666294038B541751546044677
:1075000004F03EF801F008FD0D212046FFF721FFB1
:107510002A2812D12046FFF778FF617D2046FFF729
:107520003CFF29462046FFF749FF2046FFF75AFF58
:107530002046FFF777FF012038BD0020FCE7012A35
:10754000034602D1016000207047022A04BFD1E93E
:107550000001C3E90001F6E710B501230374836855
:10756000044643B1C0689847012363740020BDE816
:10757000104000F053BB00680028F5D083680BB9B9
:1075800004F059F8C368EEE710B44268034654109B
:1075900001EB6200D20748BF0A591B685DF8044B33
:1075A00048BFD358184700000123F7B580F82930A9
:1075B0000646083000F0F2FA0420FCF76CFD0546A0
:1075C00098B31B49142004F032F830B10023C0E90D
:1075D0000033C0E90233037443742860A0B1154B33
:1075E0001549C0E902364FF40063CDE900030222D9
:1075F000124B043000F09AFA30B92B681B7CA3B907
:10760000012000F033FBF8E72C6800232B6064B105
:10761000276837B13846FCF78DFE1021384604F054
:1076200004F81421204604F000F8756003B0F0BDA2
:107630004CCF0D0047780D005CCB0D0059750D0047
:1076400047F23051084AC160084902600022C0E98F
:1076500004120749C16107494260C0E908228161FB
:10766000028580F82A20704720CC0D00B1790D00EA
:1076700089750D003F750D0010B5044B044640F8A8
:10768000103BFCF757FE204610BD00BF20CC0D007C
:1076900010B5034B03600446FFF7EEFF204610BD14
:1076A00048CC0D0010B50446FFF7F2FF2046382104
:1076B00003F0BBFF204610BD806800F077BA8068F9
:1076C00000F07CBA10B504460068FFF7F8FF2046CA
:1076D00010BD13B504460190FFF7EEFFE36ADC88A6
:1076E000A4B20CB103F1080401A8FFF7EBFF204698
:1076F00002B010BD13B504460190FFF7DDFF94F80A
:10770000283043B9E26A0124D38001A8FFF7DAFFE9
:10771000204602B010BD0024F7E713B504460190DF
:10772000FFF7CAFFE36A01A8DC88FFF7CBFF20461A
:1077300002B010BD2DE9F047994686B090F8293087
:107740009DF838A09DF83C8004460F46164613B9B4
:1077500003689B689847314B3846002E08BF1E4689
:1077600004F0EBFC0546304604F0E7FC284400F149
:107770000A05AB071CBF25F0030504353346CDE9E8
:107780000285CDE9009A264926483A46FCF793FE41
:10779000238E083BAB4212D20024204606B0BDE83F
:1077A000F087CB88012B36D005A8FFF78BFF236825
:1077B00094F828109B69204698470028ECD0204672
:1077C0000594FFF779FFE16A228E636B0A44D21AAF
:1077D000AA42E6D348EA0A0883F80480C3F8009076
:1077E000636B03F108083946404604F080FC4046CC
:1077F00004F0A3FC01303146404404F078FC636B94
:10780000E26A1D446563D3880133D380012405A84F
:10781000FFF758FFC1E70024F9E700BFC9CD0D000D
:107820006ECB0D0000E5032008B5044600F11005FD
:10783000A3690BB903F0FFFEE36921462846984788
:1078400000F07CF9F4E708B5FFF7EEFF68B501F149
:1078500008050646284604F070FC01300544284619
:1078600004F06BFCF36A01302844C31A13F00303DD
:107870001CBFC3F10403C01868BDF7B504460E462B
:107880000190FFF719FFE76AFB8807F10805E6B1E9
:10789000012B22D929462046FFF7D8FF0546294665
:1078A0002046FFF7D3FF228E3A44121A0146A0EB7E
:1078B000050602D0284604F0B3FB636B9B1B636391
:1078C000FB88013BFB80012601E0002BE7D101A8EA
:1078D000FFF7F8FE304603B0F0BD0026F7E70000E2
:1078E0002DE9F0470D4604462F461646FFF7A8FE41
:1078F000154B57F8082B2360144BE5629A422686F5
:10790000984617D1AB889BB2B34213D105EB060A58
:1079100067634FF00009EB881FFA89F29BB29A4225
:107920000ED2616B2046FFF791FF5045606309F16D
:107930000109F0D90023C5F800806763AE80EB80B1
:107940002046BDE8F08700BF48CC0D0061AB9CD15C
:1079500010B5D1E9002386B00021044604910AB98C
:10796000D90705D5CDE902230F4B05930F4B04939F
:1079700002AB93E803006A4682E8030094E8030040
:1079800083E8030092E80300049A84E80300A168F6
:10799000A260059A04911846E168E2600591FCF73F
:1079A000C9FC204606B010BD89750D003F750D005D
:1079B00007B5054B00936946002310300193FFF78C
:1079C000C7FF03B05DF804FBF9790D0013B5044659
:1079D00000F05CF9636AC01AE368984208D3054B6B
:1079E00000936946002304F110000193FFF7B0FFF4
:1079F00002B010BDF9790D002DE9F04190F82A3060
:107A000086B00446002B64D100F09CFB002860D0B7
:107A100000F03CF9636AC01A40F2F133984258D939
:107A2000236820465B6998470546002851D000F13D
:107A30000807012384F82830384604F07EFB95F8C7
:107A40000480CDF8048001302B682B4900933E1848
:107A500033462A483A46FCF72EFD2B688DF8008005
:107A60003246394602A800F09BFF029D6B781BB995
:107A7000012000F08BFCF8E7002000F0F1FA20B1C3
:107A80006B7813B900F04EFBFAE72B78012B23D16A
:107A90001B491A48FCF70FFD236800219B6920460B
:107AA0009847002384F8283000F0F0F86062039CC7
:107AB0007CB16368013B63605BB9236820469B68C7
:107AC0009847A368013BA3601BB923682046DB6885
:107AD000984706B0BDE8F081E2680A490748FCF71C
:107AE000EAFC094B049304A9002304F11000059358
:107AF000FFF72EFFD5E700BFAFCB0D0000E5032059
:107B0000D0CB0D00E7CB0D00CD790D00014B024A23
:107B10001A60704700E503200ECC0D0008B5024B3B
:107B20001B685B6C019308BD7402030008B5024B2F
:107B30001B685B68019308BD4802030008B5024B4F
:107B40001B68DB68019308BD4802030008B5024BBF
:107B50001B68DB69019308BD4802030008B5024BAE
:107B60001B681B6A019308BD4802030008B5024B5D
:107B70001B685B6A019308BD4802030008B5024B0D
:107B80001B689B6A019308BD4802030008B5024BBD
:107B90001B68DB6A019308BD4802030008B5024B6D
:107BA0001B681B6B019308BD4802030008B5024B1C
:107BB0001B689B6B019308BD4802030008B5024B8C
:107BC0001B681B6C019308BD4802030008B5024BFB
:107BD0001B685B6C019308BD4802030008B5024BAB
:107BE0001B689B6C019308BD4802030008B5024B5B
:107BF0001B68DB6C019308BD4802030008B5024B0B
:107C00001B685B6D019308BD4802030008B5024B79
:107C10001B689B6D019308BD4802030008B5024B29
:107C20001B68DB6E019308BD4802030008B5024BD8
:107C30001B681B6F019308BD4802030008B5024B87
:107C40001B685B6E019308BD3402030008B5024B4C
:107C50001B68DB6E019308BD3402030008B5024BBC
:107C60001B685B68019308BD1802030008B5024B4E
:107C70001B689B68019308BD1802030008B5024BFE
:107C80001B68DB68019308BD1802030008B5024BAE
:107C90001B685B69019308BD1802030008B5024B1D
:107CA0001B689B6D019308BD1802030008B5024BC9
:107CB0001B68DB6D019308BD1802030008B5024B79
:107CC0001B685B6E019308BD1802030008B5024BE8
:107CD0001B689B6E019308BD1802030008B5024B98
:107CE0001B681B68019308BD2C02030008B5024BFA
:107CF0001B685B68019308BD2C02030008B5024BAA
:107D00001B689B68019308BD2C02030008B5024B59
:107D10001B68DB68019308BD2C02030008B5024B09
:107D20001B681B69019308BD2C02030008B5024BB8
:107D30001B685B69019308BD2C02030008B5024B68
:107D40001B689B69019308BD2C02030008B5024B18
:107D50001B68DB69019308BD2C02030008B5024BC8
:107D60001B681B6B019308BD2C02030008B5024B76
:107D70001B68DB68019308BD2802030008B5024BAD
:107D80001B689B69019308BD2802030008B5024BDC
:107D90001B68DB69019308BD2802030008B5024B8C
:107DA0001B681B6A019308BD2802030008B5024B3B
:107DB0001B685B6A019308BD2802030008B5024BEB
:107DC0001B689B6A019308BD2802030008B5024B9B
:107DD0001B68DB6A019308BD2802030008B5024B4B
:107DE0001B681B6B019308BD2802030008B5024BFA
:107DF0001B685B6B019308BD2802030008B5024BAA
:107E00001B681B6C019308BD2802030008B5024BD8
:107E10001B689B6C019308BD2802030008B5024B48
:107E20001B68DB6C019308BD2802030008B5024BF8
:107E30001B681B6D019308BD2802030008B5024BA7
:107E40001B685B69019308BD6402030008B5024B1F
:107E50001B689B68019308BD6802030008B5024BCC
:107E60001B68DB68019308BD6802030008B5024B7C
:107E70001B68DB69019308BD3002030008B5024BA3
:107E80001B681B6A019308BD3002030008B5024B52
:107E90001B681B68019308BD3C02030008B5024B38
:107EA0001B689B68019308BD3C02030008B5024BA8
:107EB0001B68DB68019308BD3C02030008B5024B58
:107EC0001B681B69019308BD3C02030008B5024B07
:107ED0001B685B69019308BD3C02030008B5024BB7
:107EE0001B689B69019308BD3C02030008B5024B67
:107EF0001B68DB69019308BD3C02030008B5024B17
:107F00001B681B6A019308BD3C02030008B5024BC5
:107F10001B689B6A019308BD3C02030008B5024B35
:107F20001B68DB6A019308BD3C02030008B5024BE5
:107F30001B681B68019308BD4C02030008B5024B87
:107F40001B685B68019308BD4C02030008B5024B37
:107F50001B689B68019308BD4C02030008B5024BE7
:107F60001B681B69019308BD4C02030008B5024B56
:107F70001B685B69019308BD4C02030008B5024B06
:107F80001B689B69019308BD4C02030008B5024BB6
:107F90001B68DB69019308BD4C02030008B5024B66
:107FA0001B681B6A019308BD4C02030008B5024B15
:107FB0001B685B6B019308BD6002030008B5024BB0
:107FC0001B681B6D019308BD6002030008B5024BDE
:107FD0001B685B6D019308BD6002030008B5024B8E
:107FE0001B68DB6E019308BD6002030008B5024BFD
:107FF0001B681B6F019308BD6002030008B5034BAB
:108000001B68D3F89830019308BD0000600203009C
:1080100008B5024B1B681B68019308BD20020300D2
:1080200008B5024B1B685B68019308BD2002030082
:1080300008B5024B1B685B69019308BD2002030071
:1080400008B5024B1B681B6A019308BD20020300A0
:1080500008B5024B1B68DB6A019308BD20020300D0
:1080600008B5024B1B68DB6C019308BD20020300BE
:1080700008B5024B1B685B6D019308BD200203002D
:1080800008B5024B1B689B6D019308BD20020300DD
:1080900008B5024B1B68DB6D019308BD200203008D
:1080A00008B5034B1B68D3F88830019308BD000066
:1080B0002002030008B5034B1B68D3F894300193EA
:1080C00008BD00002002030008B5034B1B68D3F86D
:1080D000A830019308BD00002002030008B5034B3F
:1080E0001B68D3F8AC30019308BD000020020300E8
:1080F00008B5034B1B68D3F8B030019308BD0000EE
:108100002002030008B5024B1B681B68019308BDE1
:108110004402030008B5024B1B685B68019308BD6D
:108120004402030008B5024B1B689B68019308BD1D
:108130004402030008B5024B1B68DB68019308BDCD
:108140004402030008B5024B1B685B69019308BD3C
:108150004402030008B5024B1B68DB69019308BDAC
:108160004402030008B5024B1B681B6A019308BD5B
:108170004402030008B5024B1B685B6A019308BD0B
:108180004402030008B5024B1B68DB6A019308BD7B
:108190004402030008B5024B1B681B6B019308BD2A
:1081A0004402030008B5024B1B685B6B019308BDDA
:1081B0004402030008B5024B1B689B6B019308BD8A
:1081C0004402030008B5024B1B68DB6B019308BD3A
:1081D0004402030008B5024B1B685B6C019308BDA9
:1081E0004402030008B5024B1B685B68019308BD9D
:1081F0004002030008B5024B1B689B68019308BD51
:108200004002030008B5024B1B68DB68019308BD00
:108210004002030008B5024B1B681B69019308BDAF
:108220004002030008B5024B1B685B69019308BD5F
:108230004002030008B5024B1B689B69019308BD0F
:108240004002030008B5024B1B68DB69019308BDBF
:108250004002030008B5024B1B681B6A019308BD6E
:108260004002030008B5024B1B681B6B019308BD5D
:108270004002030008B5024B1B685B6B019308BD0D
:108280004002030008B5024B1B681B6C019308BD3C
:108290004002030008B5024B1B685B6C019308BDEC
:1082A0004002030008B5024B1B681B68019308BD20
:1082B0001C02030008B5024B1B685B68019308BDF4
:1082C0001C02030008B5024B1B689B68019308BDA4
:1082D0001C02030008B5024B1B681B69019308BD13
:1082E0001C02030008B5024B1B68DB69019308BD43
:1082F0001C02030008B5024B1B685B6A019308BDB2
:108300001C02030008B5024B1B68DB6A019308BD21
:108310001C02030008B5024B1B681B6B019308BDD0
:108320001C02030008B5024B1B685B6C019308BD7F
:108330001C02030008B5024B1B689B6C019308BD2F
:108340001C02030008B5024B1B68DB6C019308BDDF
:108350001C02030008B5024B1B681B6D019308BD8E
:108360001C02030008B5024B1B685B6D019308BD3E
:108370001C0203008A4210B507D0029C401AE41A7E
:108380006043521A90FBF2F0184410BD0021FFF731
:108390004FBE10B5836804460BB903F04CF9C368AF
:1083A0009847A3681BB103222146204698472046E0
:1083B0001021BDE8104003F038B910B50368044639
:1083C0009B689847A368013BA3602BB923682046AC
:1083D000DB68BDE81040184710BD10B504460068C2
:1083E00008B1FFF7FBFB204610BD0B68036013B11B
:1083F0005A6801325A60704710B50446006828B1C7
:108400004368013B43600BB9FFF7D7FF204610BD1F
:1084100010B5064C002320462360FFF7D7FB20460B
:10842000034A0449BDE8104003F0FAB804E503200C
:1084300010E30320DB830D00002240681146FFF7A4
:10844000E9BE002240681146FFF704BF00224068E1
:108450001146FFF70FBF40680022FFF703BF4068D7
:10846000002281F00101FFF7EDBE002340681A46AB
:108470001946FFF7D7BE002240681146FFF7BABE83
:10848000406800220221FFF7BDBE002340681A4663
:10849000FFF7A8BEF0B51B4B036000250F4628333D
:1084A0001826C0E9025589B0436032462946044681
:1084B000103003F0CFFD78682A462946FFF7AAFE60
:1084C00018B9A060204609B0F0BD2946324602A87E
:1084D000CDE9005503F0BEFD02A96846ADF808607D
:1084E000FFF71CFB10B10123A360EBE7009B019A8F
:1084F000A360E2600BB90223A36002A9204600F04A
:10850000AEF8DFE7ACCC0D00084B10B528242246AE
:108510001846002103F09EFD054B04804FF0FF320A
:10852000426004225A60034A1A6010BD10E503201D
:1085300008E5032070CC0D007047007D704710B532
:108540002821044603F071F8204610BD037D7BB15D
:10855000C369002B0CDB07EE903A9FED077AF8EE2B
:10856000E77A87EE870ADFED057A20EE270A704763
:10857000BFEE000A704700BF00FF7F470000C842FF
:10858000037D63B18369B3F1004F08D007EE903AE1
:108590009FED047AF8EEE77A87EE870A70479FED41
:1085A000020A70470000C84200000000037D7BB152
:1085B000436A002B0CDB07EE903A9FED077AF8EE4A
:1085C000E77A87EE870ADFED057A20EE270A704703
:1085D000BFEE000A704700BF00FF7F470000C8429F
:1085E000037D63B1036AB3F1004F08D007EE903A00
:1085F0009FED047AF8EEE77A87EE870A70479FEDE1
:10860000020A70470000C8420000000070B50C1E4E
:1086100006460ADA2D2102F0C8F8614205460A2210
:10862000304602F0D1F8284470BD21460025F6E717
:1086300070B50C46054681682046FFF7E7FF2C2100
:108640000646204602F0B1F8E96806442046FFF7E6
:10865000DDFF304470BDA0F10400FFF7E9BF30B585
:108660000D4600F110040FCD0FC495E8030084E817
:108670000300012030BD70470020704710B5102165
:10868000044602F0D2FF204610BD08B5FFF7F6FF02
:1086900008BD30B500224FF69C74026084808D883E
:1086A0008C800C68858004600A6030BD10B504467B
:1086B0000068FFF7FFFD204610BD38B5C468F4B16F
:1086C0002378022B03D104F10C00FFF7EFFF65685C
:1086D00035B12846FBF72EFE1021284602F0A5FFF3
:1086E000A56835B12846FBF725FE1021284602F083
:1086F0009CFF20461421BDE8384002F096BF38BDEB
:1087000010B588B00446684602F017F9694604A817
:1087100002F05EF904A8A047044604A802F0C2F8DB
:10872000684602F0BFF8204608B010BD1FB5002310
:10873000CDE90201019210241A4669461846ADF8A7
:108740000230ADF80040FFF7E5FC04B010BD1FB5E6
:108750000C23ADF8043003688DF80630037A8DF8E9
:108760000730436802930021437AADF80D1001A849
:108770008DF80F108DF80C30FFF72CFD05B05DF86B
:1087800004FB1FB50C22ADF8042002688DF806200A
:10879000027A8DF80720426802920023427A8DF80F
:1087A0000C20194601AA0220ADF80D308DF80F30CB
:1087B000FFF700FD05B05DF804FB73B50E460446F7
:1087C00056F8043B00930D4601A83146FFF70DFE15
:1087D000019A009B6260236001A80023019300932B
:1087E000FFF70AFE3046FFF707FE2846082102F091
:1087F0001CFF204602B070BD13B50B460246D0E9FF
:1088000000016C4684E8030093E8030082E803005B
:1088100094E8030083E8030002B010BD826810B53D
:108820000AB902F008FFBDE81040C368184708B550
:10883000006800F11001FFF7F1FF08BD826810B574
:108840000AB902F0F8FEBDE81040C368184708B541
:10885000006800F11001FFF7F1FF08BD38B50023F3
:108860000446036010200D46FBF715FC28B10123D8
:10887000C0E90133024B0360C5602060204638BD6B
:10888000E0CC0D0038B5002383608B6804460D46AC
:108890002BB102229847EB68E360AB68A3602046E7
:1088A00038BD0000F0B589B004686846FFF7F1FEF6
:1088B0004FF00203D4E84F2F002A03D1C4E8413F10
:1088C0000029F7D125D104F10C0569462846FFF7A8
:1088D000E0FEBFF35B8F01236370002004F1080307
:1088E000BFF35B8F53E8006F43E80002002AF9D121
:1088F000BFF35B8F6EB1FFF7B3FB78B1294630460B
:10890000FFF78CFF3046FBF715FD1021304602F0D3
:108910008CFE6846FFF7CAFE09B0F0BD314602A8DA
:10892000FFF7B0FFE068B4F9105008B103F0E8FBBE
:1089300006901020ADF81C50FBF7ADFB0546E8B1E2
:10894000002787601820FBF7A6FB044688B1014684
:10895000876002A8FFF750FF049BA268A360059BF5
:10896000049206A9E268E36004F110000592FFF7A3
:1089700090FE084BEB60084B2C60AB6006A8FFF73D
:1089800095FE02A8FBF7D6FC002229460348FFF714
:108990006FFBB7E72F880D00C58A0D0093830D008C
:1089A0002DE9F0478AB005469DF848900C461746D9
:1089B0009846FFF7C7FB07AE824638BB4FF62E73CB
:1089C000059005A93046ADF81830FFF762FE142077
:1089D000FBF761FB044648B1022303700123C0E9A1
:1089E00001AA437031460C30FFF753FE284621465A
:1089F00040F8044BFFF732FF3046FFF757FE05A85B
:108A0000FFF754FE28460AB0BDE8F0870C234FF06C
:108A1000000A1420CDE908AA0793FBF73CFB0146A6
:108A200028B1C0E901AA80F800A080F801A004A83C
:108A30000391FFF713FF224B08930820FBF72BFB52
:108A4000824628B1039B40F8043B04A9FFF7CDFC04
:108A500000965FFA89F3424639462046CDF824A0B5
:108A6000FFF780FBB8B9039B5B7803F0FF0293B973
:108A70004FF69C7305A903A80592ADF81830FFF7CF
:108A800011FF05A8FFF712FE05A80999FFF795FE4B
:108A900006A8FFF7B1FC039B059304A906A8FFF7FE
:108AA000A4FC059B069A2B606A60002306A8069327
:108AB0000593FFF7A1FC04A8FFF79EFCA2E700BF07
:108AC000898B0D00022AF8B5054607D0032A18D075
:108AD000012A01D10B6803600020F8BD18200E6840
:108AE000FBF7D9FA044650B13146FFF7CBFE3069A7
:108AF000B6F9147008B103F003FB2061A7822C6063
:108B0000EAE70468002CE7D004F11000FFF7CEFD7F
:108B10002046FBF70FFC1821204602F086FDDBE71C
:108B200038B5002383608B6804460D462BB10222C2
:108B30009847EB68E360AB68A360204638BD022A23
:108B400070B5044607D0032A12D0012A01D10B6860
:108B50000360002070BD14200E68FBF79CFA0546E8
:108B600020B13146FFF7DCFF337C2B742560F0E742
:108B70000468002CEDD02046FBF7DCFB14212046D6
:108B800002F053FDE5E70000F0B589B004460D465C
:108B900001A81146FFF711FEA4B124B21DB1284669
:108BA00003F0AEFA054601A803A90395ADF81040FD
:108BB000FFF778FE03A8FFF779FD02A8FFF71CFC7A
:108BC00009B0F0BD019D0123D5E84F2F002A03D144
:108BD000C5E8413F0029F7D1EFD12B73BFF35B8F7D
:108BE0006B702B1DBFF35B8F53E8006F43E80042AF
:108BF000002AF9D1BFF35B8F002EDED02046FFF7AD
:108C00002FFA074660B105F10C013046FFF716FE5A
:108C10003046FBF78FFB1021304602F006FDCCE713
:108C2000314603A8FFF77CFF2B7B8DF81C3010200A
:108C3000FBF731FA0546D0B187601420FBF72BFA19
:108C4000044678B18760014603A8FFF7D5FD059B70
:108C5000A268A360069B0592E268E3609DF81C3061
:108C600006922374064BEB60064B2C60AB6003A8A6
:108C7000FBF760FB002229460348FFF7F9F9C7E735
:108C80004F880D003F8B0D0093830D00002240683C
:108C90001146FFF7DFBA002240681146FFF7EABA33
:108CA00040680022FFF7DEBA4068002281F001012F
:108CB000FFF7C8BA002340681A461946FFF7BABA48
:108CC000002340681A461946FFF7ACBA00224068F4
:108CD0001146FFF79FBA002240681146FFF78ABA93
:108CE000406800220221FFF78DBA002340681A462F
:108CF000FFF778BA024B03225A60024A1A607047A3
:108D000038E50320FCCC0D00006800F05DB910B51B
:108D10000446016002710AB1FFF7F6FF204610BD5C
:108D200013B50446019102F053FC019A0146204616
:108D3000FFF7EDFF204602B010BD006800F04DB90E
:108D400010B5037904460BB1FFF7F7FF204610BDBD
:108D50002DE9FF4104460D4617461E46FFF7D4FF96
:108D600036238DF800300023206801934FF001086E
:108D70000A23694603938DF8088000F006F92068FD
:108D8000036829469B6898472068414600F015F91A
:108D9000054640B16FF09F052046FFF7CEFF2846FD
:108DA00004B0BDE8F081022320680193694600F019
:108DB000B9F80228EED1206803685B6998473870DB
:108DC000206803685B6998473070E5E713460A46F8
:108DD0000C21FFF7BDBF2DE9FF41164604461D4695
:108DE0000F46FFF791FF36238DF8003000232068EF
:108DF00001934FF001080A23694603938DF8088018
:108E000000F0C3F82068036839469B6898472068DB
:108E1000036831469B6898472068036829469B6829
:108E200098474146206800F0C8F8002820460CBF4B
:108E300000256FF09F05FFF780FF284604B0BDE8CE
:108E4000F08108B5402200230621FFF7C4FF00EAA5
:108E5000E07008BD37B50546FFF756FF00230DF15A
:108E600007020DF1060128468DF806308DF807300F
:108E7000FFF7ACFF041E0BDB9DF807309DF80620C2
:108E800003F07F030C212846FFF7A5FF00EAE074FA
:108E90002846FFF752FF204603B030BD7047F8B5B3
:108EA000064615460C468F18BC4206D0336814F8A7
:108EB000011B9B6830469847F6E72846F8BD007CC2
:108EC0000022FEF76BBF007C0021FEF76FBF007C25
:108ED0000021FEF773BF007C0021FEF777BF007C06
:108EE0000021FEF77BBF10B51421044602F09DFB64
:108EF000204610BD10B54FF47A7304460846002191
:108F0000C4E90113034B236020741146FEF776FF7A
:108F1000204610BD38CD0D000023007C1A461946AE
:108F2000FEF724BF7FB500221423CDE90122ADF85E
:108F300004300B788DF808304B680393CB680493AA
:108F4000007C0B7A059301A9FEF770FF07B05DF86E
:108F500004FB1FB5003B8DF800104FF06401039136
:108F600018BF0123694601928DF80830FFF7DAFF38
:108F700005B05DF804FB0123FFF7EBBF007C002286
:108F8000FEF7FCBEC9B2FFF7F9BF7FB50023CDE9FC
:108F900001334A6803921423CA68ADF804300B7891
:108FA00004920A7A0592007C8DF8083001AA1946CD
:108FB000FEF7E4FE07B05DF804FB007C0022FEF73C
:108FC000E5BE0121FFF7F9BF08B50021007CFEF7DF
:108FD0001DFFB0FA80F0400908BD08B50021007CF3
:108FE000FEF71CFFB0FA80F0400908BD0047000002
:108FF0002DE9FF4100241D460F4690460646FEF728
:10900000A5FEA5424FF00403ADF80D408DF80C30DD
:109010008DF80F40A2BF9DF828308DF80E3003ACBC
:109020000749009443463A463046A8BF8DF80D5094
:10903000FEF784FEB0FA80F0400904B0BDE8F0818C
:10904000ED8F0D00F8B50446FEF780FE054670B9B9
:10905000084F57F8246046B13046FBF76BF91021F2
:10906000304602F0E2FA47F82450012000E00020E8
:10907000F8BD00BF40E50320704710B51821044635
:1090800002F0D3FA204610BDF0B5037D062B8DB05B
:109090000E4600F104074FF0000412D000F108055D
:1090A00015F8011D0A22304601F08EFBAF42044440
:1090B00019D0002CF4D02E21304601F076FB044468
:1090C000EEE72F236A4639460A208DF80040FEF766
:1090D000B5FE684603F031F833680246DB6869463E
:1090E00030469847044620460DB0F0BD10B5054BFC
:1090F0000446112240F8043B002102F0ABFF204659
:1091000010BD00BF60CD0D000346074A10B543F8FF
:10911000042B01F1100251F8044B43F8044B914227
:10912000F9D10A781A7010BD60CD0D0010B59DF808
:10913000084044EA032343EA024242EA016104236D
:109140004160037510BD13B5CB7800938B784A78D6
:109150000978FFF7EBFF02B010BD00F11003012208
:1091600013F8101C0129184608D153F8041C02EB0F
:109170004102013A03F11003F2D17047022904BF02
:1091800053F8041C5218F4E70EB4F0B588B000AFE1
:1091900007F13405102155F8042B7A6004462B465C
:1091A0007818FD60FFF7A6F80F287A681AD900F141
:1091B000080323F007036E46ADEB030D411C2B465D
:1091C0006846FD60FFF796F8021E04DD23686946D5
:1091D0009B6820469847B5462037BD46BDE8F0401D
:1091E00003B070470028F7D0236802469B6807F158
:1091F000100120469847EFE710B5036804469B68C6
:109200009847A368013BA3602BB923682046DB681D
:10921000BDE81040184710BD07B503688DF807106A
:109220009B6801220DF10701984703B05DF804FB2C
:1092300038B50B6803604D6843689D4204460CD006
:1092400015B16B6801336B60606828B14368013BFE
:1092500043600BB9FFF7D0FF6560204638BD0B4671
:109260001146002210B5C0E90022044683600BB904
:10927000204610BDFFF7DCFFFAE78368EBB11A78F0
:10928000032A1AD8DFE802F00417021B05207047F2
:1092900002685B685268D05C2D2812D0A0F13003C0
:1092A000092B0ED974280ED066280CD0A0F16E03BD
:1092B00058425841704706207047002070470420EC
:1092C0007047032070470220704710B50446FFF72F
:1092D000D4FF02280ED0C31EDBB2012B14D82268A3
:1092E000A36850685B68BDE810400A22002118445A
:1092F00002F0DEBF2268A36852685B68D05CA0F110
:1093000074035842584110BD0020FCE738B50023D3
:10931000C0E9003304460E48C4E90203A9B10B7842
:10932000032B06D08BB9136858684B68C35C6E2B4F
:1093300007D013684D6858688B6828445B1BA06091
:10934000E36011462046FFF773FF204638BD00BF9B
:10935000C9CD0D0038B500250B46C0E90055C0E960
:109360000255C0E90455044611464BB11A78012A4A
:1093700006D103F11002DB6882604361FFF758FFFA
:10938000204638BD10B54369044663B18068E0608B
:10939000013B1030A0602061636113B1FFF7DDFE77
:1093A000A060012000E0184610BD10B57D210446E4
:1093B000FFF732FF01232371204610BD08B5037962
:1093C000012B02D0022B04D008BD2C21FFF724FF73
:1093D000FAE73A21FAE710B50446FFF7EFFF204617
:1093E0007B21FFF719FF00232371204610BD0000E9
:1093F00013B504460191FFF7E1FF2368019ADB688A
:1094000003492046984701232046237102B010BD2E
:109410004CC90D0013B504460191FFF7CFFF236837
:10942000019ADB68034920469847012320462371AF
:1094300002B010BD3BCB0D002DE9F0410D461746A3
:109440002221DFF8A08004462F44FFF7E5FE2946DD
:10945000BD422A4638D015F8016B222E03D05C2E6F
:1094600001D01F2EF4D82368521A9B6820469847D3
:109470005C212046FFF7D0FE0D2E0AD8072E1CD9FE
:10948000A6F10803052B18D8DFE803F00D0F11171C
:109490001315222E01D05C2E0FD131462046FFF746
:1094A000BBFE2946D4E76221F8E77421F6E76E2176
:1094B000F4E76621F2E77221F0E723683246DB68C1
:1094C000414620469847ECE78D4204D023686A1A4B
:1094D0009B682046984722212046FFF79DFEBDE865
:1094E000F08100BF6CCD0D0013B50446CDE900211D
:1094F000FFF764FF2046DDE90021FFF79DFF02230F
:109500002046237102B010BD13B50446CDE90021F9
:10951000FFF754FF2046DDE90021FFF78DFF01230F
:109520002046237102B010BD80680368DB681847CD
:109530007047084611B10B685B6818477047704761
:109540007047704738B504460D4600682E2102F07A
:10955000BAFD2368C31A2B6023B1037803B101302D
:1095600023682060184638BD10B50C21044602F06F
:109570005CF8204610BD10B50421044602F055F8F1
:10958000204610BD10B50421044602F04EF82046D6
:1095900010BD08B502F0A1FDB0FA80F0400908BD89
:1095A00010B50C4601F056FE844210D001F0C6FD05
:1095B000844205D101F0C2FDBDE8104001F0BBBD01
:1095C0002CB1236820465B68BDE81040184710BDE9
:1095D00013B504460846019102F0AFFD0199024619
:1095E000204602B0BDE81040FFF78EBF13B5044619
:1095F0000846019102F0A1FD23680199DB6802464B
:10960000204602B0BDE81040184707B503688DF842
:109610000710DB6801220DF10701984703B05DF8E0
:1096200004FB0EB403B503AB002153F8042B006A0E
:10963000019301F0E7F802B05DF804EB03B0704766
:109640002DE9F74FD0E900954FF0140808FB05F518
:109650000093AB10184D17465D434C46002D23DD9B
:109660006E1008FB06F004EB000A3A46BAF804B0A4
:10967000205801915F4528BF5A4602F066FD0199C6
:10968000012378B95F4503D1009A13703546E5E7A9
:109690008CBF012000200028F8D0AE1B0AF1140472
:1096A000013EF3E7C00FF6E7A4EB09040248A4105B
:1096B000604303B0BDE8F08FCDCCCCCC7FB503695F
:1096C000067E01910BB301B3002500F10C04039554
:1096D00003A901A8FFF736FF0146B0B10DF10B0356
:1096E000039A8DF80B502046FFF7AAFF9DF80B3028
:1096F0005BB12468142303FB004000F10804B0F9B7
:109700000630002BA8BFDEB2E2E7304604B070BDE1
:1097100010B50A4C2378BFF35B8FDB070BD42046D0
:10972000FAF7CAFC38B12046FAF7CBFC044A0549DF
:10973000054801F075FF044810BD00BFD4E50320C3
:1097400010E3032041950D0094E2032010B50A4C6C
:109750002378BFF35B8FDB070BD42046FAF7ACFC12
:1097600038B12046FAF7ADFC044A0549054801F036
:1097700057FF044810BD00BFD8E5032010E30320C5
:109780003F950D0098E2032038B500250446C0E956
:109790000055C0E904558560856140F8245FFEF7F7
:1097A00015FAFFF7B5FFE061FFF7D0FF25732062E0
:1097B000204638BD10B50B4C2378BFF35B8FDB0719
:1097C0000ED42046FAF778FC50B10748FFF7DCFFCB
:1097D0002046FAF776FC054A0549034801F020FFC8
:1097E000014810BDD0E50320E0E5032010E303208D
:1097F000499C0D00024A034903480023FEF7F6BBCB
:10980000259B0D00B19A0D00319A0D0000231A46D8
:1098100019461846FEF7EABB37B50D6951F8043B07
:109820000093044601A8FEF7E0FD6A46294620465B
:10983000FFF715FD01A8FEF7DFFD204603B030BDA0
:1098400037B58D6851F8043B0093044601A8FEF734
:10985000CCFD6A4629462046FFF77CFD01A8FEF7AD
:10986000CBFD204603B030BD37B5CD6851F8043B81
:109870000093044601A8FEF7B8FD6A462946204633
:10988000FFF744FD01A8FEF7B7FD204603B030BD49
:1098900070B58AB00D46014604A8FFF7D1FF144EFB
:1098A00004A8FFF76FFDE8B104A96846FFF7DCFFE5
:1098B00002983146FFF76DFE044610B12C1E18BF0A
:1098C000012401A8FEF798FD002CE9D004A9684600
:1098D000FFF7A2FF6846FFF7F8FC286001A8FEF733
:1098E0008BFDDDE705A8FEF787FD0AB070BD00BF60
:1098F00072CD0D0037B50C4620461249154602F0D0
:10990000ECFB48B901F0A6FC4FF4165101F092FCB3
:1099100001F0A0FC03B030BD0B49204602F0DDFB96
:1099200070B94FF4165301A928460193FFF7B0FF11
:1099300001F004FC019901F0FBFB01F0FFFBE9E7FA
:109940000020E7E777CD0D007ECD0D0070B5D0E9A2
:1099500000531426044606FB0356AE4205D005F11B
:109960000800FFF7F3FF1435F7E72068FEF7A2FCC5
:10997000204670BD70B5D0E90053044605EB0316D0
:10998000AE4204D0284600F08DFF1035F8E720687D
:10999000FEF790FC204670BD10B504460C30FFF772
:1099A000D5FF2046FFF7E6FF204610BD10B5044B5B
:1099B000044640F8043BFFF7EFFF204610BD00BF10
:1099C000F8C70D0010B50446FFF7F0FF204624212C
:1099D00001F02BFE204610BD10B5034B036004467A
:1099E000FFF7E4FF204610BD18CE0D0010B5044669
:1099F000FFF7F2FF2046242101F017FE204610BD9C
:109A00000022C0E9002210B582600C6804604C6836
:109A100044608C680A604A6084608A6010BD10B53A
:109A2000036804461868FEF7E9F8204610BD0000F8
:109A30002DE9F04F87B0804603931C4B5B68C3F35E
:109A40000803894616466BB9FFF7B4FE044600F1D9
:109A50002403406A0593FEF7C9F8237B2BB105A8C0
:109A6000FFF7DDFF07B0BDE8F08F01232373D4E9D2
:109A700000535FFA89F905EB830AAA4512D055F81D
:109A8000047B3146381DFFF719FE8145F5D33B684D
:109A9000039A0092D3F808B04A4633464146384606
:109AA000D847EAE700232373D9E700BF00ED00E0C1
:109AB0002DE9F74F9B461A4B5B68C3F308038046BA
:109AC000894616466BB9FFF775FE044600F124037C
:109AD000406A0193FEF78AF8237B2BB101A8FFF7B8
