:02000002D0002C
:1040000000400D002CE40D00000006000D0005012D
:08401000040135080000000066
:0440180004CC0D00C7
:1040200009480A49884208B505D0094A824202D0A7
:10403000121A08F087FC0748074A0021121A08F0F4
:10404000A9FC014808BD00BFD8E10320DCE20D0057
:10405000FCE2032000E30320F8E7032070B5074EDD
:10406000074C07F0FFFBA41BA4080025A54200D1C4
:1040700070BD56F8043B98470135F7E7A0DA0D000C
:10408000D0DA0D0001F0B0BA08B501F017FFBDE8B5
:10409000084007F0A9BB04F037BA04F035BA04F0C1
:1040A0003BBA000008B5034A00210C2004F0A8F830
:1040B000FEE700BFD17E0D000078B0FA80F0400925
:1040C00070470123037070477047006A0368DB681C
:1040D00018470000014B1A60704700BF10E2032030
:1040E00003681847012A03D0022A03D00020704732
:1040F0000160FBE70B680360F8E70021072007F089
:104100004ABC000010B5054B1A7B054B044653F81A
:10411000221006F0AAFD204610BD00BFC0E4032017
:10412000D8E1032038B50446006928B185680C2120
:1041300007F0F9FC2846F8E7204638BD436913B17B
:1041400083690C301847704710B5034B0360044671
:1041500003F078FA204610BD40D20D0010B5044699
:10416000FFF7F2FF2046382107F0DDFC204610BDA6
:1041700010B5034B0360044603F080F8204610BDE1
:1041800024D20D0010B50446FFF7F2FF204610219F
:1041900007F0C9FC204610BD13B5002104460846AF
:1041A00003F0FEFD0023204601A9019303F010FE59
:1041B000019C0CB1012323710021012003F0F0FDCB
:1041C0002CB1236820469B6898470023237102B0D6
:1041D00010BD000008B50A4906F001FE002368B1D1
:1041E000084A09491360936053615360074A0B61A1
:1041F0001370074B01201870064B187008BD00BFE4
:104200005CCC0D00D8E30320C0E403200CE40320C1
:10421000FCE30320ECE4032008B504F0C5F820B16A
:10422000BDE80840002004F0DFB808BD08B5002054
:1042300004F0E2F828B104F0B7F880F00100C0B251
:1042400008BD0120FCE70023042204F08DB8000023
:10425000104B19781A4621B90F4991F82A100129F3
:1042600015D10E4B012119700D4B53E8001F013180
:1042700043E800100028F8D10A4B53E8001F013131
:1042800043E800100028F8D1002313707047012282
:104290001A7070476BE30320C0E40320A4E40320FA
:1042A00028E4032008E4032030B585B00346144613
:1042B00068460D4698470298206004F025F928606A
:1042C00050B12268009908F03DFB0024684606F0D2
:1042D00081FC204605B030BD004CF7E7FCFEFFFF37
:1042E0000A4B10B50446036005F090FB214605F02B
:1042F00092FD07F0F1F907F0E3F92046044B40F88E
:10430000043B05F075FC204610BD00BF0CD20D002B
:10431000F4D10D0010B50446FFF7E2FF204624213A
:1043200007F001FC204610BD10B50446006808B136
:1043300004F0F2F8204610BD10B58368044613B1AE
:10434000032201469847204610BD000037B5134BA5
:10435000036004468068C8B100256FF00043CDE9D2
:10436000003502212B462A4603F03AFDA068294673
:1043700003F086FD237903F0FF0513B103F008FD78
:10438000F8E7A068294603F01BFDA56004F10C00C6
:10439000FFF7D2FF204603B030BD00BFE0D10D00D3
:1043A00010B50446FFF7D2FF20461C2107F0BBFBE7
:1043B000204610BD38B5044620252A46002108F0C5
:1043C000E9FA6571204638BDF8B5037D05460F460C
:1043D00016468BB10368DB6883B19A88012A06D040
:1043E0009B68F9E79B684BB19A88012AFAD12BB1F7
:1043F0009A89BA42F6D19E732846F8BD0A49102020
:1044000007F093FB044668B11022002108F0C2FABD
:10441000064B23600123A3802B69A360A781A673A9
:104420002C61E9E72875E7E744D90D001000030087
:1044300070B5037D05460E46CBB10368DB6823B13A
:104440009A88042A17D09B68F9E70C49102007F0D6
:104450006CFB044668B11022002108F09BFA084B5F
:1044600023600423A3802B692C61C4E9023628460B
:1044700070BD2875FBE7DE60F9E700BF44D90D0089
:1044800010000300002003F03BBD0000024601487D
:1044900004F078BA59890D000EB410B58DB00FAA8A
:1044A000016852F8044B039200232020CDE9040355
:1044B000CDE900421E2004AA03F0B2FE0DB0BDE813
:1044C000104003B0704737B504689DF818508DF858
:1044D00000308DF80450E4683C23A04703B030BDA1
:1044E00030B50B781C4D93B00C4693B91B4902A80C
:1044F00008F09DFA2B7953B1194B1A491B788DF8A6
:104500000030194B19481B7802AAFFF7DCFF13B0E3
:1045100030BD084608F0F2F9C8280DD1144902A8A8
:1045200008F085FA06F091FF124B286201221A70FA
:10453000114B00221A70DDE7204608F0DFF9C92888
:10454000ECD0204608F0DAF90C4A0346402102A8D4
:1045500003F0FAFFCEE700BFC0E4032091CC0D00CA
:1045600069E30320C8CC0D0068E3032068E403205E
:1045700099CC0D00ECE403200CE40320ABCC0D003F
:1045800007B50B4906F02BFC70B100238DF8003005
:10459000084B094A1B7809490948FFF794FF094865
:1045A0000A2102F075FB012003B05DF804FB00BF97
:1045B0005CCC0D0068E30320D5CC0D0066D10D0066
:1045C00068E403206CE3032013B52349044606F096
:1045D00006FC18B3214B002283F82A20204B214AE5
:1045E00003F1100153F8040B42F8040B8B42F9D18C
:1045F0001D4B01241C7003F0D7FE10B9012002B03E
:1046000010BD1A4B1A4A1B788DF80030194B1B78D5
:1046100019491A48FFF757FF2046F0E71849204686
:1046200006F0DDFB0028EAD00C4B16490D480124AA
:10463000102283F82A4008F03AFA0B4B1C7003F062
:10464000B3FE0028DAD0094B0F4A1B788DF80030F2
:10465000084B1B78DCE700BF16CF0D00C0E4032039
:104660002BCD0D00A5E40320ECE4032069E3032037
:10467000EDCC0D0068E303200ACF0D0068E40320B1
:104680005CCC0D0009CD0D0014CD0D0000B50C4B18
:104690000C4A1B7FC3B04FF4807102A803F054FF93
:1046A000094B0A491B788DF80030094B09481B78E3
:1046B00002AAFFF708FF012043B05DF804FB00BF2A
:1046C000C0E403203BCD0D0069E3032043D00D007F
:1046D00068E3032068E4032030B5C5B000680A220F
:1046E00003A908F085FAB0F57A7F1ED8104DA860AE
:1046F00006F0ABFE0F4B104AE86001241C704FF42B
:104700008071AB6804A803F01FFF03F04DFE50B1A9
:104710000A4B0B491B788DF800300A4B0A481B786E
:1047200004AAFFF7D0FE204600E0002045B030BDCF
:10473000D8E30320FCE303204FCD0D0069E3032001
:1047400065CD0D0068E3032068E4032007EE901AAE
:10475000F8EEE77AF0B580EEA77A07460D462DED24
:10476000028BC0EE077A89B0B0EE408AF0EEE77AAD
:10477000FDEEE77A17EE904A06F0AEFF39460646A0
:1047800004A806F0BDFA2E4904A806F013FB016840
:10479000304606F036F904A806F01CFA00262F1B56
:1047A000AE4211DAB5EEC08AF1EE10FA08D5B74282
:1047B00006DC06F091FF3D2106F027F90136EFE710
:1047C00006F08AFF2021F7E706F086FF7C2106F03D
:1047D0001CF90026AE4211DAB5EEC08AF1EE10FAED
:1047E00008DDA64206DC06F077FF3D2106F00DF954
:1047F0000136EFE706F070FF2021F7E706F06CFFC7
:104800001049044604A806F030FAB0EE480A022126
:10481000684606F092FA694604A806F0BFFA0A490B
:1048200006F0C8FA0168204606F0FEF8684606F071
:10483000D1F904A806F0CEF909B0BDEC028BF0BDA9
:10484000AAD70D006BCD0D006ECD0D0010B50C4C30
:1048500060B100210C2007F09EF894F82A306BB963
:104860000121BDE810400B2007F095B801210C2074
:1048700007F091F894F82A30002BF1D10021F0E7ED
:10488000C0E4032037B51B49054606F0A8FA0446E4
:10489000C0B1194A01231371184A137003F084FD43
:1048A00050B1174B174A1B788DF80030164B1B7808
:1048B00016491748FFF707FE0120FFF7C7FF012041
:1048C00003B030BD1349284606F089FA0028F7D016
:1048D000094B1C71094B01221A7003F065FD002879
:1048E000EAD0074B0C4A1B788DF80030064B1B783A
:1048F000DEE700BF5CCC0D00C0E40320ECE4032045
:1049000069E3032072CD0D0068E303200ACF0D0098
:1049100068E4032016CF0D0083CD0D00F0B5434DA4
:10492000434E2B78BFF35B8F13F0010FC3B009D157
:104930002846FFF7C1FB28B103F0FAFA3060284699
:10494000FFF7BFFB336893F870402B78BFF35B8FA2
:10495000DB074FEA441709D43448FFF7ADFB28B111
:1049600003F0E6FA30603148FFF7ABFB336893F8A9
:10497000714004F01F043C432F2C51DD2D4A0021CF
:104980000A2003F03DFC2C4B04F01F04012101FA26
:1049900004F4C3F80845294B986838B16FF0004219
:1049A0000023CDE900231A4603F01AFA244D2C788F
:1049B00006F068FD8442234C04D006F063FD012319
:1049C0002870A361A3690133A36106F03EFD23684B
:1049D000E06001332360A3680133A3601A4B1B79A5
:1049E000B3B103F0E1FC98B1A36800932368174AC0
:1049F0004FF4807102A803F0A7FD154B15491B78F1
:104A00008DF80030144B15481B7802AAFFF75BFDA8
:104A1000134B01221A70134B00221A7043B0F0BDE1
:104A20001F2CB0DC4FF0A043B0E700BF04E303202D
:104A300008E30320D17E0D0000030050BCE30320F7
:104A40006AE30320D8E30320C0E4032098CD0D00DF
:104A500069E303200CD00D0068E3032068E4032021
:104A6000FCE30320A4E4032010B51B4C2368CAB068
:104A7000002B2DD0E2680892184A118D0791A16988
:104A80000691616905911169049121690391107B77
:104A9000134951F82010029192680192A268009285
:104AA0004FF480710F4A0AA803F04EFD0E4B0F49D8
:104AB0001B788DF800300E4B0E481B780AAAFFF7C2
:104AC00002FD0D4B01221A70236863604AB010BDCD
:104AD0000A4A1268CFE700BFD8E30320C0E40320EE
:104AE000D8E10320B5CD0D0069E303203CCE0D00D5
:104AF00068E3032068E403200CE403202CE4032093
:104B000010B5214C6279D0B0002A36D01F4910224E
:104B100008A807F0CCFF22790CAB002A30D01C4942
:104B20001022184607F0C3FF1A4A1B4B116A07915F
:104B3000928B0493194B0393194B0293194B0193D6
:104B4000194B0093CDE9050208AB184A4FF4807168
:104B500010A803F0F9FC164B16491B788DF80030AD
:104B6000154B16481B7810AAFFF7ADFC14491548E1
:104B700010AAFFF791FC50B010BD13491022C7E7EF
:104B800012491022CDE700BFC0E4032054CE0D002F
:104B900066CE0D00D8E30320A5E40320F4E1032052
:104BA00006E20320FDE3032054E403206ECE0D0053
:104BB00069E30320A3CE0D0068E3032068E403202B
:104BC000B6CE0D00DCE503205ACE0D0062CE0D00FE
:104BD00008B5054906F003F928B1FFF791FF034B2B
:104BE00005221A70012008BD5CCC0D00B5E403203D
:104BF00013B5012101A805F034FE0B4B1B69243BC2
:104C0000402B01A84FF001040AD905F0BDFE074B67
:104C10001C73002401A805F033FE204602B010BD2D
:104C200005F09BFEF6E700BFD8E30320C0E40320B5
:104C300030B5194D0FCD99B004AC0FC40FCD0FC4D2
:104C400095E8030084E8030014490EA803F04EFD24
:104C50000EA803F09EFD04460EA803F0A3FD0EA8C7
:104C600010EE105A03F0CEFD18AB10EE100A03EB55
:104C7000840407F0C5F8CDE90201284607F0C0F822
:104C8000CDE90001064A54F8503C0648402103F0A3
:104C90005BFC19B030BD00BF60D20D0008E50320F9
:104CA000C4CE0D0018E3032008B50F2006F09FFEC8
:104CB000B0F5C87F05DA322003F08EFC0F2006F035
:104CC00096FE07F08BF820A3D3E9002307F0F0F855
:104CD00007F0D0FBDFED147A07EE100A67EE277AB3
:104CE00017EE900A07F08CF8104B002206F028FF10
:104CF0000F4B002207F0DCF807F074FB07F06EF8AA
:104D00000C4B002207F0D4F80B4B002207F0FAF905
:104D10000A4B002206F016FF07F064FB084B1861EF
:104D2000084B01221A7008BD000080390000E03FE6
:104D300000005940000022400000144000004040A4
:104D4000D8E30320FCE303206666666666660A40D5
:104D500000B591B06846FFF72DFB08A8FFF72AFBC6
:104D6000002108A803F0E2FA134B5979A1B141F2EE
:104D7000D833ADF80630114B029341F27003ADF811
:104D80000C30009B43F4007300930021684603F04D
:104D9000CDFA11B05DF804FB41F27003ADF80630B6
:104DA000074B029341F21003ADF80C30009B43F423
:104DB00000730093EAE700BFC0E40320840300040B
:104DC0008403840337B51C49054606F008F80446F9
:104DD000C8B11A4B01245C71FFF7BAFF184B1C7065
:104DE00003F0E2FA10B9012003B030BD154B164AAA
:104DF0001B788DF80030154B1B7815491548FFF7C7
:104E000062FB2046F0E71449284605F0E8FF002839
:104E1000EAD00A4B5C710A4B01241C70FFF798FF23
:104E200003F0C2FA0028DED0064B0C4A1B788DF83E
:104E30000030064B1B78E0E75CCC0D00C0E403209B
:104E4000ECE4032069E30320DDCE0D0068E30320DA
:104E50000ACF0D0068E4032016CF0D00F4CE0D003C
:104E600010B52D4B93F82A20012A0CD9002283F883
:104E70002A202A4A2A4902F1100052F8044B41F82C
:104E8000044B8242F9D11A69D3ED057AFF2ABAEEB2
:104E9000087A88BF0022F4EEC77A88BF1A61F1EE63
:104EA00010FA06D4B2EE087AF4EEC77AF1EE10FAF0
:104EB00001DD1C4A5A61D3ED067AF5EEC07AF1EEB7
:104EC00010FA06D4B0EE007AF4EEC77AF1EE10FADA
:104ED00002DD4FF07E529A611A7F0C2A84BF0022B5
:104EE0001A775A7F0C3A0C2A84BF18225A770E4A36
:104EF00011681A8D8A4284BF00221A8501225A71D4
:104F00000A4B988B81423FBF00219983084B1A704E
:104F1000084B01221A7010BDC0E403202BCD0D00F8
:104F2000A5E403200000A0C0FCE10320D8E3032097
:104F3000FCE30320ECE4032010B50E4CA38BB3F587
:104F4000C05F09D10C490D4807F071FDBDE8104064
:104F500009490B4807F06BBD237F0A4A074808211F
:104F600003F0F2FA637F074A0548BDE810400821C4
:104F700003F0EABAC0E403200FCF0D0006E20320DD
:104F8000F4E1032012CF0D0013B50A22006801A935
:104F900007F02EFE17280DD8084B1877FFF7CCFF27
:104FA000074B01241C7003F0FFF928B1FFF76EFBDB
:104FB00002B010BD0020FBE72046F9E7C0E4032063
:104FC000ECE4032030B5C5B000680A2203A907F05D
:104FD0000FFE18281DD8104D6877FFF7ADFF0F4B57
:104FE0000F4A01241C704FF480716B7F04A803F0FA
:104FF000ABFA03F0D9F950B10A4B0B491B788DF885
:1050000000300A4B0A481B7804AAFFF75CFA2046D6
:1050100000E0002045B030BDC0E40320ECE40320F4
:1050200018CF0D0069E3032043D00D0068E303208F
:1050300068E403202DE9F04F8DB006F006FA0390E6
:105040004248DFF830A1406800231A46194603F0B1
:105050001BFA03F0A1F9002440F2E7384FF00009F1
:10506000DAF80030A34228D9FFF70CFA4FF0000B12
:105070000546FFF707FA461B61EB0B07B94508BF6A
:10508000B04505D303F090F910B903F07DF9F0E7CE
:1050900003F08AF988B92E4B1B780BB1FFF73EFC61
:1050A00002F01EFF2B4B186003F06EF92A484FF0F8
:1050B000FF3101F093FC0134D2E703F075F9274C7E
:1050C000274E054668B92749E0702748FFF7E4F9FD
:1050D00002F006FF254B264A186001231370337037
:1050E0002FE00123E37006F0B0F9606206F0ADF93D
:1050F000039B204AC31A12689BB2934223851E4A1F
:1051000084BF00232385238D918B994238BF9383DD
:1051100020211A4A04A803F017FA134804A9FFF73C
:10512000BBF923794BB100238DF80030144B15499E
:105130001B78154804AAFFF7C6F9144A01233370F7
:10514000137028460DB0BDE8F08F00BF08E50320BE
:10515000A4E40320C4E703206CE30320C0E403209D
:10516000ECE403204DCF0D00DCE50320A0E4032098
:10517000B5E40320FCE10320D8E303202FCF0D008A
:1051800068E3032044CF0D0068E40320FCE3032020
:1051900013B52649044605F022FE20B323492046D4
:1051A00005F01DFE38BB2249204605F018FE0028F8
:1051B00037D003F0F9F808B9FFF73CFF1D4B1E4A42
:1051C0001B788DF800301D4B1D491B781D48FFF7DB
:1051D0007AF94FF47A7003F0FFF91B4B1B49002258
:1051E0009A7110221AE01249204605F0F8FD0028B5
:1051F000D4D102B010BD03F0D7F850B10D4B144A12
:105200001B788DF800300D4B0D491B780D48FFF7CA
:105210005AF90D4B0F4901229A7110220E4807F0DE
:1052200046FC0E4B01201870E3E700BF5CCC0D007C
:1052300016CF0D0069E303207ACF0D0068E3032049
:105240000ACF0D0068E40320C0E403208CCF0D00DA
:105250006BCF0D0090CF0D0054E40320ECE403204D
:1052600070B586B0FFF7E6FE03F09EF850B1174B1D
:10527000174A1B788DF80030164B17491B781748D2
:10528000FFF721F9164C17490025012602A82670C0
:105290002571A570E57105F0E8FC02A8FFF778FF1D
:1052A00002A805F097FC104B63614FF07E53A36199
:1052B00041F20653A38322462C2331460B486671E4
:1052C000258502F07EF806B070BD00BF69E30320BB
:1052D0009ACF0D0068E303200ACF0D0068E4032095
:1052E000C0E403205CCC0D000000A0C010E403204B
:1052F00038B50A4C0025C4E90055A56006F0A5F8AC
:10530000074B084A1D616423236201231370064A78
:10531000E06013706561A58338BD00BFD8E303204A
:10532000C0E40320FCE30320ECE4032030B5154D7A
:10533000154C16492A7820788DB00E2303FB0212F3
:10534000009203FB0013124A282102A803F0FCF884
:105350002B7823700F4B1B798BB103F025F850B1DC
:105360000D4B0E491B788DF800300D4B0D481B7806
:1053700002AAFFF7A8F80C4802A9FFF78DF80DB0B4
:1053800030BD00BFB5E4032064E4032014E2032031
:10539000B2CF0D00C0E4032069E30320C0CF0D00AD
:1053A00068E3032068E40320DCE5032030B585B022
:1053B000002301A8CDE90133ADF80C3003F0F3FA76
:1053C00002F08EFD43F69725044602F0EDFF40B152
:1053D00002F086FD001BA84203D8642003F0FCF80D
:1053E000F3E70021094B47F23052084602F0C0FCB7
:1053F0004FF47A7003F0F0F8054B0A221B68012184
:1054000001A805F00DFE05B030BD00BFD1CF0D00E5
:1054100064E303202DE9F047214B224C1B78224AFC
:105420002249234886B000258DF80030214B1B7897
:10543000FFF749F82571FEF7EFFEFFF723F847F273
:105440002F5882464FF00009FFF71CF8B0EB0A0610
:1054500061EB0507B94508BFB04505D3FEF7E6FE89
:1054600010B902F091FFEFE7FEF7E0FE637913B9A0
:10547000A368462B09DC104902A805F0F6FB02A838
:10548000FFF786FE02A805F0A5FBFFF739FBFFF743
:105490002FFF0A4B01221A7006B0BDE8F08700BF4B
:1054A00069E30320C0E40320DECF0D00E6CF0D004A
:1054B00068E4032068E303205CCC0D00ECE40320E7
:1054C00030B585B00D4600226946009202F0C0FE5C
:1054D000B0B9009C0CB1236923B90A4A00210A2003
:1054E00002F08EFE0023ADF806300C23ADF8043038
:1054F000042303930295236901AA012120469847BA
:1055000005B030BDD17E0D0030B5264B002289B0EC
:105510005868114602F0B0FF08B1FFF789FBFFF7AA
:10552000C3FB69460720FFF7CBFF1F4C1F4D002828
:10553000A8BF00982073FFF75BFB10B96B690133BC
:105540006B6169460320FFF7BBFF40BBBDF800302D
:1055500007EE903AFBEECC7AFDEEE77A17EE903A42
:10556000402BC4ED027A09DC237B012B06D168466F
:10557000FEF720FF0021684602F0D8FEA3682A6AE1
:105580009342B8BF2B621D2BCCBF00230123084AD6
:10559000E37101231370074A137009B030BDFFEEA9
:1055A000007AD9E708E50320C0E40320D8E303200C
:1055B000ECE40320FCE3032070B5D0E9005314268B
:1055C000044606FB0356AE4204D0284605F002FB13
:1055D0001435F8E7206802F09FFF204670BD0023D5
:1055E000022202F0C1BE0000F0B50021ABB00820DD
:1055F00006F0C0F90021042006F0BCF901210720C3
:1056000006F0B8F903210D2006F0B4F901210C20B1
:1056100006F0B0F901210B2006F0ACF901210720BA
:1056200006F0B9F906A8002502F0C6FE00237D2287
:105630000AA906A805F0E5FBBD49BE4FBE4C2B46A6
:105640002A46CDE900550AA802F0C6FE2B460222E2
:10565000B849BA4802F088FEB949BA48FFF7BFFF17
:10566000B949BA48FEF7EFFDB949BA48FFF7B7FFA5
:105670002B460222B849B94802F076FEB849B9482B
:10568000FEF7E1FDB849B948FFF7A9FFB849B948A5
:10569000FEF7D9FDB849B948FEF7D5FDB849B94874
:1056A000FEF7D1FD2B460222B749B84802F05CFE56
:1056B000B749B848FEF7C7FD0C23CDE90355ADF84F
:1056C0000C30B54BB5490593042203ABB44802F046
:1056D0004BFEB449B448FEF7B6FDB449B448FEF7F2
:1056E000D5FEB449B448FEF7D1FEB449B448FEF73C
:1056F000CDFEB449B448FEF7C9FEB449B448FEF73C
:10570000C5FEB449B448FEF7C1FEB449B448FEF73B
:10571000BDFEB449B448FEF7B9FEB449B448FEF73B
:10572000B5FEB449B448FEF7B1FEB449B448FEF73B
:10573000ADFEB449B448FEF7A9FE0126032241F2AA
:10574000883303A8CDE90323ADF8146003F045F9CD
:10575000AE4801F0A9FD3346AC480DF10B022946D5
:1057600001F0E4FD9DF80B30032B00F07981A74890
:1057700001F0A4FDA64AA5480423294601F021FE14
:105780003346A2480DF10B02294601F0CFFD9DF8EA
:105790000B30032B00F061819E4B1E709E4DFFF776
:1057A0005FFBFFF7C9FB9D4A002300214FF48020D7
:1057B00002F078FD0823012128466B8101F026FCC8
:1057C00001231A461021284601F08BF97C21A07094
:1057D000284601F003F907220221914802F024FA39
:1057E00094ED060A05F0E8FC05F012FE002840F0F2
:1057F0004481A378002B00F040818A4E2846314630
:1058000001F0F4FBD6E9000105F008FD00F008FF07
:10581000002800F0378105F0EDFC94ED050A05F055
:10582000ABFC05F057FE054605F00FFE281A06F002
:10583000D5FA3DA3D3E9002306F064FC7A4ACDE90A
:10584000000153480A2102F07FFEA3791022002BA9
:1058500000F01B817549464807F029F90120FEF741
:10586000F5FF94F82A30002B40F01181704B4D4A1F
:1058700003F1100153F8040B42F8040B8B42F9D1E9
:105880000022114603A8039202F00AFB039B142B8B
:105890004FF0000240F00481236901332361654B1E
:1058A00001221A703B68644D002B00F00381FB68F5
:1058B0002B60FFF74DFA042006F086F808B9FFF7D1
:1058C000CFFC05F0EBFD00210546F86805F038FC3B
:1058D000854201D0FFF70CFD05F0C8FD237F9842FB
:1058E00019DB05F0C3FD637F984214DA00230093AF
:1058F00052494FF0FF3301220D2003F0A5FCE3785D
:1059000023B102F051FD08B9FFF794FBFFF7FCFD4E
:105910004B4B4C4A1A603F4B1A78002A40F0948057
:1059200002221A7090E000BF000000000020AC408E
:10593000E1440D00D8E30320C0E40320F4CF0D00C0
:10594000E0E3032079D00D0018E3032000D00D0020
:10595000D0E4032007D00D00E8E3032012D00D00AF
:1059600000E203201ED00D00C8E4032026D00D0065
:1059700054E4032031D00D0006E20320E6D00D00F0
:10598000F4E103203ED00D00ECE3032048D00D00ED
:10599000FDE303204FD00D00A9420D0005410D008D
:1059A0005AD00D00A5E4032069D00D00D9460D00A2
:1059B00076D00D00D5410D0084D00D0081450D003D
:1059C00090D00D00D14B0D009AD00D0091510D00DB
:1059D000A2D00D00C54D0D00AFD00D0085480D00C3
:1059E000BAD00D00F9640D00C7D00D0061660D003E
:1059F000D4D00D00894F0D00E2D00D00C54F0D0031
:105A0000EFD00D00C9450D00F9D00D0010E40320C2
:105A100088D20D00B5E403206CE30320D5400D00CF
:105A20008CE3032010E3032008D10D0090CF0D007C
:105A30002BCD0D00ECE403202CE4032051420D009B
:105A4000B8E40320905F01000021072005F0A3FFC8
:105A500006A805F0BFF82BB0F0BDFFF701FC9DE6EE
:105A6000224631462C23154801F060FC24233A4697
:105A70005021124801F05AFC90E6FFF7DBFAFEF7DE
:105A8000CBFBC3E605F0C2FBC7E60D49E3E6012BFD
:105A90007FF4F6AE0B490C48102207F008F8EFE649
:105AA000114603A8039202F0FBF9039B8C2B7FF4B1
:105AB000F9AEF1E605F0C9FC2860FAE610E403202F
:105AC0008CCF0D0009CD0D00A5E403208842F8B568
:105AD00004460D46164616D9904215D2A2F1140678
:105AE000751AA1F114072C44B7421CD02CB13146D1
:105AF000204605F0EBF8337C2374304605F06AF855
:105B0000143E143CF0E70ED0B5420CD02CB129461F
:105B1000204605F0DBF82B7C2374284605F05AF864
:105B200014351434F0E7F8BD2DE9F0410023C0E945
:105B3000003383604F689F4204460E4623DD4FF0DA
:105B4000140808FB07F002F0DFFC0546D8B1D4E9E1
:105B5000001208FB0212FFF7B9FF206802F0DCFC1C
:105B60002560A760D6E9007308FB0378B84508D024
:105B70003946284605F0C4F83B7C2B74143714359D
:105B8000F4E7736863602046BDE8F0817A4B2DE945
:105B9000F04F00241C60794B794D7A4E4FF001088C
:105BA00083F80080784B082291B01A7005F08CFEC3
:105BB000234622460D2105F08FFE05F085FE414665
:105BC0002346224605F090FE704B2C6064229C8395
:105BD0001A626F4BAB60AC80AC71022002F04AFBE2
:105BE00032466C49284605F099FF2146404602F0AE
:105BF00061FB4146042002F04BF967486749A0F871
:105C000009400346021D43F8092B9C70644B436016
:105C10003246C0E9034480F81480047205F07EFF28
:105C200005F02CFF5F4D014623464FF400522846F5
:105C300001F030FB5C4B2B6028465C4D5C493246E2
:105C400005F06CFF5B494FF40062284601F022FE2C
:105C5000594B2B6032465949284605F05FFF05F045
:105C60000DFF574D01466922284600F0B9FD284630
:105C7000544D5549324605F051FF2146284603F060
:105C80007BF932465149284605F048FF1D2150480E
:105C9000504D01F021FFCDE90344059405F01CFDB2
:105CA0000DF12409824603A906A8FFF73DFFAB4684
:105CB00006A94846FFF738FF474B4BF8043B0CAFAB
:105CC00049463846FFF730FF3A464146584604F009
:105CD000F5F93846FFF770FC4846FFF76DFC3F4B7F
:105CE0002B60C5F820A006A8FFF766FC3C4B2B6094
:105CF00005F0F2FC4FF4165105F0DEFC03F086FED1
:105D0000294604F06DF903A8FFF756FC32463549E1
:105D1000284605F003FF344B0C93344D344B2B6075
:105D200097E8030005F10C0389E8030093E80300FA
:105D300087E8030099E8030083E803002D4B6B61BB
:105D4000AB690F932C4BAB612C4A2C712B46AC608A
:105D50004FF47A71CDE9008405F108000E9402F049
:105D600027F83846FEF7E8FA25493246284605F076
:105D7000D5FE11B0BDE8F08F64E3032068E3032093
:105D800058E3032000E3032069E30320D8E3032062
:105D90000000FFFF29430D00A4E3032025410D006F
:105DA0001000030010E4032024D20D0068E4032057
:105DB00071410D0000F4032040D20D0049410D0057
:105DC0006CE3032020E4032075670D00998F0D001C
:105DD0008CE3032030E40320F4D10D00F8D70D004C
:105DE0000CD20D00E1420D00FB400D00BCE303208E
:105DF000E0D10D00E5400D00E1400D0099410D009E
:105E00004D430D002DE9F04F85B04FF0000A01A879
:105E1000CDE901AAADF80CA002F0C5FDFEF732FBFA
:105E200043F6972883464FF00009FEF72BFBB0EBB3
:105E30000B0661EB0A07B94508BFB04505D302F070
:105E4000B3FA10B102F0A0FAEFE7194E02F0ACFA83
:105E500070680022022102F007FB002370681A46D6
:105E6000194602F019FBFEF70DFB4FF0000A07463A
:105E700047F22F584FF00009FEF704FBC41B61EBFB
:105E80000A05A94508BFA04506D3304604F056FCD4
:105E900010B902F079FAEFE7054804F04FFC054B22
:105EA0000022DA70044B0120187005B0BDE8F08FB5
:105EB00008E50320C0E40320ECE403202DE9F043CF
:105EC000A24CDFF8F0822378A14FA24E013B99B09B
:105ED000052B34D8DFE813F04F020600B80070013C
:105EE000E20115029C4B1B78022B01D0FFF71EFA32
:105EF0009A4DAB7953B101F0F3FF994B1B68C01A6F
:105F0000984B1B68984284BF0423237005F0AEFAB7
:105F1000954B81460021186805F00AF981451CBFA0
:105F20000523237005F0A2FA6B7F984202DB03235E
:105F3000237004E005F09AFA2B7F9842F7DB8B4C34
:105F4000204601F01AFE00283FD0204601F0BCFE9A
:105F500094ED020A86498DED030A08A804F085FE37
:105F6000F0EE000A9DED030A142108A8FEF7EEFBEF
:105F700008A804F02FFE94ED030A7E498DED030A74
:105F800008A804F072FEF0EE000A9DED030A142149
:105F900008A8FEF7DBFB08A804F01CFE94ED040A39
:105FA00075498DED030A08A804F05FFE9DED030A14
:105FB000F0EE000A142108A8FEF7C8FB08A804F0B8
:105FC00009FE05F089FB04F023FD98F800300BB1C1
:105FD000FEF7A4FC694801F0F9F833783BB12C23B3
:105FE0005E4A6748012101F0ECF9002333703B78E9
:105FF0003BB12423634A6248502101F0E2F90023B7
:106000003B70614B1B68002B1BDB604A402108A8DA
:1060100002F09AFA08A95E48FEF73EFA642002F000
:10602000DBFA00238DF800305A4B5B491B785B4844
:1060300008AAFEF748FA4FF4FA6002F0CDFA04F02D
:1060400087FF19B0BDE8F083434B1B78032B01D0C9
:10605000FFF76CF90D2003F021F90020FEF7F6FBA5
:10606000484B1B680BB1052362E73C4BDA78994635
:106070000AB1FFF7C7FE0021404800F0AFFC05F071
:10608000E4F94FF4616590FBF5F303FB1505444B10
:10609000C5F561651A7DB5F5616FA8BF4FF46165FF
:1060A0000AB102221A72002204213D48FEF78CF93F
:1060B0004FF47A716943FEF7BBF9394905A804F03A
:1060C0004BFF4FF0FF312D4800F088FC354802F0BF
:1060D000EDFF344802F0E1FF059B9BB19A88012A4D
:1060E00010D19B89042B0DD12F4908A804F0BDFDC8
:1060F00008A8FFF74DF808A804F06CFD4FF4C05352
:10610000A9F81C3005F0B2F999F81D30984214DA5C
:1061100005F0ACF999F81C3098420EDB0120FEF72F
:1061200095FB0023009301224FF0FF331F490D2000
:1061300003F08AF80B4B1E4A1A600223237005985D
:1061400000283FF4FCAE02F0E7F9F8E6B5E40320DE
:10615000FCE30320ECE4032064E40320C0E4032018
:10616000BCE40320B8E403202CE403208CE30320E8
:10617000ABD10D00ADD10D00AFD10D006CE303200C
:1061800010E40320D8E3032010E20320B1D10D0076
:10619000DCE5032068E30320D0D10D0068E4032090
:1061A000A4E3032020E4032016CF0D0051420D008C
:1061B000905F0100A4E40320AD4B1B78042B01D0B9
:1061C000FFF7B4F898F8003003F0FF01002B7FF4DC
:1061D000B6AEA84B986800284DD1A74BDB780BB121
:1061E000FFF710FEA54BA6484FF47A7200211A6003
:1061F00000F0F4FB05F029F94FF4616590FBF5F32D
:1062000003FB15059F4BC5F561651A7DB5F5616FFB
:10621000A8BF4FF461650AB102221A72002204215C
:106220009848FEF7D1F801220D21FEF7CDF84FF482
:106230007A716943FEF7FCF8924905A804F08CFED8
:106240004FF0FF318E4800F0C9FB8F4802F02EFF5F
:106250008D4802F022FF059B002B3FF46EAF9A8819
:10626000012A7FF46AAF9B890D2B09D101F038FE1A
:10627000864B186061E701F0F3FD0028ADD05EE6C3
:10628000042B7FF45AAF824908A804F0EEFC08A85A
:10629000FEF77EFF08A804F09DFC4EE7744B1B78C8
:1062A000052B01D0FFF742F8734DEB7813B9FEF7D9
:1062B000C1FE44E602F078F8E8B1FFF725F905F0F1
:1062C000D5F82B7F984213D1FFF7A4F805F0CEF84C
:1062D0002B7F984202D108B9FEF7C6FB01F000FE01
:1062E0006C4B186005F0B1F86B4B186006231FE685
:1062F000FEF7BAFBEAE701F0F3FD684B18600123F3
:1063000016E65B4B1B78062B01D0FFF70FF8644BAA
:106310001D78B5B9594B634A1A6001F0E1FD5B4B3A
:10632000186002232370604B596800293FF407AEC0
:106330001A685D60521AC3E905551A6001233B7063
:10634000FDE501F0CDFD534B1B68C01A47F23053F9
:1063500098427FF6F4AD01F0C3FD504B534A1860EC
:10636000534B54491B788DF80030534B53481B78DE
:10637000FEF7A9F8C3E73E4B1B78012B01D0FEF7CF
:10638000D5FF01F0ADFD454B1B6803F5EA43303303
:106390008342BFF4D4AD384C05F057F8636AC01A95
:1063A000B0F5E15F10D92C2322460121444801F0C9
:1063B00008F844494448FEF76FF8642002F00CF9ED
:1063C0002F481E2100F064FC2369032B14DC01F02C
:1063D000EBFF50B1364B3D4A1B788DF80030364B01
:1063E0003B491B783548FEF76EF84FF4FA6002F02F
:1063F000F3F804F0ADFDA2E505F027F8236AC01A12
:10640000B0F5E15F1AD901F0CFFF50B1284B314A06
:106410001B788DF80030284B2D491B782748FEF754
:1064200052F84FF4FA6002F0D7F8002323610A21F2
:1064300001231348337000F02BFC80E501F0B4FF1A
:1064400050B11B4B244A1B788DF800301A4B204961
:106450001B781A48FEF737F84FF4FA6002F0BCF8E0
:106460000023236101233370FEF7A0FF67E500BF1F
:1064700064E40320BCE30320C0E40320B8E4032069
:106480006CE30320A4E3032020E40320BCE4032006
:1064900016CF0D00F0E403202CE40320A0E4032039
:1064A0000CE40320905F0100D8E30320DDCF0D0052
:1064B00069E3032012D10D0068E3032068E40320A0
:1064C00010E403202BD10D00DCE5032058D10D0092
:1064D0006CD10D0072D10D008CD10D0008B50020DB
:1064E00001F08AFF28B101F05FFF80F00100C0B227
:1064F00008BD0120FCE700002DE9F047C8B0804648
:1065000001F052FF10B1002001F06EFF002001F0F9
:10651000F7FC4FF0000A814647F22F560027002073
:1065200001F0EEFCB0EB090461EB0A05AF4208BFD5
:10653000A64205D3FFF7D2FF10B901F025FFEEE721
:10654000FFF7CCFFD8F800000A2203A906F050FBA1
:1065500000F10C03DBB2182B48D845B207EE905A75
:10656000274BB8EEE70A012483ED050A04F004FE88
:10657000244B1C7004F0AEFF064604F066FF301A90
:1065800005F02CFC1CA3D3E9002305F0BBFD1E4A3B
:10659000CDE900010A211D4801F0D6FF01F004FFFA
:1065A00010B32B461A4A1B4D4FF48071002608A8E1
:1065B00001F0CAFF8DF8006017492B78174808AA28
:1065C000FDF781FF04F041FF0246C31704A804F061
:1065D00039FE8DF800602B78049A0F490F48FDF7BB
:1065E00072FF04A804F0F6FA204600E0002048B04C
:1065F000BDE8F087AFF30080000000000020AC4051
:10660000C0E40320ECE4032008D10D00FDE30320E7
:106610008CD20D00F4E4032043D00D0068E4032085
:1066200038B504F03BFF054604F04CFF044604F087
:1066300041FF231F062B0ED9E31E082B0DD801386E
:106640002D1A04D50B2C14BF0020012038BD072DB6
:1066500003DD032CF7E70120F8E70020F6E7000050
:1066600070B52DED028BC8B0054604F0EEFE0A228F
:10667000044603A9286806F0BBFAC3B2022B59D816
:1066800043B208EE103AB8EEC88AB0EE480A04F0F9
:1066900093FD2D4B83ED068A2C4B01221A7018EEC8
:1066A000100A05F0ADFB2A4ACDE900014FF48071D4
:1066B00008A801F049FF04F0ABFE28B1FFF7B0FFD6
:1066C000002834D004F096FD04F004FF054604F0E1
:1066D000BCFE281A05F082FB19A3D3E9002305F0BC
:1066E00011FD1C4ACDE900010A211B4801F02CFFD5
:1066F00001F05AFEC8B1194D19491A4800268DF803
:1067000000602B7808AAFDF7DEFE2246E31704A8F6
:1067100004F098FD8DF800602B78049A1049114818
:10672000FDF7D1FE04A804F055FA012003E004F0BF
:106730006DFDC9E7002048B0BDEC028B70BD00BF05
:10674000000000000020AC40C0E40320ECE4032083
:10675000A0D20D0008D10D00FDE30320F4E40320D6
:1067600043D00D0068E40320014B01221A707047EA
:10677000F4E40320704710B52021044605F0D3F956
:10678000204610BD0EB410B58DB00FAA016852F8A6
:10679000044B039200232020CDE90403CDE90042FD
:1067A000012004AA01F03CFD0DB0BDE8104003B08B
:1067B00070470EB410B58DB00FAA016852F8044BA3
:1067C000039200232020CDE90403CDE900423220CA
:1067D00004AA01F025FD0DB0BDE8104003B07047DC
:1067E00010B50272FF2242810022C0E903224261F9
:1067F0000276C261024A034C1060C0E9004110BD3C
:10680000FCE4032000D50D002DE9F8439DF820801D
:106810000446894616461F46B8F1000F02D040686C
:1068200002F0FEFC217A606802F0D4FC6068036824
:1068300049469B6898476068002102F0EAFC0546DB
:1068400000BB0123217A60683A4602F0AEFC874221
:10685000034609D13744BE421CD0606803685B69B7
:10686000984706F8010BF6E70B490C484A46FFF734
:10687000A0FFB8F1000F02D0606802F0DAFC2846F1
:10688000BDE8F8830346064904484A46FFF791FFEE
:106890000025EEE70125ECE7B1D20D00F8E4032076
:1068A000D6D20D0007B500930123FFF7ADFF03B06B
:1068B0005DF804FB73B54389FF2B044610D0194ED5
:1068C000194D01F00DFBB0F57A7F09D2608905F012
:1068D0007BF8012804D031462846FDF7DDFDF0E7BE
:1068E00001230DF1070228212046FFF7DBFF30B915
:1068F0000D480E49FDF7D0FD002002B070BD9DF897
:106900000730182BF4D101230DF10702292120466D
:10691000FFF7C8FF0028EBD09DF80730052BE7D123
:10692000EBE700BFFAD20D00F8E403200FD30D000F
:1069300007B5134600228DF807200DF10702FFF777
:10694000B1FF9DF8070003B05DF804FB2DE9F041AD
:106950009DF8188004460F4615461E46B8F1000FF4
:1069600002D0406802F05CFC217A606802F032FCE0
:106970006068036839469B6898472E44B542606852
:1069800005D0036815F8011B9B689847F6E70121BD
:1069900002F03FFC034670B1084909483A46FFF748
:1069A00008FF0025B8F1000F02D0606802F041FC3A
:1069B0002846BDE8F0810125F4E700BF1CD30D0097
:1069C000F8E403201FB58DF80F2000930DF10F029E
:1069D0000123FFF7BBFF05B05DF804FBF8B50A46DD
:1069E0000C4605461A491B48FDF756FD002CB8BF5A
:1069F000EC687CB9012322461B212846FFF7E2FF01
:106A00001549024606461348FFF7BCFEEC606C6170
:106A10003046F8BD032C19DDA7101F2FA8BF1F2774
:106A2000BA0062F07C020123D2B21B212846FFF794
:106A3000C9FF3A460346094906460648FFF7A2FE43
:106A40004FF4FA635F43EC606F61E1E70127E7E72A
:106A500041D30D00F8E403204BD30D0067D30D00A4
:106A60000B4607490246086848B1002B08BFB2F53B
:106A7000006F04D1C36813B10021FFF7AFBF7047A7
:106A8000FCE403202DE9FF419DF8288005461646C9
:106A90001F46B8F1000F04D04068019102F0C0FB1E
:106AA0000199019100230DF10F022846FFF7FAFE2C
:106AB000044660B19DF80F3003EA06023A43934260
:106AC00005D0019900232846FFF77CFF0446B8F162
:106AD000000F02D0686802F0ACFB204604B0BDE8AD
:106AE000F08113B514460DF10702FFF7DBFE28B164
:106AF0009DF807301C420CBF0120002002B010BDE1
:106B000013B514460DF10702FFF7CCFE28B19DF82E
:106B100007301C4214BF0120002002B010BD07B591
:106B2000D2430093D2B20023FFF7ACFF03B05DF86D
:106B300004FB000037B501230DF107020F210446C5
:106B4000FFF7B0FE054638B91E491F48AD22FFF7D2
:106B500030FE284603B030BD9DF8073013F0200FFB
:106B60004FF001030BD02022E3610F212046FFF7F5
:106B7000D6FF164A16491448FDF78EFCE9E70822AD
:106B800017212046FFF7BCFF18B10223114AE36129
:106B9000F0E79DF807301A0709D50323E3610822BF
:106BA00001230F212046FFF7BAFF0B4AE2E75B07FC
:106BB000CFD50422E26101230F212046FFF7AFFF6A
:106BC000064AD7E7BAD30D00F8E403208BD30D00B3
:106BD000D9D30D0094D30D00A4D30D00B4D30D0070
:106BE00007B500931346FF22FFF74CFF03B05DF893
:106BF00004FB0000F8B50F461646012300220F21C2
:106C00000546FFF7DFFE044638B94FF425721E49EA
:106C10001E48FFF7CEFD2046F8BD01232322182190
:106C20002846FFF7CFFE044610B940F29B22EEE75C
:106C3000FF2FA8BFFF27012FB8BF01270123FAB2FA
:106C400019212846FFF7BEFE044610B94FF42A72F8
:106C5000DDE70123082212212846FFF7C1FF044681
:106C600010B940F2AF22D2E7002E4FF0010314BF5B
:106C70008322822218212846FFF7A4FE044600281A
:106C8000C9D140F2B922C2E7EAD30D00F8E40320EB
:106C90002DE9F7430A4605460F464F484F49FDF791
:106CA000FBFB00212846FFF799FE044648B940F255
:106CB000F7124B494848FFF77CFD204603B0BDE87A
:106CC000F08301231A4630212846FFF789FF044646
:106CD00010B940F20522ECE71022012311462846A4
:106CE000FFF71DFF044610B94FF40372E1E70123DB
:106CF000262213212846FFF765FE044610B940F20C
:106D00001322D6E7012600963346FC22112128469D
:106D1000FFF7B8FE044610B940F21B22C9E7002273
:106D200039462846FFF766FF044610B940F2222292
:106D3000BFE700960223772210212846FFF7A2FE24
:106D4000044610B940F22B22B3E7334604221C213B
:106D50002846FFF745FF044610B940F23222A8E763
:106D600000961823E32211212846FFF78BFE0446E4
:106D700010B940F239229CE73346C0221721284639
:106D8000FFF720FE044610B94FF4107291E701F0AE
:106D9000A7F8DFF85490DFF840804FF47A71064688
:106DA0004F4301F09DF8801BB8420ED201221721FB
:106DB0002846FFF7BDFD494602464046FDF76CFBFD
:106DC0004FF47A7001F008FCEBE706490248FFF740
:106DD000F0FC04F0BDF870E7F8E4032015D40D00D2
:106DE0000AD40D003BD40D0026D40D002DE9F34745
:106DF0009DF828A005460C4691461F46BAF1000FA3
:106E000002D0406802F00CFA07B3202F3E4628BF9C
:106E100020267F2C26D83319802B01D9C4F1800677
:106E2000012304223F212846FFF779FE002364F066
:106E30007F0100934A463346C9B22846FFF7E4FC77
:106E4000804628B13444BF1BB144DDE74FF0010850
:106E5000BAF1000F02D0686802F0EBF9404602B0C8
:106E6000BDE8F087012304223F212846FFF7B8FE42
:106E7000DCE72DE9F3479DF828A005460C4691462E
:106E80001F46BAF1000F02D0406802F0C9F907B3FB
:106E90001F2F3E4628BF1F267F2C26D83319802B54
:106EA00001D9C4F18006012304223F212846FFF7BF
:106EB00036FE002364F07F0100934A463346C9B290
:106EC0002846FFF743FD804628B13444BF1BB14438
:106ED000DDE74FF00108BAF1000F02D0686802F058
:106EE000A8F9404602B0BDE8F087012304223F2103
:106EF0002846FFF775FEDCE730B585B00D68D1E9AF
:106F0000043203954D6802958D680195C96800911A
:106F10000133044902F26C72044603F08BFF2046F1
:106F200005B030BD4DD40D0003110A2200F00F0052
:106F300002FB0300704738B5044600781546FFF79A
:106F4000F3FF08606078FFF7EFFF4860A078FFF775
:106F5000EBFF8860E078FFF7E7FFC8602079FFF774
:106F6000E3FF013808612DB9651D2878FFF7DCFFC4
:106F7000886138BD6079FFF7D7FF6430A51D48618F
:106F8000F3E7000070B5012388B00D461A461021C2
:106F90000446FFF7A6FDF0B108230126204600961F
:106FA0000DEB03020021FFF72FFC044698B1324697
:106FB00029460DF10900FFF7BEFF04A8FFF79CFF6B
:106FC0000848049A0849FDF767FA04A803F002FE8E
:106FD000204608B070BD24220021284605F0DAFCC6
:106FE0000024F5E7F8E403206BD40D0030B58BB036
:106FF0000D4601A9FFF7C6FF044620B101A801F024
:10700000E3FAC5E9000120460BB030BD10B50446D7
:1070100088B011B1406802F0ABF82046FFF74AFC97
:1070200070B32046FFF786FD01231A461021204643
:10703000FFF757FDD8B104F0EBF9C0B902A920461B
:10704000FFF7D4FFDDE9020104F0E8F80F4B104927
:107050001B68009304A8DDE9022304F097F90D48AA
:10706000049A0D49FDF718FA04A803F0B3FD0B4A82
:10707000002300214FF4006001F014F908B010BDA6
:1070800007490448FFF795FBF1E700BF8CE20320B6
:1070900030E60320F8E4032079D40D00616A0D0086
:1070A00096D40D000A2290FBF2F302FB130093FB2F
:1070B000F2F102FB113140EA0110C0B2704770B525
:1070C000054600680C461646FFF7ECFF207068681E
:1070D000FFF7E8FF6070A868FFF7E4FFA070E868BA
:1070E000FFF7E0FFE07028690130FFF7DBFF207158
:1070F0002EB9661DA869FFF7D5FF307070BD6A69AB
:10710000642392FBF3F003FB1020FFF7CBFFA61DD7
:107110006071EFE7F0B587B0054602A816460C4649
:10712000FFF7EAFE1E48029A1E49FDF7B5F902A8CC
:1071300003F050FD16B1686802F072F82046012293
:107140000DF1090100278DF80870FFF7B8FF012342
:107150001A4610212846FFF743FD0446E8B10823EC
:1071600000970DEB030239462846FFF7EFFB044674
:1071700060B101231A4610212846FFF7D0FC16B152
:10718000686802F056F8204607B0F0BD4FF48D72E3
:1071900005490348FFF70DFBF1E74FF48F72F7E75E
:1071A000F8E40320AED40D00BCD40D0013B50446A2
:1071B0006846CDE9002305F0B3FB9DF81020014699
:1071C0002046FFF7A7FF02B010BD0000F0B5057E16
:1071D00089B0044675BB04F01BF958B3002600279C
:1071E00004A92846CDE9046701F00EF910B3012582
:1071F000257604F02AF900950246C3172046CDE90A
:107200000223FFF7D3FF02A92046CDE90267FFF76B
:10721000EDFE124B12491B68009304A8DDE902231E
:1072200004F0B4F80F48049A0F49FDF735F904A8A3
:1072300003F0D0FC636973B100F052FE2369C01AF9
:107240006369984207D300F04BFE4FF0FF31206195
:107250002046FFF7C3FB09B0F0BD00BF8CE203205E
:1072600030E60320F8E40320D7D40D00014B024A96
:107270001A607047F8E40320EDD40D00704710B594
:107280001021044604F04FFC204610BD0368C9B22B
:107290009B68184730B5034DC0E90223C0E900518F
:1072A00030BD00BF44D50D00406801F061BF10B58E
:1072B0000446006801F0BDFF204610BD2DE9F041F5
:1072C0008AB004464068019001F0AAFF1E22002106
:1072D00002A8A76805F05EFB0026EFB123681E2F09
:1072E000B84628BF4FF01E08DD6802AA4346314663
:1072F0002046A847054658B90A480B493246FDF7CB
:10730000CBF801A8FFF7D3FF28460AB0BDE8F0810B
:10731000A7EB08074644E0E701A8FFF7C8FF0125EF
:10732000F2E700BFDCE5032010D50D002DE9F7439F
:107330000446406801900D4616461F4601F070FF56
:10734000A7B1E168606841F0500101F047FF290AE8
:107350006068FFF79BFF29466068FFF797FF60684A
:10736000002101F056FF48B1002400E0012401A8EB
:10737000FFF79DFF204603B0BDE8F083202F217B5F
:107380006068B84628BF4FF020080123424641F00C
:10739000500101F00AFF04F071FB03681B69984774
:1073A0004045E1DB06EB080904F068FB03685B6914
:1073B000984706F8010B4E45F6D14544A7EB080760
:1073C000BEE72DE9F74F0446406801900E4690460F
:1073D0001D4601F025FF4FF00109B9F1000F2AD039
:1073E0004DB3E168606841F0500101F0F7FE310AE9
:1073F0006068FFF74BFF60683146FFF747FFA5F174
:107400001E0A4746A6EB080B606817F8011B0368C5
:10741000013D9B68984755450BEB0706B84601D0E0
:10742000002DF1D16068012101F0F3FE0028D7D0D2
:107430004FF00009D1E701A8FFF739FF484603B034
:10744000BDE8F08F2DE9F0438BB00E46154680461F
:10745000406801901C4601F0E3FEAE4229D226446A
:1074600025448CB11E2C2746D8F8003028BF1E2793
:10747000F61BD3F8089002AA3B4631464046ED1B66
:10748000C84748B9002400E0012401A8FFF70FFF16
:1074900020460BB0BDE8F083D8F8003002AAD3F83C
:1074A0000C9029463B464046C8470028EAD0E41BDA
:1074B000D7E7E9D9002CE7D0D8F800301E2C2746B2
:1074C00028BF1E27D3F8089002AA3B463146404603
:1074D000C8470028D6D0D8F8003002AAD3F80C90BC
:1074E00029463B464046C8470028CBD03E443D4451
:1074F000E41BDFE7012A034602D101600020704748
:10750000022A04BFD1E90001C3E90001F6E710B582
:10751000012303748368044643B1C068984701237C
:1075200063740020BDE8104000F0A2BC0068002891
:10753000F5D083680BB904F0FCFAC368EEE710B429
:1075400042680346541001EB6200D20748BF0A5953
:107550001B685DF8044B48BFD35818470123F7B5A3
:1075600080F829300646083000F042FC0420FCF781
:1075700092FD054698B31B49142004F0D6FA30B1A9
:107580000023C0E90033C0E9023303744374286068
:10759000A0B1154B1549C0E902364FF40063CDE99F
:1075A00000030222124B043000F0EAFB30B92B68D2
:1075B0001B7CA3B9012000F083FCF8E72C680023B2
:1075C0002B6064B1276837B13846FCF7B5FE10214F
:1075D000384604F0A8FA1421204604F0A4FA756095
:1075E00003B0F0BD44D90D00FB770D0058D50D0058
:1075F0000F750D0047F23051084AC160084902601A
:107600000022C0E904120749C16107494260C0E98C
:1076100008228161028580F82A2070471CD60D005F
:1076200065790D003F750D00F5740D0010B5044B24
:10763000044640F8103BFCF77FFE204610BD00BF1B
:107640001CD60D0010B5034B03600446FFF7EEFF98
:10765000204610BD44D60D0010B50446FFF7F2FFDA
:107660002046382104F05FFA204610BD806800F003
:10767000C7BB806800F0CCBB10B504460068FFF7BC
:10768000F8FF204610BD13B504460190FFF7EEFF4A
:10769000E36ADC88A4B20CB103F1080401A8FFF787
:1076A000EBFF204602B010BD13B504460190FFF772
:1076B000DDFF94F8283043B9E26A0124D38001A8A1
:1076C000FFF7DAFF204602B010BD0024F7E713B53C
:1076D00004460190FFF7CAFFE36A01A8DC88FFF7C0
:1076E000CBFF204602B010BD2DE9F047994686B089
:1076F00090F829309DF838A09DF83C8004460F464C
:10770000164613B903689B689847314B3846002EDC
:1077100008BF1E4605F0B1F90546304605F0ADF943
:10772000284400F10A05AB071CBF25F0030504350A
:107730003346CDE90285CDE9009A264926483A46E6
:10774000FCF7AAFE238E083BAB4212D2002420464F
:1077500006B0BDE8F087CB88012B36D005A8FFF72F
:107760008BFF236894F828109B69204698470028CF
:10777000ECD020460594FFF779FFE16A228E636B17
:107780000A44D21AAA42E6D348EA0A0883F80480D7
:10779000C3F80090636B03F108083946404605F0D2
:1077A00046F9404605F069F901303146404405F09C
:1077B0003EF9636BE26A1D446563D3880133D3806D
:1077C000012405A8FFF758FFC1E70024F9E700BF2F
:1077D000DDCF0D006AD50D0000E5032008B5044695
:1077E00000F11005A3690BB904F0A3F9E369214680
:1077F0002846984700F0CCFAF4E708B5FFF7EEFF0B
:1078000068B501F108050646284605F036F901304D
:107810000544284605F031F9F36A01302844C31ABB
:1078200013F003031CBFC3F10403C01868BDF7B510
:1078300004460E460190FFF719FFE76AFB8807F13F
:107840000805E6B1012B22D929462046FFF7D8FFCB
:10785000054629462046FFF7D3FF228E3A44121AE6
:107860000146A0EB050602D0284605F079F8636BC7
:107870009B1B6363FB88013BFB80012601E0002B1F
:10788000E7D101A8FFF7F8FE304603B0F0BD0026AF
:10789000F7E700002DE9F0470D4604462F4616464F
:1078A000FFF7A8FE154B57F8082B2360144BE56231
:1078B0009A422686984617D1AB889BB2B34213D121
:1078C00005EB060A67634FF00009EB881FFA89F29F
:1078D0009BB29A420ED2616B2046FFF791FF504552
:1078E000606309F10109F0D90023C5F800806763DE
:1078F000AE80EB802046BDE8F08700BF44D60D0087
:1079000061AB9CD110B5D1E9002386B000210446BB
:1079100004910AB9D90705D5CDE902230F4B059388
:107920000F4B049302AB93E803006A4682E803001E
:1079300094E8030083E8030092E80300049A84E8D3
:107940000300A168A260059A04911846E168E2600C
:107950000591FCF7F1FC204606B010BD3F750D0007
:10796000F5740D0007B5054B0093694600231030F0
:107970000193FFF7C7FF03B05DF804FBAD790D007D
:1079800013B5044600F0ACFA636AC01AE368984283
:1079900008D3054B00936946002304F110000193BE
:1079A000FFF7B0FF02B010BDAD790D002DE9F04139
:1079B00090F82A3086B00446002B64D100F0F4FC25
:1079C000002860D000F08CFA636AC01A40F2F133EC
:1079D000984258D9236820465B6998470546002895
:1079E00051D000F10807012384F82830384605F00B
:1079F00044F895F80480CDF8048001302B682B49B9
:107A000000933E1833462A483A46FCF745FD2B685A
:107A10008DF800803246394602A801F0EDF8029D4B
:107A20006B781BB9012000F0D7FDF8E7002000F0CB
:107A300049FC20B16B7813B900F0A6FCFAE72B786B
:107A4000012B23D11B491A48FCF726FD236800218E
:107A50009B6920469847002384F8283000F040FABC
:107A60006062039C7CB16368013B63605BB923681F
:107A700020469B689847A368013BA3601BB9236815
:107A80002046DB68984706B0BDE8F081E2680A4905
:107A90000748FCF701FD094B049304A9002304F1F6
:107AA00010000593FFF72EFFD5E700BFABD50D0003
:107AB00000E50320CCD50D00E3D50D0081790D0044
:107AC000014B024A1A60704700E503200AD60D00F8
:107AD0000368C9B29B68184701757047F8B5074637
:107AE0000C4615461E4603F0C9FF397D01F072FBB6
:107AF00003F0C4FF2146FFF7EBFF0024A64207DD99
:107B000003F0BCFF0368295D9B6898470134F5E7E3
:107B100003F0B4FFBDE8F84001F07FBB07B50123D7
:107B20008DF807200DF10702FFF7D8FF03B05DF8CD
:107B300004FB38B504460D4603F0A0FF217D01F09B
:107B400049FB03F09BFF2946FFF7C2FF03F096FFB6
:107B5000002101F05EFB08B1002038BD03F08EFF6C
:107B6000217D012201F033FB0128F5D103F086FFCE
:107B700003685B699847C0B2EFE708B50021FFF7DB
:107B8000D8FFC0F3C00008BD38B50D460E2104462D
:107B9000FFF7CFFF20F0030242EA95022046D2B25F
:107BA000BDE838400E21FFF7B9BF38B50D462A2190
:107BB0000446FFF7BEFF20F0300242EAC50220462D
:107BC000D2B2BDE838402A21FFF7A8BF10B5112175
:107BD0000446FFF7AEFF40F04000C2B2112120463C
:107BE000FFF79CFF20465022BDE810401221FFF70E
:107BF00095BF10B52A210446FFF79BFF2A2100F00C
:107C0000FE022046BDE81040FFF788BF10B52A21CC
:107C10000446FFF78EFF40F00100C2B22A21204641
:107C2000BDE81040FFF77ABF38B5417515460446E8
:107C300003F024FF01F09CFA0D212046FFF779FFA5
:107C40002A2812D12046FFF7D4FF617D2046FFF796
:107C50009BFF29462046FFF7A8FF2046FFF7B6FF07
:107C60002046FFF7D3FF012038BD0020FCE7F8B520
:107C7000064617461D460C4603F000FF317D01F015
:107C8000A9FA03F0FBFE2146FFF722FF03F0F6FE00
:107C9000002101F0BEFA044688B903F0EFFE317D01
:107CA0002A4601F094FA854209D1A54209DD03F084
:107CB000E5FE03685B69984738550134F5E7002015
:107CC000F8BD0120FCE7000013B506236A46012138
:107CD0000446FFF7CCFF9DF800309DF801109DF899
:107CE00003209DF804009FED1D6A41EA03219DF8E1
:107CF000023042EA03229DF8053043EA0023607D0A
:107D000007EE900A41F30B11F8EE676A07EE901A3E
:107D1000B8EEE77A42F30B1227EE067A07EE902AC6
:107D200027EE267A43F30B1384ED027AB8EEE77A56
:107D300007EE903AF8EEE77A27EE067A67EE867A53
:107D400027EE267A67EEA67A21806280A38084EDF2
:107D5000037AC4ED047A02B010BD00BF0000003AFF
:107D600008B5024B1B685B6C019308BD74020300ED
:107D700008B5024B1B689B6C019308BD740203009D
:107D800008B5024B1B685B68019308BD48020300FD
:107D900008B5024B1B68DB68019308BD480203006D
:107DA00008B5024B1B68DB69019308BD480203005C
:107DB00008B5024B1B681B6A019308BD480203000B
:107DC00008B5024B1B685B6A019308BD48020300BB
:107DD00008B5024B1B689B6A019308BD480203006B
:107DE00008B5024B1B68DB6A019308BD480203001B
:107DF00008B5024B1B681B6B019308BD48020300CA
:107E000008B5024B1B689B6B019308BD4802030039
:107E100008B5024B1B681B6C019308BD48020300A8
:107E200008B5024B1B685B6C019308BD4802030058
:107E300008B5024B1B689B6C019308BD4802030008
:107E400008B5024B1B68DB6C019308BD48020300B8
:107E500008B5024B1B685B6D019308BD4802030027
:107E600008B5024B1B689B6D019308BD48020300D7
:107E700008B5024B1B68DB6E019308BD4802030086
:107E800008B5024B1B681B6F019308BD4802030035
:107E900008B5024B1B685B6E019308BD34020300FA
:107EA00008B5024B1B68DB6E019308BD340203006A
:107EB00008B5024B1B685B68019308BD18020300FC
:107EC00008B5024B1B689B68019308BD18020300AC
:107ED00008B5024B1B68DB68019308BD180203005C
:107EE00008B5024B1B685B69019308BD18020300CB
:107EF00008B5024B1B689B6D019308BD1802030077
:107F000008B5024B1B68DB6D019308BD1802030026
:107F100008B5024B1B685B6E019308BD1802030095
:107F200008B5024B1B689B6E019308BD1802030045
:107F300008B5024B1B681B68019308BD2C020300A7
:107F400008B5024B1B685B68019308BD2C02030057
:107F500008B5024B1B689B68019308BD2C02030007
:107F600008B5024B1B68DB68019308BD2C020300B7
:107F700008B5024B1B681B69019308BD2C02030066
:107F800008B5024B1B685B69019308BD2C02030016
:107F900008B5024B1B689B69019308BD2C020300C6
:107FA00008B5024B1B68DB69019308BD2C02030076
:107FB00008B5024B1B681B6B019308BD2C02030024
:107FC00008B5024B1B68DB68019308BD280203005B
:107FD00008B5024B1B689B69019308BD280203008A
:107FE00008B5024B1B68DB69019308BD280203003A
:107FF00008B5024B1B681B6A019308BD28020300E9
:1080000008B5024B1B685B6A019308BD2802030098
:1080100008B5024B1B689B6A019308BD2802030048
:1080200008B5024B1B68DB6A019308BD28020300F8
:1080300008B5024B1B681B6B019308BD28020300A7
:1080400008B5024B1B685B6B019308BD2802030057
:1080500008B5024B1B681B6C019308BD2802030086
:1080600008B5024B1B689B6C019308BD28020300F6
:1080700008B5024B1B68DB6C019308BD28020300A6
:1080800008B5024B1B681B6D019308BD2802030055
:1080900008B5024B1B685B69019308BD64020300CD
:1080A00008B5024B1B689B68019308BD680203007A
:1080B00008B5024B1B68DB68019308BD680203002A
:1080C00008B5024B1B68DB69019308BD3002030051
:1080D00008B5024B1B681B6A019308BD3002030000
:1080E00008B5024B1B681B68019308BD3C020300E6
:1080F00008B5024B1B689B68019308BD3C02030056
:1081000008B5024B1B68DB68019308BD3C02030005
:1081100008B5024B1B681B69019308BD3C020300B4
:1081200008B5024B1B685B69019308BD3C02030064
:1081300008B5024B1B689B69019308BD3C02030014
:1081400008B5024B1B68DB69019308BD3C020300C4
:1081500008B5024B1B681B6A019308BD3C02030073
:1081600008B5024B1B689B6A019308BD3C020300E3
:1081700008B5024B1B68DB6A019308BD3C02030093
:1081800008B5024B1B681B68019308BD4C02030035
:1081900008B5024B1B685B68019308BD4C020300E5
:1081A00008B5024B1B689B68019308BD4C02030095
:1081B00008B5024B1B681B69019308BD4C02030004
:1081C00008B5024B1B685B69019308BD4C020300B4
:1081D00008B5024B1B689B69019308BD4C02030064
:1081E00008B5024B1B68DB69019308BD4C02030014
:1081F00008B5024B1B681B6A019308BD4C020300C3
:1082000008B5024B1B685B6B019308BD600203005D
:1082100008B5024B1B681B6D019308BD600203008B
:1082200008B5024B1B685B6D019308BD600203003B
:1082300008B5024B1B68DB6E019308BD60020300AA
:1082400008B5024B1B681B6F019308BD6002030059
:1082500008B5034B1B68D3F89830019308BD0000A4
:108260006002030008B5024B1B681B68019308BD40
:108270002002030008B5024B1B685B68019308BD30
:108280002002030008B5024B1B685B69019308BD1F
:108290002002030008B5024B1B689B69019308BDCF
:1082A0002002030008B5024B1B681B6A019308BD3E
:1082B0002002030008B5024B1B68DB6A019308BD6E
:1082C0002002030008B5024B1B68DB6C019308BD5C
:1082D0002002030008B5024B1B685B6D019308BDCB
:1082E0002002030008B5024B1B689B6D019308BD7B
:1082F0002002030008B5024B1B68DB6D019308BD2B
:108300002002030008B5034B1B68D3F888300193A3
:1083100008BD00002002030008B5034B1B68D3F81A
:108320009430019308BD00002002030008B5034B00
:108330001B68D3F8A830019308BD00002002030099
:1083400008B5034B1B68D3F8AC30019308BD00009F
:108350002002030008B5034B1B68D3F8B03001932B
:1083600008BD00002002030008B5024B1B681B6813
:10837000019308BD4402030008B5024B1B685B680B
:10838000019308BD4402030008B5024B1B689B68BB
:10839000019308BD4402030008B5024B1B68DB686B
:1083A000019308BD4402030008B5024B1B685B69DA
:1083B000019308BD4402030008B5024B1B68DB694A
:1083C000019308BD4402030008B5024B1B681B6AF9
:1083D000019308BD4402030008B5024B1B685B6AA9
:1083E000019308BD4402030008B5024B1B68DB6A19
:1083F000019308BD4402030008B5024B1B681B6BC8
:10840000019308BD4402030008B5024B1B685B6B77
:10841000019308BD4402030008B5024B1B689B6B27
:10842000019308BD4402030008B5024B1B68DB6BD7
:10843000019308BD4402030008B5024B1B685B6C46
:10844000019308BD4402030008B5024B1B685B683A
:10845000019308BD4002030008B5024B1B689B68EE
:10846000019308BD4002030008B5024B1B68DB689E
:10847000019308BD4002030008B5024B1B681B694D
:10848000019308BD4002030008B5024B1B685B69FD
:10849000019308BD4002030008B5024B1B689B69AD
:1084A000019308BD4002030008B5024B1B68DB695D
:1084B000019308BD4002030008B5024B1B681B6A0C
:1084C000019308BD4002030008B5024B1B681B6BFB
:1084D000019308BD4002030008B5024B1B685B6BAB
:1084E000019308BD4002030008B5024B1B681B6CDA
:1084F000019308BD4002030008B5024B1B685B6C8A
:10850000019308BD4002030008B5024B1B681B68BD
:10851000019308BD1C02030008B5024B1B685B6891
:10852000019308BD1C02030008B5024B1B689B6841
:10853000019308BD1C02030008B5024B1B681B69B0
:10854000019308BD1C02030008B5024B1B68DB69E0
:10855000019308BD1C02030008B5024B1B685B6A4F
:10856000019308BD1C02030008B5024B1B68DB6ABF
:10857000019308BD1C02030008B5024B1B681B6B6E
:10858000019308BD1C02030008B5024B1B685B6C1D
:10859000019308BD1C02030008B5024B1B689B6CCD
:1085A000019308BD1C02030008B5024B1B68DB6C7D
:1085B000019308BD1C02030008B5024B1B681B6D2C
:1085C000019308BD1C02030008B5024B1B685B6DDC
:1085D000019308BD1C0203000021FFF753BE10B534
:1085E000836804460BB903F0A4FAC3689847A368EC
:1085F0001BB1032221462046984720461021BDE8A2
:10860000104003F090BA10B5036804469B68984781
:10861000A368013BA3602BB923682046DB68BDE853
:108620001040184710BD10B50446006808B1FFF7A8
:10863000FFFB204610BD0B68036013B15A6801327E
:108640005A60704710B50446006828B14368013B82
:1086500043600BB9FFF7D7FF204610BD10B5064C9D
:10866000002320462360FFF7DBFB2046034A044932
:10867000BDE8104003F052BA04E5032000E30320F4
:1086800027860D00002240681146FFF7F5BE002244
:1086900040681146FFF710BF002240681146FFF7FF
:1086A0001BBF40680022FFF70FBF4068002281F027
:1086B0000101FFF7F9BE002340681A461946FFF78B
:1086C000EBBE002340681A461946FFF7DDBE0022C4
:1086D00040681146FFF7C0BE406800220221FFF744
:1086E000C3BE002340681A46FFF7AEBEF0B51B4B71
:1086F000036000250F4628331826C0E9025589B0CB
:108700004360324629460446103004F043F9786845
:108710002A462946FFF7B0FE18B9A060204609B0E6
:10872000F0BD2946324602A8CDE9005504F032F9E1
:1087300002A96846ADF80860FFF712FB10B10123EB
:10874000A360EBE7009B019AA360E2600BB90223F0
:10875000A36002A9204600F0AEF8DFE7A8D60D001E
:10876000084B10B5282422461846002104F012F9BF
:10877000054B04804FF0FF32426004225A60034AE6
:108780001A6010BD10E5032008E503206CD60D002B
:108790007047007D704710B52821044603F0C3F9E7
:1087A000204610BD037D7BB1C369002B0CDB07EEB7
:1087B000903A9FED077AF8EEE77A87EE870ADFEDC9
:1087C000057A20EE270A7047BFEE000A704700BF07
:1087D00000FF7F470000C842037D63B18369B3F1A6
:1087E000004F08D007EE903A9FED047AF8EEE77A52
:1087F00087EE870A70479FED020A70470000C84263
:1088000000000000037D7BB1436A002B0CDB07EE08
:10881000903A9FED077AF8EEE77A87EE870ADFED68
:10882000057A20EE270A7047BFEE000A704700BFA6
:1088300000FF7F470000C842037D63B1036AB3F1C4
:10884000004F08D007EE903A9FED047AF8EEE77AF1
:1088500087EE870A70479FED020A70470000C84202
:108860000000000070B50C1E06460ADA2D2102F049
:10887000CCF8614205460A22304602F0DFF828446F
:1088800070BD21460025F6E770B50C4605468168A7
:108890002046FFF7E7FF2C210646204602F0B5F8F8
:1088A000E96806442046FFF7DDFF304470BDA0F1C3
:1088B0000400FFF7E9BF30B50D4600F110040FCDFD
:1088C0000FC495E8030084E80300012030BD704721
:1088D0000020704710B51021044603F024F920460B
:1088E00010BD08B5FFF7F6FF08BD30B500224FF602
:1088F0009C74026084808D888C800C688580046004
:108900000A6030BD10B504460068FFF705FE20463A
:1089100010BD38B5C468F4B12378022B03D104F13B
:108920000C00FFF7EFFF656835B12846FBF704FD43
:108930001021284603F0F7F8A56835B12846FBF763
:10894000FBFC1021284603F0EEF820461421BDE878
:10895000384003F0E8B838BD10B588B00446684622
:1089600002F083F9694604A802F0CAF904A8A047F6
:10897000044604A802F02EF9684602F02BF92046BE
:1089800008B010BD1FB50023CDE9020101921024EB
:108990001A4669461846ADF80230ADF80040FFF7B8
:1089A000EBFC04B010BD1FB50C23ADF80430036818
:1089B0008DF80630037A8DF8073043680293002162
:1089C000437AADF80D1001A88DF80F108DF80C301A
:1089D000FFF732FD05B05DF804FB1FB50C22ADF8C2
:1089E000042002688DF80620027A8DF8072042687C
:1089F00002920023427A8DF80C20194601AA022027
:108A0000ADF80D308DF80F30FFF706FD05B05DF8BD
:108A100004FB73B50E46044656F8043B00930D461E
:108A200001A83146FFF707FE019A009B62602360B0
:108A300001A8002301930093FFF704FE3046FFF7DF
:108A400001FE2846082103F06EF8204602B070BDF2
:108A500013B50B460246D0E900016C4684E80300DA
:108A600093E8030082E8030094E8030083E803002E
:108A700002B010BD826810B50AB903F05AF8BDE81B
:108A80001040C368184708B5006800F11001FFF7EF
:108A9000F1FF08BD826810B50AB903F04AF8BDE8D5
:108AA0001040C368184708B5006800F11001FFF7CF
:108AB000F1FF08BD38B500230446036010200D46C1
:108AC000FBF7E9FA28B10123C0E90133024B036047
:108AD000C5602060204638BDDCD60D0038B50023C7
:108AE00083608B6804460D462BB102229847EB68E1
:108AF000E360AB68A360204638BD0000F0B589B0E4
:108B000004686846FFF7F1FE4FF00203D4E84F2FE8
:108B1000002A03D1C4E8413F0029F7D125D104F14F
:108B20000C0569462846FFF7E0FEBFF35B8F012383
:108B30006370002004F10803BFF35B8F53E8006FFC
:108B400043E80002002AF9D1BFF35B8F6EB1FFF753
:108B5000B9FB78B129463046FFF78CFF3046FBF76A
:108B6000EBFB1021304602F0DEFF6846FFF7CAFE3D
:108B700009B0F0BD314602A8FFF7B0FFE068B4F9D4
:108B8000105008B103F05CFF06901020ADF81C50A7
:108B9000FBF781FA0546E8B1002787601820FBF74C
:108BA0007AFA044688B10146876002A8FFF750FFB1
:108BB000049BA268A360059B049206A9E268E36097
:108BC00004F110000592FFF790FE084BEB60084B94
:108BD0002C60AB6006A8FFF795FE02A8FBF7ACFB84
:108BE000002229460348FFF775FBB7E7878A0D0087
:108BF0001D8D0D00DF850D002DE9F0478AB005467B
:108C00009DF848900C4617469846FFF7CDFB07AEF7
:108C1000824638BB4FF62E73059005A93046ADF855
:108C20001830FFF762FE1420FBF735FA044648B10E
:108C3000022303700123C0E901AA437031460C30BE
:108C4000FFF753FE2846214640F8044BFFF732FF5A
:108C50003046FFF757FE05A8FFF754FE28460AB036
:108C6000BDE8F0870C234FF0000A1420CDE908AAD4
:108C70000793FBF710FA014628B1C0E901AA80F872
:108C800000A080F801A004A80391FFF713FF224B76
:108C900008930820FBF7FFF9824628B1039B40F8B0
:108CA000043B04A9FFF7C7FC00965FFA89F342462C
:108CB00039462046CDF824A0FFF786FBB8B9039BC0
:108CC0005B7803F0FF0293B94FF69C7305A903A8E4
:108CD0000592ADF81830FFF711FF05A8FFF712FE57
:108CE00005A80999FFF795FE06A8FFF7ABFC039BC3
:108CF000059304A906A8FFF79EFC059B069A2B6026
:108D00006A60002306A806930593FFF79BFC04A85E
:108D1000FFF798FCA2E700BFE18D0D00022AF8B52D
:108D2000054607D0032A18D0012A01D10B68036039
:108D30000020F8BD18200E68FBF7ADF9044650B1CD
:108D40003146FFF7CBFE3069B6F9147008B103F075
:108D500077FE2061A7822C60EAE70468002CE7D048
:108D600004F11000FFF7CEFD2046FBF7E5FA1821CD
:108D7000204602F0D8FEDBE738B5002383608B681D
:108D800004460D462BB102229847EB68E360AB68BE
:108D9000A360204638BD022A70B5044607D0032AD6
:108DA00012D0012A01D10B680360002070BD14208D
:108DB0000E68FBF770F9054620B13146FFF7DCFF7E
:108DC000337C2B742560F0E70468002CEDD020463E
:108DD000FBF7B2FA1421204602F0A5FEE5E70000F9
:108DE000F0B589B004460D4601A81146FFF711FE03
:108DF000A4B124B21DB1284603F022FE054601A805
:108E000003A90395ADF81040FFF778FE03A8FFF71C
:108E100079FD02A8FFF716FC09B0F0BD019D012302
:108E2000D5E84F2F002A03D1C5E8413F0029F7D1EB
:108E3000EFD12B73BFF35B8F6B702B1DBFF35B8F79
:108E400053E8006F43E80042002AF9D1BFF35B8F7B
:108E5000002EDED02046FFF735FA074660B105F157
:108E60000C013046FFF716FE3046FBF765FA10217D
:108E7000304602F058FECCE7314603A8FFF77CFFEE
:108E80002B7B8DF81C301020FBF705F90546D0B17F
:108E900087601420FBF7FFF8044678B1876001462D
:108EA00003A8FFF7D5FD059BA268A360069B05926A
:108EB000E268E3609DF81C3006922374064BEB6079
:108EC000064B2C60AB6003A8FBF736FA002229465C
:108ED0000348FFF7FFF9C7E7A78A0D00978D0D003C
:108EE000DF850D00002240681146FFF7E5BA002239
:108EF00040681146FFF7F0BA40680022FFF7E4BA75
:108F00004068002281F00101FFF7CEBA00234068DB
:108F10001A461946FFF7C0BA002340681A46194698
:108F2000FFF7B2BA002240681146FFF7A5BA002247
:108F300040681146FFF790BA406800220221FFF70F
:108F400093BA002340681A46FFF77EBA024B032209
:108F50005A60024A1A60704738E50320F8D60D00BF
:108F6000006800F05DB910B50446016002710AB1F5
:108F7000FFF7F6FF204610BD13B50446019102F03D
:108F8000A5FD019A01462046FFF7EDFF204602B0FD
:108F900010BD006800F04DB910B5037904460BB15F
:108FA000FFF7F7FF204610BD2DE9FF4104460D46AF
:108FB00017461E46FFF7D4FF36238DF800300023F6
:108FC000206801934FF001080A23694603938DF846
:108FD000088000F006F92068036829469B689847D6
:108FE0002068414600F015F9054640B16FF09F0535
:108FF0002046FFF7CEFF284604B0BDE8F0810223EB
:1090000020680193694600F0B9F80228EED1206883
:1090100003685B6998473870206803685B69984704
:109020003070E5E713460A460C21FFF7BDBF2DE976
:10903000FF41164604461D460F46FFF791FF3623B3
:109040008DF800300023206801934FF001080A23B7
:10905000694603938DF8088000F0C3F82068036820
:1090600039469B6898472068036831469B68984753
:109070002068036829469B6898474146206800F0AD
:10908000C8F8002820460CBF00256FF09F05FFF7A9
:1090900080FF284604B0BDE8F08108B540220023D7
:1090A0000621FFF7C4FF00EAE07008BD37B50546AA
:1090B000FFF756FF00230DF107020DF106012846C8
:1090C0008DF806308DF80730FFF7ACFF041E0BDB80
:1090D0009DF807309DF8062003F07F030C212846F9
:1090E000FFF7A5FF00EAE0742846FFF752FF20468D
:1090F00003B030BD7047F8B5064615460C468F18CC
:10910000BC4206D0336814F8011B9B683046984770
:10911000F6E72846F8BD007C0022FEF769BF007C18
:109120000021FEF76DBF007C0021FEF771BF007CBF
:109130000021FEF775BF007C0021FEF779BF10B556
:109140001421044602F0EFFC204610BD10B54FF488
:109150007A73044608460021C4E90113034B2360D7
:1091600020741146FEF774FF204610BD34D70D0061
:109170000023007C1A461946FEF722BF7FB5002265
:109180001423CDE90122ADF804300B788DF80830B6
:109190004B680393CB680493007C0B7A059301A979
:1091A000FEF76EFF07B05DF804FB1FB5003B8DF8BE
:1091B00000104FF06401039118BF0123694601922A
:1091C0008DF80830FFF7DAFF05B05DF804FB0123E6
:1091D000FFF7EBBF007C0022FEF7FABEC9B2FFF733
:1091E000F9BF7FB50023CDE901334A680392142308
:1091F000CA68ADF804300B7804920A7A0592007CB4
:109200008DF8083001AA1946FEF7E2FE07B05DF8B6
:1092100004FB007C0022FEF7E3BE0121FFF7F9BF4B
:1092200008B50021007CFEF71BFFB0FA80F0400972
:1092300008BD08B50021007CFEF71AFFB0FA80F0E7
:10924000400908BD004700002DE9FF4100241D46EC
:109250000F4690460646FEF7A3FEA5424FF00403D4
:10926000ADF80D408DF80C308DF80F40A2BF9DF881
:1092700028308DF80E3003AC0749009443463A4637
:109280003046A8BF8DF80D50FEF782FEB0FA80F090
:10929000400904B0BDE8F08145920D00F8B50446E0
:1092A000FEF77EFE054670B9084F57F8246046B1B8
:1092B0003046FBF741F81021304602F034FC47F805
:1092C0002450012000E00020F8BD00BF40E503204D
:1092D000704710B51821044602F025FC204610BD49
:1092E000F0B5037D062B8DB00E4600F104074FF05C
:1092F000000412D000F1080515F8011D0A223046BD
:1093000001F09CFBAF42044419D0002CF4D02E2174
:10931000304601F07AFB0444EEE72F236A463946D3
:109320000A208DF80040FEF7B3FE684603F0A5FB67
:1093300033680246DB686946304698470446204653
:109340000DB0F0BD10B5054B0446112240F8043BAA
:10935000002103F01FFB204610BD00BF5CD70D00AD
:109360000346074A10B543F8042B01F1100251F8E7
:10937000044B43F8044B9142F9D10A781A7010BD9E
:109380005CD70D0010B59DF8084044EA032343EA7A
:10939000024242EA016104234160037510BD13B526
:1093A000CB7800938B784A780978FFF7EBFF02B00F
:1093B00010BD00F11003012213F8101C01291846FA
:1093C00008D153F8041C02EB4102013A03F11003E7
:1093D000F2D17047022904BF53F8041C5218F4E775
:1093E0000EB4F0B588B000AF07F13405102155F880
:1093F000042B7A6004462B467818FD60FFF7ACF822
:109400000F287A681AD900F1080323F007036E4683
:10941000ADEB030D411C2B466846FD60FFF79CF841
:10942000021E04DD236869469B6820469847B546BE
:109430002037BD46BDE8F04003B070470028F7D0A4
:10944000236802469B6807F1100120469847EFE722
:1094500010B5036804469B689847A368013BA36066
:109460002BB923682046DB68BDE81040184710BDC3
:1094700007B503688DF807109B6801220DF10701FD
:10948000984703B05DF804FB38B50B6803604D687E
:1094900043689D4204460CD015B16B6801336B6084
:1094A000606828B14368013B43600BB9FFF7D0FF08
:1094B0006560204638BD0B461146002210B5C0E954
:1094C0000022044683600BB9204610BDFFF7DCFF85
:1094D000FAE78368EBB11A78032A1AD8DFE802F0BA
:1094E0000417021B0520704702685B685268D05C55
:1094F0002D2812D0A0F13003092B0ED974280ED0DC
:1095000066280CD0A0F16E035842584170470620DF
:1095100070470020704704207047032070470220E6
:10952000704710B50446FFF7D4FF02280ED0C31EC3
:10953000DBB2012B14D82268A36850685B68BDE8D1
:1095400010400A220021184403F052BB2268A3688D
:1095500052685B68D05CA0F174035842584110BD5A
:109560000020FCE738B50023C0E9003304460E486C
:10957000C4E90203A9B10B78032B06D08BB9136899
:1095800058684B68C35C6E2B07D013684D685868E9
:109590008B6828445B1BA060E36011462046FFF700
:1095A00073FF204638BD00BFDDCF0D0038B5002564
:1095B0000B46C0E90055C0E90255C0E90455044610
:1095C00011464BB11A78012A06D103F11002DB686B
:1095D00082604361FFF758FF204638BD10B54369EC
:1095E000044663B18068E060013B1030A0602061F8
:1095F000636113B1FFF7DDFEA060012000E01846B3
:1096000010BD10B57D210446FFF732FF0123237101
:10961000204610BD08B50379012B02D0022B04D0DF
:1096200008BD2C21FFF724FFFAE73A21FAE710B52D
:109630000446FFF7EFFF20467B21FFF719FF0023C9
:109640002371204610BD000013B504460191FFF7B9
:10965000E1FF2368019ADB6803492046984701230C
:109660002046237102B010BD48D30D0013B5044647
:109670000191FFF7CFFF2368019ADB680349204679
:10968000984701232046237102B010BD37D50D0045
:109690002DE9F0410D4617462221DFF8A08004464F
:1096A0002F44FFF7E5FE2946BD422A4638D015F87B
:1096B000016B222E03D05C2E01D01F2EF4D823681C
:1096C000521A9B68204698475C212046FFF7D0FE3F
:1096D0000D2E0AD8072E1CD9A6F10803052B18D881
:1096E000DFE803F00D0F11171315222E01D05C2EA9
:1096F0000FD131462046FFF7BBFE2946D4E7622151
:10970000F8E77421F6E76E21F4E76621F2E77221AB
:10971000F0E723683246DB68414620469847ECE78D
:109720008D4204D023686A1A9B68204698472221FC
:109730002046FFF79DFEBDE8F08100BF68D70D0011
:1097400013B50446CDE90021FFF764FF2046DDE9AB
:109750000021FFF79DFF02232046237102B010BDB8
:1097600013B50446CDE90021FFF754FF2046DDE99B
:109770000021FFF78DFF01232046237102B010BDA9
:1097800080680368DB6818477047084611B10B68AA
:109790005B681847704770477047704738B5044694
:1097A0000D4600682E2103F02EF92368C31A2B60A2
:1097B00023B1037803B1013023682060184638BD17
:1097C00010B50C21044602F0AEF9204610BD10B5CC
:1097D0000421044602F0A7F9204610BD10B504216B
:1097E000044602F0A0F9204610BD08B503F015F9B3
:1097F000B0FA80F0400908BD10B50C4601F06CFFCE
:10980000844210D001F0DCFE844205D101F0D8FE84
:10981000BDE8104001F0D1BE2CB1236820465B6842
:10982000BDE81040184710BD13B504460846019125
:1098300003F023F901990246204602B0BDE810402A
:10984000FFF78EBF13B504460846019103F015F9E2
:1098500023680199DB680246204602B0BDE810404B
:10986000184707B503688DF80710DB6801220DF172
:109870000701984703B05DF804FB0EB403B503ABD2
:10988000002153F8042B006A019301F0F5F802B0AF
:109890005DF804EB03B070472DE9F74FD0E9009570
:1098A0004FF0140808FB05F50093AB10184D174650
:1098B0005D434C46002D23DD6E1008FB06F004EBE3
:1098C000000A3A46BAF804B0205801915F4528BF13
:1098D0005A4603F0DAF80199012378B95F4503D1BC
:1098E000009A13703546E5E78CBF01200020002860
:1098F000F8D0AE1B0AF11404013EF3E7C00FF6E7FF
:10990000A4EB09040248A410604303B0BDE8F08F43
:10991000CDCCCCCC7FB50369067E01910BB301B3EE
:10992000002500F10C04039503A901A8FFF736FFF9
:109930000146B0B10DF10B03039A8DF80B50204690
:10994000FFF7AAFF9DF80B305BB12468142303FBDB
:10995000004000F10804B0F90630002BA8BFDEB2C9
:10996000E2E7304604B070BD10B50A4C2378BFF36F
:109970005B8FDB070BD42046FAF79EFB38B12046FD
:10998000FAF79FFB044A0549054802F0C7F8044866
:1099900010BD00BFD4E5032000E3032099970D001C
:1099A00084E2032010B50A4C2378BFF35B8FDB07FA
:1099B0000BD42046FAF780FB38B12046FAF781FB3A
:1099C000044A0549054802F0A9F8044810BD00BF43
:1099D000D8E5032000E3032097970D0088E20320D9
:1099E00038B500250446C0E90055C0E90455856036
:1099F000856140F8245FFEF713FAFFF7B5FFE061D9
:109A0000FFF7D0FF25732062204638BD10B50B4C00
:109A10002378BFF35B8FDB070ED42046FAF74CFBAD
:109A200050B10748FFF7DCFF2046FAF74AFB054A2A
:109A30000549034802F072F8014810BDD0E5032043
:109A4000E0E5032000E30320A19E0D00024A034944
:109A500003480023FEF7F4BB7D9D0D00099D0D001A
:109A6000899C0D0000231A4619461846FEF7E8BBEC
:109A700037B50D6951F8043B0093044601A8FEF781
:109A8000DAFD6A4629462046FFF715FD01A8FEF7D4
:109A9000D9FD204603B030BD37B58D6851F8043B81
:109AA0000093044601A8FEF7C6FD6A4629462046F3
:109AB000FFF77CFD01A8FEF7C5FD204603B030BDD1
:109AC00037B5CD6851F8043B0093044601A8FEF772
:109AD000B2FD6A4629462046FFF744FD01A8FEF77D
