:02000002D0002C
:1040000000400D0094DA0D00000006000D000501CF
:08401000040135080000000066
:04401800B0C20D0025
:1040200009480A49884208B505D0094A824202D0A7
:10403000121A07F0DDFF0748074A0021121A07F09D
:10404000FFFF014808BD00BFE8E1032034D90D009F
:104050001CE3032020E30320F8E7032070B5074E9C
:10406000074C07F077F9A41BA4080025A54200D14E
:1040700070BD56F8043B98470135F7E7F4D00D00C2
:1040800024D10D0001F078B908B501F047FEBDE874
:10409000084007F021B904F0A1B904F09FB904F079
:1040A000A5B9000008B5034A00210C2004F01AF855
:1040B000FEE700BFB57D0D000078B0FA80F0400942
:1040C00070470123037070477047006A0368DB681C
:1040D00018470000014B1A60704700BF28E2032018
:1040E00003681847012A03D0022A03D00020704732
:1040F0000160FBE70B680360F8E70021072007F089
:10410000C2B9000010B5054B1A7B054B044653F8A5
:10411000221006F008FC204610BD00BFC0E40320BA
:10412000E8E1032010B503682F2B044604D9074AA1
:1041300000210A2003F0D6FF23681F2B83BF03F062
:104140001F03034823604FF0A04010BDB57D0D0054
:104150000003005073B51C4B1C4C1D4D01221A70FE
:104160002378BFF35B8F13F0010F09D12046FFF7CF
:10417000A3FF28B103F04EFE28602046FFF7A1FF01
:104180002B6893F870305E012378BFF35B8FDB07F9
:1041900009D40E48FFF790FF28B103F03BFE2860DA
:1041A0000A48FFF78EFF2B6893F8713003F01F0366
:1041B000334301A80193FFF7B5FF019A0123934010
:1041C000C0F8083502B070BDB4E4032024E3032036
:1041D00028E3032038B50446006928B185680C211E
:1041E00007F019FA2846F8E7204638BD08B5044913
:1041F00006F0EFFB18B1034B06221A70012008BD30
:1042000008C30D00B5E40320436913B183690C3082
:104210001847704710B5034B0360044603F0D4FA07
:10422000204610BD90C80D0010B50446FFF7F2FF00
:104230002046382107F0EFF9204610BD10B5034B9A
:104240000360044602F0B4FF204610BD74C80D00A0
:1042500010B50446FFF7F2FF2046102107F0DBF906
:10426000204610BD13B500210446084603F00AFDA0
:104270000023204601A9019303F01CFD019C0CB111
:10428000012323710021012003F0FCFC2CB12368E1
:1042900020469B6898470023237102B010BD0000A0
:1042A00008B50A4906F095FB002368B1084A094998
:1042B0001360936053615360074A0B611370074B9F
:1042C00001201870064B187008BD00BF08C30D0010
:1042D000F4E30320C0E4032023E4032018E40320D4
:1042E000F0E4032010B50446006818B104F07EF82D
:1042F0000023236010BD10B50446FFF7F3FF2046EE
:1043000010BD08B5002003F0E1FF28B103F0B6FFAF
:1043100080F00100C0B208BD0120FCE700230422A8
:1043200003F08CBF30B585B00346144668460D4691
:1043300098470298206004F051F8286050B1226834
:10434000009907F055FE0024684606F0A1FA2046C1
:1043500005B030BD004CF7E7FCFEFFFF0A4B10B57F
:104360000446036005F01CFA214605F01EFC06F029
:1043700067FF06F059FF2046044B40F8043B05F068
:1043800001FB204610BD00BF5CC80D0044C80D00F5
:1043900010B50446FFF7E2FF2046242107F03BF961
:1043A000204610BD002340681A46194603F0DEBFC0
:1043B00010B58368044613B103220146984720468E
:1043C00010BD000037B5134B036004468068C8B1C8
:1043D00000256FF00043CDE9003502212B462A4627
:1043E00003F070FCA068294603F0BCFC237903F0BD
:1043F000FF0513B103F03EFCF8E7A068294603F07F
:1044000051FCA56004F10C00FFF7D2FF204603B079
:1044100030BD00BF30C80D0010B50446FFF7D2FF15
:1044200020461C2107F0F7F8204610BD38B5044699
:1044300020252A46002107F003FE6571204638BD7D
:10444000F8B5037D05460F4616468BB10368DB6859
:1044500083B19A88012A06D09B68F9E79B684BB123
:104460009A88012AFAD12BB19A89BA42F6D19E7361
:104470002846F8BD0A49102007F0CFF8044668B175
:104480001022002107F0DCFD064B23600123A380EE
:104490002B69A360A781A6732C61E9E72875E7E77C
:1044A00098CF0D001000030070B5037D05460E4641
:1044B000CBB10368DB6823B19A88042A17D09B68C4
:1044C000F9E70C49102007F0A8F8044668B110225B
:1044D000002107F0B5FD084B23600423A3802B695E
:1044E0002C61C4E90236284670BD2875FBE7DE6002
:1044F000F9E700BF98CF0D0010000300002003F083
:1045000071BC00000246014804F0ACB939880D00C6
:1045100007B580680B46002140B1CDE900210A466D
:10452000032103F0CFFBB0FA80F0400903B05DF83F
:1045300004FB08B5806828B1002103F003FC0038B3
:1045400018BF012008BD0EB410B58DB00FAA0168C8
:1045500052F8044B039200232020CDE90403CDE957
:1045600000421E2004AA03F0CDFD0DB0BDE81040AE
:1045700003B070470EB410B58DB00FAA016852F8A1
:10458000044B039200232020CDE90403CDE900422F
:10459000322004AA03F0B6FD0DB0BDE8104003B010
:1045A000704737B504689DF818508DF800308DF8C5
:1045B0000450E4683C23A04703B030BD30B50B780D
:1045C0001C4D93B00C4693B91B4902A807F085FD1A
:1045D0002B7953B1194B1A491B788DF80030194BC0
:1045E00019481B7802AAFFF7DCFF13B030BD08465C
:1045F00007F0DAFCC8280DD1144902A807F06DFDB8
:1046000006F0D7FC124B286201221A70114B0022CF
:104610001A70DDE7204607F0C7FCC928ECD0204619
:1046200007F0C2FC0C4A0346402102A803F0F6FE44
:10463000CEE700BFC0E403203DC30D0079E30320B3
:1046400074C30D0078E3032078E4032045C30D0014
:10465000F0E4032023E4032057C30D0007B50B4902
:1046600006F0B7F970B100238DF80030084B094A05
:104670001B7809490948FFF794FF09480A2102F00D
:10468000A1FA012003B05DF804FB00BF08C30D00D0
:1046900078E3032081C30D00D9C70D0078E403201F
:1046A00088E3032037B51949054606F092F9044618
:1046B000B0B1174B174A01241C71DB78147013B981
:1046C000012003B030BD144B144A1B788DF8003024
:1046D000134B1B7813491448FFF763FF2046F0E79C
:1046E0001249284606F075F90028EAD0084B094A15
:1046F0001C71DB7801241470002BE1D0064B0C4AAE
:104700001B788DF80030064B1B78E3E708C30D00DB
:10471000C0E40320F0E4032079E3032099C30D00F3
:1047200078E303206AC50D0078E4032076C50D0008
:10473000AAC30D0000B50C4B0C4A1B7FC3B04FF44D
:10474000807102A803F06AFE094B0A491B788DF8B4
:104750000030094B09481B7802AAFFF722FF01200D
:1047600043B05DF804FB00BFC0E40320BFC30D00ED
:1047700079E303202BC60D0078E3032078E40320BF
:1047800030B5C5B000680A2203A907F087FDB0F56F
:104790007A7F1ED8104DA86006F00BFC0F4BE86026
:1047A00001241C700E4AAB684FF4807104A803F01A
:1047B00035FE0C4BDB7853B10B4B0C491B788DF855
:1047C00000300B4B0B481B7804AAFFF7EAFE20468B
:1047D00000E0002045B030BDF4E3032018E40320DE
:1047E000D3C30D00C0E4032079E30320E9C30D0027
:1047F00078E3032078E4032030B5C5B000680A22CE
:1048000003A907F04BFD0A2827D8154DC1B215485A
:1048100085F82B1002F0B0FE134B144A1448012403
:104820001C70082195F82B3003F0F8FD95F82B301B
:10483000104A4FF4807104A803F0F0FDEB7853B1F7
:104840000D4B0E491B788DF800300D4B0D481B7831
:1048500004AAFFF7A6FE204600E0002045B030BDC8
:10486000C0E40320A8E30320F0E4032082C40D0089
:104870002CE20320EFC30D0079E303202BC60D00CB
:1048800078E3032078E4032030B5C5B000680A223D
:1048900003A907F003FD3C282BD8174D4FF47A717C
:1048A000414385F82C006FF000421448FFF730FEBA
:1048B000134B144A144801241C70082195F82C301D
:1048C00003F0ACFD95F82C30104A4FF4807104A829
:1048D00003F0A4FDEB7853B10D4B0E491B788DF816
:1048E00000300D4B0D481B7804AAFFF75AFE2046F6
:1048F00000E0002045B030BDC0E40320D8E3032031
:10490000F0E4032005C40D0016E203200CC40D00E2
:1049100079E303202BC60D0078E3032078E403201D
:1049200013B52549044606F054F820B32249204621
:1049300006F04FF838BB2149204606F04AF8002817
:1049400036D01F4CE27812B91E4B01221A701E4B52
:104950001E4A1B788DF800301D4B1E491B781E48DF
:10496000FFF71FFE4FF47A7003F0ACFD00231B49E4
:10497000A371102219E01149204606F02AF80028F8
:10498000D4D102B010BD0E4CE27852B10E4B144A95
:104990001B788DF800300E4B0E491B780E48FFF740
:1049A00000FE01230F49A37110220F4807F0D5FB29
:1049B0000E4B01201870E4E708C30D0076C50D000A
:1049C000C0E4032075E4032079E3032036C40D001E
:1049D00078E303206AC50D0078E4032048C40D0085
:1049E00027C40D004CC40D0064E40320F0E4032050
:1049F00070B5504D2B7892B0A3B1022004F018FB93
:104A00004D494E48FFF79FFD00244FF47A702C70FB
:104A100003F058FD4A4900944FF0FF330122022071
:104A200004F0DCFA474C484D06F0C3FA2368C01A7C
:104A300095F82C30984243D906F0BBFA434B2060DE
:104A4000986840B16FF000420023CDE900230121B6
:104A50001A4603F037F93E4E347806F0C7FA84421E
:104A60003C4C04D006F0C2FA01233070A361A36964
:104A70000133A36106F09DFA2368A268E060013368
:104A800001322360A2604021009202A8324A03F062
:104A9000C5FC2B795BB1EB784BB100238DF800306E
:104AA0002E4B2F491B782F4802AAFFF77AFD234887
:104AB00002A9FFF748FD2C4B01221A7012B070BDFD
:104AC0002248FFF736FD0028F8D1284C284D2378DE
:104AD000BFF35B8F13F0010F09D12046FFF7ECFA0B
:104AE00028B103F097F928602046FFF7EAFA2B680F
:104AF00093F870305E012378BFF35B8FDB0709D436
:104B00001A48FFF7D9FA28B103F084F9286017484A
:104B1000FFF7D7FA2B6893F8713003F01F03334384
:104B200002A80293FFF7FEFA029A01239340C0F80D
:104B30000C35C3E7B4E4032056C40D00E0E50320C0
:104B400055410D007CE30320C0E40320D8E303209B
:104B500080E30320F4E3032068C40D0078E303201E
:104B6000F4C50D0078E4032018E4032024E30320B7
:104B700028E3032010B51A4C2368CAB0002B2CD0B0
:104B8000E2680892174A118D0791A169069161693F
:104B900005911169049121690391107B124951F823
:104BA0002010029192680192A26800924FF48071E5
:104BB0000E4A0AA803F032FC00238DF800300C4B9B
:104BC0000C491B780C480AAAFFF7EBFC0B4B01229F
:104BD0001A70236863604AB010BD094A1268D0E7B2
:104BE000F4E30320C0E40320E8E1032085C40D00C2
:104BF00078E303200CC50D0078E4032023E40320B0
:104C00003CE4032013B5012101A805F0F4FC0B4B93
:104C10001B69243B402B01A84FF001040AD905F081
:104C20007DFD074B1C73002401A805F0F3FC204612
:104C300002B010BD05F05BFDF6E700BFF4E3032012
:104C4000C0E4032030B5194D0FCD99B004AC0FC4AA
:104C50000FCD0FC495E8030084E8030014490EA8A3
:104C600003F0B4FC0EA803F004FD04460EA803F004
:104C700009FD0EA810EE105A03F034FD18AB10EE2B
:104C8000100A03EB840406F033FECDE90201284646
:104C900006F02EFECDE90001064A54F8503C0648C5
:104CA000402103F0BBFB19B030BD00BFB0C80D0000
:104CB0000CE5032024C50D002CE3032000000000B8
:104CC00008B50F2006F00BFCB0F5C87F05DA3220DE
:104CD00003F0F8FB0F2006F002FC06F0F7FD20A31E
:104CE000D3E9002306F05CFE07F0B4F8DFED147A98
:104CF00007EE100A67EE277A17EE900A06F0F8FD25
:104D0000104B002206F094FC0F4B002206F048FEE8
:104D100007F058F806F0DAFD0C4B002206F040FED2
:104D20000B4B002206F066FF0A4B002206F082FCC5
:104D300007F048F8084B1861084B01221A7008BDAB
:104D4000000080390000E03F000059400000224090
:104D50000000144000004040F4E3032018E4032066
:104D60006666666666660A4000B591B06846FFF7FB
:104D70005DFB08A8FFF75AFB002108A803F040FAE2
:104D8000134B5979A1B141F2D833ADF80630114B2C
:104D9000029341F27003ADF80C30009B43F40073B2
:104DA00000930021684603F02BFA11B05DF804FB74
:104DB00041F27003ADF80630074B029341F2100345
:104DC000ADF80C30009B43F400730093EAE700BF9A
:104DD000C0E40320840300048403840337B51B4923
:104DE000054605F0F6FD0446C0B1194D01246C716D
:104DF000FFF7BAFF174B1C70EB7813B9012003B013
:104E000030BD154B154A1B788DF80030144B1B78BC
:104E100014491548FFF7C5FB2046F0E7134928461B
:104E200005F0D7FD0028EAD0094D0A4B6C7101242A
:104E30001C70FFF799FFEB78002BDFD0064B0C4A74
:104E40001B788DF80030064B1B78E1E708C30D0096
:104E5000C0E40320F0E4032079E303203DC50D0006
:104E600078E303206AC50D0078E4032076C50D00C1
:104E700054C50D00244B1A69D3ED057AFF2ABAEE0A
:104E8000087A88BF0022F4EEC77A88BF1A61F1EE73
:104E900010FA06D4B2EE087AF4EEC77AF1EE10FA00
:104EA00001DD1A4A5A61D3ED067AF5EEC07AF1EEC9
:104EB00010FA06D4B0EE007AF4EEC77AF1EE10FAEA
:104EC00002DD4FF07E529A611A7F0C2A84BF0022C5
:104ED0001A775A7F0C3A0C2A84BF18225A770C4A48
:104EE00011681A8D8A4284BF00221A8501225A71E4
:104EF000084B988B81423FBF00219983064B1A7063
:104F0000064B01221A707047C0E403200000A0C0C5
:104F10000CE20320F4E3032018E40320F0E4032070
:104F200010B5154CA38BB3F5C05F09D113491448D4
:104F300007F0D3F8BDE810401049124807F0CDB88B
:104F400094F82B30104A1148082103F067FA94F8BE
:104F50002C300F4A0F48082103F060FA237F0E4AD5
:104F60000748082103F05AFA637F0B4A0548BDE859
:104F70001040082103F052BAC0E403206FC50D00B1
:104F80001EE2032004E2032082C40D002CE2032071
:104F900005C40D0016E2032072C50D0013B50A22E8
:104FA000006801A907F07AF917280CD8074C207778
:104FB000FFF7B6FF064B01201870E3780BB1FFF73F
:104FC000B9FB02B010BD0020FBE700BFC0E4032026
:104FD000F0E4032030B5C5B000680A2203A907F049
:104FE0005DF918281CD8104D6877FFF799FF0F4B13
:104FF0000F4A01241C704FF480716B7F04A803F0EA
:105000000DFAEB7853B10B4B0B491B788DF8003040
:105010000A4B0B481B7804AAFFF7C3FA204600E0AE
:10502000002045B030BD00BFC0E40320F0E4032001
:1050300078C50D0079E303202BC60D0078E303202B
:1050400078E4032038B50A4C0025C4E90055A56072
:1050500005F0AFFF074B084A1D616423236201235B
:105060001370064AE06013706561A58338BD00BF08
:10507000F4E30320C0E4032018E40320F0E4032059
:1050800030B5144D144C15492A7820788DB00E2374
:1050900003FB0212009203FB0013114A282102A80D
:1050A00003F0BCF92B7823700E4B1A7962B1DB78D0
:1050B00053B10D4B0D491B788DF800300C4B0D484A
:1050C0001B7802AAFFF76DFA0B4802A9FFF73BFA1B
:1050D0000DB030BDB5E4032074E4032034E20320B6
:1050E0008FC50D00C0E4032079E303209DC50D00AA
:1050F00078E3032078E40320E0E503202DE9F0477E
:10510000224B234C1B78234A2349244886B0002590
:105110008DF80030224B1B78FFF743FA257103F01E
:10512000ADF810B1284603F0C9F8FFF7E7F94FF0E2
:10513000000A054647F22F584FF00009FFF7DEF945
:10514000461B61EB0A07B94508BFB04505D3FFF719
:10515000D8F810B903F082F8F0E7FFF7D2F86379D6
:1051600013B9A368462B09DC0E4902A805F0DBFB46
:1051700002A8FFF7D5FB02A805F08AFBFFF762FF44
:10518000094B01221A7006B0BDE8F08779E30320CD
:10519000C0E40320AEC50D00B6C50D0078E40320C1
:1051A00078E3032008C30D00F0E4032030B585B098
:1051B0000D4600226946009202F0BCFFB0B9009C87
:1051C0000CB1236923B90A4A00210A2002F08AFFA0
:1051D0000023ADF806300C23ADF80430042303930C
:1051E0000295236901AA01212046984705B030BDE8
:1051F000B57D0D0030B5264B002289B058681146A8
:1052000003F0A4F808B1FFF71DFDFFF759FD69464B
:105210000720FFF7CBFF1F4C1F4D0028A8BF0098A9
:105220002073FFF7EFFC10B96B6901336B616946BE
:105230000320FFF7BBFF40BBBDF8003007EE903AFC
:10524000FBEECC7AFDEEE77A17EE903A402BC4EDF8
:10525000027A09DC237B012B06D16846FFF7E6F8CA
:105260000021684602F0CCFFA3682A6A9342B8BFC7
:105270002B621D2BCCBF00230123084AE3710123BD
:105280001370074A137009B030BDFFEE007AD9E7FA
:105290000CE50320C0E40320F4E30320F0E4032042
:1052A00018E4032070B5D0E900531426044606FB29
:1052B0000356AE4204D0284605F0EAFA1435F8E762
:1052C000206803F093F8204670BD0023022202F00C
:1052D000B5BF38B503681446DD683023A8472046BB
:1052E00038BD000070B5194B194C01221A70E378D3
:1052F00086B053B1174B184A1B788DF80030174B06
:1053000017491B781748FFF74CF9002516492571F6
:10531000012602A82670A570E57105F004FB02A81D
:10532000FFF7FEFA02A805F0B3FA104B63614FF0E5
:105330007E53A361064A0E48667141F20653314618
:10534000A3832585FFF7C5FF06B070BD75E4032074
:10535000C0E4032079E30320C4C50D0078E30320F3
:105360006AC50D0078E4032076C50D000000A0C0DA
:1053700024E40320000000002DE9F0410021AAB040
:10538000082006F06FF80021042006F06BF80121D8
:10539000072006F067F80021022006F063F80121DB
:1053A000072006F070F806A8002502F06FFF002322
:1053B0007D220AA906A805F01EFBBD49BD4FBE4CC3
:1053C000DFF820842B462A46CDE900550AA802F0D2
:1053D0006DFF2B460222B749B84802F02FFFB849AB
:1053E000B848FFF772FFB849B848FEF797FFB849C9
:1053F000B848FFF76AFF2B460222B749B74802F0C8
:105400001DFFB749B748FEF789FFB749B748FFF70F
:105410005CFFB749B748FEF781FFB749B748FEF7C9
:105420007DFFB749B748FEF779FF2B460222B64900
:10543000B64802F003FFB649B648FEF76FFF0C23EB
:10544000CDE90355ADF80C30B34BB44905930422B4
:1054500003ABB34802F0F2FEB249B348FEF75EFF79
:10546000B249B348FEF75AFFB249B348FFF74AF8CA
:10547000B249B348FFF746F8B249B348FFF742F8DC
:10548000B249B348FFF73EF8B249B348FFF73AF8DC
:10549000B249B348FFF736F8B249B348FFF732F8DC
:1054A000B249B348FFF72EF8B249B348FFF72AF8DC
:1054B000B249B348FFF726F8B249B348FFF722F8DC
:1054C000B249B348FFF71EF8B249B348FFF71AF8DC
:1054D0000126032241F2883303A8CDE90323ADF866
:1054E000146003F0EAF9AD4801F078FE3346AB48AA
:1054F0000DF10B02294601F0B3FE9DF80B30032B92
:1055000000F08281A54801F073FEA54AA348042358
:10551000294601F0F0FE3346A0480DF10B02294662
:1055200001F09EFE9DF80B30032B00F06A819D492F
:105530009D4888F80060FFF706F89C4DFFF79AFC3D
:10554000FFF7EEFC9A4A002300214FF4802002F07E
:1055500013FE0823012128466B8101F0F1FC012391
:105560001A461021284601F056FA7C21A0702846E0
:1055700001F0CEF994ED060A05F0D2FB01F000F837
:10558000002800F04E8105F0E9FB94ED050A05F0D6
:10559000A7FB05F053FD054605F00BFD281A06F0A4
:1055A00095F941A3D3E9002306F024FB814ACDE914
:1055B00000010A21564802F031FF032202217E48F1
:1055C00002F036F894F82B107B4801F0D5FF94F8E0
:1055D0002C307A484FF47A716FF000425943FEF74D
:1055E00097FFA3791022002B00F01E8174494048D8
:1055F00006F0B3FD0022114603A8039202F0C2FB9D
:10560000039B142B4FF0000240F010816D49664857
:10561000FEF799FF2369013323616B4B01221A7056
:105620003B686A4D002B00F00C81FB682B60FFF794
:105630009BFB042005F040FF08B9FFF753FE05F07F
:10564000E1FC00210546F86805F02EFB854201D0FB
:10565000FFF7F8FC05F0BEFC237F98421BDB05F04A
:10566000B9FC637F984216DA0023009358494FF043
:10567000FF330122022003F0B1FCE37833B102F0E2
:10568000FDFD18B9534BE07001221A70FFF7B2FD0F
:10569000514B524A1A6098F8003013B9022388F827
:1056A00000304F49A0E000BF000000000020AC40E7
:1056B000BD450D00F4E30320C0E40320DCC50D006C
:1056C000FCE3032054C60D002CE30320E8C50D00C5
:1056D000D0E40320EFC50D0004E40320FAC50D005B
:1056E00010E2032006C60D00C8E403200EC60D001C
:1056F00064E4032019C60D001EE20320C1C60D009C
:1057000004E2032026C60D0008E4032030C60D0085
:1057100019E4032037C60D0025430D0005410D0097
:1057200042C60D002CE20320D8C60D0016E203206D
:10573000E8C60D0081470D0051C60D00A1420D00C5
:105740005FC60D005D460D006BC60D00ED410D00FE
:1057500075C60D0021490D007DC60D00DD4D0D0003
:105760008AC60D00A5460D0095C60D0059640D00B2
:10577000A2C60D00C1650D00AFC60D009D4F0D0006
:10578000BDC60D00D54F0D00CAC60D00F9470D006E
:10579000D4C60D0089480D00E4C60D0024E40320A2
:1057A000D8C80D00F1C60D00E0E5032088E3032012
:1057B000D5400D0001C70D00A8E30320D8E3032066
:1057C0004CC40D000BC70D00F0E403203CE40320A3
:1057D00055410D0075E40320B8E40320905F0100FB
:1057E00046C70D00B5E403201848FEF7ACFE0021C3
:1057F000072005F048FE06A805F04AF82AB0BDE8E3
:10580000F081FFF76FFD98E62246314630231048BD
:1058100001F026FD24233A4650210D4801F020FDD9
:105820008BE605F0A7FAB0E60A49E0E6114603A8C0
:10583000039202F0A7FA039B8C2B7FF4F1AE06498A
:10584000E5E605F0B6FB2860F1E600BFE0E50320E1
:1058500024E4032048C40D0028C70D008842F8B591
:1058600004460D46164616D9904215D2A2F11406EA
:10587000751AA1F114072C44B7421CD02CB1314643
:10588000204605F081F8337C2374304605F000F89B
:10589000143E143CF0E70ED0B5420CD02CB1294692
:1058A000204605F071F82B7C2374284604F0F0FFA5
:1058B00014351434F0E7F8BD2DE9F0410023C0E9B8
:1058C000003383604F689F4204460E4623DD4FF04D
:1058D000140808FB07F002F081FD0546D8B1D4E9B1
:1058E000001208FB0212FFF7B9FF206802F07EFDEC
:1058F0002560A760D6E9007308FB0378B84508D097
:105900003946284605F05AF83B7C2B741437143579
:10591000F4E7736863602046BDE8F0812DE9F04F3D
:10592000784B794D794E4FF0010983F80090784B10
:10593000082291B01A7005F03FFD00231A460D2190
:1059400005F042FD05F038FD00231A46092105F057
:1059500043FD704B002464229C831A626E4BAB6043
:105960002C60AC80AC71022002F0F6FB32466B4931
:10597000284605F04BFE2146484602F005FC494604
:10598000042002F0F7F966486649A0F8094003468A
:10599000021D43F8092B9C70634B43603246C0E9FB
:1059A000034480F81490047205F030FE05F0DEFD2B
:1059B0005E4D014623464FF40052284601F004FC98
:1059C0005B4B2B6028465B4D5B49324605F01EFE63
:1059D0005A494FF40062284602F01EF8584B2B60DB
:1059E00032465849284605F011FE05F0BFFD564DD8
:1059F00001466922284600F08DFE2846534D544941
:105A0000324605F003FE2146284603F025FA3246C9
:105A10005049284605F0FAFD1D214F484F4D01F031
:105A200007FDCDE90344059405F00AFC0DF12408B7
:105A3000824603A906A8FFF73FFFAB4606A94046EA
:105A4000FFF73AFF464B4BF8043B0CAF4146384654
:105A5000FFF732FF3A461E21584604F0F9F938465E
:105A6000FFF720FC4046FFF71DFC3E4B2B60C5F8BE
:105A700020A006A8FFF716FC3B4B2B6005F0E0FBCF
:105A80004FF4165105F0CCFB03F08AFE294604F0D2
:105A900071F903A8FFF706FC32463449284605F0A1
:105AA000B5FD334B0C93334D334B2B6097E803001C
:105AB00005F10C0388E8030093E8030087E803007E
:105AC00098E8030083E803002C4B6B61AB690F93EC
:105AD0002B4BAB612B4A2C712B46AC604FF47A7187
:105AE000CDE9009405F108000E9402F0D3F8384691
:105AF000FEF75EFC24493246284605F087FD11B0CA
:105B0000BDE8F08F78E303206CE3032020E303205B
:105B100079E30320F4E303200000FFFFF7420D00C8
:105B2000C0E30320D5410D001000030024E403204E
:105B300074C80D0078E403203D420D0000F40320FA
:105B400090C80D0015420D0088E3032034E40320C3
:105B5000D5660D00798E0D00A8E3032040E40320F4
:105B600044C80D004CCE0D005CC80D005D430D0017
:105B7000FB400D00D8E3032030C80D00E5400D00C8
:105B8000E1400D0065420D00C5430D002DE9F04FC9
:105B900085B04FF0000A01A8CDE901AAADF80CA02C
:105BA00002F071FEFEF7AAFC43F6972883464FF0F9
:105BB0000009FEF7A3FCB0EB0B0661EB0A07B94541
:105BC00008BFB04505D302F059FB10B102F046FB07
:105BD000EFE7184E02F052FB00220221706802F03B
:105BE000ADFB3046FEF7DEFBFEF788FC4FF0000A07
:105BF000074647F22F584FF00009FEF77FFCC41B01
:105C000061EB0A05A94508BFA04506D3304604F05C
:105C10005FFC10B902F022FBEFE7064804F058FCE5
:105C2000054B0022DA70054B0120187005B0BDE865
:105C3000F08F00BF0CE50320C0E40320F0E4032054
:105C40002DE9F04F85B04FF0000A01A8CDE901AA77
:105C5000ADF80CA002F017FEFEF750FC43F69728B3
:105C600083464FF00009FEF749FCB0EB0B0661EBF1
:105C70000A07B94508BFB04505D302F0FFFA10B9CD
:105C800002F0ECFAEFE702F0F9FA2148DFF880A021
:105C9000FEF788FBFEF732FC4FF00009804647F222
:105CA0002F560027FEF72AFCB0EB080461EB09052C
:105CB000AF4208BFA64206D3504604F009FC10B913
:105CC00002F0CCFAEEE7124804F002FC1148002181
:105CD00000F01EFE104B1A7D0AB102221A72002239
:105CE00004210D48FEF7ACFB42F21071FEF7DCFB1D
:105CF000094901A804F00AFF01A8FEF7F3FA4FF0E2
:105D0000FF31044800F004FE05B0BDE8F08F00BF8D
:105D10000CE5032088E30320C0E303202DE9F043D2
:105D20007F4CDFF8548223787E4F7F4E013B97B043
:105D3000062B00F2A580DFE813F0D90207003A0035
:105D40002101B8013A02A902784B1B78022B01D03D
:105D5000FFF796F9764DAB7953B102F033F8754BF6
:105D60001B68C01A744B1B68984284BF04232370BD
:105D700005F030F9714B81460021186804F08CFF62
:105D800081451CBF0623237005F024F96B7F9842E0
:105D900007DB032323706A4B1B78002B70D005238D
:105DA00012E005F017F92B7F9842F2DBF3E75F4B27
:105DB0001B78032B01D0FFF763F9022003F038F9B9
:105DC000604B1B6813B10623237059E0584BDA78F7
:105DD00099460AB1FFF7DAFE00215B4800F098FD12
:105DE00005F0E7F84FF4616590FBF5F303FB15054B
:105DF000564BC5F561651A7DB5F5616FA8BF4FF4C7
:105E000061650AB102221A72002204214F48FEF78E
:105E100017FB4FF47A716943FEF746FB4B4903A821
:105E200004F074FE48484FF0FF3100F071FD039B11
:105E30004BB19A88012A06D19B89022B5ED101F0D1
:105E4000C1FF3C4B186005F0C5F899F81D30984229
:105E500011DA05F0BFF899F81C3098420BDB0023EB
:105E6000009301224FF0FF333949022003F0B6F8C6
:105E7000314B384A1A600223237003A8FEF732FA26
:105E800098F800300BB1FEF7B3FD2F4801F038F958
:105E90003B7833B1264A30480121FFF71AFA002334
:105EA0003B7033783BB12423264A2B48502101F024
:105EB00022FA00233370294B1B68002B1BDB284A76
:105EC000402106A802F0AAFA06A92648FEF73BFBE5
:105ED000642002F0F7FA00238DF80030224B2349AA
:105EE0001B78234806AAFEF75CFB4FF4FA6002F029
:105EF000E9FA04F007FE17B0BDE8F083042BA2D145
:105F00001C4906A804F00FFD06A8FEF709FD06A827
:105F100004F0BEFC4FF4C053A9F81C3093E700BF57
:105F2000B5E40320F0E4032018E4032074E4032024
:105F3000C0E40320BCE40320B8E403203CE40320D5
:105F400075E40320F4E3032088E30320C0E3032087
:105F500055410D00905F010024E4032028E2032056
:105F600000C80D00E0E5032078E303201FC80D0002
:105F700078E4032076C50D00B4E40320A94B1B7818
:105F8000042B01D0FFF77CF898F80030002B7FF449
:105F900077AFA548FEF7CDFA00287FF471AFA34B89
:105FA000DB780BB1FFF7F2FDA14B4FF47A721A6068
:105FB000A04B197D0222227001B11A720022042125
:105FC0009C489D4D9D4CFEF73BFA01220221FEF7B5
:105FD00037FA4EF66021FEF767FA9948002100F083
:105FE00097FC2B78BFF35B8F13F0010F09D1284684
:105FF000FEF762F828B101F00DFF20602846FEF799
:1060000060F8236893F820902B78BFF35B8FD80754
:106010004FEA491909D48848FEF74EF828B101F033
:10602000F9FE20608448FEF74CF8236893F821407D
:1060300004F01F0444EA090406A80694FEF772F867
:10604000D0F81035069406A8FEF76CF8069AD0F83A
:106050001035D340D90701D5FEF7CAFC754903A80E
:1060600004F054FD76484FF0FF3100F051FC039BE3
:10607000002B3FF402AF9A88012A7FF4FEAE9B8981
:10608000022B04D101F09EFE6E4B1860F5E6042B46
:106090007FF4F3AE6C4906A804F045FC06A8FEF7B1
:1060A0003FFC06A804F0F4FBE7E65E4B1B78052BEB
:1060B00013D09A1F53425341644A1370FEF7E0FF16
:1060C00004F077FF624B18606248002340681A466C
:1060D000194602F043F902F0C9F802F0CFF85E4D1C
:1060E0008146002842D0DFF8449100232B70012321
:1060F00089F8033004F05DFFC9F824002B78002BE9
:106100007FF4BEAE04F055FF514B484D1B68534A17
:10611000C01A534B918B1B6880B29842288588BF68
:106120002B852B8D994238BF938320214D4A06A899
:1061300002F074F94C4806A9FEF705FA2B794BB129
:1061400000238DF80030494B49491B78494806AA7D
:10615000FEF727FA01233B703370EB7823B13B4BFA
:106160001B78002B7FF42FAE02232DE604F021FFD5
:10617000374B3B4A1B681268C31A9342BED985F855
:10618000009004F016FF294A536AC31AB3F5E15F81
:1061900006D90123237001F015FE374B18606FE616
:1061A0003649314882F80390FEF7CDF9A6E71D4B3A
:1061B0001B78062B01D0FEF763FF04F0FAFE1B4D9F
:1061C0002F4B1860EB78A9461BB9234B01221A709C
:1061D000E5E5AB79B3B104F0FDFE99F81C309842C7
:1061E0001DD1FEF78BFF04F0F5FE99F81C309842A4
:1061F00002D108B9FEF7BEFC01F0E4FD214B1860A6
:106200000723E1E5FEF7F6FFEB78002BE3D1084B1F
:106210001D4A1A6001F0D6FD0A4B1860A4E7FEF78C
:10622000A9FCE0E774E40320D8E30320C0E40320E2
:10623000B8E40320C0E3032024E3032028E3032081
:1062400088E30320BCE4032076C50D0081E303202E
:1062500084E303200CE5032075E40320F4E303202A
:106260000CE2032075C70D00E0E5032078E303206E
:106270008AC70D0078E40320B0E4032057C70D005F
:106280003CE40320F4E40320905F0100584B1B78AA
:10629000072B01D0FEF7F4FE564B1D78B5B9564BCF
:1062A000564A1A6001F08EFD554B18600223237088
:1062B000544B596800293FF4E3AD1A685D60521AE7
:1062C000C3E905551A6001233370D9E501F07AFD61
:1062D0004D4B1B68C01A47F2305398427FF6D0AD41
:1062E00001F070FD494B186001236DE5404B1B78B0
:1062F000012B01D0FEF7C4FE01F064FD434B1B6887
:1063000003F5EA4330338342BFF4BAAD404D04F0A5
:1063100050FE6B6AC01AB0F5E15F2C4613D904F049
:1063200048FEA0F5616068622A4601213948FEF7FF
:10633000D0FF39483949FEF71DF9642002F0C2F850
:10634000FFF77EFC9CE504F034FE2B6AC01AB0F522
:10635000E15FEB7819D953B1314B324A1B788DF894
:106360000030314B31491B783148FEF71AF94FF4B0
:10637000FA6002F0A7F80023236104F01AFE01235B
:10638000A0F5616020623B70DAE72A69032A12DC1B
:1063900053B1234B274A1B788DF80030224B2349F9
:1063A0001B782348FEF7FDF84FF4FA6002F08AF8F4
:1063B00004F0A8FB64E553B1194B1A4A1B788DF819
:1063C0000030194B19491B781948FEF7EAF84FF4C9
:1063D000FA6002F077F800230D4A0E48236101218C
:1063E000FEF777FF1E21144800F0ECFB48E500BFE4
:1063F00074E4032023E40320B8E40320905F010049
:10640000BCE40320F4E30320F4E40320B0E403201D
:10641000C0E4032024E40320E0E5032093C70D003B
:1064200079E30320C0C70D0078E30320DFC70D0028
:1064300078E40320E5C70D0088E3032008B50020B9
:1064400001F044FF28B101F019FF80F00100C0B253
:1064500008BD0120FCE700002DE9F047C8B08046E8
:1064600001F00CFF10B1002001F028FF002001F026
:10647000B9FC4FF0000A814647F22F560027002052
:1064800001F0B0FCB0EB090461EB0A05AF4208BFB4
:10649000A64205D3FFF7D2FF10B901F0DFFEEEE709
:1064A000FFF7CCFFD8F800000A2203A905F0F6FE9A
:1064B00000F10C03DBB2182B48D845B207EE905A16
:1064C000274BB8EEE70A012483ED050A04F008FC27
:1064D000244B1C7004F0B2FD064604F06AFD301A2D
:1064E00005F0F4F91CA3D3E9002305F083FB1E4A51
:1064F000CDE900010A211D4801F090FF01F0BEFE28
:1065000010B32B461A4A1B4D4FF48071002608A881
:1065100001F084FF8DF8006017492B78174808AA0E
:10652000FEF73FF804F045FD0246C31704A804F047
:106530003DFC8DF800602B78049A0F490F48FEF758
:1065400030F804A804F0A4F9204600E0002048B088
:10655000BDE8F087AFF30080000000000020AC40F1
:10656000C0E40320F0E4032001C70D0019E4032078
:10657000DCC80D00F8E403202BC60D0078E40320EE
:1065800038B504F03FFD054604F050FD044604F024
:1065900045FD231F062B0ED9E31E082B0DD801380D
:1065A0002D1A04D50B2C14BF0020012038BD072D57
:1065B00003DD032CF7E70120F8E70020F6E70000F1
:1065C00070B52DED028BC8B0054604F0F2FC0A222E
:1065D000044603A9286805F061FEC3B2022B59D80E
:1065E00043B208EE103AB8EEC88AB0EE480A04F09A
:1065F00097FB2D4B83ED068A2C4B01221A7018EE67
:10660000100A05F075F92A4ACDE900014FF48071AE
:1066100008A801F003FF04F0AFFC28B1FFF7B0FFBA
:10662000002834D004F09AFB04F008FD054604F07D
:10663000C0FC281A05F04AF919A3D3E9002305F094
:10664000D9FA1C4ACDE900010A211B4801F0E6FEF7
:1066500001F014FEC8B1194D19491A4800268DF8E9
:1066600000602B7808AAFDF79CFF2246E31704A8D8
:1066700004F09CFB8DF800602B78049A10491148B7
:10668000FDF78FFF04A804F003F9012003E004F0F4
:1066900071FBC9E7002048B0BDEC028B70BD00BFA4
:1066A000000000000020AC40C0E40320F0E4032020
:1066B000F0C80D0001C70D0019E40320F8E4032021
:1066C0002BC60D0078E40320014B01221A7070479D
:1066D000F8E40320704710B52021044604F09BFF26
:1066E000204610BD0EB410B58DB00FAA016852F847
:1066F000044B039200232020CDE90403CDE900429E
:10670000012004AA01F0FEFC0DB0BDE8104003B06A
:106710007047000010B50272FF2242810022C0E9DA
:10672000032242610276C261024A034C1060C0E952
:10673000004110BD00E5032050CB0D002DE9F843CA
:106740009DF820800446894616461F46B8F1000F82
:1067500002D0406802F02EFC217A606802F004FC4E
:106760006068036849469B6898476068002102F0AA
:106770001AFC054600BB0123217A60683A4602F004
:10678000DEFB8742034609D13744BE421CD0606815
:1067900003685B69984706F8010BF6E70B490C485C
:1067A0004A46FDF7E7FEB8F1000F02D0606802F03C
:1067B0000AFC2846BDE8F8830346064904484A46D1
:1067C000FDF7D8FE0025EEE70125ECE701C90D0035
:1067D000FCE4032026C90D0007B500930123FFF751
:1067E000ADFF03B05DF804FB73B54389FF2B04468E
:1067F00010D0194E194D01F0E5FAB0F57A7F09D2A3
:10680000608904F059FE012804D031462846FDF77E
:106810009AFEF0E701230DF1070228212046FFF739
:10682000DBFF30B90D480E49FDF78DFE002002B0A8
:1068300070BD9DF80730182BF4D101230DF107022C
:1068400029212046FFF7C8FF0028EBD09DF807302C
:10685000052BE7D1EBE700BF4AC90D00FCE403209C
:106860005FC90D0007B5134600228DF807200DF112
:106870000702FFF7B1FF9DF8070003B05DF804FBC6
:106880002DE9F0419DF8188004460F4615461E4636
:10689000B8F1000F02D0406802F08CFB217A6068EA
:1068A00002F062FB6068036839469B6898472E4493
:1068B000B542606805D0036815F8011B9B689847CE
:1068C000F6E7012102F06FFB034670B10849094861
:1068D0003A46FDF74FFE0025B8F1000F02D0606880
:1068E00002F071FB2846BDE8F0810125F4E700BF06
:1068F0006CC90D00FCE403201FB58DF80F20009338
:106900000DF10F020123FFF7BBFF05B05DF804FB9B
:10691000F8B50A460C4605461A491B48FDF713FE12
:10692000002CB8BFEC687CB9012322461B21284605
:10693000FFF7E2FF1549024606461348FFF7D2FE6D
:10694000EC606C613046F8BD032C19DDA7101F2FD9
:10695000A8BF1F27BA0062F07C020123D2B21B211C
:106960002846FFF7C9FF3A46034609490646064846
:10697000FFF7B8FE4FF4FA635F43EC606F61E1E745
:106980000127E7E791C90D00FCE403209BC90D0036
:10699000B7C90D000B4607490246086848B1002BED
:1069A00008BFB2F5006F04D1C36813B10021FFF72F
:1069B000AFBF704700E503202DE9FF419DF8288017
:1069C000054616461F46B8F1000F04D040680191F5
:1069D00002F0F0FA0199019100230DF10F0228460F
:1069E000FFF7FAFE044660B19DF80F3003EA060295
:1069F0003A43934205D0019900232846FFF77CFFD4
:106A00000446B8F1000F02D0686802F0DCFA2046B4
:106A100004B0BDE8F08113B514460DF10702FFF78D
:106A2000DBFE28B19DF807301C420CBF012000207E
:106A300002B010BD13B514460DF10702FFF7CCFEEE
:106A400028B19DF807301C4214BF0120002002B07D
:106A500010BD07B5D2430093D2B20023FFF7ACFFBD
:106A600003B05DF804FB000037B501230DF1070208
:106A70000F210446FFF7B0FE054638B91E491F48EE
:106A8000AD22FDF777FD284603B030BD9DF80730F5
:106A900013F0200F4FF001030BD02022E3610F21F0
:106AA0002046FFF7D6FF164A16491448FDF74BFD5E
:106AB000E9E7082217212046FFF7BCFF18B102239F
:106AC000114AE361F0E79DF807301A0709D503235F
:106AD000E361082201230F212046FFF7BAFF0B4A8A
:106AE000E2E75B07CFD50422E26101230F212046B4
:106AF000FFF7AFFF064AD7E70ACA0D00FCE4032000
:106B0000DBC90D0029CA0D00E4C90D00F4C90D0050
:106B100004CA0D0007B500931346FF22FFF74CFF90
:106B200003B05DF804FB0000F8B50F4616460123DC
:106B300000220F210546FFF7DFFE044638B94FF467
:106B400025721E491E48FDF715FD2046F8BD01239C
:106B5000232218212846FFF7CFFE044610B940F241
:106B60009B22EEE7FF2FA8BFFF27012FB8BF012709
:106B70000123FAB219212846FFF7BEFE044610B9D8
:106B80004FF42A72DDE70123082212212846FFF77D
:106B9000C1FF044610B940F2AF22D2E7002E4FF0F9
:106BA000010314BF8322822218212846FFF7A4FE86
:106BB00004460028C9D140F2B922C2E73ACA0D0002
:106BC000FCE403202DE9F7430A4605460F464F48EB
:106BD0004F49FDF7B8FC00212846FFF799FE04460F
:106BE00048B940F2F7124B494848FDF7C3FC20462C
:106BF00003B0BDE8F08301231A4630212846FFF791
:106C000089FF044610B940F20522ECE71022012367
:106C100011462846FFF71DFF044610B94FF40372D2
:106C2000E1E70123262213212846FFF765FE0446EB
:106C300010B940F21322D6E7012600963346FC2213
:106C400011212846FFF7B8FE044610B940F21B2276
:106C5000C9E7002239462846FFF766FF044610B907
:106C600040F22222BFE70096022377221021284615
:106C7000FFF7A2FE044610B940F22B22B3E73346D9
:106C800004221C212846FFF745FF044610B940F2B4
:106C90003222A8E700961823E32211212846FFF7A5
:106CA0008BFE044610B940F239229CE73346C022DD
:106CB00017212846FFF720FE044610B94FF4107242
:106CC00091E701F07FF8DFF85490DFF840804FF44F
:106CD0007A7106464F4301F075F8801BB8420ED218
:106CE000012217212846FFF7BDFD494602464046CE
:106CF000FDF729FC4FF47A7001F0E4FBEBE706495D
:106D00000248FDF737FC03F0FDFE70E7FCE40320CA
:106D100065CA0D005ACA0D008BCA0D0076CA0D0057
:106D20002DE9F3479DF828A005460C4691461F46DD
:106D3000BAF1000F02D0406802F03CF907B3202FEF
:106D40003E4628BF20267F2C26D83319802B01D918
:106D5000C4F18006012304223F212846FFF779FE73
:106D6000002364F07F0100934A463346C9B22846A7
:106D7000FFF7E4FC804628B13444BF1BB144DDE793
:106D80004FF00108BAF1000F02D0686802F01BF959
:106D9000404602B0BDE8F087012304223F21284687
:106DA000FFF7B8FEDCE72DE9F3479DF828A005467C
:106DB0000C4691461F46BAF1000F02D0406802F01F
:106DC000F9F807B31F2F3E4628BF1F267F2C26D871
:106DD0003319802B01D9C4F18006012304223F21FD
:106DE0002846FFF736FE002364F07F0100934A46F1
:106DF0003346C9B22846FFF743FD804628B13444E4
:106E0000BF1BB144DDE74FF00108BAF1000F02D01B
:106E1000686802F0D8F8404602B0BDE8F087012368
:106E200004223F212846FFF775FEDCE730B585B028
:106E30000D68D1E9043203954D6802958D6801957E
:106E4000C96800910133044902F26C72044603F0F0
:106E5000EBFD204605B030BD9DCA0D0003110A228E
:106E600000F00F0002FB0300704738B504460078BD
:106E70001546FFF7F3FF08606078FFF7EFFF486003
:106E8000A078FFF7EBFF8860E078FFF7E7FFC860C6
:106E90002079FFF7E3FF013808612DB9651D2878D7
:106EA000FFF7DCFF886138BD6079FFF7D7FF6430FA
:106EB000A51D4861F3E7000070B5012388B00D46B9
:106EC0001A4610210446FFF7A6FDF0B1082301265B
:106ED000204600960DEB03020021FFF72FFC04462D
:106EE00098B1324629460DF10900FFF7BEFF04A80C
:106EF000FFF79CFF0848049A0849FDF724FB04A803
:106F000003F0C6FC204608B070BD242200212846AC
:106F100005F096F80024F5E7FCE40320BBCA0D0059
:106F200030B58BB00D4601A9FFF7C6FF044620B16E
:106F300001A801F0B3FAC5E9000120460BB030BD4D
:106F400010B5044688B011B1406801F0DBFF20465F
:106F5000FFF74AFC70B32046FFF786FD01231A466F
:106F600010212046FFF757FDD8B104F005F8C0B94D
:106F700002A92046FFF7D4FFDDE9020103F002FF7A
:106F80000F4B10491B68009304A8DDE9022303F0AE
:106F9000B1FF0D48049A0D49FDF7D5FA04A803F096
:106FA00077FC0B4A002300214FF4006001F0E4F865
:106FB00008B010BD07490448FDF7DCFAF1E700BF4F
:106FC000ACE2032034E60320FCE40320C9CA0D0030
:106FD00095690D00E6CA0D000A2290FBF2F302FB50
:106FE000130093FBF2F102FB113140EA0110C0B231
:106FF000704770B5054600680C461646FFF7ECFF73
:1070000020706868FFF7E8FF6070A868FFF7E4FF8A
:10701000A070E868FFF7E0FFE07028690130FFF733
:10702000DBFF20712EB9661DA869FFF7D5FF307010
:1070300070BD6A69642392FBF3F003FB1020FFF735
:10704000CBFFA61D6071EFE7F0B587B0054602A83B
:1070500016460C46FFF7EAFE1E48029A1E49FDF747
:1070600072FA02A803F014FC16B1686801F0A2FFDE
:10707000204601220DF1090100278DF80870FFF765
:10708000B8FF01231A4610212846FFF743FD0446A6
:10709000E8B1082300970DEB030239462846FFF7B5
:1070A000EFFB044660B101231A4610212846FFF782
:1070B000D0FC16B1686801F086FF204607B0F0BD2D
:1070C0004FF48D7205490348FDF754FAF1E74FF488
:1070D0008F72F7E7FCE40320FECA0D000CCB0D0015
:1070E00013B504466846CDE9002304F06FFF9DF810
:1070F000102001462046FFF7A7FF02B010BD000098
:10710000F0B5057E89B0044675BB03F035FF58B372
:107110000026002704A92846CDE9046701F0DEF81F
:1071200010B30125257603F044FF00950246C317EE
:107130002046CDE90223FFF7D3FF02A92046CDE97F
:107140000267FFF7EDFE124B12491B68009304A87B
:10715000DDE9022303F0CEFE0F48049A0F49FDF744
:10716000F2F904A803F094FB636973B100F02AFEFE
:107170002369C01A6369984207D300F023FE4FF0D9
:10718000FF3120612046FFF7C3FB09B0F0BD00BF0F
:10719000ACE2032034E60320FCE4032027CB0D00FF
:1071A000014B024A1A607047FCE403203DCB0D00FE
:1071B000704710B51021044604F02DFA204610BD8A
:1071C0000368C9B29B68184730B5034DC0E9022374
:1071D000C0E9005130BD00BF94CB0D00406801F004
:1071E00091BE10B50446006801F0EDFE204610BDCA
:1071F0002DE9F0418AB004464068019001F0DAFEC2
:107200001E22002102A8A76804F01AFF0026EFB191
:1072100023681E2FB84628BF4FF01E08DD6802AA5B
:10722000434631462046A847054658B90A480B4907
:107230003246FDF788F901A8FFF7D3FF28460AB0C8
:10724000BDE8F081A7EB08074644E0E701A8FFF797
:10725000C8FF0125F2E700BFE0E5032060CB0D0089
:107260002DE9F7430446406801900D4616461F4637
:1072700001F0A0FEA7B1E168606841F0500101F0A3
:1072800077FE290A6068FFF79BFF29466068FFF7D1
:1072900097FF6068002101F086FE48B1002400E0FD
:1072A000012401A8FFF79DFF204603B0BDE8F0834D
:1072B000202F217B6068B84628BF4FF020080123AB
:1072C000424641F0500101F03AFE04F04FF90368E4
:1072D0001B6998474045E1DB06EB080904F046F9D5
:1072E00003685B69984706F8010B4E45F6D14544A3
:1072F000A7EB0807BEE72DE9F74F04464068019069
:107300000E4690461D4601F055FE4FF00109B9F1B9
:10731000000F2AD04DB3E168606841F0500101F0E0
:1073200027FE310A6068FFF74BFF60683146FFF7C0
:1073300047FFA5F11E0A4746A6EB080B606817F841
:10734000011B0368013D9B68984755450BEB0706F9
:10735000B84601D0002DF1D16068012101F023FE73
:107360000028D7D04FF00009D1E701A8FFF739FF77
:10737000484603B0BDE8F08F2DE9F0438BB00E46D0
:1073800015468046406801901C4601F013FEAE424F
:1073900029D2264425448CB11E2C2746D8F800302B
:1073A00028BF1E27F61BD3F8089002AA3B46314699
:1073B0004046ED1BC84748B9002400E0012401A85D
:1073C000FFF70FFF20460BB0BDE8F083D8F8003080
:1073D00002AAD3F80C9029463B464046C8470028ED
:1073E000EAD0E41BD7E7E9D9002CE7D0D8F8003081
:1073F0001E2C274628BF1E27D3F8089002AA3B461A
:1074000031464046C8470028D6D0D8F8003002AAF6
:10741000D3F80C9029463B464046C8470028CBD0BD
:107420003E443D44E41BDFE70368C9B29B6818474C
:1074300001757047F8B507460C4615461E4604F020
:1074400095F8397D01F090FD04F090F82146FFF7A2
:10745000EBFF0024A64207DD04F088F80368295DED
:107460009B6898470134F5E704F080F8BDE8F840E0
:1074700001F09DBD07B501238DF807200DF107022E
:10748000FFF7D8FF03B05DF804FB38B504460D469E
:1074900004F06CF8217D01F067FD04F067F82946DF
:1074A000FFF7C2FF04F062F8002101F07CFD08B193
:1074B000002038BD04F05AF8217D012201F051FD71
:1074C0000128F5D104F052F803685B699847C0B20F
:1074D000EFE738B50D460E210446FFF7D6FF20F042
:1074E000030242EA95022046D2B2BDE838400E219E
:1074F000FFF7C0BF38B50D462A210446FFF7C5FF88
:1075000020F0300242EAC5022046D2B2BDE838403F
:107510002A21FFF7AFBF10B511210446FFF7B5FFD1
:1075200040F04000C2B211212046FFF7A3FF2046E1
:107530005022BDE810401221FFF79CBF10B52A2150
:107540000446FFF7A2FF2A2100F0FE022046BDE814
:107550001040FFF78FBF10B52A210446FFF795FFB3
:1075600040F00100C2B22A212046BDE81040FFF7DA
:1075700081BF00000000000037B5044600294FD04D
:107580000A29A8BF0A21084604F0A0F926A3D3E9D6
:10759000002304F005FA04F03DFC012110230091C2
:1075A0007F22C0B200F082FFC5B22046FFF7C6FFBF
:1075B000204615222121FFF75DFF2A462046232180
:1075C000FFF758FF2A4620462421FFF753FF2A469B
:1075D00020462521FFF74EFF2046FF222621FFF7F8
:1075E00049FF2046FF222721FFF744FF2046FF22C4
:1075F0002821FFF73FFF204602222C21FFF73AFF08
:10760000204608222D21FFF735FF204608222E2193
:10761000FFF730FF204603B0BDE83040FFF79BBFC7
:107620000120B1E7AFF300806666666666662940B2
:1076300038B541751546044603F098FF01F062FC29
:107640000D212046FFF721FF2A2812D12046FFF7FF
:1076500075FF617D2046FFF73CFF29462046FFF776
:1076600049FF2046FFF757FF2046FFF774FF012030
:1076700038BD0020FCE7012A034602D1016000204A
:107680007047022A04BFD1E90001C3E90001F6E70F
:1076900010B5012303748368044643B1C06898475A
:1076A000012363740020BDE8104000F053BB006864
:1076B0000028F5D083680BB903F0B3FFC368EEE789
:1076C00010B442680346541001EB6200D20748BF71
:1076D0000A591B685DF8044B48BFD358184700008F
:1076E0000123F7B580F829300646083000F0F2FA99
:1076F0000420FCF7D0FC054698B31B49142003F086
:107700008CFF30B10023C0E90033C0E902330374B9
:1077100043742860A0B1154B1549C0E902364FF4F7
:107720000063CDE900030222124B043000F09AFA04
:1077300030B92B681B7CA3B9012000F033FBF8E7BC
:107740002C6800232B6064B1276837B13846FCF7FA
:107750002FFE1021384603F05EFF1421204603F06F
:107760005AFF756003B0F0BD98CF0D007F790D0012
:10777000A8CB0D0091760D0047F23051084AC16048
:10778000084902600022C0E904120749C1610749A3
:107790004260C0E908228161028580F82A20704792
:1077A0006CCC0D00E97A0D00C1760D0077760D00E6
:1077B00010B5044B044640F8103BFCF7F9FD204699
:1077C00010BD00BF6CCC0D0010B5034B0360044628
:1077D000FFF7EEFF204610BD94CC0D0010B5044617
:1077E000FFF7F2FF2046382103F015FF204610BDB9
:1077F000806800F077BA806800F07CBA10B5044663
:107800000068FFF7F8FF204610BD13B5044601904D
:10781000FFF7EEFFE36ADC88A4B20CB103F10804C1
:1078200001A8FFF7EBFF204602B010BD13B50446D8
:107830000190FFF7DDFF94F8283043B9E26A012494
:10784000D38001A8FFF7DAFF204602B010BD002464
:10785000F7E713B504460190FFF7CAFFE36A01A8F2
:10786000DC88FFF7CBFF204602B010BD2DE9F047C2
:10787000994686B090F829309DF838A09DF83C8054
:1078800004460F46164613B903689B689847314B68
:107890003846002E08BF1E4604F045FC054630461B
:1078A00004F041FC284400F10A05AB071CBF25F099
:1078B000030504353346CDE90285CDE9009A264912
:1078C00026483A46FCF73FFE238E083BAB4212D2D5
:1078D0000024204606B0BDE8F087CB88012B36D0C7
:1078E00005A8FFF78BFF236894F828109B692046B2
:1078F00098470028ECD020460594FFF779FFE16A0D
:10790000228E636B0A44D21AAA42E6D348EA0A08D6
:1079100083F80480C3F80090636B03F108083946CC
:10792000404604F0DAFB404604F0FDFB01303146EE
:10793000404404F0D2FB636BE26A1D446563D38864
:107940000133D380012405A8FFF758FFC1E70024C5
:10795000F9E700BF15CE0D00BACB0D0004E50320FA
:1079600008B5044600F11005A3690BB903F059FEF0
:10797000E36921462846984700F07CF9F4E708B50A
:10798000FFF7EEFF68B501F108050646284604F04A
:10799000CAFB01300544284604F0C5FBF36A0130F8
:1079A0002844C31A13F003031CBFC3F10403C01817
:1079B00068BDF7B504460E460190FFF719FFE76A68
:1079C000FB8807F10805E6B1012B22D9294620469C
:1079D000FFF7D8FF054629462046FFF7D3FF228E42
:1079E0003A44121A0146A0EB050602D0284604F0DC
:1079F0000DFB636B9B1B6363FB88013BFB800126D4
:107A000001E0002BE7D101A8FFF7F8FE304603B0F4
:107A1000F0BD0026F7E700002DE9F0470D460446CB
:107A20002F461646FFF7A8FE154B57F8082B236084
:107A3000144BE5629A422686984617D1AB889BB2D2
:107A4000B34213D105EB060A67634FF00009EB88D8
:107A50001FFA89F29BB29A420ED2616B2046FFF761
:107A600091FF5045606309F10109F0D90023C5F881
:107A700000806763AE80EB802046BDE8F08700BFE2
:107A800094CC0D0061AB9CD110B5D1E9002386B038
:107A90000021044604910AB9D90705D5CDE902238E
:107AA0000F4B05930F4B049302AB93E803006A4618
:107AB00082E8030094E8030083E8030092E80300EF
:107AC000049A84E80300A168A260059A049118460C
:107AD000E168E2600591FCF76BFC204606B010BD42
:107AE000C1760D0077760D0007B5054B009369460A
:107AF000002310300193FFF7C7FF03B05DF804FBCC
:107B0000317B0D0013B5044600F05CF9636AC01ABE
:107B1000E368984208D3054B00936946002304F1BB
:107B200010000193FFF7B0FF02B010BD317B0D00D4
:107B30002DE9F04190F82A3086B00446002B64D13C
:107B400000F09CFB002860D000F03CF9636AC01A8A
:107B500040F2F133984258D9236820465B69984730
:107B60000546002851D000F10807012384F8283089
:107B7000384604F0D8FA95F80480CDF80480013036
:107B80002B682B4900933E1833462A483A46FCF7A7
:107B9000DAFC2B688DF800803246394602A800F0E6
:107BA0009BFF029D6B781BB9012000F08BFCF8E76E
:107BB000002000F0F1FA20B16B7813B900F04EFB11
:107BC000FAE72B78012B23D11B491A48FCF7BBFCA1
:107BD000236800219B6920469847002384F82830B9
:107BE00000F0F0F86062039C7CB16368013B636065
:107BF0005BB9236820469B689847A368013BA36054
:107C00001BB923682046DB68984706B0BDE8F081C1
:107C1000E2680A490748FCF796FC094B049304A95B
:107C2000002304F110000593FFF72EFFD5E700BFF6
:107C3000FBCB0D0004E503201CCC0D0033CC0D0064
:107C4000057B0D00014B024A1A60704704E50320D2
:107C50005ACC0D0008B5024B1B685B6C019308BD44
:107C60007402030008B5024B1B685B68019308BDF2
:107C70004802030008B5024B1B68DB68019308BD8E
:107C80004802030008B5024B1B68DB69019308BD7D
:107C90004802030008B5024B1B681B6A019308BD2C
:107CA0004802030008B5024B1B685B6A019308BDDC
:107CB0004802030008B5024B1B689B6A019308BD8C
:107CC0004802030008B5024B1B68DB6A019308BD3C
:107CD0004802030008B5024B1B681B6B019308BDEB
:107CE0004802030008B5024B1B689B6B019308BD5B
:107CF0004802030008B5024B1B681B6C019308BDCA
:107D00004802030008B5024B1B685B6C019308BD79
:107D10004802030008B5024B1B689B6C019308BD29
:107D20004802030008B5024B1B68DB6C019308BDD9
:107D30004802030008B5024B1B685B6D019308BD48
:107D40004802030008B5024B1B689B6D019308BDF8
:107D50004802030008B5024B1B68DB6E019308BDA7
:107D60004802030008B5024B1B681B6F019308BD56
:107D70004802030008B5024B1B685B6E019308BD07
:107D80003402030008B5024B1B68DB6E019308BD8B
:107D90003402030008B5024B1B685B68019308BD01
:107DA0001802030008B5024B1B689B68019308BDCD
:107DB0001802030008B5024B1B68DB68019308BD7D
:107DC0001802030008B5024B1B685B69019308BDEC
:107DD0001802030008B5024B1B689B6D019308BD98
:107DE0001802030008B5024B1B68DB6D019308BD48
:107DF0001802030008B5024B1B685B6E019308BDB7
:107E00001802030008B5024B1B689B6E019308BD66
:107E10001802030008B5024B1B681B68019308BDDC
:107E20002C02030008B5024B1B685B68019308BD78
:107E30002C02030008B5024B1B689B68019308BD28
:107E40002C02030008B5024B1B68DB68019308BDD8
:107E50002C02030008B5024B1B681B69019308BD87
:107E60002C02030008B5024B1B685B69019308BD37
:107E70002C02030008B5024B1B689B69019308BDE7
:107E80002C02030008B5024B1B68DB69019308BD97
:107E90002C02030008B5024B1B681B6B019308BD45
:107EA0002C02030008B5024B1B68DB68019308BD78
:107EB0002802030008B5024B1B689B69019308BDAB
:107EC0002802030008B5024B1B68DB69019308BD5B
:107ED0002802030008B5024B1B681B6A019308BD0A
:107EE0002802030008B5024B1B685B6A019308BDBA
:107EF0002802030008B5024B1B689B6A019308BD6A
:107F00002802030008B5024B1B68DB6A019308BD19
:107F10002802030008B5024B1B681B6B019308BDC8
:107F20002802030008B5024B1B685B6B019308BD78
:107F30002802030008B5024B1B681B6C019308BDA7
:107F40002802030008B5024B1B689B6C019308BD17
:107F50002802030008B5024B1B68DB6C019308BDC7
:107F60002802030008B5024B1B681B6D019308BD76
:107F70002802030008B5024B1B685B69019308BD2A
:107F80006402030008B5024B1B689B68019308BD9F
:107F90006802030008B5024B1B68DB68019308BD4B
:107FA0006802030008B5024B1B68DB69019308BD3A
:107FB0003002030008B5024B1B681B6A019308BD21
:107FC0003002030008B5024B1B681B68019308BD13
:107FD0003C02030008B5024B1B689B68019308BD77
:107FE0003C02030008B5024B1B68DB68019308BD27
:107FF0003C02030008B5024B1B681B69019308BDD6
:108000003C02030008B5024B1B685B69019308BD85
:108010003C02030008B5024B1B689B69019308BD35
:108020003C02030008B5024B1B68DB69019308BDE5
:108030003C02030008B5024B1B681B6A019308BD94
:108040003C02030008B5024B1B689B6A019308BD04
:108050003C02030008B5024B1B68DB6A019308BDB4
:108060003C02030008B5024B1B681B68019308BD66
:108070004C02030008B5024B1B685B68019308BD06
:108080004C02030008B5024B1B689B68019308BDB6
:108090004C02030008B5024B1B681B69019308BD25
:1080A0004C02030008B5024B1B685B69019308BDD5
:1080B0004C02030008B5024B1B689B69019308BD85
:1080C0004C02030008B5024B1B68DB69019308BD35
:1080D0004C02030008B5024B1B681B6A019308BDE4
:1080E0004C02030008B5024B1B685B6B019308BD93
:1080F0006002030008B5024B1B681B6D019308BDAD
:108100006002030008B5024B1B685B6D019308BD5C
:108110006002030008B5024B1B68DB6E019308BDCB
:108120006002030008B5024B1B681B6F019308BD7A
:108130006002030008B5034B1B68D3F89830019325
:1081400008BD00006002030008B5024B1B681B68F5
:10815000019308BD2002030008B5024B1B685B6851
:10816000019308BD2002030008B5024B1B685B6940
:10817000019308BD2002030008B5024B1B681B6A6F
:10818000019308BD2002030008B5024B1B68DB6A9F
:10819000019308BD2002030008B5024B1B68DB6C8D
:1081A000019308BD2002030008B5024B1B685B6DFC
:1081B000019308BD2002030008B5024B1B689B6DAC
:1081C000019308BD2002030008B5024B1B68DB6D5C
:1081D000019308BD2002030008B5034B1B68D3F8C8
:1081E0008830019308BD00002002030008B5034B4E
:1081F0001B68D3F89430019308BD000020020300EF
:1082000008B5034B1B68D3F8A830019308BD0000E4
:108210002002030008B5034B1B68D3F8AC30019370
:1082200008BD00002002030008B5034B1B68D3F80B
:10823000B030019308BD00002002030008B5024BD6
:108240001B681B68019308BD4402030008B5024B7C
:108250001B685B68019308BD4402030008B5024B2C
:108260001B689B68019308BD4402030008B5024BDC
:108270001B68DB68019308BD4402030008B5024B8C
:108280001B685B69019308BD4402030008B5024BFB
:108290001B68DB69019308BD4402030008B5024B6B
:1082A0001B681B6A019308BD4402030008B5024B1A
:1082B0001B685B6A019308BD4402030008B5024BCA
:1082C0001B68DB6A019308BD4402030008B5024B3A
:1082D0001B681B6B019308BD4402030008B5024BE9
:1082E0001B685B6B019308BD4402030008B5024B99
:1082F0001B689B6B019308BD4402030008B5024B49
:108300001B68DB6B019308BD4402030008B5024BF8
:108310001B685B6C019308BD4402030008B5024B67
:108320001B685B68019308BD4002030008B5024B5F
:108330001B689B68019308BD4002030008B5024B0F
:108340001B68DB68019308BD4002030008B5024BBF
:108350001B681B69019308BD4002030008B5024B6E
:108360001B685B69019308BD4002030008B5024B1E
:108370001B689B69019308BD4002030008B5024BCE
:108380001B68DB69019308BD4002030008B5024B7E
:108390001B681B6A019308BD4002030008B5024B2D
:1083A0001B681B6B019308BD4002030008B5024B1C
:1083B0001B685B6B019308BD4002030008B5024BCC
:1083C0001B681B6C019308BD4002030008B5024BFB
:1083D0001B685B6C019308BD4002030008B5024BAB
:1083E0001B681B68019308BD1C02030008B5024B03
:1083F0001B685B68019308BD1C02030008B5024BB3
:108400001B689B68019308BD1C02030008B5024B62
:108410001B681B69019308BD1C02030008B5024BD1
:108420001B68DB69019308BD1C02030008B5024B01
:108430001B685B6A019308BD1C02030008B5024B70
:108440001B68DB6A019308BD1C02030008B5024BE0
:108450001B681B6B019308BD1C02030008B5024B8F
:108460001B685B6C019308BD1C02030008B5024B3E
:108470001B689B6C019308BD1C02030008B5024BEE
:108480001B68DB6C019308BD1C02030008B5024B9E
:108490001B681B6D019308BD1C02030008B5024B4D
:1084A0001B685B6D019308BD1C0203008A4210B576
:1084B00007D0029C401AE41A6043521A90FBF2F073
:1084C000184410BD0021FFF74FBE10B58368044665
:1084D0000BB903F0A6F8C3689847A3681BB1032241
:1084E00021462046984720461021BDE8104003F061
:1084F00092B810B5036804469B689847A368013B8F
:10850000A3602BB923682046DB68BDE810401847FC
:1085100010BD10B50446006808B1FFF7FBFB20460C
:1085200010BD0B68036013B15A6801325A6070477E
:1085300010B50446006828B14368013B43600BB99D
:10854000FFF7D7FF204610BD10B5064C002320468C
:108550002360FFF7D7FB2046034A0449BDE81040DB
:1085600003F054B808E5032020E3032013850D0031
:10857000002240681146FFF7E9BE0022406811461C
:10858000FFF704BF002240681146FFF70FBF4068A5
:108590000022FFF703BF4068002281F00101FFF7CE
:1085A000EDBE002340681A461946FFF7D7BE0022E9
:1085B00040681146FFF7BABE406800220221FFF76B
:1085C000BDBE002340681A46FFF7A8BEF0B51B4B9E
:1085D000036000250F4628331826C0E9025589B0EC
:1085E0004360324629460446103003F029FD78687E
:1085F0002A462946FFF7AAFE18B9A060204609B00E
:10860000F0BD2946324602A8CDE9005503F018FD19
:1086100002A96846ADF80860FFF71CFB10B1012302
:10862000A360EBE7009B019AA360E2600BB9022311
:10863000A36002A9204600F0AEF8DFE7F8CC0D00F9
:10864000084B10B5282422461846002103F0F8FCF8
:10865000054B04804FF0FF32426004225A60034A07
:108660001A6010BD14E503200CE50320BCCC0D00FE
:108670007047007D704710B52821044602F0CBFFFB
:10868000204610BD037D7BB1C369002B0CDB07EED8
:10869000903A9FED077AF8EEE77A87EE870ADFEDEA
:1086A000057A20EE270A7047BFEE000A704700BF28
:1086B00000FF7F470000C842037D63B18369B3F1C7
:1086C000004F08D007EE903A9FED047AF8EEE77A73
:1086D00087EE870A70479FED020A70470000C84284
:1086E00000000000037D7BB1436A002B0CDB07EE2A
:1086F000903A9FED077AF8EEE77A87EE870ADFED8A
:10870000057A20EE270A7047BFEE000A704700BFC7
:1087100000FF7F470000C842037D63B1036AB3F1E5
:10872000004F08D007EE903A9FED047AF8EEE77A12
:1087300087EE870A70479FED020A70470000C84223
:108740000000000070B50C1E06460ADA2D2102F06A
:1087500022F8614205460A22304602F02BF82844EE
:1087600070BD21460025F6E770B50C4605468168C8
:108770002046FFF7E7FF2C210646204602F00BF8C3
:10878000E96806442046FFF7DDFF304470BDA0F1E4
:108790000400FFF7E9BF30B50D4600F110040FCD1E
:1087A0000FC495E8030084E80300012030BD704742
:1087B0000020704710B51021044602F02CFF20461F
:1087C00010BD08B5FFF7F6FF08BD30B500224FF623
:1087D0009C74026084808D888C800C688580046025
:1087E0000A6030BD10B504460068FFF7FFFD204663
:1087F00010BD38B5C468F4B12378022B03D104F15D
:108800000C00FFF7EFFF656835B12846FBF7D0FD98
:108810001021284602F0FFFEA56835B12846FBF777
:10882000C7FD1021284602F0F6FE20461421BDE8BF
:10883000384002F0F0BE38BD10B588B00446684636
:1088400002F071F8694604A802F0B8F804A8A0473D
:10885000044604A802F01CF8684602F019F8204605
:1088600008B010BD1FB50023CDE90201019210240C
:108870001A4669461846ADF80230ADF80040FFF7D9
:10888000E5FC04B010BD1FB50C23ADF8043003683F
:108890008DF80630037A8DF8073043680293002183
:1088A000437AADF80D1001A88DF80F108DF80C303B
:1088B000FFF72CFD05B05DF804FB1FB50C22ADF8E9
:1088C000042002688DF80620027A8DF8072042689D
:1088D00002920023427A8DF80C20194601AA022048
:1088E000ADF80D308DF80F30FFF700FD05B05DF8E5
:1088F00004FB73B50E46044656F8043B00930D4640
:1089000001A83146FFF70DFE019A009B62602360CB
:1089100001A8002301930093FFF70AFE3046FFF7FA
:1089200007FE2846082102F076FE204602B070BD00
:1089300013B50B460246D0E900016C4684E80300FB
:1089400093E8030082E8030094E8030083E803004F
:1089500002B010BD826810B50AB902F062FEBDE82F
:108960001040C368184708B5006800F11001FFF710
:10897000F1FF08BD826810B50AB902F052FEBDE8E9
:108980001040C368184708B5006800F11001FFF7F0
:10899000F1FF08BD38B500230446036010200D46E2
:1089A000FBF779FB28B10123C0E90133024B0360D7
:1089B000C5602060204638BD2CCD0D0038B50023A1
:1089C00083608B6804460D462BB102229847EB6802
:1089D000E360AB68A360204638BD0000F0B589B005
:1089E00004686846FFF7F1FE4FF00203D4E84F2F0A
:1089F000002A03D1C4E8413F0029F7D125D104F171
:108A00000C0569462846FFF7E0FEBFF35B8F0123A4
:108A10006370002004F10803BFF35B8F53E8006F1D
:108A200043E80002002AF9D1BFF35B8F6EB1FFF774
:108A3000B3FB78B129463046FFF78CFF3046FBF791
:108A4000B7FC1021304602F0E6FD6846FFF7CAFE8B
:108A500009B0F0BD314602A8FFF7B0FFE068B4F9F5
:108A6000105008B103F042FB06901020ADF81C50E6
:108A7000FBF711FB0546E8B1002787601820FBF7DC
:108A80000AFB044688B10146876002A8FFF750FF41
:108A9000049BA268A360059B049206A9E268E360B8
:108AA00004F110000592FFF790FE084BEB60084BB5
:108AB0002C60AB6006A8FFF795FE02A8FBF778FCD8
:108AC000002229460348FFF76FFBB7E767890D00CF
:108AD000FD8B0D00CB840D002DE9F0478AB00546D3
:108AE0009DF848900C4617469846FFF7C7FB07AE1F
:108AF000824638BB4FF62E73059005A93046ADF877
:108B00001830FFF762FE1420FBF7C5FA044648B19F
:108B1000022303700123C0E901AA437031460C30DF
:108B2000FFF753FE2846214640F8044BFFF732FF7B
:108B30003046FFF757FE05A8FFF754FE28460AB057
:108B4000BDE8F0870C234FF0000A1420CDE908AAF5
:108B50000793FBF7A0FA014628B1C0E901AA80F803
:108B600000A080F801A004A80391FFF713FF224B97
:108B700008930820FBF78FFA824628B1039B40F840
:108B8000043B04A9FFF7CDFC00965FFA89F3424647
:108B900039462046CDF824A0FFF780FBB8B9039BE7
:108BA0005B7803F0FF0293B94FF69C7305A903A805
:108BB0000592ADF81830FFF711FF05A8FFF712FE78
:108BC00005A80999FFF795FE06A8FFF7B1FC039BDE
:108BD000059304A906A8FFF7A4FC059B069A2B6041
:108BE0006A60002306A806930593FFF7A1FC04A87A
:108BF000FFF79EFCA2E700BFC18C0D00022AF8B56A
:108C0000054607D0032A18D0012A01D10B6803605A
:108C10000020F8BD18200E68FBF73DFA044650B15D
:108C20003146FFF7CBFE3069B6F9147008B103F096
:108C30005DFA2061A7822C60EAE70468002CE7D087
:108C400004F11000FFF7CEFD2046FBF7B1FB182121
:108C5000204602F0E0FCDBE738B5002383608B6838
:108C600004460D462BB102229847EB68E360AB68DF
:108C7000A360204638BD022A70B5044607D0032AF7
:108C800012D0012A01D10B680360002070BD1420AE
:108C90000E68FBF700FA054620B13146FFF7DCFF0E
:108CA000337C2B742560F0E70468002CEDD020465F
:108CB000FBF77EFB1421204602F0ADFCE5E7000047
:108CC000F0B589B004460D4601A81146FFF711FE24
:108CD000A4B124B21DB1284603F008FA054601A844
:108CE00003A90395ADF81040FFF778FE03A8FFF73E
:108CF00079FD02A8FFF71CFC09B0F0BD019D01231E
:108D0000D5E84F2F002A03D1C5E8413F0029F7D10C
:108D1000EFD12B73BFF35B8F6B702B1DBFF35B8F9A
:108D200053E8006F43E80042002AF9D1BFF35B8F9C
:108D3000002EDED02046FFF72FFA074660B105F17E
:108D40000C013046FFF716FE3046FBF731FB1021D1
:108D5000304602F060FCCCE7314603A8FFF77CFF09
:108D60002B7B8DF81C301020FBF795F90546D0B110
:108D700087601420FBF78FF9044678B187600146BD
:108D800003A8FFF7D5FD059BA268A360069B05928B
:108D9000E268E3609DF81C3006922374064BEB609A
:108DA000064B2C60AB6003A8FBF702FB00222946B0
:108DB0000348FFF7F9F9C7E787890D00778C0D00A5
:108DC000CB840D00002240681146FFF7DFBA002275
:108DD00040681146FFF7EABA40680022FFF7DEBAA2
:108DE0004068002281F00101FFF7C8BA0023406803
:108DF0001A461946FFF7BABA002340681A461946C0
:108E0000FFF7ACBA002240681146FFF79FBA002274
:108E100040681146FFF78ABA406800220221FFF736
:108E20008DBA002340681A46FFF778BA024B032236
:108E30005A60024A1A6070473CE5032048CD0D0095
:108E4000006800F0B7B810B50446016002710AB1BD
:108E5000FFF7F6FF204610BD13B50446019102F05E
:108E6000ADFB019A01462046FFF7EDFF204602B018
:108E700010BD006800F0A7B810B5037904460BB127
:108E8000FFF7F7FF204610BD7047F8B506461546B8
:108E90000C468F18BC4206D0336814F8011B9B683F
:108EA00030469847F6E72846F8BD007C0022FFF7D9
:108EB00011B8007C0021FFF715B8007C0021FFF7F6
:108EC00019B8007C0021FFF71DB8007C0021FFF7D6
:108ED00021B810B51421044602F09DFB204610BDB8
:108EE00010B54FF47A73044608460021C4E9011313
:108EF000034B236020741146FFF71CF8204610BD79
:108F000084CD0D000023007C1A461946FEF7CABF27
:108F10007FB500221423CDE90122ADF804300B788F
:108F20008DF808304B680393CB680493007C0B7A70
:108F3000059301A9FFF716F807B05DF804FB1FB50C
:108F4000003B8DF800104FF06401039118BF01231E
:108F5000694601928DF80830FFF7DAFF05B05DF839
:108F600004FB0123FFF7EBBF007C0022FEF7A2BF4A
:108F7000C9B2FFF7F9BF7FB50023CDE901334A68D5
:108F800003921423CA68ADF804300B7804920A7A6D
:108F90000592007C8DF8083001AA1946FEF78AFF79
:108FA00007B05DF804FB007C0022FEF78BBF0121B7
:108FB000FFF7F9BF08B50021007CFEF7C3FFB0FA48
:108FC00080F0400908BD08B50021007CFEF7C2FF13
:108FD000B0FA80F0400908BD004700002DE9FF41CC
:108FE00000241D460F4690460646FEF74BFFA5425D
:108FF0004FF00403ADF80D408DF80C308DF80F40A4
:10900000A2BF9DF828308DF80E3003AC07490094BC
:1090100043463A463046A8BF8DF80D50FEF72AFF6A
:10902000B0FA80F0400904B0BDE8F081D98F0D009E
:10903000F8B50446FEF726FF054670B9084F57F805
:10904000246046B13046FBF7B3F91021304602F0F8
:10905000E2FA47F82450012000E00020F8BD00BFEC
:1090600044E50320704710B51821044602F0D3FAF6
:10907000204610BDF0B5037D062B8DB00E4600F1E5
:1090800004074FF0000412D000F1080515F8011D87
:109090000A22304601F08EFBAF42044419D0002C66
:1090A000F4D02E21304601F076FB0444EEE72F2366
:1090B0006A4639460A208DF80040FEF75BFF684695
:1090C00003F031F833680246DB686946304698475A
:1090D000044620460DB0F0BD10B5054B04461122E4
:1090E00040F8043B002102F0ABFF204610BD00BF5A
:1090F000ACCD0D000346074A10B543F8042B01F12F
:10910000100251F8044B43F8044B9142F9D10A780C
:109110001A7010BDACCD0D0010B59DF8084044EAA2
:10912000032343EA024242EA0161042341600375DA
:1091300010BD13B5CB7800938B784A780978FFF788
:10914000EBFF02B010BD00F11003012213F8101C58
:109150000129184608D153F8041C02EB4102013AD8
:1091600003F11003F2D17047022904BF53F8041C25
:109170005218F4E70EB4F0B588B000AF07F134052B
:10918000102155F8042B7A6004462B467818FD60B0
:10919000FFF74CF90F287A681AD900F1080323F079
:1091A00007036E46ADEB030D411C2B466846FD6080
:1091B000FFF73CF9021E04DD236869469B682046E0
:1091C0009847B5462037BD46BDE8F04003B070472C
:1091D0000028F7D0236802469B6807F1100120465B
:1091E0009847EFE710B5036804469B689847A36863
:1091F000013BA3602BB923682046DB68BDE8104023
:10920000184710BD07B503688DF807109B68012249
:109210000DF10701984703B05DF804FB38B50B6802
:1092200003604D6843689D4204460CD015B16B68DD
:1092300001336B60606828B14368013B43600BB940
:10924000FFF7D0FF6560204638BD0B46114600226F
:1092500010B5C0E90022044683600BB9204610BD5A
:10926000FFF7DCFFFAE78368EBB11A78032A1AD814
:10927000DFE802F00417021B0520704702685B68F4
:109280005268D05C2D2812D0A0F13003092B0ED9E2
:1092900074280ED066280CD0A0F16E0358425841B5
:1092A0007047062070470020704704207047032055
:1092B00070470220704710B50446FFF7D4FF02281C
:1092C0000ED0C31EDBB2012B14D82268A3685068ED
:1092D0005B68BDE810400A220021184402F0DEBF9E
:1092E0002268A36852685B68D05CA0F1740358429E
:1092F000584110BD0020FCE738B50023C0E9003319
:1093000004460E48C4E90203A9B10B78032B06D02A
:109310008BB9136858684B68C35C6E2B07D0136811
:109320004D6858688B6828445B1BA060E360114659
:109330002046FFF773FF204638BD00BF15CE0D0055
:1093400038B500250B46C0E90055C0E90255C0E913
:109350000455044611464BB11A78012A06D103F18F
:109360001002DB6882604361FFF758FF204638BD7A
:1093700010B54369044663B18068E060013B10307A
:10938000A0602061636113B1FFF7DDFEA0600120E2
:1093900000E0184610BD10B57D210446FFF732FFEE
:1093A00001232371204610BD08B50379012B02D09B
:1093B000022B04D008BD2C21FFF724FFFAE73A2145
:1093C000FAE710B50446FFF7EFFF20467B21FFF7D1
:1093D00019FF00232371204610BD000013B5044679
:1093E0000191FFF7E1FF2368019ADB6803492046FA
:1093F000984701232046237102B010BD98C90D0083
:1094000013B504460191FFF7CFFF2368019ADB688B
:1094100003492046984701232046237102B010BD1E
:1094200087CB0D002DE9F0410D4617462221DFF8CC
:10943000A08004462F44FFF7E5FE2946BD422A4698
:1094400038D015F8016B222E03D05C2E01D01F2ED0
:10945000F4D82368521A9B68204698475C2120461E
:10946000FFF7D0FE0D2E0AD8072E1CD9A6F108034F
:10947000052B18D8DFE803F00D0F11171315222E56
:1094800001D05C2E0FD131462046FFF7BBFE2946A6
:10949000D4E76221F8E77421F6E76E21F4E766214C
:1094A000F2E77221F0E723683246DB684146204646
:1094B0009847ECE78D4204D023686A1A9B682046DF
:1094C000984722212046FFF79DFEBDE8F08100BFAE
:1094D000B8CD0D0013B50446CDE90021FFF764FFB8
:1094E0002046DDE90021FFF79DFF0223204623717E
:1094F00002B010BD13B50446CDE90021FFF754FFBB
:109500002046DDE90021FFF78DFF0123204623716E
:1095100002B010BD80680368DB68184770470846D2
:1095200011B10B685B681847704770477047704708
:1095300038B504460D4600682E2102F0BAFD2368B6
:10954000C31A2B6023B1037803B101302368206074
:10955000184638BD10B50C21044602F05CF82046D0
:1095600010BD10B50421044602F055F8204610BD88
:1095700010B50421044602F04EF8204610BD08B58F
:1095800002F0A1FDB0FA80F0400908BD10B50C460C
:1095900001F056FE844210D001F0C6FD844205D190
:1095A00001F0C2FDBDE8104001F0BBBD2CB1236845
:1095B00020465B68BDE81040184710BD13B504464F
:1095C0000846019102F0AFFD01990246204602B023
:1095D000BDE81040FFF78EBF13B504460846019161
:1095E00002F0A1FD23680199DB680246204602B023
:1095F000BDE81040184707B503688DF80710DB6811
:1096000001220DF10701984703B05DF804FB0EB489
:1096100003B503AB002153F8042B006A019301F05A
:10962000E7F802B05DF804EB03B070472DE9F74F9F
:10963000D0E900954FF0140808FB05F50093AB1036
:10964000184D17465D434C46002D23DD6E1008FB78
:1096500006F004EB000A3A46BAF804B0205801912B
:109660005F4528BF5A4602F066FD0199012378B98B
:109670005F4503D1009A13703546E5E78CBF0120A2
:1096800000200028F8D0AE1B0AF11404013EF3E7D5
:10969000C00FF6E7A4EB09040248A410604303B02E
:1096A000BDE8F08FCDCCCCCC7FB50369067E0191AF
:1096B0000BB301B3002500F10C04039503A901A825
:1096C000FFF736FF0146B0B10DF10B03039A8DF899
:1096D0000B502046FFF7AAFF9DF80B305BB12468C2
:1096E000142303FB004000F10804B0F90630002BFE
:1096F000A8BFDEB2E2E7304604B070BD10B50A4C38
:109700002378BFF35B8FDB070BD42046FAF7D4FC3A
:1097100038B12046FAF7D5FC044A0549054801F05E
:1097200075FF044810BD00BFD8E5032020E30320E7
:109730002D950D00A4E2032010B50A4C2378BFF349
:109740005B8FDB070BD42046FAF7B6FC38B1204616
:10975000FAF7B7FC044A0549054801F057FF0448E9
:1097600010BD00BFDCE5032020E303202B950D0096
:10977000A8E2032038B500250446C0E90055C0E939
:1097800004558560856140F8245FFEF7BBFAFFF75A
:10979000B5FFE061FFF7D0FF25732062204638BD9A
:1097A00010B50B4C2378BFF35B8FDB070ED420463C
:1097B000FAF782FC50B10748FFF7DCFF2046FAF7C2
:1097C00080FC054A0549034801F020FF014810BD0F
:1097D000D4E50320E4E5032020E30320359C0D00BD
:1097E000024A034903480023FEF79CBC119B0D006D
:1097F0009D9A0D001D9A0D0000231A461946184621
:10980000FEF790BC37B50D6951F8043B0093044650
:1098100001A8FEF786FE6A4629462046FFF715FD99
:1098200001A8FEF785FE204603B030BD37B58D6830
:1098300051F8043B0093044601A8FEF772FE6A4605
:1098400029462046FFF77CFD01A8FEF771FE204661
:1098500003B030BD37B5CD6851F8043B00930446E2
:1098600001A8FEF75EFE6A4629462046FFF744FD42
:1098700001A8FEF75DFE204603B030BD70B58AB08A
:109880000D46014604A8FFF7D1FF144E04A8FFF7C8
:109890006FFDE8B104A96846FFF7DCFF0298314686
:1098A000FFF76DFE044610B12C1E18BF012401A85D
:1098B000FEF73EFE002CE9D004A96846FFF7A2FFA0
:1098C0006846FFF7F8FC286001A8FEF731FEDDE7E7
:1098D00005A8FEF72DFE0AB070BD00BFBECD0D007D
:1098E00037B50C4620461249154602F0ECFB48B944
:1098F00001F0A6FC4FF4165101F092FC01F0A0FC1F
:1099000003B030BD0B49204602F0DDFB70B94FF4C7
:10991000165301A928460193FFF7B0FF01F004FC9C
:10992000019901F0FBFB01F0FFFBE9E70020E7E70D
:10993000C3CD0D00CACD0D0070B5D0E9005314267B
:10994000044606FB0356AE4205D005F10800FFF7BA
:10995000F3FF1435F7E72068FEF748FD204670BD99
:1099600070B5D0E90053044605EB0316AE4204D0AF
:10997000284600F08DFF1035F8E72068FEF736FD29
:10998000204670BD10B504460C30FFF7D5FF2046C9
:10999000FFF7E6FF204610BD10B5044B044640F823
:1099A000043BFFF7EFFF204610BD00BF44C80D0089
:1099B00010B50446FFF7F0FF2046242101F02BFEEE
:1099C000204610BD10B5034B03600446FFF7E4FFCB
:1099D000204610BD64CE0D0010B50446FFF7F2FF1F
:1099E0002046242101F017FE204610BD0022C0E9C8
:1099F000002210B582600C6804604C6844608C687A
:109A00000A604A6084608A6010BD10B5036804462D
:109A10001868FEF78FF9204610BD00002DE9F04FC1
:109A200087B0804603931C4B5B68C3F308038946E9
:109A300016466BB9FFF7B4FE044600F12403406AF2
:109A40000593FEF76FF9237B2BB105A8FFF7DDFF28
:109A500007B0BDE8F08F01232373D4E900535FFA08
:109A600089F905EB830AAA4512D055F8047B3146E3
:109A7000381DFFF719FE8145F5D33B68039A009224
:109A8000D3F808B04A46334641463846D847EAE755
:109A900000232373D9E700BF00ED00E02DE9F74F65
:109AA0009B461A4B5B68C3F30803804689461646FB
:109AB0006BB9FFF775FE044600F12403406A019379
:109AC000FEF730F9237B2BB101A8FFF79EFF03B00F
:109AD000BDE8F08F01232373D4E90053F6B205EB00
