:02000002D0002C
:1040000000400D00F4DA0D00000006000D0005016F
:08401000040135080000000066
:044018005CC30D0078
:1040200009480A49884208B505D0094A824202D0A7
:10403000121A08F033F80748074A0021121A08F04C
:1040400055F8014808BD00BFE8E1032094D90D00F0
:104050001CE3032020E30320F8E7032070B5074E9C
:10406000074C07F0CDF9A41BA4080025A54200D1F8
:1040700070BD56F8043B98470135F7E754D10D0061
:1040800084D10D0001F06CB908B501F02BFEBDE83C
:10409000084007F077B904F051B904F04FB904F0C3
:1040A00055B9000008B5034A00210C2003F0CAFFEF
:1040B000FEE700BF157D0D000078B0FA80F04009E2
:1040C00070470123037070477047006A0368DB681C
:1040D00018470000014B1A60704700BF28E2032018
:1040E00003681847012A03D0022A03D00020704732
:1040F0000160FBE70B680360F8E70021072007F089
:1041000018BA000010B5054B1A7B054B044653F84E
:10411000221006F05EFC204610BD00BFC0E4032064
:10412000E8E1032010B503682F2B044604D9074AA1
:1041300000210A2003F086FF23681F2B83BF03F0B2
:104140001F03034823604FF0A04010BD157D0D00F4
:104150000003005073B51C4B1C4C1D4D01221A70FE
:104160002378BFF35B8F13F0010F09D12046FFF7CF
:10417000A3FF28B103F0FEFD28602046FFF7A1FF52
:104180002B6893F870305E012378BFF35B8FDB07F9
:1041900009D40E48FFF790FF28B103F0EBFD28602B
:1041A0000A48FFF78EFF2B6893F8713003F01F0366
:1041B000334301A80193FFF7B5FF019A0123934010
:1041C000C0F8083502B070BDB4E4032024E3032036
:1041D00028E3032038B50446006928B185680C211E
:1041E00007F06FFA2846F8E7204638BD08B50449BD
:1041F00006F045FC18B1034B06221A70012008BDD9
:10420000B4C30D00B5E40320436913B183690C30D6
:104210001847704710B5034B0360044603F084FA57
:10422000204610BDF0C80D0010B50446FFF7F2FFA0
:104230002046382107F045FA204610BD10B5034B43
:104240000360044602F064FF204610BDD4C80D0090
:1042500010B50446FFF7F2FF2046102107F031FAAF
:10426000204610BD13B500210446084603F0BAFCF1
:104270000023204601A9019303F0CCFC019C0CB162
:10428000012323710021012003F0ACFC2CB1236831
:1042900020469B6898470023237102B010BD0000A0
:1042A00008B50A4906F0EBFB002368B1084A094942
:1042B0001360936053615360074A0B611370074B9F
:1042C00001201870064B187008BD00BFB4C30D0064
:1042D000F4E30320C0E4032023E4032018E40320D4
:1042E000F0E4032010B50446006818B104F02EF87D
:1042F0000023236010BD10B50446FFF7F3FF2046EE
:1043000010BD08B5002003F091FF28B103F066FF4F
:1043100080F00100C0B208BD0120FCE700230422A8
:1043200003F03CBF30B585B00346144668460D46E1
:1043300098470298206004F001F8286050B1226884
:10434000009907F0ABFE0024684606F0F7FA204615
:1043500005B030BD004CF7E7FCFEFFFF0A4B10B57F
:104360000446036005F072FA214605F074FC06F07D
:10437000BDFF06F0AFFF2046044B40F8043B05F0BC
:1043800057FB204610BD00BFBCC80D00A4C80D00DF
:1043900010B50446FFF7E2FF2046242107F091F90B
:1043A000204610BD002340681A46194603F08EBF10
:1043B00010B58368044613B103220146984720468E
:1043C00010BD000037B5134B036004468068C8B1C8
:1043D00000256FF00043CDE9003502212B462A4627
:1043E00003F020FCA068294603F06CFC237903F05D
:1043F000FF0513B103F0EEFBF8E7A068294603F0D0
:1044000001FCA56004F10C00FFF7D2FF204603B0C9
:1044100030BD00BF90C80D0010B50446FFF7D2FFB5
:1044200020461C2107F04DF9204610BD38B5044642
:1044300020252A46002107F059FE6571204638BD27
:10444000F8B5037D05460F4616468BB10368DB6859
:1044500083B19A88012A06D09B68F9E79B684BB123
:104460009A88012AFAD12BB19A89BA42F6D19E7361
:104470002846F8BD0A49102007F025F9044668B11E
:104480001022002107F032FE064B23600123A38097
:104490002B69A360A781A6732C61E9E72875E7E77C
:1044A000F8CF0D001000030070B5037D05460E46E1
:1044B000CBB10368DB6823B19A88042A17D09B68C4
:1044C000F9E70C49102007F0FEF8044668B1102205
:1044D000002107F00BFE084B23600423A3802B6907
:1044E0002C61C4E90236284670BD2875FBE7DE6002
:1044F000F9E700BFF8CF0D0010000300002003F023
:1045000021BC00000246014804F05CB999870D0007
:1045100007B580680B46002140B1CDE900210A466D
:10452000032103F07FFBB0FA80F0400903B05DF88F
:1045300004FB08B5806828B1002103F0B3FB003804
:1045400018BF012008BD0EB410B58DB00FAA0168C8
:1045500052F8044B039200232020CDE90403CDE957
:1045600000421E2004AA03F07DFD0DB0BDE81040FE
:1045700003B070470EB410B58DB00FAA016852F8A1
:10458000044B039200232020CDE90403CDE900422F
:10459000322004AA03F066FD0DB0BDE8104003B060
:1045A000704737B504689DF818508DF800308DF8C5
:1045B0000450E4683C23A04703B030BD30B50B780D
:1045C0001C4D93B00C4693B91B4902A807F0DBFDC4
:1045D0002B7953B1194B1A491B788DF80030194BC0
:1045E00019481B7802AAFFF7DCFF13B030BD08465C
:1045F00007F030FDC8280DD1144902A807F0C3FD0B
:1046000006F02DFD124B286201221A70114B002278
:104610001A70DDE7204607F01DFDC928ECD02046C2
:1046200007F018FD0C4A0346402102A803F0A6FE3D
:10463000CEE700BFC0E40320E9C30D0079E3032007
:1046400020C40D0078E3032078E40320F1C30D00BB
:10465000F0E4032023E4032003C40D0007B50B4955
:1046600006F00DFA70B100238DF80030084B094AAE
:104670001B7809490948FFF794FF09480A2102F00D
:1046800051FA012003B05DF804FB00BFB4C30D0074
:1046900078E303202DC40D0039C80D0078E4032011
:1046A00088E3032037B51949054606F0E8F90446C2
:1046B000B0B1174B174A01241C71DB78147013B981
:1046C000012003B030BD144B144A1B788DF8003024
:1046D000134B1B7813491448FFF763FF2046F0E79C
:1046E0001249284606F0CBF90028EAD0084B094ABF
:1046F0001C71DB7801241470002BE1D0064B0C4AAE
:104700001B788DF80030064B1B78E3E7B4C30D002F
:10471000C0E40320F0E4032079E3032045C40D0046
:1047200078E3032016C60D0078E4032022C60D00AE
:1047300056C40D0000B50C4B0C4A1B7FC3B04FF4A0
:10474000807102A803F01AFE094B0A491B788DF804
:104750000030094B09481B7802AAFFF722FF01200D
:1047600043B05DF804FB00BFC0E403206BC40D0040
:1047700079E30320D7C60D0078E3032078E4032013
:1047800030B5C5B000680A2203A907F0DDFDB0F519
:104790007A7F1ED8104DA86006F061FC0F4BE860D0
:1047A00001241C700E4AAB684FF4807104A803F01A
:1047B000E5FD0C4BDB7853B10B4B0C491B788DF8A6
:1047C00000300B4B0B481B7804AAFFF7EAFE20468B
:1047D00000E0002045B030BDF4E3032018E40320DE
:1047E0007FC40D00C0E4032079E3032095C40D00CD
:1047F00078E3032078E4032030B5C5B000680A22CE
:1048000003A907F0A1FD0A2827D8154DC1B2154804
:1048100085F82B1002F060FE134B144A1448012453
:104820001C70082195F82B3003F0A8FD95F82B306B
:10483000104A4FF4807104A803F0A0FDEB7853B147
:104840000D4B0E491B788DF800300D4B0D481B7831
:1048500004AAFFF7A6FE204600E0002045B030BDC8
:10486000C0E40320A8E30320F0E403201CC50D00EE
:104870002CE203209BC40D0079E30320D7C60D0072
:1048800078E3032078E4032030B5C5B000680A223D
:1048900003A907F059FD3C282BD8174D4FF47A7126
:1048A000414385F82C006FF000421448FFF730FEBA
:1048B000134B144A144801241C70082195F82C301D
:1048C00003F05CFD95F82C30104A4FF4807104A879
:1048D00003F054FDEB7853B10D4B0E491B788DF866
:1048E00000300D4B0D481B7804AAFFF75AFE2046F6
:1048F00000E0002045B030BDC0E40320D8E3032031
:10490000F0E40320B1C40D0016E20320B8C40D008A
:1049100079E30320D7C60D0078E3032078E4032071
:1049200013B52549044606F0AAF820B322492046CB
:1049300006F0A5F838BB2149204606F0A0F800286B
:1049400036D01F4CE27812B91E4B01221A701E4B52
:104950001E4A1B788DF800301D4B1E491B781E48DF
:10496000FFF71FFE4FF47A7003F05CFD00231B4934
:10497000A371102219E01149204606F080F80028A2
:10498000D4D102B010BD0E4CE27852B10E4B144A95
:104990001B788DF800300E4B0E491B780E48FFF740
:1049A00000FE01230F49A37110220F4807F02BFCD2
:1049B0000E4B01201870E4E7B4C30D0022C60D00B1
:1049C000C0E4032075E4032079E30320E2C40D0072
:1049D00078E3032016C60D0078E40320F4C40D002C
:1049E000D3C40D00F8C40D0064E40320F0E40320F8
:1049F00070B54A4C4A4D92B006F031FB2368C01A9C
:104A000095F82C3098424FD906F029FB454B206091
:104A1000986840B16FF000420023CDE900230121E6
:104A20001A4603F0FFF8404E347806F035FB844216
:104A30003E4C04D006F030FB01233070A361A36923
:104A40000133A36106F00BFB2368A268E060013329
:104A500001322360A2604021009202A8344A03F090
:104A60008DFC2B795BB1EB784BB100238DF80030D6
:104A7000304B31491B78314802AAFFF792FD30488C
:104A800002A9FFF760FD2F4B01221A702E4C2378EC
:104A900043B12E4802F0EFFC2D492948FFF753FDA2
:104AA0000023237012B070BD1E48FFF742FD00289E
:104AB000ECD1284C284D2378BFF35B8F13F0010F06
:104AC00009D12046FFF7F8FA28B103F053F928601E
:104AD0002046FFF7F6FA2B6893F870305E012378D2
:104AE000BFF35B8FDB0709D41A48FFF7E5FA28B15B
:104AF00003F040F928601748FFF7E3FA2B6893F8B2
:104B0000713003F01F03334302A80293FFF70AFB3F
:104B1000029A01239340C0F80C35B7E77CE30320E9
:104B2000C0E40320D8E3032080E30320F4E3032060
:104B300002C50D0078E30320A0C60D0078E4032031
:104B4000E0E5032018E40320B4E40320A8E30320F5
:104B50001FC50D0024E3032028E3032010B51A4CE1
:104B60002368CAB0002B2CD0E2680892174A118D36
:104B70000791A16906916169059111690491216903
:104B80000391107B124951F8201002919268019212
:104B9000A26800924FF480710E4A0AA803F0EEFB5F
:104BA00000238DF800300C4B0C491B780C480AAAE6
:104BB000FFF7F7FC0B4B01221A70236863604AB0C1
:104BC00010BD094A1268D0E7F4E30320C0E40320D3
:104BD000E8E1032031C50D0078E30320B8C50D00DE
:104BE00078E4032023E403203CE4032013B50121EF
:104BF00001A805F056FD0B4B1B69243B402B01A877
:104C00004FF001040AD905F0DFFD074B1C730024A7
:104C100001A805F055FD204602B010BD05F0BDFD10
:104C2000F6E700BFF4E30320C0E4032030B5194DDC
:104C30000FCD99B004AC0FC40FCD0FC495E803009D
:104C400084E8030014490EA803F070FC0EA803F0DA
:104C5000C0FC04460EA803F0C5FC0EA810EE105AC6
:104C600003F0F0FC18AB10EE100A03EB840406F01E
:104C700095FECDE90201284606F090FECDE900013F
:104C8000064A54F8503C0648402103F077FB19B01F
:104C900030BD00BF10C90D000CE50320D0C50D00CC
:104CA0002CE303200000000008B50F2006F06DFC87
:104CB000B0F5C87F05DA322003F0B4FB0F2006F010
:104CC00064FC06F059FE20A3D3E9002306F0BEFEE3
:104CD00007F016F9DFED147A07EE100A67EE277A6F
:104CE00017EE900A06F05AFE104B002206F0F6FC72
:104CF0000F4B002206F0AAFE07F0BAF806F03CFEC1
:104D00000C4B002206F0A2FE0B4B002206F0C8FF5F
:104D10000A4B002206F0E4FC07F0AAF8084B1861E1
:104D2000084B01221A7008BD000080390000E03FE6
:104D300000005940000022400000144000004040A4
:104D4000F4E3032018E403206666666666660A409C
:104D500000B591B06846FFF769FB08A8FFF766FB4E
:104D6000002108A803F0FCF9134B5979A1B141F2D5
:104D7000D833ADF80630114B029341F27003ADF811
:104D80000C30009B43F4007300930021684603F04D
:104D9000E7F911B05DF804FB41F27003ADF806309D
:104DA000074B029341F21003ADF80C30009B43F423
:104DB00000730093EAE700BFC0E40320840300040B
:104DC0008403840337B51B49054605F058FE0446A5
:104DD000C0B1194D01246C71FFF7BAFF174B1C705D
:104DE000EB7813B9012003B030BD154B154A1B7881
:104DF0008DF80030144B1B7814491548FFF7D1FB90
:104E00002046F0E71349284605F039FE0028EAD08D
:104E1000094D0A4B6C7101241C70FFF799FFEB7868
:104E2000002BDFD0064B0C4A1B788DF80030064B68
:104E30001B78E1E7B4C30D00C0E40320F0E40320D5
:104E400079E30320E9C50D0078E3032016C60D00C1
:104E500078E4032022C60D0000C60D00244B1A6919
:104E6000D3ED057AFF2ABAEE087A88BF0022F4EE65
:104E7000C77A88BF1A61F1EE10FA06D4B2EE087A4A
:104E8000F4EEC77AF1EE10FA01DD1A4A5A61D3ED59
:104E9000067AF5EEC07AF1EE10FA06D4B0EE007A9A
:104EA000F4EEC77AF1EE10FA02DD4FF07E529A610D
:104EB0001A7F0C2A84BF00221A775A7F0C3A0C2AD8
:104EC00084BF18225A770C4A11681A8D8A4284BF0F
:104ED00000221A8501225A71084B988B81423FBFEC
:104EE00000219983064B1A70064B01221A707047F5
:104EF000C0E403200000A0C00CE20320F4E3032080
:104F000018E40320F0E4032010B5154CA38BB3F58F
:104F1000C05F09D11349144807F035F9BDE81040C6
:104F20001049124807F02FB994F82B30104A114855
:104F3000082103F023FA94F82C300F4A0F48082177
:104F400003F01CFA237F0E4A0748082103F016FAE3
:104F5000637F0B4A0548BDE81040082103F00EBAF4
:104F6000C0E403201BC60D001EE2032004E2032060
:104F70001CC50D002CE20320B1C40D0016E2032075
:104F80001EC60D0013B50A22006801A907F0DCF95E
:104F900017280CD8074C2077FFF7B6FF064B0120E7
:104FA0001870E3780BB1FFF7C5FB02B010BD00200D
:104FB000FBE700BFC0E40320F0E4032030B5C5B038
:104FC00000680A2203A907F0BFF918281CD8104D61
:104FD0006877FFF799FF0F4B0F4A01241C704FF4BD
:104FE00080716B7F04A803F0C9F9EB7853B10B4BC8
:104FF0000B491B788DF800300A4B0B481B7804AA2C
:10500000FFF7CFFA204600E0002045B030BD00BFDA
:10501000C0E40320F0E4032024C60D0079E303205C
:10502000D7C60D0078E3032078E4032038B50A4C96
:105030000025C4E90055A56006F011F8074B084AA1
:105040001D616423236201231370064AE06013701C
:105050006561A58338BD00BFF4E30320C0E40320ED
:1050600018E40320F0E4032030B5144D144C154926
:105070002A7820788DB00E2303FB0212009203FBE6
:105080000013114A282102A803F078F92B78237025
:105090000E4B1A7962B1DB7853B10D4B0D491B7879
:1050A0008DF800300C4B0D481B7802AAFFF779FAF7
:1050B0000B4802A9FFF747FA0DB030BDB5E4032055
:1050C00074E4032034E203203BC60D00C0E4032057
:1050D00079E3032049C60D0078E3032078E4032038
:1050E000E0E503202DE9F047224B234C1B78234AAF
:1050F0002349244886B000258DF80030224B1B78C8
:10510000FFF74FFA257103F069F810B1284603F054
:1051100085F8FFF7F3F94FF0000A054647F22F58DC
:105120004FF00009FFF7EAF9461B61EB0A07B945A2
:1051300008BFB04505D3FFF7E4F810B903F03EF817
:10514000F0E7FFF7DEF8637913B9A368462B09DCB3
:105150000E4902A805F03DFC02A8FFF7E1FB02A8FA
:1051600005F0ECFBFFF762FF094B01221A7006B055
:10517000BDE8F08779E30320C0E403205AC60D00A0
:1051800062C60D0078E4032078E30320B4C30D0069
:10519000F0E4032030B585B00D4600226946009248
:1051A00002F078FFB0B9009C0CB1236923B90A4A18
:1051B00000210A2002F046FF0023ADF806300C2340
:1051C000ADF80430042303930295236901AA012159
:1051D0002046984705B030BD157D0D0030B5264BF3
:1051E000002289B05868114603F060F808B1FFF753
:1051F0001DFDFFF759FD69460720FFF7CBFF1F4C48
:105200001F4D0028A8BF00982073FFF7EFFC10B9CE
:105210006B6901336B6169460320FFF7BBFF40BB3D
:10522000BDF8003007EE903AFBEECC7AFDEEE77A5F
:1052300017EE903A402BC4ED027A09DC237B012B58
:1052400006D16846FFF7F2F80021684602F088FFB1
:10525000A3682A6A9342B8BF2B621D2BCCBF0023E0
:105260000123084AE37101231370074A137009B040
:1052700030BDFFEE007AD9E70CE50320C0E403203F
:10528000F4E30320F0E4032018E4032070B5D0E930
:1052900000531426044606FB0356AE4204D02846AB
:1052A00005F04CFB1435F8E7206803F04FF8204672
:1052B00070BD0023022202F071BF38B503681446A6
:1052C000DD683023A847204638BD000070B5194B73
:1052D000194C01221A70E37886B053B1174B184A63
:1052E0001B788DF80030174B17491B781748FFF7CC
:1052F00058F9002516492571012602A82670A570C7
:10530000E57105F066FB02A8FFF70AFB02A805F0AD
:1053100015FB104B63614FF07E53A361064A0E48A4
:10532000667141F206533146A3832585FFF7C5FF19
:1053300006B070BD75E40320C0E4032079E30320C8
:1053400070C60D0078E3032016C60D0078E4032034
:10535000B4C30D000000A0C024E40320000000003E
:105360002DE9F0410021AAB0082006F0D1F8002173
:10537000042006F0CDF80121072006F0C9F800212D
:10538000022006F0C5F80121072006F0D2F806A891
:10539000002502F02BFF00237D220AA906A805F0B4
:1053A00080FBBB49BB4FBC4CDFF810842B462A4620
:1053B000CDE900550AA802F029FF2B460222B54983
:1053C000B64802F0EBFEB649B648FFF772FFB649A1
:1053D000B648FEF7A3FFB649B648FFF76AFF2B466B
:1053E0000222B549B54802F0D9FEB549B548FEF7E5
:1053F00095FFB549B548FFF75CFFB549B548FEF7DD
:105400008DFFB549B548FEF789FFB549B548FEF7A8
:1054100085FF2B460222B449B44802F0BFFEB449CE
:10542000B448FEF77BFF0C23CDE90355ADF80C30F3
:10543000B14BB2490593042203ABB14802F0AEFE72
:10544000B049B148FEF76AFFB049B148FEF766FFC0
:10545000B049B148FFF756F8B049B148FFF752F8E4
:10546000B049B148FFF74EF8B049B148FFF74AF8E4
:10547000B049B148FFF746F8B049B148FFF742F8E4
:10548000B049B148FFF73EF8B049B148FFF73AF8E4
:10549000B049B148FFF736F8B049B148FFF732F8E4
:1054A000B049B148FFF72EF8B049B148FFF72AF8E4
:1054B000B049B148FFF726F80126032241F28833AC
:1054C00003A8CDE90323ADF8146003F0A6F9AB48B7
:1054D00001F034FE3346A9480DF10B02294601F0D4
:1054E0006FFE9DF80B30032B00F07781A34801F08D
:1054F0002FFEA34AA1480423294601F0ACFE3346FF
:105500009E480DF10B02294601F05AFE9DF80B3022
:10551000032B00F05F819B499B4888F80060FFF7F0
:1055200012F89A4DFFF79AFCFFF7EEFC984A002319
:1055300000214FF4802002F0CFFD082301212846EE
:105540006B8101F0ADFC01231A461021284601F0C1
:1055500012FA7C21A070284601F08AF994ED060A1F
:1055600005F034FC00F0BCFF002800F0438105F09A
:105570004BFC94ED050A05F009FC05F0B5FD054668
:1055800005F06DFD281A06F0F7F93FA3D3E90023D3
:1055900006F086FB7F4ACDE900010A21544802F05B
:1055A000EDFE032202217C4801F0F2FF94F82B105B
:1055B000794801F091FF94F82C3078484FF47A71D3
:1055C0006FF000425943FEF7A3FFA3791022002B8E
:1055D00000F0138172493E4806F015FE0022114684
:1055E00003A8039202F07EFB039B142B4FF00002F2
:1055F00040F005812369013323616A4B01221A704F
:105600003B68694D002B00F00481FB682B60FFF7BD
:105610009FFB042005F0A6FF08B9FFF757FE05F031
:1056200047FD00210546F86805F094FB854201D04E
:10563000FFF7FCFC05F024FD237F98421BDB05F0FF
:105640001FFD637F984216DA0023009357494FF0FD
:10565000FF330122022003F017FDE37833B102F09B
:10566000BDFD18B9524BE07001221A70FFF7B6FD6C
:10567000504B514A1A6098F80030002B40F0A0803F
:10568000022388F800309BE0000000000020AC40BE
:10569000BD450D00F4E30320C0E4032088C60D00DF
:1056A000FCE3032000C70D002CE3032094C60D008B
:1056B000D0E403209BC60D0004E40320A6C60D0021
:1056C00010E20320B2C60D00C8E40320BAC60D00E4
:1056D00064E40320C5C60D001EE203206DC70D0063
:1056E00004E20320D2C60D0008E40320DCC60D004E
:1056F00019E40320E3C60D0025430D0005410D000C
:10570000EEC60D002CE2032084C70D0016E2032034
:1057100094C70D0081470D00FDC60D00A1420D008C
:105720000BC70D005D460D0017C70D00ED410D00C4
:1057300021C70D0021490D0029C70D00C54D0D00E1
:1057400036C70D00A5460D0041C70D00B9630D0019
:105750004EC70D0021650D005BC70D00854F0D0084
:1057600069C70D00BD4F0D0076C70D00F9470D004C
:1057700080C70D0089480D0090C70D0024E4032068
:1057800038C90D009DC70D00E0E5032088E3032024
:10579000D5400D00ADC70D00A8E30320D8E30320DA
:1057A000F8C40D00F0E403203CE4032055410D0053
:1057B00075E40320B8E40320905F0100B5E4032002
:1057C0000021072005F0B5FE06A805F0B7F82AB0BD
:1057D000BDE8F081FFF77AFDA3E62246314630238B
:1057E0000E4801F0EDFC24233A4650210B4801F00D
:1057F000E7FC96E605F014FBBBE60949EBE611462B
:1058000003A8039202F06EFA039B8C2B7FF4F8AE90
:10581000F0E605F024FC2860F9E600BF24E403204C
:10582000F4C40D008842F8B504460D46164616D954
:10583000904215D2A2F11406751AA1F114072C4456
:10584000B7421CD02CB13146204605F0F3F8337C2A
:105850002374304605F072F8143E143CF0E70ED085
:10586000B5420CD02CB12946204605F0E3F82B7C3C
:105870002374284605F062F814351434F0E7F8BDB7
:105880002DE9F0410023C0E9003383604F689F4257
:1058900004460E4623DD4FF0140808FB07F002F023
:1058A0004DFD0546D8B1D4E9001208FB0212FFF7FE
:1058B000B9FF206802F04AFD2560A760D6E90073B1
:1058C00008FB0378B84508D03946284605F0CCF8DF
:1058D0003B7C2B7414371435F4E7736863602046FF
:1058E000BDE8F0812DE9F04F784B794D794E4FF0BE
:1058F000010983F80090784B082291B01A7005F0E6
:10590000B1FD00231A460D2105F0B4FD05F0AAFDF6
:1059100000231A46032105F0B5FD704B00246422D4
:105920009C831A626E4BAB602C60AC80AC71022021
:1059300002F0C2FB32466B49284605F0BDFE214607
:10594000484602F0D1FB4946042002F0C3F96648FC
:105950006649A0F809400346021D43F8092B9C70D4
:10596000634B43603246C0E9034480F814900472EC
:1059700005F0A2FE05F050FE5E4D014623464FF4B1
:105980000052284601F0D0FB5B4B2B6028465B4D54
:105990005B49324605F090FE5A494FF400622846B2
:1059A00001F0EAFF584B2B6032465849284605F073
:1059B00083FE05F031FE564D01466922284600F06F
:1059C00059FE2846534D5449324605F075FE21468E
:1059D000284603F0F1F932465049284605F06CFE9E
:1059E0001D214F484F4D01F0D3FCCDE903440594F0
:1059F00005F07CFC0DF12408824603A906A8FFF7F8
:105A00003FFFAB4606A94046FFF73AFF464B4BF82F
:105A1000043B0CAF41463846FFF732FF3A46494651
:105A2000584604F06BFA3846FFF730FC4046FFF763
:105A30002DFC3E4B2B60C5F820A006A8FFF726FCE6
:105A40003B4B2B6005F052FC4FF4165105F03EFC29
:105A500003F0FCFE294604F0E3F903A8FFF716FC67
:105A600032463449284605F027FE334B0C93334D1C
:105A7000334B2B6097E8030005F10C0388E8030023
:105A800093E8030087E8030098E8030083E8030035
:105A90002C4B6B61AB690F932B4BAB612B4A2C7179
:105AA0002B46AC604FF47A71CDE9009405F1080003
:105AB0000E9402F09FF83846FEF77AFC24493246ED
:105AC000284605F0F9FD11B0BDE8F08F78E303201A
:105AD0006CE3032020E3032079E30320F4E30320B5
:105AE0000000FFFFF7420D00C0E30320D5410D0089
:105AF0001000030024E40320D4C80D0078E4032040
:105B00003D420D0000F40320F0C80D0015420D00C9
:105B100088E3032034E4032035660D00D98D0D00A1
:105B2000A8E3032040E40320A4C80D00ACCE0D0080
:105B3000BCC80D005D430D00FB400D00D8E3032001
:105B400090C80D00E5400D00E1400D0065420D00DC
:105B5000C5430D002DE9F04F85B04FF0000A01A8B4
:105B6000CDE901AAADF80CA002F03DFEFEF7C6FC9F
:105B700043F6972883464FF00009FEF7BFFCB0EBD1
:105B80000B0661EB0A07B94508BFB04505D302F023
:105B900025FB10B902F012FBEFE702F01FFB2148D2
:105BA000DFF880A0FEF7FEFBFEF7A8FC4FF000092F
:105BB000804647F22F560027FEF7A0FCB0EB080402
:105BC00061EB0905AF4208BFA64206D3504604F078
:105BD000D5FC10B902F0F2FAEEE7124804F0CEFC60
:105BE0001148002100F044FE104B1A7D0AB1022238
:105BF0001A72002204210D48FEF722FC42F21071B5
:105C0000FEF752FC094901A804F0D6FF01A8FEF7EF
:105C100069FB4FF0FF31044800F02AFE05B0BDE8F3
:105C2000F08F00BF0CE5032088E30320C0E30320CE
:105C30002DE9F04F85B04FF0000A01A8CDE901AA87
:105C4000ADF80CA002F0CFFDFEF758FC43F6972804
:105C500083464FF00009FEF751FCB0EB0B0661EBF9
:105C60000A07B94508BFB04505D302F0B7FA10B12D
:105C700002F0A4FAEFE7184E02F0B0FA0022022177
:105C8000706802F00BFB3046FEF78CFBFEF736FC2B
:105C90004FF0000A074647F22F584FF00009FEF771
:105CA0002DFCC41B61EB0A05A94508BFA04506D31E
:105CB000304604F063FC10B902F080FAEFE70648C2
:105CC00004F05CFC054B0022DA70054B01201870D3
:105CD00005B0BDE8F08F00BF0CE50320C0E4032051
:105CE000F0E403202DE9F043B04CDFF82083237863
:105CF000AF4FB04E013B97B0062B00F2B680DFE805
:105D000013F0810207003B00F200950116025102D8
:105D1000A94B1B78022B01D0FFF7A6F9A74DAB7951
:105D200053B101F0FFFFA64B1B68C01AA54B1B68BF
:105D3000984284BF0423237005F0A2F9A24B814648
:105D40000021186804F0FEFF81451CBF0623237064
:105D500005F096F96B7F984208DB032323709B4B79
:105D60001B78002B00F08180052312E005F088F9F4
:105D70002B7F9842F1DBF2E78F4B1B78032B01D08E
:105D8000FFF772F9022003F0A9F9914B1B6813B1D8
:105D90000623237069E0894BDA7899460AB1FFF748
:105DA00047FF00218B4800F063FD05F058F94FF4E0
:105DB000616590FBF5F303FB1505874BC5F5616540
:105DC0001A7DB5F5616FA8BF4FF461650AB1022273
:105DD0001A72002204218048FEF732FB4FF47A71D8
:105DE0006943FEF761FB7C4903A804F0E5FE4FF030
:105DF000FF31784800F03CFD784803F077F87748A9
:105E000003F06BF8039B9BB19A88012A10D19B8900
:105E1000042B0DD1724906A804F0DBFD06A8FEF79D
:105E20007FFD06A804F08AFD4FF4C053A9F81C308A
:105E300005F026F999F81D30984211DA05F020F99D
:105E400099F81C3098420BDB0023009301224FF09D
:105E5000FF336449022003F017F95A4B624A1A6073
:105E6000022303A82370FEF73DFA98F800300BB127
:105E7000FEF7BEFD574801F0F3F83B7833B14F4AC7
:105E80005A480121FFF719FA00233B7033783BB1E0
:105E900024234F4A5548502101F0DDF90023337087
:105EA000534B1B68002B1BDB524A402106A802F013
:105EB00065FA06A95048FEF746FB642002F0B2FAE4
:105EC00000238DF800304D4B4D491B784D4806AAF4
:105ED000FEF767FB4FF4FA6002F0A4FA04F068FEE4
:105EE00017B0BDE8F083344B1B78042B01D0FFF7CB
:105EF000BBF898F80030002BB7D14348FEF719FBE8
:105F00000028B2D12D4BDB780BB1FFF791FE2D4B62
:105F100030484FF47A7200211A6000F0A9FC05F0B5
:105F20009EF84FF4616590FBF5F303FB15052A4BD2
:105F3000C5F561651A7DB5F5616FA8BF4FF4616560
:105F40000AB102221A72002204212348FEF778FACD
:105F500001220221FEF774FA4FF47A716943FEF7C9
:105F6000A3FA98F80030002B7FF47FAF1A4903A8FA
:105F700004F022FE4FF0FF31164800F079FC17487C
:105F800002F0B4FF154802F0A8FF039B002B3FF47A
:105F900067AF9A88012A7FF463AF9B89022B37D1C0
:105FA00001F0C0FE064B18605AE700BFB5E40320BD
:105FB000F0E4032018E4032074E40320C0E4032089
:105FC000BCE40320B8E403203CE4032075E4032090
:105FD000F4E3032088E30320C0E3032034E4032038
:105FE00022C60D0055410D00905F010024E40320FE
:105FF00028E2032060C80D00E0E5032078E30320D9
:106000007FC80D0078E40320D8E30320B4E4032024
:10601000042B7FF425AFA34906A804F0DAFC06A8F8
:10602000FEF77EFC06A804F089FC19E79E4B1B785E
:10603000052B13D09A1F534253419C4A1370FFF70C
:1060400013F805F00CF89A4B18609A480023406842
:106050001A46194602F032F902F0B8F802F0BEF81A
:10606000DFF880920546002841D0934D002389F83F
:1060700000300123EB7004F0F2FF686299F8003001
:10608000002B7FF4F2AE04F0EAFF894B8A4D1B68C7
:106090008A4AC01A8A4B918B1B6880B29842288525
:1060A00088BF2B852B8D994238BF93832021854A49
:1060B00006A802F063F9844806A9FEF744FA2B7992
:1060C0004BB100238DF80030804B81491B7881480B
:1060D00006AAFEF766FA01233B703370EB7823B112
:1060E000724B1B78002B7FF453AE022351E604F071
:1060F000B6FF6F4B1B68C01A714B1B689842BDD925
:1061000089F8005004F0ABFF6B4B5A6A801AB0F567
:10611000E15F06D90123237001F004FE6E4B186085
:10612000A3E66E496848DD70FEF70DFAA6E75E4B00
:106130001B78062B01D0FEF797FF04F090FF5E4D11
:10614000674B1860EB78A9461BB9664B01221A70A1
:106150000AE6AB79B3B104F093FF99F81C3098428A
:106160001DD1FEF7BFFF04F08BFF99F81C30984259
:1061700002D108B9FEF7F2FC01F0D4FD5A4B1860C9
:10618000072306E6FFF72AF8EB78002BE3D1574BFD
:10619000574A1A6001F0C6FD564B1860A5E7FEF796
:1061A000DDFCE0E7404B1B78072B01D0FEF75CFFDE
:1061B000514B1D78B5B94D4B4D4A1A6001F0B2FDF7
:1061C0004C4B1860022323703C4B596800293FF464
:1061D0004CAE1A685D60521AC3E905551A60012376
:1061E000337042E601F09EFD3F4B1B68C01A47F238
:1061F000305398427FF639AE01F094FD364B18606B
:106200000123C6E5284B1B78012B01D0FEF72CFF9C
:1062100001F088FD304B1B6803F5EA4330338342BD
:10622000BFF423AE244D04F01AFF6B6AC01AB0F518
:10623000E15F2C4613D904F012FFA0F5616068629B
:106240002A4601212D48FFF738F81F482C49FEF750
:1062500091F9642002F0E6F8FFF77CFC05E604F013
:10626000FEFE2B6AC01AB0F5E15FEB7850D953B14E
:10627000244B254A1B788DF80030144B23491B789A
:106280001448FEF78EF94FF4FA6002F0CBF80023C1
:10629000236104F0E4FE0123A0F5616020623B70FD
:1062A000DAE700BF22C60D0074E4032081E3032077
:1062B00084E303200CE50320C0E40320F4E303207F
:1062C0000CE20320D5C70D00E0E5032078E30320AE
:1062D000EAC70D0078E40320B0E40320B7C70D003F
:1062E0003CE4032075E40320F4E40320B8E4032035
:1062F000905F0100BCE4032023E4032024E4032096
:10630000F3C70D0079E3032020C80D003FC80D003E
:106310002A69032A12DC53B1164B174A1B788DF8F1
:106320000030164B16491B781648FEF73AF94FF421
:10633000FA6002F077F804F03BFC96E553B10D4BA0
:10634000114A1B788DF800300C4B0D491B780D4815
:10635000FEF727F94FF4FA6002F064F800230B4AC5
:106360000B4823610121FEF7A8FF1E21094800F018
:10637000D9FB7AE579E3032045C80D0078E30320D3
:106380003FC80D0078E4032020C80D00C0E40320BE
:1063900024E4032088E3032008B5002001F046FF31
:1063A00028B101F01BFF80F00100C0B208BD012040
:1063B000FCE70000000000002DE9F047C8B080466F
:1063C00001F00CFF10B1002001F028FF002001F0C7
:1063D000B9FC4FF0000A814647F22F5600270020F3
:1063E00001F0B0FCB0EB090461EB0A05AF4208BF55
:1063F000A64205D3FFF7D0FF10B901F0DFFEEEE7AC
:10640000FFF7CAFFD8F800000A2203A905F09CFF95
:1064100000F10C03DBB2182B48D845B207EE905AB6
:10642000274BB8EEE70A012483ED050A04F0AEFC21
:10643000244B1C7004F058FE064604F010FE301A7F
:1064400005F09AFA1CA3D3E9002305F029FC1E4AA3
:10645000CDE900010A211D4801F090FF01F0BEFEC8
:1064600010B32B461A4A1B4D4FF48071002608A822
:1064700001F084FF8DF8006017492B78174808AAAF
:10648000FEF78FF804F0EBFD0246C31704A804F0F2
:10649000E3FC8DF800602B78049A0F490F48FEF753
:1064A00080F804A804F04AFA204600E0002048B032
:1064B000BDE8F087AFF30080000000000020AC4092
:1064C000C0E40320F0E40320ADC70D0019E403206D
:1064D0003CC90D00F8E40320D7C60D0078E4032082
:1064E00038B504F0E5FD054604F0F6FD044604F079
:1064F000EBFD231F062B0ED9E31E082B0DD8013808
:106500002D1A04D50B2C14BF0020012038BD072DF7
:1065100003DD032CF7E70120F8E70020F6E7000091
:1065200070B52DED028BC8B0054604F098FD0A2227
:10653000044603A9286805F007FFC3B2022B59D807
:1065400043B208EE103AB8EEC88AB0EE480A04F03A
:106550003DFC2D4B83ED068A2C4B01221A7018EE60
:10656000100A05F01BFA2A4ACDE900014FF48071A8
:1065700008A801F003FF04F055FD28B1FFF7B0FFB4
:10658000002834D004F040FC04F0AEFD054604F0D1
:1065900066FD281A05F0F0F919A3D3E9002305F0E8
:1065A0007FFB1C4ACDE900010A211B4801F0E6FEF1
:1065B00001F014FEC8B1194D19491A4800268DF88A
:1065C00000602B7808AAFDF7ECFF2246E31704A829
:1065D00004F042FC8DF800602B78049A10491148B1
:1065E000FDF7DFFF04A804F0A9F9012003E004F09F
:1065F00017FCC9E7002048B0BDEC028B70BD00BF9E
:10660000000000000020AC40C0E40320F0E40320C0
:1066100050C90D00ADC70D0019E40320F8E40320B4
:10662000D7C60D0078E40320014B01221A70704791
:10663000F8E40320704710B52021044605F041F826
:10664000204610BD0EB410B58DB00FAA016852F8E7
:10665000044B039200232020CDE90403CDE900423E
:10666000012004AA01F0FEFC0DB0BDE8104003B00B
:106670007047000010B50272FF2242810022C0E97B
:10668000032242610276C261024A034C1060C0E9F3
:10669000004110BD00E50320B0CB0D002DE9F8430B
:1066A0009DF820800446894616461F46B8F1000F23
:1066B00002D0406802F0D4FC217A606802F0AAFCA3
:1066C0006068036849469B6898476068002102F04B
:1066D000C0FC054600BB0123217A60683A4602F0FF
:1066E00084FC8742034609D13744BE421CD060680F
:1066F00003685B69984706F8010BF6E70B490C48FD
:106700004A46FDF737FFB8F1000F02D0606802F08B
:10671000B0FC2846BDE8F8830346064904484A46CB
:10672000FDF728FF0025EEE70125ECE761C90D0024
:10673000FCE4032086C90D0007B500930123FFF791
:10674000ADFF03B05DF804FB73B54389FF2B04462E
:1067500010D0194E194D01F0E5FAB0F57A7F09D243
:10676000608904F0FFFE012804D031462846FDF779
:10677000EAFEF0E701230DF1070228212046FFF78A
:10678000DBFF30B90D480E49FDF7DDFE002002B0F9
:1067900070BD9DF80730182BF4D101230DF10702CD
:1067A00029212046FFF7C8FF0028EBD09DF80730CD
:1067B000052BE7D1EBE700BFAAC90D00FCE40320DD
:1067C000BFC90D0007B5134600228DF807200DF153
:1067D0000702FFF7B1FF9DF8070003B05DF804FB67
:1067E0002DE9F0419DF8188004460F4615461E46D7
:1067F000B8F1000F02D0406802F032FC217A6068E4
:1068000002F008FC6068036839469B6898472E448C
:10681000B542606805D0036815F8011B9B6898476E
:10682000F6E7012102F015FC034670B1084909485A
:106830003A46FDF79FFE0025B8F1000F02D06068D0
:1068400002F017FC2846BDE8F0810125F4E700BFFF
:10685000CCC90D00FCE403201FB58DF80F20009378
:106860000DF10F020123FFF7BBFF05B05DF804FB3C
:10687000F8B50A460C4605461A491B48FDF763FE63
:10688000002CB8BFEC687CB9012322461B212846A6
:10689000FFF7E2FF1549024606461348FFF7D2FE0E
:1068A000EC606C613046F8BD032C19DDA7101F2F7A
:1068B000A8BF1F27BA0062F07C020123D2B21B21BD
:1068C0002846FFF7C9FF3A460346094906460648E7
:1068D000FFF7B8FE4FF4FA635F43EC606F61E1E7E6
:1068E0000127E7E7F1C90D00FCE40320FBC90D0017
:1068F00017CA0D000B4607490246086848B1002B2D
:1069000008BFB2F5006F04D1C36813B10021FFF7CF
:10691000AFBF704700E503202DE9FF419DF82880B7
:10692000054616461F46B8F1000F04D04068019195
:1069300002F096FB0199019100230DF10F02284608
:10694000FFF7FAFE044660B19DF80F3003EA060235
:106950003A43934205D0019900232846FFF77CFF74
:106960000446B8F1000F02D0686802F082FB2046AE
:1069700004B0BDE8F08113B514460DF10702FFF72E
:10698000DBFE28B19DF807301C420CBF012000201F
:1069900002B010BD13B514460DF10702FFF7CCFE8F
:1069A00028B19DF807301C4214BF0120002002B01E
:1069B00010BD07B5D2430093D2B20023FFF7ACFF5E
:1069C00003B05DF804FB000037B501230DF10702A9
:1069D0000F210446FFF7B0FE054638B91E491F488F
:1069E000AD22FDF7C7FD284603B030BD9DF8073046
:1069F00013F0200F4FF001030BD02022E3610F2191
:106A00002046FFF7D6FF164A16491448FDF79BFDAE
:106A1000E9E7082217212046FFF7BCFF18B102233F
:106A2000114AE361F0E79DF807301A0709D50323FF
:106A3000E361082201230F212046FFF7BAFF0B4A2A
:106A4000E2E75B07CFD50422E26101230F21204654
:106A5000FFF7AFFF064AD7E76ACA0D00FCE4032040
:106A60003BCA0D0089CA0D0044CA0D0054CA0D006E
:106A700064CA0D0007B500931346FF22FFF74CFFD1
:106A800003B05DF804FB0000F8B50F46164601237D
:106A900000220F210546FFF7DFFE044638B94FF408
:106AA00025721E491E48FDF765FD2046F8BD0123ED
:106AB000232218212846FFF7CFFE044610B940F2E2
:106AC0009B22EEE7FF2FA8BFFF27012FB8BF0127AA
:106AD0000123FAB219212846FFF7BEFE044610B979
:106AE0004FF42A72DDE70123082212212846FFF71E
:106AF000C1FF044610B940F2AF22D2E7002E4FF09A
:106B0000010314BF8322822218212846FFF7A4FE26
:106B100004460028C9D140F2B922C2E79ACA0D0042
:106B2000FCE403202DE9F7430A4605460F464F488B
:106B30004F49FDF708FD00212846FFF799FE04465E
:106B400048B940F2F7124B494848FDF713FD20467B
:106B500003B0BDE8F08301231A4630212846FFF731
:106B600089FF044610B940F20522ECE71022012308
:106B700011462846FFF71DFF044610B94FF4037273
:106B8000E1E70123262213212846FFF765FE04468C
:106B900010B940F21322D6E7012600963346FC22B4
:106BA00011212846FFF7B8FE044610B940F21B2217
:106BB000C9E7002239462846FFF766FF044610B9A8
:106BC00040F22222BFE700960223772210212846B6
:106BD000FFF7A2FE044610B940F22B22B3E733467A
:106BE00004221C212846FFF745FF044610B940F255
:106BF0003222A8E700961823E32211212846FFF746
:106C00008BFE044610B940F239229CE73346C0227D
:106C100017212846FFF720FE044610B94FF41072E2
:106C200091E701F07FF8DFF85490DFF840804FF4EF
:106C30007A7106464F4301F075F8801BB8420ED2B8
:106C4000012217212846FFF7BDFD4946024640466E
:106C5000FDF779FC4FF47A7001F0E4FBEBE70649AD
:106C60000248FDF787FC03F0A3FF70E7FCE4032074
:106C7000C5CA0D00BACA0D00EBCA0D00D6CA0D0078
:106C80002DE9F3479DF828A005460C4691461F467E
:106C9000BAF1000F02D0406802F0E2F907B3202FEA
:106CA0003E4628BF20267F2C26D83319802B01D9B9
:106CB000C4F18006012304223F212846FFF779FE14
:106CC000002364F07F0100934A463346C9B2284648
:106CD000FFF7E4FC804628B13444BF1BB144DDE734
:106CE0004FF00108BAF1000F02D0686802F0C1F954
:106CF000404602B0BDE8F087012304223F21284628
:106D0000FFF7B8FEDCE72DE9F3479DF828A005461C
:106D10000C4691461F46BAF1000F02D0406802F0BF
:106D20009FF907B31F2F3E4628BF1F267F2C26D86A
:106D30003319802B01D9C4F18006012304223F219D
:106D40002846FFF736FE002364F07F0100934A4691
:106D50003346C9B22846FFF743FD804628B1344484
:106D6000BF1BB144DDE74FF00108BAF1000F02D0BC
:106D7000686802F07EF9404602B0BDE8F087012362
:106D800004223F212846FFF775FEDCE730B585B0C9
:106D90000D68D1E9043203954D6802958D6801951F
:106DA000C96800910133044902F26C72044603F091
:106DB00091FE204605B030BDFDCA0D0003110A2228
:106DC00000F00F0002FB0300704738B5044600785E
:106DD0001546FFF7F3FF08606078FFF7EFFF4860A4
:106DE000A078FFF7EBFF8860E078FFF7E7FFC86067
:106DF0002079FFF7E3FF013808612DB9651D287878
:106E0000FFF7DCFF886138BD6079FFF7D7FF64309A
:106E1000A51D4861F3E7000070B5012388B00D4659
:106E20001A4610210446FFF7A6FDF0B108230126FB
:106E3000204600960DEB03020021FFF72FFC0446CD
:106E400098B1324629460DF10900FFF7BEFF04A8AC
:106E5000FFF79CFF0848049A0849FDF774FB04A853
:106E600003F06CFD204608B070BD242200212846A6
:106E700005F03CF90024F5E7FCE403201BCB0D00F2
:106E800030B58BB00D4601A9FFF7C6FF044620B10F
:106E900001A801F0B3FAC5E9000120460BB030BDEE
:106EA00010B5044688B011B1406802F081F8204660
:106EB000FFF74AFC70B32046FFF786FD01231A4610
:106EC00010212046FFF757FDD8B104F0ABF8C0B948
:106ED00002A92046FFF7D4FFDDE9020103F0A8FF75
:106EE0000F4B10491B68009304A8DDE9022304F04E
:106EF00057F80D48049A0D49FDF725FB04A803F047
:106F00001DFD0B4A002300214FF4006001F0E4F85E
:106F100008B010BD07490448FDF72CFBF1E700BF9E
:106F2000ACE2032034E60320FCE4032029CB0D006F
:106F3000F5680D0046CB0D000A2290FBF2F302FB30
:106F4000130093FBF2F102FB113140EA0110C0B2D1
:106F5000704770B5054600680C461646FFF7ECFF13
:106F600020706868FFF7E8FF6070A868FFF7E4FF2B
:106F7000A070E868FFF7E0FFE07028690130FFF7D4
:106F8000DBFF20712EB9661DA869FFF7D5FF3070B1
:106F900070BD6A69642392FBF3F003FB1020FFF7D6
:106FA000CBFFA61D6071EFE7F0B587B0054602A8DC
:106FB00016460C46FFF7EAFE1E48029A1E49FDF7E8
:106FC000C2FA02A803F0BAFC16B1686802F048F8E9
:106FD000204601220DF1090100278DF80870FFF706
:106FE000B8FF01231A4610212846FFF743FD044647
:106FF000E8B1082300970DEB030239462846FFF756
:10700000EFFB044660B101231A4610212846FFF722
:10701000D0FC16B1686802F02CF8204607B0F0BD2D
:107020004FF48D7205490348FDF7A4FAF1E74FF4D8
:107030008F72F7E7FCE403205ECB0D006CCB0D00F4
:1070400013B504466846CDE9002305F015F89DF810
:10705000102001462046FFF7A7FF02B010BD000038
:10706000F0B5057E89B0044675BB03F0DBFF58B36D
:107070000026002704A92846CDE9046701F0DEF8C0
:1070800010B30125257603F0EAFF00950246C317E9
:107090002046CDE90223FFF7D3FF02A92046CDE920
:1070A0000267FFF7EDFE124B12491B68009304A81C
:1070B000DDE9022303F074FF0F48049A0F49FDF73E
:1070C00042FA04A803F03AFC636973B100F02AFEA7
:1070D0002369C01A6369984207D300F023FE4FF07A
:1070E000FF3120612046FFF7C3FB09B0F0BD00BFB0
:1070F000ACE2032034E60320FCE4032087CB0D0040
:10710000014B024A1A607047FCE403209DCB0D003E
:10711000704710B51021044604F0D3FA204610BD84
:107120000368C9B29B68184730B5034DC0E9022314
:10713000C0E9005130BD00BFF4CB0D00406801F044
:1071400037BF10B50446006801F093FF204610BD1C
:107150002DE9F0418AB004464068019001F080FFBB
:107160001E22002102A8A76804F0C0FF0026EFB18C
:1071700023681E2FB84628BF4FF01E08DD6802AAFC
:10718000434631462046A847054658B90A480B49A8
:107190003246FDF7D8F901A8FFF7D3FF28460AB019
:1071A000BDE8F081A7EB08074644E0E701A8FFF738
:1071B000C8FF0125F2E700BFE0E50320C0CB0D00CA
:1071C0002DE9F7430446406801900D4616461F46D8
:1071D00001F046FFA7B1E168606841F0500101F09D
:1071E0001DFF290A6068FFF79BFF29466068FFF7CB
:1071F00097FF6068002101F02CFF48B1002400E0F7
:10720000012401A8FFF79DFF204603B0BDE8F083ED
:10721000202F217B6068B84628BF4FF0200801234B
:10722000424641F0500101F0E0FE04F0F5F9036838
:107230001B6998474045E1DB06EB080904F0ECF9CF
:1072400003685B69984706F8010B4E45F6D1454443
:10725000A7EB0807BEE72DE9F74F04464068019009
:107260000E4690461D4601F0FBFE4FF00109B9F1B4
:10727000000F2AD04DB3E168606841F0500101F081
:10728000CDFE310A6068FFF74BFF60683146FFF7BB
:1072900047FFA5F11E0A4746A6EB080B606817F8E2
:1072A000011B0368013D9B68984755450BEB07069A
:1072B000B84601D0002DF1D16068012101F0C9FE6E
:1072C0000028D7D04FF00009D1E701A8FFF739FF18
:1072D000484603B0BDE8F08F2DE9F0438BB00E4671
:1072E00015468046406801901C4601F0B9FEAE424A
:1072F00029D2264425448CB11E2C2746D8F80030CC
:1073000028BF1E27F61BD3F8089002AA3B46314639
:107310004046ED1BC84748B9002400E0012401A8FD
:10732000FFF70FFF20460BB0BDE8F083D8F8003020
:1073300002AAD3F80C9029463B464046C84700288D
:10734000EAD0E41BD7E7E9D9002CE7D0D8F8003021
:107350001E2C274628BF1E27D3F8089002AA3B46BA
:1073600031464046C8470028D6D0D8F8003002AA97
:10737000D3F80C9029463B464046C8470028CBD05E
:107380003E443D44E41BDFE70368C9B29B681847ED
:1073900001757047F8B507460C4615461E4604F0C1
:1073A0003BF9397D01F036FE04F036F92146FFF74E
:1073B000EBFF0024A64207DD04F02EF90368295DE7
:1073C0009B6898470134F5E704F026F9BDE8F840DA
:1073D00001F043BE07B501238DF807200DF1070228
:1073E000FFF7D8FF03B05DF804FB38B504460D463F
:1073F00004F012F9217D01F00DFE04F00DF929468B
:10740000FFF7C2FF04F008F9002101F022FE08B1E5
:10741000002038BD04F000F9217D012201F0F7FDC4
:107420000128F5D104F0F8F803685B699847C0B209
:10743000EFE738B50D460E210446FFF7D6FF20F0E2
:10744000030242EA95022046D2B2BDE838400E213E
:10745000FFF7C0BF38B50D462A210446FFF7C5FF28
:1074600020F0300242EAC5022046D2B2BDE83840E0
:107470002A21FFF7AFBF2221FFF7B7BF10B51121B7
:107480000446FFF7B2FF40F04000C2B2112120468F
:10749000FFF7A0FF20465022BDE810401221FFF761
:1074A00099BF10B52A210446FFF79FFF2A2100F05B
:1074B000FE022046BDE81040FFF78CBF10B52A2120
:1074C0000446FFF792FF40F00100C2B22A21204695
:1074D000BDE81040FFF77EBF37B5044600294FD006
:1074E0000A29A8BF0A21084604F046FA26A3D3E9D0
:1074F000002304F0ABFA04F0E3FC01211023009117
:107500007F22C0B200F082FFC5B22046FFF7C9FF5C
:10751000204655222121FFF75DFF2A4620462321E0
:10752000FFF758FF2A4620462421FFF753FF2A463B
:1075300020462521FFF74EFF2046FF222621FFF798
:1075400049FF204664222721FFF744FF2046FF22FF
:107550002821FFF73FFF204602222C21FFF73AFFA8
:10756000204608222D21FFF735FF204608222E2134
:10757000FFF730FF204603B0BDE83040FFF79EBF65
:107580000120B1E7AFF30080666666666666294053
:1075900038B541751546044604F03EF801F008FD83
:1075A0000D212046FFF721FF2A2812D12046FFF7A0
:1075B00078FF617D2046FFF73CFF29462046FFF714
:1075C00049FF2046FFF75AFF2046FFF777FF0120CB
:1075D00038BD0020FCE7012A034602D101600020EB
:1075E0007047022A04BFD1E90001C3E90001F6E7B0
:1075F00010B5012303748368044643B1C0689847FB
:10760000012363740020BDE8104000F053BB006804
:107610000028F5D083680BB904F059F8C368EEE789
:1076200010B442680346541001EB6200D20748BF11
:107630000A591B685DF8044B48BFD358184700002F
:107640000123F7B580F829300646083000F0F2FA39
:107650000420FCF720FD054698B31B49142004F0D4
:1076600032F830B10023C0E90033C0E902330374BB
:1076700043742860A0B1154B1549C0E902364FF498
:107680000063CDE900030222124B043000F09AFAA5
:1076900030B92B681B7CA3B9012000F033FBF8E75D
:1076A0002C6800232B6064B1276837B13846FCF79B
:1076B0007FFE1021384604F004F81421204604F01F
:1076C00000F8756003B0F0BDF8CF0D00DF780D0055
:1076D00008CC0D00F1750D0047F23051084AC16029
:1076E000084902600022C0E904120749C161074944
:1076F0004260C0E908228161028580F82A20704733
:10770000CCCC0D00497A0D0021760D00D7750D0007
:1077100010B5044B044640F8103BFCF749FE2046E8
:1077200010BD00BFCCCC0D0010B5034B0360044668
:10773000FFF7EEFF204610BDF4CC0D0010B5044657
:10774000FFF7F2FF2046382103F0BBFF204610BDB3
:10775000806800F077BA806800F07CBA10B5044603
:107760000068FFF7F8FF204610BD13B504460190EE
:10777000FFF7EEFFE36ADC88A4B20CB103F1080462
:1077800001A8FFF7EBFF204602B010BD13B5044679
:107790000190FFF7DDFF94F8283043B9E26A012435
:1077A000D38001A8FFF7DAFF204602B010BD002405
:1077B000F7E713B504460190FFF7CAFFE36A01A893
:1077C000DC88FFF7CBFF204602B010BD2DE9F04763
:1077D000994686B090F829309DF838A09DF83C80F5
:1077E00004460F46164613B903689B689847314B09
:1077F0003846002E08BF1E4604F0EBFC0546304616
:1078000004F0E7FC284400F10A05AB071CBF25F093
:10781000030504353346CDE90285CDE9009A2649B2
:1078200026483A46FCF78FFE238E083BAB4212D225
:107830000024204606B0BDE8F087CB88012B36D067
:1078400005A8FFF78BFF236894F828109B69204652
:1078500098470028ECD020460594FFF779FFE16AAD
:10786000228E636B0A44D21AAA42E6D348EA0A0877
:1078700083F80480C3F80090636B03F1080839466D
:10788000404604F080FC404604F0A3FC0130314641
:10789000404404F078FC636BE26A1D446563D3885E
:1078A0000133D380012405A8FFF758FFC1E7002466
:1078B000F9E700BF75CE0D001ACC0D0004E50320DA
:1078C00008B5044600F11005A3690BB903F0FFFEEB
:1078D000E36921462846984700F07CF9F4E708B5AB
:1078E000FFF7EEFF68B501F108050646284604F0EB
:1078F00070FC01300544284604F06BFCF36A01304B
:107900002844C31A13F003031CBFC3F10403C018B7
:1079100068BDF7B504460E460190FFF719FFE76A08
:10792000FB8807F10805E6B1012B22D9294620463C
:10793000FFF7D8FF054629462046FFF7D3FF228EE2
:107940003A44121A0146A0EB050602D0284604F07C
:10795000B3FB636B9B1B6363FB88013BFB800126CE
:1079600001E0002BE7D101A8FFF7F8FE304603B095
:10797000F0BD0026F7E700002DE9F0470D4604466C
:107980002F461646FFF7A8FE154B57F8082B236025
:10799000144BE5629A422686984617D1AB889BB273
:1079A000B34213D105EB060A67634FF00009EB8879
:1079B0001FFA89F29BB29A420ED2616B2046FFF702
:1079C00091FF5045606309F10109F0D90023C5F822
:1079D00000806763AE80EB802046BDE8F08700BF83
:1079E000F4CC0D0061AB9CD110B5D1E9002386B079
:1079F0000021044604910AB9D90705D5CDE902232F
:107A00000F4B05930F4B049302AB93E803006A46B8
:107A100082E8030094E8030083E8030092E803008F
:107A2000049A84E80300A168A260059A04911846AC
:107A3000E168E2600591FCF7BBFC204606B010BD92
:107A400021760D00D7750D0007B5054B00936946EB
:107A5000002310300193FFF7C7FF03B05DF804FB6C
:107A6000917A0D0013B5044600F05CF9636AC01A00
:107A7000E368984208D3054B00936946002304F15C
:107A800010000193FFF7B0FF02B010BD917A0D0016
:107A90002DE9F04190F82A3086B00446002B64D1DD
:107AA00000F09CFB002860D000F03CF9636AC01A2B
:107AB00040F2F133984258D9236820465B699847D1
:107AC0000546002851D000F10807012384F828302A
:107AD000384604F07EFB95F80480CDF80480013030
:107AE0002B682B4900933E1833462A483A46FCF748
:107AF0002AFD2B688DF800803246394602A800F036
:107B00009BFF029D6B781BB9012000F08BFCF8E70E
:107B1000002000F0F1FA20B16B7813B900F04EFBB1
:107B2000FAE72B78012B23D11B491A48FCF70BFDF0
:107B3000236800219B6920469847002384F8283059
:107B400000F0F0F86062039C7CB16368013B636005
:107B50005BB9236820469B689847A368013BA360F4
:107B60001BB923682046DB68984706B0BDE8F08162
:107B7000E2680A490748FCF7E6FC094B049304A9AC
:107B8000002304F110000593FFF72EFFD5E700BF97
:107B90005BCC0D0004E503207CCC0D0093CC0D00E4
:107BA000657A0D00014B024A1A60704704E5032014
:107BB000BACC0D0008B5024B1B685B6C019308BD85
:107BC0007402030008B5024B1B685B68019308BD93
:107BD0004802030008B5024B1B68DB68019308BD2F
:107BE0004802030008B5024B1B68DB69019308BD1E
:107BF0004802030008B5024B1B681B6A019308BDCD
:107C00004802030008B5024B1B685B6A019308BD7C
:107C10004802030008B5024B1B689B6A019308BD2C
:107C20004802030008B5024B1B68DB6A019308BDDC
:107C30004802030008B5024B1B681B6B019308BD8B
:107C40004802030008B5024B1B689B6B019308BDFB
:107C50004802030008B5024B1B681B6C019308BD6A
:107C60004802030008B5024B1B685B6C019308BD1A
:107C70004802030008B5024B1B689B6C019308BDCA
:107C80004802030008B5024B1B68DB6C019308BD7A
:107C90004802030008B5024B1B685B6D019308BDE9
:107CA0004802030008B5024B1B689B6D019308BD99
:107CB0004802030008B5024B1B68DB6E019308BD48
:107CC0004802030008B5024B1B681B6F019308BDF7
:107CD0004802030008B5024B1B685B6E019308BDA8
:107CE0003402030008B5024B1B68DB6E019308BD2C
:107CF0003402030008B5024B1B685B68019308BDA2
:107D00001802030008B5024B1B689B68019308BD6D
:107D10001802030008B5024B1B68DB68019308BD1D
:107D20001802030008B5024B1B685B69019308BD8C
:107D30001802030008B5024B1B689B6D019308BD38
:107D40001802030008B5024B1B68DB6D019308BDE8
:107D50001802030008B5024B1B685B6E019308BD57
:107D60001802030008B5024B1B689B6E019308BD07
:107D70001802030008B5024B1B681B68019308BD7D
:107D80002C02030008B5024B1B685B68019308BD19
:107D90002C02030008B5024B1B689B68019308BDC9
:107DA0002C02030008B5024B1B68DB68019308BD79
:107DB0002C02030008B5024B1B681B69019308BD28
:107DC0002C02030008B5024B1B685B69019308BDD8
:107DD0002C02030008B5024B1B689B69019308BD88
:107DE0002C02030008B5024B1B68DB69019308BD38
:107DF0002C02030008B5024B1B681B6B019308BDE6
:107E00002C02030008B5024B1B68DB68019308BD18
:107E10002802030008B5024B1B689B69019308BD4B
:107E20002802030008B5024B1B68DB69019308BDFB
:107E30002802030008B5024B1B681B6A019308BDAA
:107E40002802030008B5024B1B685B6A019308BD5A
:107E50002802030008B5024B1B689B6A019308BD0A
:107E60002802030008B5024B1B68DB6A019308BDBA
:107E70002802030008B5024B1B681B6B019308BD69
:107E80002802030008B5024B1B685B6B019308BD19
:107E90002802030008B5024B1B681B6C019308BD48
:107EA0002802030008B5024B1B689B6C019308BDB8
:107EB0002802030008B5024B1B68DB6C019308BD68
:107EC0002802030008B5024B1B681B6D019308BD17
:107ED0002802030008B5024B1B685B69019308BDCB
:107EE0006402030008B5024B1B689B68019308BD40
:107EF0006802030008B5024B1B68DB68019308BDEC
:107F00006802030008B5024B1B68DB69019308BDDA
:107F10003002030008B5024B1B681B6A019308BDC1
:107F20003002030008B5024B1B681B68019308BDB3
:107F30003C02030008B5024B1B689B68019308BD17
:107F40003C02030008B5024B1B68DB68019308BDC7
:107F50003C02030008B5024B1B681B69019308BD76
:107F60003C02030008B5024B1B685B69019308BD26
:107F70003C02030008B5024B1B689B69019308BDD6
:107F80003C02030008B5024B1B68DB69019308BD86
:107F90003C02030008B5024B1B681B6A019308BD35
:107FA0003C02030008B5024B1B689B6A019308BDA5
:107FB0003C02030008B5024B1B68DB6A019308BD55
:107FC0003C02030008B5024B1B681B68019308BD07
:107FD0004C02030008B5024B1B685B68019308BDA7
:107FE0004C02030008B5024B1B689B68019308BD57
:107FF0004C02030008B5024B1B681B69019308BDC6
:108000004C02030008B5024B1B685B69019308BD75
:108010004C02030008B5024B1B689B69019308BD25
:108020004C02030008B5024B1B68DB69019308BDD5
:108030004C02030008B5024B1B681B6A019308BD84
:108040004C02030008B5024B1B685B6B019308BD33
:108050006002030008B5024B1B681B6D019308BD4D
:108060006002030008B5024B1B685B6D019308BDFD
:108070006002030008B5024B1B68DB6E019308BD6C
:108080006002030008B5024B1B681B6F019308BD1B
:108090006002030008B5034B1B68D3F898300193C6
:1080A00008BD00006002030008B5024B1B681B6896
:1080B000019308BD2002030008B5024B1B685B68F2
:1080C000019308BD2002030008B5024B1B685B69E1
:1080D000019308BD2002030008B5024B1B681B6A10
:1080E000019308BD2002030008B5024B1B68DB6A40
:1080F000019308BD2002030008B5024B1B68DB6C2E
:10810000019308BD2002030008B5024B1B685B6D9C
:10811000019308BD2002030008B5024B1B689B6D4C
:10812000019308BD2002030008B5024B1B68DB6DFC
:10813000019308BD2002030008B5034B1B68D3F868
:108140008830019308BD00002002030008B5034BEE
:108150001B68D3F89430019308BD0000200203008F
:1081600008B5034B1B68D3F8A830019308BD000085
:108170002002030008B5034B1B68D3F8AC30019311
:1081800008BD00002002030008B5034B1B68D3F8AC
:10819000B030019308BD00002002030008B5024B77
:1081A0001B681B68019308BD4402030008B5024B1D
:1081B0001B685B68019308BD4402030008B5024BCD
:1081C0001B689B68019308BD4402030008B5024B7D
:1081D0001B68DB68019308BD4402030008B5024B2D
:1081E0001B685B69019308BD4402030008B5024B9C
:1081F0001B68DB69019308BD4402030008B5024B0C
:108200001B681B6A019308BD4402030008B5024BBA
:108210001B685B6A019308BD4402030008B5024B6A
:108220001B68DB6A019308BD4402030008B5024BDA
:108230001B681B6B019308BD4402030008B5024B89
:108240001B685B6B019308BD4402030008B5024B39
:108250001B689B6B019308BD4402030008B5024BE9
:108260001B68DB6B019308BD4402030008B5024B99
:108270001B685B6C019308BD4402030008B5024B08
:108280001B685B68019308BD4002030008B5024B00
:108290001B689B68019308BD4002030008B5024BB0
:1082A0001B68DB68019308BD4002030008B5024B60
:1082B0001B681B69019308BD4002030008B5024B0F
:1082C0001B685B69019308BD4002030008B5024BBF
:1082D0001B689B69019308BD4002030008B5024B6F
:1082E0001B68DB69019308BD4002030008B5024B1F
:1082F0001B681B6A019308BD4002030008B5024BCE
:108300001B681B6B019308BD4002030008B5024BBC
:108310001B685B6B019308BD4002030008B5024B6C
:108320001B681B6C019308BD4002030008B5024B9B
:108330001B685B6C019308BD4002030008B5024B4B
:108340001B681B68019308BD1C02030008B5024BA3
:108350001B685B68019308BD1C02030008B5024B53
:108360001B689B68019308BD1C02030008B5024B03
:108370001B681B69019308BD1C02030008B5024B72
:108380001B68DB69019308BD1C02030008B5024BA2
:108390001B685B6A019308BD1C02030008B5024B11
:1083A0001B68DB6A019308BD1C02030008B5024B81
:1083B0001B681B6B019308BD1C02030008B5024B30
:1083C0001B685B6C019308BD1C02030008B5024BDF
:1083D0001B689B6C019308BD1C02030008B5024B8F
:1083E0001B68DB6C019308BD1C02030008B5024B3F
:1083F0001B681B6D019308BD1C02030008B5024BEE
:108400001B685B6D019308BD1C0203008A4210B516
:1084100007D0029C401AE41A6043521A90FBF2F013
:10842000184410BD0021FFF74FBE10B58368044605
:108430000BB903F04CF9C3689847A3681BB103223A
:1084400021462046984720461021BDE8104003F001
:1084500038B910B5036804469B689847A368013B88
:10846000A3602BB923682046DB68BDE8104018479D
:1084700010BD10B50446006808B1FFF7FBFB2046AD
:1084800010BD0B68036013B15A6801325A6070471F
:1084900010B50446006828B14368013B43600BB93E
:1084A000FFF7D7FF204610BD10B5064C002320462D
:1084B0002360FFF7D7FB2046034A0449BDE810407C
:1084C00003F0FAB808E5032020E3032073840D00CD
:1084D000002240681146FFF7E9BE002240681146BD
:1084E000FFF704BF002240681146FFF70FBF406846
:1084F0000022FFF703BF4068002281F00101FFF76F
:10850000EDBE002340681A461946FFF7D7BE002289
:1085100040681146FFF7BABE406800220221FFF70B
:10852000BDBE002340681A46FFF7A8BEF0B51B4B3E
:10853000036000250F4628331826C0E9025589B08C
:108540004360324629460446103003F0CFFD786878
:108550002A462946FFF7AAFE18B9A060204609B0AE
:10856000F0BD2946324602A8CDE9005503F0BEFD14
:1085700002A96846ADF80860FFF71CFB10B10123A3
:10858000A360EBE7009B019AA360E2600BB90223B2
:10859000A36002A9204600F0AEF8DFE758CD0D0039
:1085A000084B10B5282422461846002103F09EFDF2
:1085B000054B04804FF0FF32426004225A60034AA8
:1085C0001A6010BD14E503200CE503201CCD0D003E
:1085D0007047007D704710B52821044603F071F8FC
:1085E000204610BD037D7BB1C369002B0CDB07EE79
:1085F000903A9FED077AF8EEE77A87EE870ADFED8B
:10860000057A20EE270A7047BFEE000A704700BFC8
:1086100000FF7F470000C842037D63B18369B3F167
:10862000004F08D007EE903A9FED047AF8EEE77A13
:1086300087EE870A70479FED020A70470000C84224
:1086400000000000037D7BB1436A002B0CDB07EECA
:10865000903A9FED077AF8EEE77A87EE870ADFED2A
:10866000057A20EE270A7047BFEE000A704700BF68
:1086700000FF7F470000C842037D63B1036AB3F186
:10868000004F08D007EE903A9FED047AF8EEE77AB3
:1086900087EE870A70479FED020A70470000C842C4
:1086A0000000000070B50C1E06460ADA2D2102F00B
:1086B000C8F8614205460A22304602F0D1F8284443
:1086C00070BD21460025F6E770B50C460546816869
:1086D0002046FFF7E7FF2C210646204602F0B1F8BE
:1086E000E96806442046FFF7DDFF304470BDA0F185
:1086F0000400FFF7E9BF30B50D4600F110040FCDBF
:108700000FC495E8030084E80300012030BD7047E2
:108710000020704710B51021044602F0D2FF204619
:1087200010BD08B5FFF7F6FF08BD30B500224FF6C3
:108730009C74026084808D888C800C6885800460C5
:108740000A6030BD10B504460068FFF7FFFD204603
:1087500010BD38B5C468F4B12378022B03D104F1FD
:108760000C00FFF7EFFF656835B12846FBF720FEE8
:108770001021284602F0A5FFA56835B12846FBF771
:1087800017FE1021284602F09CFF20461421BDE868
:10879000384002F096BF38BD10B588B00446684630
:1087A00002F017F9694604A802F05EF904A8A04790
:1087B000044604A802F0C2F8684602F0BFF820465A
:1087C00008B010BD1FB50023CDE9020101921024AD
:1087D0001A4669461846ADF80230ADF80040FFF77A
:1087E000E5FC04B010BD1FB50C23ADF804300368E0
:1087F0008DF80630037A8DF8073043680293002124
:10880000437AADF80D1001A88DF80F108DF80C30DB
:10881000FFF72CFD05B05DF804FB1FB50C22ADF889
:10882000042002688DF80620027A8DF8072042683D
:1088300002920023427A8DF80C20194601AA0220E8
:10884000ADF80D308DF80F30FFF700FD05B05DF885
:1088500004FB73B50E46044656F8043B00930D46E0
:1088600001A83146FFF70DFE019A009B626023606C
:1088700001A8002301930093FFF70AFE3046FFF79B
:1088800007FE2846082102F01CFF204602B070BDFA
:1088900013B50B460246D0E900016C4684E803009C
:1088A00093E8030082E8030094E8030083E80300F0
:1088B00002B010BD826810B50AB902F008FFBDE829
:1088C0001040C368184708B5006800F11001FFF7B1
:1088D000F1FF08BD826810B50AB902F0F8FEBDE8E4
:1088E0001040C368184708B5006800F11001FFF791
:1088F000F1FF08BD38B500230446036010200D4683
:10890000FBF7C9FB28B10123C0E90133024B036027
:10891000C5602060204638BD8CCD0D0038B50023E1
:1089200083608B6804460D462BB102229847EB68A2
:10893000E360AB68A360204638BD0000F0B589B0A5
:1089400004686846FFF7F1FE4FF00203D4E84F2FAA
:10895000002A03D1C4E8413F0029F7D125D104F111
:108960000C0569462846FFF7E0FEBFF35B8F012345
:108970006370002004F10803BFF35B8F53E8006FBE
:1089800043E80002002AF9D1BFF35B8F6EB1FFF715
:10899000B3FB78B129463046FFF78CFF3046FBF732
:1089A00007FD1021304602F08CFE6846FFF7CAFE34
:1089B00009B0F0BD314602A8FFF7B0FFE068B4F996
:1089C000105008B103F0E8FB06901020ADF81C50E1
:1089D000FBF761FB0546E8B1002787601820FBF72D
:1089E0005AFB044688B10146876002A8FFF750FF92
:1089F000049BA268A360059B049206A9E268E36059
:108A000004F110000592FFF790FE084BEB60084B55
:108A10002C60AB6006A8FFF795FE02A8FBF7C8FC28
:108A2000002229460348FFF76FFBB7E7C7880D0010
:108A30005D8B0D002B840D002DE9F0478AB00546B3
:108A40009DF848900C4617469846FFF7C7FB07AEBF
:108A5000824638BB4FF62E73059005A93046ADF817
:108A60001830FFF762FE1420FBF715FB044648B1EF
:108A7000022303700123C0E901AA437031460C3080
:108A8000FFF753FE2846214640F8044BFFF732FF1C
:108A90003046FFF757FE05A8FFF754FE28460AB0F8
:108AA000BDE8F0870C234FF0000A1420CDE908AA96
:108AB0000793FBF7F0FA014628B1C0E901AA80F854
:108AC00000A080F801A004A80391FFF713FF224B38
:108AD00008930820FBF7DFFA824628B1039B40F891
:108AE000043B04A9FFF7CDFC00965FFA89F34246E8
:108AF00039462046CDF824A0FFF780FBB8B9039B88
:108B00005B7803F0FF0293B94FF69C7305A903A8A5
:108B10000592ADF81830FFF711FF05A8FFF712FE18
:108B200005A80999FFF795FE06A8FFF7B1FC039B7E
:108B3000059304A906A8FFF7A4FC059B069A2B60E1
:108B40006A60002306A806930593FFF7A1FC04A81A
:108B5000FFF79EFCA2E700BF218C0D00022AF8B5AA
:108B6000054607D0032A18D0012A01D10B680360FB
:108B70000020F8BD18200E68FBF78DFA044650B1AE
:108B80003146FFF7CBFE3069B6F9147008B103F037
:108B900003FB2061A7822C60EAE70468002CE7D081
:108BA00004F11000FFF7CEFD2046FBF701FC182171
:108BB000204602F086FDDBE738B5002383608B6832
:108BC00004460D462BB102229847EB68E360AB6880
:108BD000A360204638BD022A70B5044607D0032A98
:108BE00012D0012A01D10B680360002070BD14204F
:108BF0000E68FBF750FA054620B13146FFF7DCFF5F
:108C0000337C2B742560F0E70468002CEDD02046FF
:108C1000FBF7CEFB1421204602F053FDE5E70000F0
:108C2000F0B589B004460D4601A81146FFF711FEC4
:108C3000A4B124B21DB1284603F0AEFA054601A83E
:108C400003A90395ADF81040FFF778FE03A8FFF7DE
:108C500079FD02A8FFF71CFC09B0F0BD019D0123BE
:108C6000D5E84F2F002A03D1C5E8413F0029F7D1AD
:108C7000EFD12B73BFF35B8F6B702B1DBFF35B8F3B
:108C800053E8006F43E80042002AF9D1BFF35B8F3D
:108C9000002EDED02046FFF72FFA074660B105F11F
:108CA0000C013046FFF716FE3046FBF781FB102122
:108CB000304602F006FDCCE7314603A8FFF77CFF03
:108CC0002B7B8DF81C301020FBF7E5F90546D0B161
:108CD00087601420FBF7DFF9044678B1876001460E
:108CE00003A8FFF7D5FD059BA268A360069B05922C
:108CF000E268E3609DF81C3006922374064BEB603B
:108D0000064B2C60AB6003A8FBF752FB0022294600
:108D10000348FFF7F9F9C7E7E7880D00D78B0D0087
:108D20002B840D00002240681146FFF7DFBA0022B5
:108D300040681146FFF7EABA40680022FFF7DEBA42
:108D40004068002281F00101FFF7C8BA00234068A3
:108D50001A461946FFF7BABA002340681A46194660
:108D6000FFF7ACBA002240681146FFF79FBA002215
:108D700040681146FFF78ABA406800220221FFF7D7
:108D80008DBA002340681A46FFF778BA024B0322D7
:108D90005A60024A1A6070473CE50320A8CD0D00D6
:108DA000006800F05DB910B50446016002710AB1B7
:108DB000FFF7F6FF204610BD13B50446019102F0FF
:108DC00053FC019A01462046FFF7EDFF204602B012
:108DD00010BD006800F04DB910B5037904460BB121
:108DE000FFF7F7FF204610BD2DE9FF4104460D4671
:108DF00017461E46FFF7D4FF36238DF800300023B8
:108E0000206801934FF001080A23694603938DF807
:108E1000088000F006F92068036829469B68984797
:108E20002068414600F015F9054640B16FF09F05F6
:108E30002046FFF7CEFF284604B0BDE8F0810223AC
:108E400020680193694600F0B9F80228EED1206845
:108E500003685B6998473870206803685B699847C6
:108E60003070E5E713460A460C21FFF7BDBF2DE938
:108E7000FF41164604461D460F46FFF791FF362375
:108E80008DF800300023206801934FF001080A2379
:108E9000694603938DF8088000F0C3F820680368E2
:108EA00039469B6898472068036831469B68984715
:108EB0002068036829469B6898474146206800F06F
:108EC000C8F8002820460CBF00256FF09F05FFF76B
:108ED00080FF284604B0BDE8F08108B54022002399
:108EE0000621FFF7C4FF00EAE07008BD37B505466C
:108EF000FFF756FF00230DF107020DF1060128468A
:108F00008DF806308DF80730FFF7ACFF041E0BDB41
:108F10009DF807309DF8062003F07F030C212846BA
:108F2000FFF7A5FF00EAE0742846FFF752FF20464E
:108F300003B030BD7047F8B5064615460C468F188D
:108F4000BC4206D0336814F8011B9B683046984732
:108F5000F6E72846F8BD007C0022FEF76BBF007CD8
:108F60000021FEF76FBF007C0021FEF773BF007C7D
:108F70000021FEF777BF007C0021FEF77BBF10B514
:108F80001421044602F09DFB204610BD10B54FF49D
:108F90007A73044608460021C4E90113034B236099
:108FA00020741146FEF776FF204610BDE4CD0D007B
:108FB0000023007C1A461946FEF724BF7FB5002225
:108FC0001423CDE90122ADF804300B788DF8083078
:108FD0004B680393CB680493007C0B7A059301A93B
:108FE000FEF770FF07B05DF804FB1FB5003B8DF87E
:108FF00000104FF06401039118BF012369460192EC
:109000008DF80830FFF7DAFF05B05DF804FB0123A7
:10901000FFF7EBBF007C0022FEF7FCBEC9B2FFF7F2
:10902000F9BF7FB50023CDE901334A6803921423C9
:10903000CA68ADF804300B7804920A7A0592007C75
:109040008DF8083001AA1946FEF7E4FE07B05DF876
:1090500004FB007C0022FEF7E5BE0121FFF7F9BF0B
:1090600008B50021007CFEF71DFFB0FA80F0400932
:1090700008BD08B50021007CFEF71CFFB0FA80F0A7
:10908000400908BD004700002DE9FF4100241D46AE
:109090000F4690460646FEF7A5FEA5424FF0040394
:1090A000ADF80D408DF80C308DF80F40A2BF9DF843
:1090B00028308DF80E3003AC0749009443463A46F9
:1090C0003046A8BF8DF80D50FEF784FEB0FA80F050
:1090D000400904B0BDE8F08185900D00F8B5044664
:1090E000FEF780FE054670B9084F57F8246046B178
:1090F0003046FBF75DF91021304602F0E2FA47F8FE
:109100002450012000E00020F8BD00BF44E503200A
:10911000704710B51821044602F0D3FA204610BD5E
:10912000F0B5037D062B8DB00E4600F104074FF01D
:10913000000412D000F1080515F8011D0A2230467E
:1091400001F08EFBAF42044419D0002CF4D02E2144
:10915000304601F076FB0444EEE72F236A46394699
:109160000A208DF80040FEF7B5FE684603F031F89E
:1091700033680246DB686946304698470446204615
:109180000DB0F0BD10B5054B0446112240F8043B6C
:10919000002102F0ABFF204610BD00BF0CCE0D0039
:1091A0000346074A10B543F8042B01F1100251F8A9
:1091B000044B43F8044B9142F9D10A781A7010BD60
:1091C0000CCE0D0010B59DF8084044EA032343EA95
:1091D000024242EA016104234160037510BD13B5E8
:1091E000CB7800938B784A780978FFF7EBFF02B0D1
:1091F00010BD00F11003012213F8101C01291846BC
:1092000008D153F8041C02EB4102013A03F11003A8
:10921000F2D17047022904BF53F8041C5218F4E736
:109220000EB4F0B588B000AF07F13405102155F841
:10923000042B7A6004462B467818FD60FFF7A6F8E9
:109240000F287A681AD900F1080323F007036E4645
:10925000ADEB030D411C2B466846FD60FFF796F809
:10926000021E04DD236869469B6820469847B54680
:109270002037BD46BDE8F04003B070470028F7D066
:10928000236802469B6807F1100120469847EFE7E4
:1092900010B5036804469B689847A368013BA36028
:1092A0002BB923682046DB68BDE81040184710BD85
:1092B00007B503688DF807109B6801220DF10701BF
:1092C000984703B05DF804FB38B50B6803604D6840
:1092D00043689D4204460CD015B16B6801336B6046
:1092E000606828B14368013B43600BB9FFF7D0FFCA
:1092F0006560204638BD0B461146002210B5C0E916
:109300000022044683600BB9204610BDFFF7DCFF46
:10931000FAE78368EBB11A78032A1AD8DFE802F07B
:109320000417021B0520704702685B685268D05C16
:109330002D2812D0A0F13003092B0ED974280ED09D
:1093400066280CD0A0F16E035842584170470620A1
:1093500070470020704704207047032070470220A8
:10936000704710B50446FFF7D4FF02280ED0C31E85
:10937000DBB2012B14D82268A36850685B68BDE893
:1093800010400A220021184402F0DEBF2268A368C0
:1093900052685B68D05CA0F174035842584110BD1C
:1093A0000020FCE738B50023C0E9003304460E482E
:1093B000C4E90203A9B10B78032B06D08BB913685B
:1093C00058684B68C35C6E2B07D013684D685868AB
:1093D0008B6828445B1BA060E36011462046FFF7C2
:1093E00073FF204638BD00BF75CE0D0038B500258F
:1093F0000B46C0E90055C0E90255C0E904550446D2
:1094000011464BB11A78012A06D103F11002DB682C
:1094100082604361FFF758FF204638BD10B54369AD
:10942000044663B18068E060013B1030A0602061B9
:10943000636113B1FFF7DDFEA060012000E0184674
:1094400010BD10B57D210446FFF732FF01232371C3
:10945000204610BD08B50379012B02D0022B04D0A1
:1094600008BD2C21FFF724FFFAE73A21FAE710B5EF
:109470000446FFF7EFFF20467B21FFF719FF00238B
:109480002371204610BD000013B504460191FFF77B
:10949000E1FF2368019ADB680349204698470123CE
:1094A0002046237102B010BDF8C90D0013B5044663
:1094B0000191FFF7CFFF2368019ADB68034920463B
:1094C000984701232046237102B010BDE7CB0D0061
:1094D0002DE9F0410D4617462221DFF8A080044611
:1094E0002F44FFF7E5FE2946BD422A4638D015F83D
:1094F000016B222E03D05C2E01D01F2EF4D82368DE
:10950000521A9B68204698475C212046FFF7D0FE00
:109510000D2E0AD8072E1CD9A6F10803052B18D842
:10952000DFE803F00D0F11171315222E01D05C2E6A
:109530000FD131462046FFF7BBFE2946D4E7622112
:10954000F8E77421F6E76E21F4E76621F2E772216D
:10955000F0E723683246DB68414620469847ECE74F
:109560008D4204D023686A1A9B68204698472221BE
:109570002046FFF79DFEBDE8F08100BF18CE0D002C
:1095800013B50446CDE90021FFF764FF2046DDE96D
:109590000021FFF79DFF02232046237102B010BD7A
:1095A00013B50446CDE90021FFF754FF2046DDE95D
:1095B0000021FFF78DFF01232046237102B010BD6B
:1095C00080680368DB6818477047084611B10B686C
:1095D0005B681847704770477047704738B5044656
:1095E0000D4600682E2102F0BAFD2368C31A2B60D5
:1095F00023B1037803B1013023682060184638BDD9
:1096000010B50C21044602F05CF8204610BD10B5E0
:109610000421044602F055F8204610BD10B504217F
:10962000044602F04EF8204610BD08B502F0A1FD38
:10963000B0FA80F0400908BD10B50C4601F056FEA6
:10964000844210D001F0C6FD844205D101F0C2FD74
:10965000BDE8104001F0BBBD2CB1236820465B681B
:10966000BDE81040184710BD13B5044608460191E7
:1096700002F0AFFD01990246204602B0BDE810405D
:10968000FFF78EBF13B504460846019102F0A1FD15
:1096900023680199DB680246204602B0BDE810400D
:1096A000184707B503688DF80710DB6801220DF134
:1096B0000701984703B05DF804FB0EB403B503AB94
:1096C000002153F8042B006A019301F0E7F802B07F
:1096D0005DF804EB03B070472DE9F74FD0E9009532
:1096E0004FF0140808FB05F50093AB10184D174612
:1096F0005D434C46002D23DD6E1008FB06F004EBA5
:10970000000A3A46BAF804B0205801915F4528BFD4
:109710005A4602F066FD0199012378B95F4503D1ED
:10972000009A13703546E5E78CBF01200020002821
:10973000F8D0AE1B0AF11404013EF3E7C00FF6E7C0
:10974000A4EB09040248A410604303B0BDE8F08F05
:10975000CDCCCCCC7FB50369067E01910BB301B3B0
:10976000002500F10C04039503A901A8FFF736FFBB
:109770000146B0B10DF10B03039A8DF80B50204652
:10978000FFF7AAFF9DF80B305BB12468142303FB9D
:10979000004000F10804B0F90630002BA8BFDEB28B
:1097A000E2E7304604B070BD10B50A4C2378BFF331
:1097B0005B8FDB070BD42046FAF77EFC38B12046DE
:1097C000FAF77FFC044A0549054801F075FF044893
:1097D00010BD00BFD8E5032020E30320D9950D007C
:1097E000A4E2032010B50A4C2378BFF35B8FDB079C
:1097F0000BD42046FAF760FC38B12046FAF761FC3A
:10980000044A0549054801F057FF044810BD00BF50
:10981000DCE5032020E30320D7950D00A8E2032018
:1098200038B500250446C0E90055C0E904558560F7
:10983000856140F8245FFEF715FAFFF7B5FFE06198
:10984000FFF7D0FF25732062204638BD10B50B4CC2
:109850002378BFF35B8FDB070ED42046FAF72CFC8E
:1098600050B10748FFF7DCFF2046FAF72AFC054A0B
:109870000549034801F020FF014810BDD4E503204D
:10988000E4E5032020E30320E19C0D00024A0349A4
:1098900003480023FEF7F6BBBD9B0D00499B0D005E
:1098A000C99A0D0000231A4619461846FEF7EABB6E
:1098B00037B50D6951F8043B0093044601A8FEF743
:1098C000E0FD6A4629462046FFF715FD01A8FEF790
:1098D000DFFD204603B030BD37B58D6851F8043B3D
:1098E0000093044601A8FEF7CCFD6A4629462046AF
:1098F000FFF77CFD01A8FEF7CBFD204603B030BD8D
:1099000037B5CD6851F8043B0093044601A8FEF733
:10991000B8FD6A4629462046FFF744FD01A8FEF738
:10992000B7FD204603B030BD70B58AB00D46014684
:1099300004A8FFF7D1FF144E04A8FFF76FFDE8B1AC
:1099400004A96846FFF7DCFF02983146FFF76DFE79
:10995000044610B12C1E18BF012401A8FEF798FD83
:10996000002CE9D004A96846FFF7A2FF6846FFF77C
:10997000F8FC286001A8FEF78BFDDDE705A8FEF7DF
:1099800087FD0AB070BD00BF1ECE0D0037B50C4676
:1099900020461249154602F0ECFB48B901F0A6FC3E
:1099A0004FF4165101F092FC01F0A0FC03B030BD61
:1099B0000B49204602F0DDFB70B94FF4165301A9A4
:1099C00028460193FFF7B0FF01F004FC019901F074
:1099D000FBFB01F0FFFBE9E70020E7E723CE0D00EA
:1099E0002ACE0D0070B5D0E900531426044606FBBC
:1099F0000356AE4205D005F10800FFF7F3FF14351A
:109A0000F7E72068FEF7A2FC204670BD70B5D0E9EC
:109A10000053044605EB0316AE4204D0284600F07E
:109A20008DFF1035F8E72068FEF790FC204670BDEA
:109A300010B504460C30FFF7D5FF2046FFF7E6FFD0
:109A4000204610BD10B5044B044640F8043BFFF718
:109A5000EFFF204610BD00BFA4C80D0010B504469E
:109A6000FFF7F0FF2046242101F02BFE204610BD19
:109A700010B5034B03600446FFF7E4FF204610BD1A
:109A8000C4CE0D0010B50446FFF7F2FF2046242196
:109A900001F017FE204610BD0022C0E9002210B5DB
:109AA00082600C6804604C6844608C680A604A609C
:109AB00084608A6010BD10B5036804461868FEF71C
:109AC000E9F8204610BD00002DE9F04F87B0804630
:109AD00003931C4B5B68C3F30803894616466BB9B6
